{
	"abi": [
		{
			"type": "function",
			"name": "UPGRADE_INTERFACE_VERSION",
			"inputs": [],
			"outputs": [
				{
					"name": "",
					"type": "string",
					"internalType": "string"
				}
			],
			"stateMutability": "view"
		},
		{
			"type": "function",
			"name": "activeValidatorsCount",
			"inputs": [],
			"outputs": [
				{
					"name": "",
					"type": "uint256",
					"internalType": "uint256"
				}
			],
			"stateMutability": "view"
		},
		{
			"type": "function",
			"name": "addValidator",
			"inputs": [
				{
					"name": "addr",
					"type": "address",
					"internalType": "address"
				},
				{
					"name": "blsPublicKey",
					"type": "bytes",
					"internalType": "bytes"
				},
				{
					"name": "isResigned",
					"type": "bool",
					"internalType": "bool"
				}
			],
			"outputs": [],
			"stateMutability": "nonpayable"
		},
		{
			"type": "function",
			"name": "addVotes",
			"inputs": [
				{
					"name": "voters",
					"type": "address[]",
					"internalType": "address[]"
				},
				{
					"name": "validators",
					"type": "address[]",
					"internalType": "address[]"
				}
			],
			"outputs": [],
			"stateMutability": "nonpayable"
		},
		{
			"type": "function",
			"name": "calculateActiveValidators",
			"inputs": [
				{
					"name": "n",
					"type": "uint8",
					"internalType": "uint8"
				}
			],
			"outputs": [],
			"stateMutability": "nonpayable"
		},
		{
			"type": "function",
			"name": "getActiveValidators",
			"inputs": [],
			"outputs": [
				{
					"name": "",
					"type": "tuple[]",
					"internalType": "struct ConsensusV1.Validator[]",
					"components": [
						{
							"name": "addr",
							"type": "address",
							"internalType": "address"
						},
						{
							"name": "data",
							"type": "tuple",
							"internalType": "struct ConsensusV1.ValidatorData",
							"components": [
								{
									"name": "votersCount",
									"type": "uint256",
									"internalType": "uint256"
								},
								{
									"name": "voteBalance",
									"type": "uint256",
									"internalType": "uint256"
								},
								{
									"name": "isResigned",
									"type": "bool",
									"internalType": "bool"
								},
								{
									"name": "blsPublicKey",
									"type": "bytes",
									"internalType": "bytes"
								}
							]
						}
					]
				}
			],
			"stateMutability": "view"
		},
		{
			"type": "function",
			"name": "getAllValidators",
			"inputs": [],
			"outputs": [
				{
					"name": "",
					"type": "tuple[]",
					"internalType": "struct ConsensusV1.Validator[]",
					"components": [
						{
							"name": "addr",
							"type": "address",
							"internalType": "address"
						},
						{
							"name": "data",
							"type": "tuple",
							"internalType": "struct ConsensusV1.ValidatorData",
							"components": [
								{
									"name": "votersCount",
									"type": "uint256",
									"internalType": "uint256"
								},
								{
									"name": "voteBalance",
									"type": "uint256",
									"internalType": "uint256"
								},
								{
									"name": "isResigned",
									"type": "bool",
									"internalType": "bool"
								},
								{
									"name": "blsPublicKey",
									"type": "bytes",
									"internalType": "bytes"
								}
							]
						}
					]
				}
			],
			"stateMutability": "view"
		},
		{
			"type": "function",
			"name": "getRounds",
			"inputs": [
				{
					"name": "offset",
					"type": "uint256",
					"internalType": "uint256"
				},
				{
					"name": "count",
					"type": "uint256",
					"internalType": "uint256"
				}
			],
			"outputs": [
				{
					"name": "",
					"type": "tuple[]",
					"internalType": "struct ConsensusV1.Round[]",
					"components": [
						{
							"name": "round",
							"type": "uint256",
							"internalType": "uint256"
						},
						{
							"name": "validators",
							"type": "tuple[]",
							"internalType": "struct ConsensusV1.RoundValidator[]",
							"components": [
								{
									"name": "addr",
									"type": "address",
									"internalType": "address"
								},
								{
									"name": "voteBalance",
									"type": "uint256",
									"internalType": "uint256"
								}
							]
						}
					]
				}
			],
			"stateMutability": "view"
		},
		{
			"type": "function",
			"name": "getRoundsCount",
			"inputs": [],
			"outputs": [
				{
					"name": "",
					"type": "uint256",
					"internalType": "uint256"
				}
			],
			"stateMutability": "view"
		},
		{
			"type": "function",
			"name": "getValidator",
			"inputs": [
				{
					"name": "addr",
					"type": "address",
					"internalType": "address"
				}
			],
			"outputs": [
				{
					"name": "",
					"type": "tuple",
					"internalType": "struct ConsensusV1.Validator",
					"components": [
						{
							"name": "addr",
							"type": "address",
							"internalType": "address"
						},
						{
							"name": "data",
							"type": "tuple",
							"internalType": "struct ConsensusV1.ValidatorData",
							"components": [
								{
									"name": "votersCount",
									"type": "uint256",
									"internalType": "uint256"
								},
								{
									"name": "voteBalance",
									"type": "uint256",
									"internalType": "uint256"
								},
								{
									"name": "isResigned",
									"type": "bool",
									"internalType": "bool"
								},
								{
									"name": "blsPublicKey",
									"type": "bytes",
									"internalType": "bytes"
								}
							]
						}
					]
				}
			],
			"stateMutability": "view"
		},
		{
			"type": "function",
			"name": "getVotes",
			"inputs": [
				{
					"name": "addr",
					"type": "address",
					"internalType": "address"
				},
				{
					"name": "count",
					"type": "uint256",
					"internalType": "uint256"
				}
			],
			"outputs": [
				{
					"name": "",
					"type": "tuple[]",
					"internalType": "struct ConsensusV1.VoteResult[]",
					"components": [
						{
							"name": "voter",
							"type": "address",
							"internalType": "address"
						},
						{
							"name": "validator",
							"type": "address",
							"internalType": "address"
						}
					]
				}
			],
			"stateMutability": "view"
		},
		{
			"type": "function",
			"name": "getVotesCount",
			"inputs": [],
			"outputs": [
				{
					"name": "",
					"type": "uint256",
					"internalType": "uint256"
				}
			],
			"stateMutability": "view"
		},
		{
			"type": "function",
			"name": "initialize",
			"inputs": [],
			"outputs": [],
			"stateMutability": "nonpayable"
		},
		{
			"type": "function",
			"name": "isValidatorRegistered",
			"inputs": [
				{
					"name": "addr",
					"type": "address",
					"internalType": "address"
				}
			],
			"outputs": [
				{
					"name": "",
					"type": "bool",
					"internalType": "bool"
				}
			],
			"stateMutability": "view"
		},
		{
			"type": "function",
			"name": "owner",
			"inputs": [],
			"outputs": [
				{
					"name": "",
					"type": "address",
					"internalType": "address"
				}
			],
			"stateMutability": "view"
		},
		{
			"type": "function",
			"name": "proxiableUUID",
			"inputs": [],
			"outputs": [
				{
					"name": "",
					"type": "bytes32",
					"internalType": "bytes32"
				}
			],
			"stateMutability": "view"
		},
		{
			"type": "function",
			"name": "registerValidator",
			"inputs": [
				{
					"name": "blsPublicKey",
					"type": "bytes",
					"internalType": "bytes"
				}
			],
			"outputs": [],
			"stateMutability": "nonpayable"
		},
		{
			"type": "function",
			"name": "registeredValidatorsCount",
			"inputs": [],
			"outputs": [
				{
					"name": "",
					"type": "uint256",
					"internalType": "uint256"
				}
			],
			"stateMutability": "view"
		},
		{
			"type": "function",
			"name": "renounceOwnership",
			"inputs": [],
			"outputs": [],
			"stateMutability": "nonpayable"
		},
		{
			"type": "function",
			"name": "resignValidator",
			"inputs": [],
			"outputs": [],
			"stateMutability": "nonpayable"
		},
		{
			"type": "function",
			"name": "resignedValidatorsCount",
			"inputs": [],
			"outputs": [
				{
					"name": "",
					"type": "uint256",
					"internalType": "uint256"
				}
			],
			"stateMutability": "view"
		},
		{
			"type": "function",
			"name": "transferOwnership",
			"inputs": [
				{
					"name": "newOwner",
					"type": "address",
					"internalType": "address"
				}
			],
			"outputs": [],
			"stateMutability": "nonpayable"
		},
		{
			"type": "function",
			"name": "unvote",
			"inputs": [],
			"outputs": [],
			"stateMutability": "nonpayable"
		},
		{
			"type": "function",
			"name": "updateValidator",
			"inputs": [
				{
					"name": "blsPublicKey",
					"type": "bytes",
					"internalType": "bytes"
				}
			],
			"outputs": [],
			"stateMutability": "nonpayable"
		},
		{
			"type": "function",
			"name": "updateVoters",
			"inputs": [
				{
					"name": "voters",
					"type": "address[]",
					"internalType": "address[]"
				}
			],
			"outputs": [],
			"stateMutability": "nonpayable"
		},
		{
			"type": "function",
			"name": "upgradeToAndCall",
			"inputs": [
				{
					"name": "newImplementation",
					"type": "address",
					"internalType": "address"
				},
				{
					"name": "data",
					"type": "bytes",
					"internalType": "bytes"
				}
			],
			"outputs": [],
			"stateMutability": "payable"
		},
		{
			"type": "function",
			"name": "version",
			"inputs": [],
			"outputs": [
				{
					"name": "",
					"type": "uint256",
					"internalType": "uint256"
				}
			],
			"stateMutability": "pure"
		},
		{
			"type": "function",
			"name": "vote",
			"inputs": [
				{
					"name": "addr",
					"type": "address",
					"internalType": "address"
				}
			],
			"outputs": [],
			"stateMutability": "nonpayable"
		},
		{
			"type": "event",
			"name": "Initialized",
			"inputs": [
				{
					"name": "version",
					"type": "uint64",
					"indexed": false,
					"internalType": "uint64"
				}
			],
			"anonymous": false
		},
		{
			"type": "event",
			"name": "OwnershipTransferred",
			"inputs": [
				{
					"name": "previousOwner",
					"type": "address",
					"indexed": true,
					"internalType": "address"
				},
				{
					"name": "newOwner",
					"type": "address",
					"indexed": true,
					"internalType": "address"
				}
			],
			"anonymous": false
		},
		{
			"type": "event",
			"name": "Unvoted",
			"inputs": [
				{
					"name": "voter",
					"type": "address",
					"indexed": false,
					"internalType": "address"
				},
				{
					"name": "validator",
					"type": "address",
					"indexed": false,
					"internalType": "address"
				}
			],
			"anonymous": false
		},
		{
			"type": "event",
			"name": "Upgraded",
			"inputs": [
				{
					"name": "implementation",
					"type": "address",
					"indexed": true,
					"internalType": "address"
				}
			],
			"anonymous": false
		},
		{
			"type": "event",
			"name": "ValidatorRegistered",
			"inputs": [
				{
					"name": "addr",
					"type": "address",
					"indexed": false,
					"internalType": "address"
				},
				{
					"name": "blsPublicKey",
					"type": "bytes",
					"indexed": false,
					"internalType": "bytes"
				}
			],
			"anonymous": false
		},
		{
			"type": "event",
			"name": "ValidatorResigned",
			"inputs": [
				{
					"name": "addr",
					"type": "address",
					"indexed": false,
					"internalType": "address"
				}
			],
			"anonymous": false
		},
		{
			"type": "event",
			"name": "ValidatorUpdated",
			"inputs": [
				{
					"name": "addr",
					"type": "address",
					"indexed": false,
					"internalType": "address"
				},
				{
					"name": "blsPublicKey",
					"type": "bytes",
					"indexed": false,
					"internalType": "bytes"
				}
			],
			"anonymous": false
		},
		{
			"type": "event",
			"name": "Voted",
			"inputs": [
				{
					"name": "voter",
					"type": "address",
					"indexed": false,
					"internalType": "address"
				},
				{
					"name": "validator",
					"type": "address",
					"indexed": false,
					"internalType": "address"
				}
			],
			"anonymous": false
		},
		{
			"type": "error",
			"name": "AddressEmptyCode",
			"inputs": [
				{
					"name": "target",
					"type": "address",
					"internalType": "address"
				}
			]
		},
		{
			"type": "error",
			"name": "AlreadyVoted",
			"inputs": []
		},
		{
			"type": "error",
			"name": "BellowMinValidators",
			"inputs": []
		},
		{
			"type": "error",
			"name": "BlsKeyAlreadyRegistered",
			"inputs": []
		},
		{
			"type": "error",
			"name": "BlsKeyIsInvalid",
			"inputs": []
		},
		{
			"type": "error",
			"name": "CallerIsNotValidator",
			"inputs": []
		},
		{
			"type": "error",
			"name": "ERC1967InvalidImplementation",
			"inputs": [
				{
					"name": "implementation",
					"type": "address",
					"internalType": "address"
				}
			]
		},
		{
			"type": "error",
			"name": "ERC1967NonPayable",
			"inputs": []
		},
		{
			"type": "error",
			"name": "FailedCall",
			"inputs": []
		},
		{
			"type": "error",
			"name": "ImportIsNotAllowed",
			"inputs": []
		},
		{
			"type": "error",
			"name": "InvalidInitialization",
			"inputs": []
		},
		{
			"type": "error",
			"name": "InvalidParameters",
			"inputs": []
		},
		{
			"type": "error",
			"name": "InvalidRange",
			"inputs": [
				{
					"name": "min",
					"type": "uint256",
					"internalType": "uint256"
				},
				{
					"name": "max",
					"type": "uint256",
					"internalType": "uint256"
				}
			]
		},
		{
			"type": "error",
			"name": "MissingVote",
			"inputs": []
		},
		{
			"type": "error",
			"name": "NoActiveValidators",
			"inputs": []
		},
		{
			"type": "error",
			"name": "NotInitializing",
			"inputs": []
		},
		{
			"type": "error",
			"name": "OwnableInvalidOwner",
			"inputs": [
				{
					"name": "owner",
					"type": "address",
					"internalType": "address"
				}
			]
		},
		{
			"type": "error",
			"name": "OwnableUnauthorizedAccount",
			"inputs": [
				{
					"name": "account",
					"type": "address",
					"internalType": "address"
				}
			]
		},
		{
			"type": "error",
			"name": "UUPSUnauthorizedCallContext",
			"inputs": []
		},
		{
			"type": "error",
			"name": "UUPSUnsupportedProxiableUUID",
			"inputs": [
				{
					"name": "slot",
					"type": "bytes32",
					"internalType": "bytes32"
				}
			]
		},
		{
			"type": "error",
			"name": "ValidatorAlreadyRegistered",
			"inputs": []
		},
		{
			"type": "error",
			"name": "ValidatorAlreadyResigned",
			"inputs": []
		},
		{
			"type": "error",
			"name": "ValidatorNotRegistered",
			"inputs": []
		},
		{
			"type": "error",
			"name": "VoteResignedValidator",
			"inputs": []
		},
		{
			"type": "error",
			"name": "VoteSameValidator",
			"inputs": []
		},
		{
			"type": "error",
			"name": "VoteValidatorWithoutBlsPublicKey",
			"inputs": []
		}
	],
	"bytecode": {
		"object": "0x60a0604052306080523480156012575f5ffd5b506080516139706100395f395f81816120bf015281816120e8015261222701526139705ff3fe6080604052600436106101af575f3560e01c80637c8a92c3116100e7578063b85f5da211610087578063eb9019d411610062578063eb9019d4146104a2578063f1bd0b37146104ce578063f2fde38b146104e2578063f3513a3714610501575f5ffd5b8063b85f5da214610440578063d04a68c714610454578063e9257dc814610483575f5ffd5b80638da5cb5b116100c25780638da5cb5b146103885780639de70258146103ce578063a09686c4146103ef578063ad3cb1cc14610403575f5ffd5b80637c8a92c3146103365780638129fc1c14610355578063857861db14610369575f5ffd5b80634f1ef286116101525780635a8eed731161012d5780635a8eed73146102c5578063602a9eee146102e45780636dd7d8ea14610303578063715018a614610322575f5ffd5b80634f1ef2861461028b57806352d1902d1461029e57806354fd4d50146102b2575f5ffd5b80631b605b861161018d5780631b605b86146102165780632bdf6d431461022a5780633174b6891461024b57806340f74f471461025f575f5ffd5b80630777cbef146101b35780630d2bd909146101d65780631904bb2e146101ea575b5f5ffd5b3480156101be575f5ffd5b506005545b6040519081526020015b60405180910390f35b3480156101e1575f5ffd5b50600d546101c3565b3480156101f5575f5ffd5b506102096102043660046130ca565b610515565b6040516101cd9190613189565b348015610221575f5ffd5b506009546101c3565b348015610235575f5ffd5b506102496102443660046131e2565b610630565b005b348015610256575f5ffd5b5061024961067e565b34801561026a575f5ffd5b5061027e610279366004613220565b6106cd565b6040516101cd9190613240565b61024961029936600461330d565b610860565b3480156102a9575f5ffd5b506101c361087f565b3480156102bd575f5ffd5b5060016101c3565b3480156102d0575f5ffd5b506102496102df36600461340b565b61089a565b3480156102ef575f5ffd5b506102496102fe36600461340b565b610926565b34801561030e575f5ffd5b5061024961031d3660046130ca565b610ab4565b34801561032d575f5ffd5b50610249610d32565b348015610341575f5ffd5b5061024961035036600461343d565b610d45565b348015610360575f5ffd5b50610249610f84565b348015610374575f5ffd5b506102496103833660046134a2565b61107b565b348015610393575f5ffd5b507f9016d09d72d40fdae2fd8ceac6b6234c7706214fd39c1cd1e609a0528c199300546040516001600160a01b0390911681526020016101cd565b3480156103d9575f5ffd5b506103e2611614565b6040516101cd91906134c2565b3480156103fa575f5ffd5b50600f546101c3565b34801561040e575f5ffd5b50610433604051806040016040528060058152602001640352e302e360dc1b81525081565b6040516101cd9190613519565b34801561044b575f5ffd5b506102496117b4565b34801561045f575f5ffd5b5061047361046e3660046130ca565b61189d565b60405190151581526020016101cd565b34801561048e575f5ffd5b5061024961049d36600461352b565b6118ba565b3480156104ad575f5ffd5b506104c16104bc366004613595565b611976565b6040516101cd91906135bd565b3480156104d9575f5ffd5b506004546101c3565b3480156104ed575f5ffd5b506102496104fc3660046130ca565b611b77565b34801561050c575f5ffd5b506103e2611bb4565b61051d612fd4565b6105268261189d565b6105435760405163510b8aad60e11b815260040160405180910390fd5b6040805180820182526001600160a01b0384168082525f908152602081815290839020835160808101855281548152600182015481840152600282015460ff161515948101949094526003810180549394928501936060840191906105a790613617565b80601f01602080910402602001604051908101604052809291908181526020018280546105d390613617565b801561061e5780601f106105f55761010080835404028352916020019161061e565b820191905f5260205f20905b81548152906001019060200180831161060157829003601f168201915b50505091909252505050905292915050565b610638611d4e565b5f5b818110156106795761067183838381811061065757610657613649565b905060200201602081019061066c91906130ca565b611da9565b60010161063a565b505050565b7f6572af8bf9a0a86efb88dcc30011626a15c9c4603503aa4466a3f87a1867deef336106a8611e89565b604080516001600160a01b0393841681529290911660208301520160405180910390a1565b60606106d7611d4e565b600f54829084106106e957505f61070d565b600f546106f68486613671565b111561070d57600f5461070a908590613684565b90505b5f816001600160401b03811115610726576107266132f9565b60405190808252806020026020018201604052801561076b57816020015b604080518082019091525f8152606060208201528152602001906001900390816107445790505b5090505f5b82811015610855576040518060400160405280828861078f9190613671565b61079a906001613671565b8152602001600f6107ab848a613671565b815481106107bb576107bb613649565b905f5260205f2001805480602002602001604051908101604052809291908181526020015f905b82821015610829575f848152602090819020604080518082019091526002850290910180546001600160a01b031682526001908101548284015290835290920191016107e2565b5050505081525082828151811061084257610842613649565b6020908102919091010152600101610770565b509150505b92915050565b6108686120b4565b61087182612158565b61087b8282612160565b5050565b5f61088861221c565b505f51602061391b5f395f51905f5290565b6108a33361189d565b6108c05760405163510b8aad60e11b815260040160405180910390fd5b6108ca8282612265565b335f9081526020819052604090206003016108e68284836136db565b507f4af0b5984c9f88659d661fb64dcb63a5b946809cf1c78a8c6e0f6ef93c91703233838360405161091a93929190613794565b60405180910390a15050565b335f9081526001602052604090205460ff16156109565760405163132e7efb60e31b815260040160405180910390fd5b6109608282612265565b5f60405180608001604052805f81526020015f81526020015f1515815260200184848080601f0160208091040260200160405190810160405280939291908181526020018383808284375f9201829052509390945250506004805493945091506109c9836137d3565b9091555050335f908152600160208181526040808420805460ff19908116851790915584835293819020855181559185015192820192909255908301516002820180549093169015151790915560608201518291906003820190610a2d90826137eb565b5050600380546001810182555f919091527fc2575a0e9e593c00f959f8c92f12db2869c3395a3b0502d05e2516446f71f85b0180546001600160a01b031916339081179091556040517f61809fa303a3a57f4d70552f533f3e0b003173d424590cd4bb22a2afe000990c9250610aa7919086908690613794565b60405180910390a1505050565b610abd8161189d565b610ada5760405163510b8aad60e11b815260040160405180910390fd5b6001600160a01b0381165f908152602081905260409020600281015460ff1615610b175760405163510ae2bd60e11b815260040160405180910390fd5b806003018054610b2690613617565b90505f03610b475760405163970c784d60e01b815260040160405180910390fd5b335f90815260066020526040902080546001600160a01b03848116911603610b8257604051630d41c52760e01b815260040160405180910390fd5b80546001600160a01b031615610b9c57610b9a611e89565b505b604080516080810182526001600160a01b03808616825233803160208085019182525f85870181815260608701828152948252600690925295909520935184549084166001600160a01b03199182161785559051600185015593516002840180549184169186169190911790555160039092018054928216929093169190911790915560075416610c4e5760078054336001600160a01b03199182168117909255600880549091169091179055610ca5565b600880546001600160a01b039081165f9081526006602052604080822060030180546001600160a01b0319908116339081179092558554828552929093206002018054841692909416919091179092558254161790555b60098054905f610cb4836137d3565b9190505550336001600160a01b031631826001015f828254610cd69190613671565b9091555050815460019083905f90610cef908490613671565b9091555050604080513381526001600160a01b03851660208201527fce0c7a2a940807f7dc2ce7a615c2532e915e6c0ac9a08bc4ed9d515a710a53e29101610aa7565b610d3a611d4e565b610d435f6122d9565b565b610d4d611d4e565b600f5415610d6e576040516349625b3b60e01b815260040160405180910390fd5b6001600160a01b0384165f9081526001602052604090205460ff1615610da75760405163132e7efb60e31b815260040160405180910390fd5b60025f8484604051610dba9291906138a5565b604080519182900390912082526020820192909252015f205460ff1615610df457604051637e4c066f60e01b815260040160405180910390fd5b8115610e0457610e048383612265565b5f60405180608001604052805f81526020015f8152602001831515815260200185858080601f0160208091040260200160405190810160405280939291908181526020018383808284375f920182905250939094525050600480549394509150610e6d836137d3565b90915550506001600160a01b0385165f908152600160208181526040808420805460ff19908116851790915584835293819020855181559185015192820192909255908301516002820180549093169015151790915560608201518291906003820190610eda90826137eb565b5050600380546001810182555f919091527fc2575a0e9e593c00f959f8c92f12db2869c3395a3b0502d05e2516446f71f85b0180546001600160a01b0319166001600160a01b038816179055508115610f425760058054905f610f3c836137d3565b91905055505b7f61809fa303a3a57f4d70552f533f3e0b003173d424590cd4bb22a2afe000990c858585604051610f7593929190613794565b60405180910390a15050505050565b5f610f8d612349565b805490915060ff600160401b82041615906001600160401b03165f81158015610fb35750825b90505f826001600160401b03166001148015610fce5750303b155b905081158015610fdc575080155b15610ffa5760405163f92ee8a960e01b815260040160405180910390fd5b845467ffffffffffffffff19166001178555831561102457845460ff60401b1916600160401b1785555b61102d33612371565b6001600e55831561107457845460ff60401b19168555604051600181527fc7f505b2f371ae2175ee4913f4499e1f2633a7b5936321eed1cdaeb6115181d290602001610f75565b5050505050565b611083611d4e565b8060ff165f036110a657604051630e52390960e41b815260040160405180910390fd5b60ff8116600e556110b76003612382565b6110bf6124d2565b600c80546001600160a01b03191690556005546004545f916110f19160ff85169184916110ec9190613684565b612523565b90508060ff165f03611116576040516367c0fced60e01b815260040160405180910390fd5b5f5b6003548110156113d8575f6003828154811061113657611136613649565b5f9182526020808320909101546001600160a01b031680835290829052604090912060028101549192509060ff168061117d575080600301805461117990613617565b1590505b156111895750506113d0565b600c546001600160a01b03166111c45750600c80546001600160a01b0319166001600160a01b03929092169190911790556001600d556113d0565b8360ff16600d5410156111e2576111db8285612577565b50506113d0565b600c546001600160a01b039081165f9081526020818152604091829020825180840184529386168452825160808101845285548152600186015481840152600286015460ff1615159381019390935260038501805491946113bd9490938401929091879160608401919061125590613617565b80601f016020809104026020016040519081016040528092919081815260200182805461128190613617565b80156112cc5780601f106112a3576101008083540402835291602001916112cc565b820191905f5260205f20905b8154815290600101906020018083116112af57829003601f168201915b505050919092525050509052604080518082018252600c546001600160a01b031681528151608081018352855481526001860154602082810191909152600287015460ff1615159382019390935260038601805492938401928791606084019161133590613617565b80601f016020809104026020016040519081016040528092919081815260200182805461136190613617565b80156113ac5780601f10611383576101008083540402835291602001916113ac565b820191905f5260205f20905b81548152906001019060200180831161138f57829003601f168201915b505050505081525050815250612953565b156113cc576113cc8386612577565b5050505b600101611118565b50600d545f036113fb576040516367c0fced60e01b815260040160405180910390fd5b600c54600d546001600160a01b03909116905f906001600160401b03811115611426576114266132f9565b60405190808252806020026020018201604052801561144f578160200160208202803683370190505b5090505f5b600d548110156114a9578282828151811061147157611471613649565b6001600160a01b039283166020918202929092018101919091529381165f908152600a90945260409093205490921691600101611454565b506114b381612997565b600f80546001810182555f9182527f8d1108e10bcb7c27dddfc02ed9d693a074039d026cf4ea4240b40f7d581ac80201906114f090600b9061301d565b600e546001600160401b0381111561150a5761150a6132f9565b604051908082528060200260200182016040528015611533578160200160208202803683370190505b50805161154891600b91602090910190613038565b505f5b600e5481101561160c575f83600d548361156591906138b4565b8151811061157557611575613649565b6020026020010151905080600b838154811061159357611593613649565b5f918252602080832090910180546001600160a01b039485166001600160a01b0319918216179091556040805180820182529585168087528452838352832060019081015486840190815288548083018a558986529390942095516002909302909501805492909416911617825551908201550161154b565b505050505050565b600b546060905f906001600160401b03811115611633576116336132f9565b60405190808252806020026020018201604052801561166c57816020015b611659612fd4565b8152602001906001900390816116515790505b5090505f5b600b548110156117ae575f600b828154811061168f5761168f613649565b5f9182526020808320909101546001600160a01b031680835282825260409283902083518085018552828152845160808101865282548152600183015481860152600283015460ff16151595810195909552600382018054939650919490938401929091859160608401919061170490613617565b80601f016020809104026020016040519081016040528092919081815260200182805461173090613617565b801561177b5780601f106117525761010080835404028352916020019161177b565b820191905f5260205f20905b81548152906001019060200180831161175e57829003601f168201915b50505050508152505081525084848151811061179957611799613649565b60209081029190910101525050600101611671565b50919050565b6117bd3361189d565b6117da5760405163668191af60e11b815260040160405180910390fd5b335f908152602081905260409020600281015460ff161561180e57604051632d8b5c9760e21b815260040160405180910390fd5b600e546005546004546118219190613684565b1161183f57604051633b15f1f760e21b815260040160405180910390fd5b60028101805460ff19166001908117909155600580545f90611862908490613671565b90915550506040513381527f24250fc1ec78a1405ddd4cc8b75964858af228d05faa8d4bc1302966d8a541179060200160405180910390a150565b6001600160a01b03165f9081526001602052604090205460ff1690565b6118c2611d4e565b82811461190e5760405162461bcd60e51b81526020600482015260156024820152740d2dce0eae840d8cadccee8d040dad2e6dac2e8c6d605b1b60448201526064015b60405180910390fd5b5f5b838110156110745761196e85858381811061192d5761192d613649565b905060200201602081019061194291906130ca565b84848481811061195457611954613649565b905060200201602081019061196991906130ca565b612aae565b600101611910565b6060611980611d4e565b5f61198e835f600954612523565b6001600160401b038111156119a5576119a56132f9565b6040519080825280602002602001820160405280156119e957816020015b604080518082019091525f80825260208201528152602001906001900390816119c35790505b506007549091506001600160a01b0390811690851615611a2257506001600160a01b038085165f90815260066020526040902060030154165b5f5b6001600160a01b03821615801590611a3b57508481105b15611ab0576001600160a01b038083165f818152600660209081526040918290208251808401909352928252825490931692810192909252908483611a7f816137d3565b945081518110611a9157611a91613649565b6020908102919091010152600301546001600160a01b03169150611a24565b80835103611ac35782935050505061085a565b5f816001600160401b03811115611adc57611adc6132f9565b604051908082528060200260200182016040528015611b2057816020015b604080518082019091525f8082526020820152815260200190600190039081611afa5790505b5090505f5b82811015611b6c57848181518110611b3f57611b3f613649565b6020026020010151828281518110611b5957611b59613649565b6020908102919091010152600101611b25565b509695505050505050565b611b7f611d4e565b6001600160a01b038116611ba857604051631e4fbdf760e01b81525f6004820152602401611905565b611bb1816122d9565b50565b6003546060905f906001600160401b03811115611bd357611bd36132f9565b604051908082528060200260200182016040528015611c0c57816020015b611bf9612fd4565b815260200190600190039081611bf15790505b5090505f5b6003548110156117ae575f60038281548110611c2f57611c2f613649565b5f9182526020808320909101546001600160a01b031680835282825260409283902083518085018552828152845160808101865282548152600183015481860152600283015460ff161515958101959095526003820180549396509194909384019290918591606084019190611ca490613617565b80601f0160208091040260200160405190810160405280929190818152602001828054611cd090613617565b8015611d1b5780601f10611cf257610100808354040283529160200191611d1b565b820191905f5260205f20905b815481529060010190602001808311611cfe57829003601f168201915b505050505081525050815250848481518110611d3957611d39613649565b60209081029190910101525050600101611c11565b33611d807f9016d09d72d40fdae2fd8ceac6b6234c7706214fd39c1cd1e609a0528c199300546001600160a01b031690565b6001600160a01b031614610d435760405163118cdaa760e01b8152336004820152602401611905565b6001600160a01b038082165f9081526006602052604090208054909116611dce575050565b60018101546001600160a01b03831631811015611e2f57611df9816001600160a01b03851631613684565b82546001600160a01b03165f9081526020819052604081206001018054909190611e24908490613671565b90915550611e749050565b611e436001600160a01b0384163182613684565b82546001600160a01b03165f9081526020819052604081206001018054909190611e6e908490613684565b90915550505b506001600160a01b0390911631600190910155565b335f90815260066020526040812080546001600160a01b0316611ebf5760405163498ea63d60e01b815260040160405180910390fd5b6008546007546001600160a01b03918216911603611ef857600780546001600160a01b031990811690915560088054909116905561200b565b600854336001600160a01b0390911603611f51576002810180546001600160a01b039081165f90815260066020526040902060030180546001600160a01b0319908116909155915460088054909316911617905561200b565b600754336001600160a01b0390911603611fb5576008546001600160a01b039081165f9081526006602052604080822060020180546001600160a01b031990811690915560078054808616855292909320600301549116921691909117905561200b565b60038181018054600280850180546001600160a01b039081165f9081526006602052604080822090970180549583166001600160a01b031996871617905591549454811682529490200180549290931691161790555b80546001600160a01b03165f818152602081905260408120600180850154908201805492939192909190612040908490613684565b9091555050805460019082905f90612059908490613684565b9091555050335f90815260066020526040812080546001600160a01b03199081168255600182018390556002820180548216905560039091018054909116905560098054916120a7836138d3565b9091555091949350505050565b306001600160a01b037f000000000000000000000000000000000000000000000000000000000000000016148061213a57507f00000000000000000000000000000000000000000000000000000000000000006001600160a01b031661212e5f51602061391b5f395f51905f52546001600160a01b031690565b6001600160a01b031614155b15610d435760405163703e46dd60e11b815260040160405180910390fd5b611bb1611d4e565b816001600160a01b03166352d1902d6040518163ffffffff1660e01b8152600401602060405180830381865afa9250505080156121ba575060408051601f3d908101601f191682019092526121b7918101906138e8565b60015b6121e257604051634c9c8ce360e01b81526001600160a01b0383166004820152602401611905565b5f51602061391b5f395f51905f52811461221257604051632a87526960e21b815260048101829052602401611905565b6106798383612cf1565b306001600160a01b037f00000000000000000000000000000000000000000000000000000000000000001614610d435760405163703e46dd60e11b815260040160405180910390fd5b5f82826040516122769291906138a5565b60408051918290039091205f8181526002602052919091205490915060ff16156122b357604051637e4c066f60e01b815260040160405180910390fd5b6122bd8383612d46565b5f908152600260205260409020805460ff191660011790555050565b7f9016d09d72d40fdae2fd8ceac6b6234c7706214fd39c1cd1e609a0528c19930080546001600160a01b031981166001600160a01b03848116918217845560405192169182907f8be0079c531659141344cd1fd0a4f28419497f9722a3daafe3b4186f6b6457e0905f90a3505050565b5f807ff0c57e16840df040f15088dc2f81fe391c3923bec73e23a9662efc9c229c6a0061085a565b612379612d67565b611bb181612d8c565b80545f819003612390575050565b5f61239c600183613684565b90505b8015610679575f6123b1826001613671565b60408051426020820152908101849052606001604051602081830303815290604052805190602001205f1c6123e691906138b4565b90505f8483815481106123fb576123fb613649565b5f9182526020909120015485546001600160a01b03909116915085908390811061242757612427613649565b905f5260205f20015f9054906101000a90046001600160a01b031685848154811061245457612454613649565b905f5260205f20015f6101000a8154816001600160a01b0302191690836001600160a01b031602179055508085838154811061249257612492613649565b905f5260205f20015f6101000a8154816001600160a01b0302191690836001600160a01b03160217905550505080806124ca906138d3565b91505061239f565b600c546001600160a01b03165b6001600160a01b0381161561251c576001600160a01b039081165f908152600a6020526040902080546001600160a01b03198116909155166124df565b505f600d55565b5f8183111561254f57604051632457cde760e01b81526004810184905260248101839052604401611905565b8284101561255e575081612570565b8184111561256d575080612570565b50825b9392505050565b6001600160a01b0382165f90815260208181526040808320815160808101835281548152600182015493810193909352600281015460ff161515918301919091526003810180546060840191906125cd90613617565b80601f01602080910402602001604051908101604052809291908181526020018280546125f990613617565b80156126445780601f1061261b57610100808354040283529160200191612644565b820191905f5260205f20905b81548152906001019060200180831161262757829003601f168201915b505050919092525050604080518082018252600c546001600160a01b03168082525f908152602081815290839020835160808101855281548152600182015481840152600282015460ff16151594810194909452600381018054969750612763969395509185019392909160608401916126bd90613617565b80601f01602080910402602001604051908101604052809291908181526020018280546126e990613617565b80156127345780601f1061270b57610100808354040283529160200191612734565b820191905f5260205f20905b81548152906001019060200180831161271757829003601f168201915b5050505050815250508152506040518060400160405280866001600160a01b0316815260200184815250612953565b156127765761277183612d94565b6128f4565b600c546001600160a01b039081165f818152600a6020526040902054909116905b6001600160a01b0382166127b4576127af8186612de5565b6128f1565b6040805180820182526001600160a01b0384168082525f908152602081815290839020835160808101855281548152600182015481840152600282015460ff161515948101949094526003810180546128c195938501939291606084019161281b90613617565b80601f016020809104026020016040519081016040528092919081815260200182805461284790613617565b80156128925780601f1061286957610100808354040283529160200191612892565b820191905f5260205f20905b81548152906001019060200180831161287557829003601f168201915b5050505050815250508152506040518060400160405280886001600160a01b0316815260200186815250612953565b156128d0576127af8186612de5565b506001600160a01b038082165f908152600a60205260409020541690612797565b50505b8160ff16600d54111561067957600c80546001600160a01b039081165f908152600a6020526040812080546001600160a01b03198082169092558454931692168217909255600d80549192612948836138d3565b919050555050505050565b5f816020015160200151836020015160200151036129835750805182516001600160a01b0391821691161061085a565b506020908101518101519181015101511190565b80515f8190036129a5575050565b5f6129b1600183613684565b90505b8015610679575f6129c6826001613671565b60408051426020820152908101849052606001604051602081830303815290604052805190602001205f1c6129fb91906138b4565b90505f848381518110612a1057612a10613649565b60200260200101519050848281518110612a2c57612a2c613649565b6020026020010151858481518110612a4657612a46613649565b60200260200101906001600160a01b031690816001600160a01b03168152505080858381518110612a7957612a79613649565b60200260200101906001600160a01b031690816001600160a01b03168152505050508080612aa6906138d3565b9150506129b4565b600f5415612acf576040516349625b3b60e01b815260040160405180910390fd5b612ad88161189d565b612af55760405163510b8aad60e11b815260040160405180910390fd5b6001600160a01b038083165f908152600660205260409020805490911615612b3057604051637c9a1cf960e01b815260040160405180910390fd5b604080516080810182526001600160a01b038085168252858116803160208085019182525f85870181815260608701828152948252600690925295909520935184549084166001600160a01b03199182161785559051600185015593516002840180549184169186169190911790555160039092018054928216929093169190911790915560075416612bed57600780546001600160a01b0385166001600160a01b03199182168117909255600880549091169091179055612c45565b600880546001600160a01b039081165f9081526006602052604080822060030180548489166001600160a01b031991821681179092558554828552929093206002018054841692909416919091179092558254161790555b60098054905f612c54836137d3565b90915550506001600160a01b038083165f9081526020819052604081206001810180549193871631929091612c8a908490613671565b9091555050805460019082905f90612ca3908490613671565b9091555050604080516001600160a01b038087168252851660208201527fce0c7a2a940807f7dc2ce7a615c2532e915e6c0ac9a08bc4ed9d515a710a53e2910160405180910390a150505050565b612cfa82612e43565b6040516001600160a01b038316907fbc7cd75a20ee27fd9adebab32041f755214dbc6bffa90cc0225b39da2e5c2d3b905f90a2805115612d3e576106798282612ea6565b61087b612f18565b6030811461087b576040516305db9dbd60e01b815260040160405180910390fd5b612d6f612f37565b610d4357604051631afcd79f60e31b815260040160405180910390fd5b611b7f612d67565b600c80546001600160a01b038381165f818152600a602052604081208054939094166001600160a01b031993841617909355835490911617909155600d805491612ddd836137d3565b919050555050565b6001600160a01b038281165f818152600a602052604080822080548686168085529284208054919096166001600160a01b03199182161790955592825282549093169092179055600d805491612e3a836137d3565b91905055505050565b806001600160a01b03163b5f03612e7857604051634c9c8ce360e01b81526001600160a01b0382166004820152602401611905565b5f51602061391b5f395f51905f5280546001600160a01b0319166001600160a01b0392909216919091179055565b60605f5f846001600160a01b031684604051612ec291906138ff565b5f60405180830381855af49150503d805f8114612efa576040519150601f19603f3d011682016040523d82523d5f602084013e612eff565b606091505b5091509150612f0f858383612f50565b95945050505050565b3415610d435760405163b398979f60e01b815260040160405180910390fd5b5f612f40612349565b54600160401b900460ff16919050565b606082612f6557612f6082612fac565b612570565b8151158015612f7c57506001600160a01b0384163b155b15612fa557604051639996b31560e01b81526001600160a01b0385166004820152602401611905565b5080612570565b805115612fbb57805160208201fd5b60405163d6bda27560e01b815260040160405180910390fd5b60405180604001604052805f6001600160a01b0316815260200161301860405180608001604052805f81526020015f81526020015f15158152602001606081525090565b905290565b5080545f8255905f5260205f2090810190611bb1919061309b565b828054828255905f5260205f2090810192821561308b579160200282015b8281111561308b57825182546001600160a01b0319166001600160a01b03909116178255602090920191600190910190613056565b5061309792915061309b565b5090565b5b80821115613097575f815560010161309c565b80356001600160a01b03811681146130c5575f5ffd5b919050565b5f602082840312156130da575f5ffd5b612570826130af565b5f5b838110156130fd5781810151838201526020016130e5565b50505f910152565b5f815180845261311c8160208601602086016130e3565b601f01601f19169290920160200192915050565b60018060a01b0381511682525f602082015160406020850152805160408501526020810151606085015260408101511515608085015260608101519050608060a085015261318160c0850182613105565b949350505050565b602081525f6125706020830184613130565b5f5f83601f8401126131ab575f5ffd5b5081356001600160401b038111156131c1575f5ffd5b6020830191508360208260051b85010111156131db575f5ffd5b9250929050565b5f5f602083850312156131f3575f5ffd5b82356001600160401b03811115613208575f5ffd5b6132148582860161319b565b90969095509350505050565b5f5f60408385031215613231575f5ffd5b50508035926020909101359150565b5f602082016020835280845180835260408501915060408160051b8601019250602086015f5b828110156132ed57868503603f19018452815180518652602090810151604082880181905281519088018190529101905f9060608801905b808310156132d557835180516001600160a01b0316835260209081015181840152909301926001929092019160409091019061329e565b50965050506020938401939190910190600101613266565b50929695505050505050565b634e487b7160e01b5f52604160045260245ffd5b5f5f6040838503121561331e575f5ffd5b613327836130af565b915060208301356001600160401b03811115613341575f5ffd5b8301601f81018513613351575f5ffd5b80356001600160401b0381111561336a5761336a6132f9565b604051601f8201601f19908116603f011681016001600160401b0381118282101715613398576133986132f9565b6040528181528282016020018710156133af575f5ffd5b816020840160208301375f602083830101528093505050509250929050565b5f5f83601f8401126133de575f5ffd5b5081356001600160401b038111156133f4575f5ffd5b6020830191508360208285010111156131db575f5ffd5b5f5f6020838503121561341c575f5ffd5b82356001600160401b03811115613431575f5ffd5b613214858286016133ce565b5f5f5f5f60608587031215613450575f5ffd5b613459856130af565b935060208501356001600160401b03811115613473575f5ffd5b61347f878288016133ce565b90945092505060408501358015158114613497575f5ffd5b939692955090935050565b5f602082840312156134b2575f5ffd5b813560ff81168114612570575f5ffd5b5f602082016020835280845180835260408501915060408160051b8601019250602086015f5b828110156132ed57603f19878603018452613504858351613130565b945060209384019391909101906001016134e8565b602081525f6125706020830184613105565b5f5f5f5f6040858703121561353e575f5ffd5b84356001600160401b03811115613553575f5ffd5b61355f8782880161319b565b90955093505060208501356001600160401b0381111561357d575f5ffd5b6135898782880161319b565b95989497509550505050565b5f5f604083850312156135a6575f5ffd5b6135af836130af565b946020939093013593505050565b602080825282518282018190525f918401906040840190835b8181101561360c57835180516001600160a01b0390811685526020918201511681850152909301926040909201916001016135d6565b509095945050505050565b600181811c9082168061362b57607f821691505b6020821081036117ae57634e487b7160e01b5f52602260045260245ffd5b634e487b7160e01b5f52603260045260245ffd5b634e487b7160e01b5f52601160045260245ffd5b8082018082111561085a5761085a61365d565b8181038181111561085a5761085a61365d565b601f82111561067957805f5260205f20601f840160051c810160208510156136bc5750805b601f840160051c820191505b81811015611074575f81556001016136c8565b6001600160401b038311156136f2576136f26132f9565b613706836137008354613617565b83613697565b5f601f841160018114613737575f85156137205750838201355b5f19600387901b1c1916600186901b178355611074565b5f83815260208120601f198716915b828110156137665786850135825560209485019460019092019101613746565b5086821015613782575f1960f88860031b161c19848701351681555b505060018560011b0183555050505050565b6001600160a01b03841681526040602082018190528101829052818360608301375f818301606090810191909152601f909201601f1916010192915050565b5f600182016137e4576137e461365d565b5060010190565b81516001600160401b03811115613804576138046132f9565b613818816138128454613617565b84613697565b6020601f82116001811461384a575f83156138335750848201515b5f19600385901b1c1916600184901b178455611074565b5f84815260208120601f198516915b828110156138795787850151825560209485019460019092019101613859565b508482101561389657868401515f19600387901b60f8161c191681555b50505050600190811b01905550565b818382375f9101908152919050565b5f826138ce57634e487b7160e01b5f52601260045260245ffd5b500690565b5f816138e1576138e161365d565b505f190190565b5f602082840312156138f8575f5ffd5b5051919050565b5f82516139108184602087016130e3565b919091019291505056fe360894a13ba1a3210667c828492db98dca3e2076cc3735a920a3ca505d382bbca26469706673582212209f3c460b7f355a8ecda9fa9896dc6e429f6423d36ee33a6f0e1b639cfc3b222464736f6c634300081b0033",
		"linkReferences": {}
	},
	"methodIdentifiers": {
		"UPGRADE_INTERFACE_VERSION()": "ad3cb1cc",
		"activeValidatorsCount()": "0d2bd909",
		"addValidator(address,bytes,bool)": "7c8a92c3",
		"addVotes(address[],address[])": "e9257dc8",
		"calculateActiveValidators(uint8)": "857861db",
		"getActiveValidators()": "9de70258",
		"getAllValidators()": "f3513a37",
		"getRounds(uint256,uint256)": "40f74f47",
		"getRoundsCount()": "a09686c4",
		"getValidator(address)": "1904bb2e",
		"getVotes(address,uint256)": "eb9019d4",
		"getVotesCount()": "1b605b86",
		"initialize()": "8129fc1c",
		"isValidatorRegistered(address)": "d04a68c7",
		"owner()": "8da5cb5b",
		"proxiableUUID()": "52d1902d",
		"registerValidator(bytes)": "602a9eee",
		"registeredValidatorsCount()": "f1bd0b37",
		"renounceOwnership()": "715018a6",
		"resignValidator()": "b85f5da2",
		"resignedValidatorsCount()": "0777cbef",
		"transferOwnership(address)": "f2fde38b",
		"unvote()": "3174b689",
		"updateValidator(bytes)": "5a8eed73",
		"updateVoters(address[])": "2bdf6d43",
		"upgradeToAndCall(address,bytes)": "4f1ef286",
		"version()": "54fd4d50",
		"vote(address)": "6dd7d8ea"
	},
	"id": 33
}