{
	"abi": [
		{
			"type": "function",
			"name": "UPGRADE_INTERFACE_VERSION",
			"inputs": [],
			"outputs": [
				{
					"name": "",
					"type": "string",
					"internalType": "string"
				}
			],
			"stateMutability": "view"
		},
		{
			"type": "function",
			"name": "activeValidatorsCount",
			"inputs": [],
			"outputs": [
				{
					"name": "",
					"type": "uint256",
					"internalType": "uint256"
				}
			],
			"stateMutability": "view"
		},
		{
			"type": "function",
			"name": "addValidator",
			"inputs": [
				{
					"name": "addr",
					"type": "address",
					"internalType": "address"
				},
				{
					"name": "blsPublicKey",
					"type": "bytes",
					"internalType": "bytes"
				},
				{
					"name": "isResigned",
					"type": "bool",
					"internalType": "bool"
				}
			],
			"outputs": [],
			"stateMutability": "nonpayable"
		},
		{
			"type": "function",
			"name": "addVotes",
			"inputs": [
				{
					"name": "voters",
					"type": "address[]",
					"internalType": "address[]"
				},
				{
					"name": "validators",
					"type": "address[]",
					"internalType": "address[]"
				}
			],
			"outputs": [],
			"stateMutability": "nonpayable"
		},
		{
			"type": "function",
			"name": "calculateRoundValidators",
			"inputs": [
				{
					"name": "n",
					"type": "uint8",
					"internalType": "uint8"
				}
			],
			"outputs": [],
			"stateMutability": "nonpayable"
		},
		{
			"type": "function",
			"name": "fee",
			"inputs": [],
			"outputs": [
				{
					"name": "",
					"type": "uint256",
					"internalType": "uint256"
				}
			],
			"stateMutability": "view"
		},
		{
			"type": "function",
			"name": "getAllValidators",
			"inputs": [],
			"outputs": [
				{
					"name": "",
					"type": "tuple[]",
					"internalType": "struct ConsensusV1.Validator[]",
					"components": [
						{
							"name": "addr",
							"type": "address",
							"internalType": "address"
						},
						{
							"name": "data",
							"type": "tuple",
							"internalType": "struct ConsensusV1.ValidatorData",
							"components": [
								{
									"name": "voteBalance",
									"type": "uint256",
									"internalType": "uint256"
								},
								{
									"name": "fee",
									"type": "uint128",
									"internalType": "uint128"
								},
								{
									"name": "votersCount",
									"type": "uint64",
									"internalType": "uint64"
								},
								{
									"name": "isResigned",
									"type": "bool",
									"internalType": "bool"
								},
								{
									"name": "blsPublicKey",
									"type": "bytes",
									"internalType": "bytes"
								}
							]
						}
					]
				}
			],
			"stateMutability": "view"
		},
		{
			"type": "function",
			"name": "getRoundValidators",
			"inputs": [],
			"outputs": [
				{
					"name": "",
					"type": "tuple[]",
					"internalType": "struct ConsensusV1.Validator[]",
					"components": [
						{
							"name": "addr",
							"type": "address",
							"internalType": "address"
						},
						{
							"name": "data",
							"type": "tuple",
							"internalType": "struct ConsensusV1.ValidatorData",
							"components": [
								{
									"name": "voteBalance",
									"type": "uint256",
									"internalType": "uint256"
								},
								{
									"name": "fee",
									"type": "uint128",
									"internalType": "uint128"
								},
								{
									"name": "votersCount",
									"type": "uint64",
									"internalType": "uint64"
								},
								{
									"name": "isResigned",
									"type": "bool",
									"internalType": "bool"
								},
								{
									"name": "blsPublicKey",
									"type": "bytes",
									"internalType": "bytes"
								}
							]
						}
					]
				}
			],
			"stateMutability": "view"
		},
		{
			"type": "function",
			"name": "getRounds",
			"inputs": [
				{
					"name": "offset",
					"type": "uint256",
					"internalType": "uint256"
				},
				{
					"name": "count",
					"type": "uint256",
					"internalType": "uint256"
				}
			],
			"outputs": [
				{
					"name": "",
					"type": "tuple[]",
					"internalType": "struct ConsensusV1.Round[]",
					"components": [
						{
							"name": "round",
							"type": "uint256",
							"internalType": "uint256"
						},
						{
							"name": "validators",
							"type": "tuple[]",
							"internalType": "struct ConsensusV1.RoundValidator[]",
							"components": [
								{
									"name": "addr",
									"type": "address",
									"internalType": "address"
								},
								{
									"name": "voteBalance",
									"type": "uint256",
									"internalType": "uint256"
								}
							]
						}
					]
				}
			],
			"stateMutability": "view"
		},
		{
			"type": "function",
			"name": "getRoundsCount",
			"inputs": [],
			"outputs": [
				{
					"name": "",
					"type": "uint256",
					"internalType": "uint256"
				}
			],
			"stateMutability": "view"
		},
		{
			"type": "function",
			"name": "getValidator",
			"inputs": [
				{
					"name": "addr",
					"type": "address",
					"internalType": "address"
				}
			],
			"outputs": [
				{
					"name": "",
					"type": "tuple",
					"internalType": "struct ConsensusV1.Validator",
					"components": [
						{
							"name": "addr",
							"type": "address",
							"internalType": "address"
						},
						{
							"name": "data",
							"type": "tuple",
							"internalType": "struct ConsensusV1.ValidatorData",
							"components": [
								{
									"name": "voteBalance",
									"type": "uint256",
									"internalType": "uint256"
								},
								{
									"name": "fee",
									"type": "uint128",
									"internalType": "uint128"
								},
								{
									"name": "votersCount",
									"type": "uint64",
									"internalType": "uint64"
								},
								{
									"name": "isResigned",
									"type": "bool",
									"internalType": "bool"
								},
								{
									"name": "blsPublicKey",
									"type": "bytes",
									"internalType": "bytes"
								}
							]
						}
					]
				}
			],
			"stateMutability": "view"
		},
		{
			"type": "function",
			"name": "getVotes",
			"inputs": [
				{
					"name": "addr",
					"type": "address",
					"internalType": "address"
				},
				{
					"name": "count",
					"type": "uint256",
					"internalType": "uint256"
				}
			],
			"outputs": [
				{
					"name": "",
					"type": "tuple[]",
					"internalType": "struct ConsensusV1.VoteResult[]",
					"components": [
						{
							"name": "voter",
							"type": "address",
							"internalType": "address"
						},
						{
							"name": "validator",
							"type": "address",
							"internalType": "address"
						}
					]
				}
			],
			"stateMutability": "view"
		},
		{
			"type": "function",
			"name": "getVotesCount",
			"inputs": [],
			"outputs": [
				{
					"name": "",
					"type": "uint256",
					"internalType": "uint256"
				}
			],
			"stateMutability": "view"
		},
		{
			"type": "function",
			"name": "initialize",
			"inputs": [
				{
					"name": "registrationFee",
					"type": "uint128",
					"internalType": "uint128"
				}
			],
			"outputs": [],
			"stateMutability": "nonpayable"
		},
		{
			"type": "function",
			"name": "isValidatorRegistered",
			"inputs": [
				{
					"name": "addr",
					"type": "address",
					"internalType": "address"
				}
			],
			"outputs": [
				{
					"name": "",
					"type": "bool",
					"internalType": "bool"
				}
			],
			"stateMutability": "view"
		},
		{
			"type": "function",
			"name": "owner",
			"inputs": [],
			"outputs": [
				{
					"name": "",
					"type": "address",
					"internalType": "address"
				}
			],
			"stateMutability": "view"
		},
		{
			"type": "function",
			"name": "proxiableUUID",
			"inputs": [],
			"outputs": [
				{
					"name": "",
					"type": "bytes32",
					"internalType": "bytes32"
				}
			],
			"stateMutability": "view"
		},
		{
			"type": "function",
			"name": "registerValidator",
			"inputs": [
				{
					"name": "blsPublicKey",
					"type": "bytes",
					"internalType": "bytes"
				}
			],
			"outputs": [],
			"stateMutability": "payable"
		},
		{
			"type": "function",
			"name": "renounceOwnership",
			"inputs": [],
			"outputs": [],
			"stateMutability": "nonpayable"
		},
		{
			"type": "function",
			"name": "resignValidator",
			"inputs": [],
			"outputs": [],
			"stateMutability": "nonpayable"
		},
		{
			"type": "function",
			"name": "resignedValidatorsCount",
			"inputs": [],
			"outputs": [
				{
					"name": "",
					"type": "uint256",
					"internalType": "uint256"
				}
			],
			"stateMutability": "view"
		},
		{
			"type": "function",
			"name": "roundValidatorsCount",
			"inputs": [],
			"outputs": [
				{
					"name": "",
					"type": "uint256",
					"internalType": "uint256"
				}
			],
			"stateMutability": "view"
		},
		{
			"type": "function",
			"name": "setFee",
			"inputs": [
				{
					"name": "registrationFee",
					"type": "uint128",
					"internalType": "uint128"
				}
			],
			"outputs": [],
			"stateMutability": "nonpayable"
		},
		{
			"type": "function",
			"name": "transferOwnership",
			"inputs": [
				{
					"name": "newOwner",
					"type": "address",
					"internalType": "address"
				}
			],
			"outputs": [],
			"stateMutability": "nonpayable"
		},
		{
			"type": "function",
			"name": "unvote",
			"inputs": [],
			"outputs": [],
			"stateMutability": "nonpayable"
		},
		{
			"type": "function",
			"name": "updateValidator",
			"inputs": [
				{
					"name": "blsPublicKey",
					"type": "bytes",
					"internalType": "bytes"
				}
			],
			"outputs": [],
			"stateMutability": "nonpayable"
		},
		{
			"type": "function",
			"name": "updateVoters",
			"inputs": [
				{
					"name": "voters",
					"type": "address[]",
					"internalType": "address[]"
				}
			],
			"outputs": [],
			"stateMutability": "nonpayable"
		},
		{
			"type": "function",
			"name": "upgradeToAndCall",
			"inputs": [
				{
					"name": "newImplementation",
					"type": "address",
					"internalType": "address"
				},
				{
					"name": "data",
					"type": "bytes",
					"internalType": "bytes"
				}
			],
			"outputs": [],
			"stateMutability": "payable"
		},
		{
			"type": "function",
			"name": "validatorsCount",
			"inputs": [],
			"outputs": [
				{
					"name": "",
					"type": "uint256",
					"internalType": "uint256"
				}
			],
			"stateMutability": "view"
		},
		{
			"type": "function",
			"name": "version",
			"inputs": [],
			"outputs": [
				{
					"name": "",
					"type": "uint256",
					"internalType": "uint256"
				}
			],
			"stateMutability": "pure"
		},
		{
			"type": "function",
			"name": "vote",
			"inputs": [
				{
					"name": "addr",
					"type": "address",
					"internalType": "address"
				}
			],
			"outputs": [],
			"stateMutability": "nonpayable"
		},
		{
			"type": "event",
			"name": "FeeUpdated",
			"inputs": [
				{
					"name": "fee",
					"type": "uint256",
					"indexed": false,
					"internalType": "uint256"
				}
			],
			"anonymous": false
		},
		{
			"type": "event",
			"name": "Initialized",
			"inputs": [
				{
					"name": "version",
					"type": "uint64",
					"indexed": false,
					"internalType": "uint64"
				}
			],
			"anonymous": false
		},
		{
			"type": "event",
			"name": "OwnershipTransferred",
			"inputs": [
				{
					"name": "previousOwner",
					"type": "address",
					"indexed": true,
					"internalType": "address"
				},
				{
					"name": "newOwner",
					"type": "address",
					"indexed": true,
					"internalType": "address"
				}
			],
			"anonymous": false
		},
		{
			"type": "event",
			"name": "Unvoted",
			"inputs": [
				{
					"name": "voter",
					"type": "address",
					"indexed": false,
					"internalType": "address"
				},
				{
					"name": "validator",
					"type": "address",
					"indexed": false,
					"internalType": "address"
				}
			],
			"anonymous": false
		},
		{
			"type": "event",
			"name": "Upgraded",
			"inputs": [
				{
					"name": "implementation",
					"type": "address",
					"indexed": true,
					"internalType": "address"
				}
			],
			"anonymous": false
		},
		{
			"type": "event",
			"name": "ValidatorRegistered",
			"inputs": [
				{
					"name": "addr",
					"type": "address",
					"indexed": false,
					"internalType": "address"
				},
				{
					"name": "blsPublicKey",
					"type": "bytes",
					"indexed": false,
					"internalType": "bytes"
				}
			],
			"anonymous": false
		},
		{
			"type": "event",
			"name": "ValidatorResigned",
			"inputs": [
				{
					"name": "addr",
					"type": "address",
					"indexed": false,
					"internalType": "address"
				}
			],
			"anonymous": false
		},
		{
			"type": "event",
			"name": "ValidatorUpdated",
			"inputs": [
				{
					"name": "addr",
					"type": "address",
					"indexed": false,
					"internalType": "address"
				},
				{
					"name": "blsPublicKey",
					"type": "bytes",
					"indexed": false,
					"internalType": "bytes"
				}
			],
			"anonymous": false
		},
		{
			"type": "event",
			"name": "Voted",
			"inputs": [
				{
					"name": "voter",
					"type": "address",
					"indexed": false,
					"internalType": "address"
				},
				{
					"name": "validator",
					"type": "address",
					"indexed": false,
					"internalType": "address"
				}
			],
			"anonymous": false
		},
		{
			"type": "error",
			"name": "AddressEmptyCode",
			"inputs": [
				{
					"name": "target",
					"type": "address",
					"internalType": "address"
				}
			]
		},
		{
			"type": "error",
			"name": "AlreadyVoted",
			"inputs": []
		},
		{
			"type": "error",
			"name": "BellowMinValidators",
			"inputs": []
		},
		{
			"type": "error",
			"name": "BlsKeyAlreadyRegistered",
			"inputs": []
		},
		{
			"type": "error",
			"name": "BlsKeyIsInvalid",
			"inputs": []
		},
		{
			"type": "error",
			"name": "CallerIsNotValidator",
			"inputs": []
		},
		{
			"type": "error",
			"name": "ERC1967InvalidImplementation",
			"inputs": [
				{
					"name": "implementation",
					"type": "address",
					"internalType": "address"
				}
			]
		},
		{
			"type": "error",
			"name": "ERC1967NonPayable",
			"inputs": []
		},
		{
			"type": "error",
			"name": "FailedCall",
			"inputs": []
		},
		{
			"type": "error",
			"name": "ImportIsNotAllowed",
			"inputs": []
		},
		{
			"type": "error",
			"name": "InvalidFee",
			"inputs": []
		},
		{
			"type": "error",
			"name": "InvalidInitialization",
			"inputs": []
		},
		{
			"type": "error",
			"name": "InvalidParameters",
			"inputs": []
		},
		{
			"type": "error",
			"name": "InvalidRange",
			"inputs": [
				{
					"name": "min",
					"type": "uint256",
					"internalType": "uint256"
				},
				{
					"name": "max",
					"type": "uint256",
					"internalType": "uint256"
				}
			]
		},
		{
			"type": "error",
			"name": "MissingVote",
			"inputs": []
		},
		{
			"type": "error",
			"name": "NoActiveValidators",
			"inputs": []
		},
		{
			"type": "error",
			"name": "NotInitializing",
			"inputs": []
		},
		{
			"type": "error",
			"name": "OwnableInvalidOwner",
			"inputs": [
				{
					"name": "owner",
					"type": "address",
					"internalType": "address"
				}
			]
		},
		{
			"type": "error",
			"name": "OwnableUnauthorizedAccount",
			"inputs": [
				{
					"name": "account",
					"type": "address",
					"internalType": "address"
				}
			]
		},
		{
			"type": "error",
			"name": "RefundFailed",
			"inputs": []
		},
		{
			"type": "error",
			"name": "UUPSUnauthorizedCallContext",
			"inputs": []
		},
		{
			"type": "error",
			"name": "UUPSUnsupportedProxiableUUID",
			"inputs": [
				{
					"name": "slot",
					"type": "bytes32",
					"internalType": "bytes32"
				}
			]
		},
		{
			"type": "error",
			"name": "ValidatorAlreadyRegistered",
			"inputs": []
		},
		{
			"type": "error",
			"name": "ValidatorAlreadyResigned",
			"inputs": []
		},
		{
			"type": "error",
			"name": "ValidatorNotRegistered",
			"inputs": []
		},
		{
			"type": "error",
			"name": "VoteResignedValidator",
			"inputs": []
		},
		{
			"type": "error",
			"name": "VoteSameValidator",
			"inputs": []
		},
		{
			"type": "error",
			"name": "VoteValidatorWithoutBlsPublicKey",
			"inputs": []
		}
	],
	"bytecode": {
		"object": "0x60a0604052306080523480156012575f5ffd5b5060805161409d6100395f395f818161242e015281816124570152612596015261409d5ff3fe6080604052600436106101d0575f3560e01c8063715018a6116100fd578063c5a7444911610092578063eb9019d411610062578063eb9019d414610512578063ed612f8c1461053e578063f2fde38b14610552578063f3513a3714610571575f5ffd5b8063c5a7444914610488578063d04a68c7146104a7578063ddca3f43146104d6578063e9257dc8146104f3575f5ffd5b8063a250eaf1116100cd578063a250eaf114610402578063ad3cb1cc14610423578063b84d356e14610460578063b85f5da214610474575f5ffd5b8063715018a6146103755780637c8a92c3146103895780638da5cb5b146103a8578063a09686c4146103ee575f5ffd5b806340f74f471161017357806356db9ef11161014357806356db9ef1146103055780635a8eed7314610324578063602a9eee146103435780636dd7d8ea14610356575f5ffd5b806340f74f471461029f5780634f1ef286146102cb57806352d1902d146102de57806354fd4d50146102f2575f5ffd5b80631b605b86116101ae5780631b605b86146102375780632bdf6d431461024b5780633174b6891461026c5780633687f24a14610280575f5ffd5b80630777cbef146101d45780630d2bd909146101f75780631904bb2e1461020b575b5f5ffd5b3480156101df575f5ffd5b506006545b6040519081526020015b60405180910390f35b348015610202575f5ffd5b506004546101e4565b348015610216575f5ffd5b5061022a610225366004613763565b610585565b6040516101ee919061383e565b348015610242575f5ffd5b50600a546101e4565b348015610256575f5ffd5b5061026a610265366004613897565b6106c2565b005b348015610277575f5ffd5b5061026a610710565b34801561028b575f5ffd5b5061026a61029a3660046138d5565b61075f565b3480156102aa575f5ffd5b506102be6102b93660046138fb565b6107bc565b6040516101ee919061391b565b61026a6102d93660046139e8565b61094f565b3480156102e9575f5ffd5b506101e461096e565b3480156102fd575f5ffd5b5060016101e4565b348015610310575f5ffd5b5061026a61031f3660046138d5565b610989565b34801561032f575f5ffd5b5061026a61033e366004613ae6565b610aa0565b61026a610351366004613ae6565b610b55565b348015610361575f5ffd5b5061026a610370366004613763565b610d54565b348015610380575f5ffd5b5061026a610fff565b348015610394575f5ffd5b5061026a6103a3366004613b18565b611012565b3480156103b3575f5ffd5b507f9016d09d72d40fdae2fd8ceac6b6234c7706214fd39c1cd1e609a0528c199300546040516001600160a01b0390911681526020016101ee565b3480156103f9575f5ffd5b506011546101e4565b34801561040d575f5ffd5b506104166112a5565b6040516101ee9190613b7d565b34801561042e575f5ffd5b50610453604051806040016040528060058152602001640352e302e360dc1b81525081565b6040516101ee9190613bd4565b34801561046b575f5ffd5b50600e546101e4565b34801561047f575f5ffd5b5061026a611468565b348015610493575f5ffd5b5061026a6104a2366004613be6565b6115ef565b3480156104b2575f5ffd5b506104c66104c1366004613763565b611bbd565b60405190151581526020016101ee565b3480156104e1575f5ffd5b506010546001600160801b03166101e4565b3480156104fe575f5ffd5b5061026a61050d366004613c06565b611bda565b34801561051d575f5ffd5b5061053161052c366004613c70565b611c9d565b6040516101ee9190613c98565b348015610549575f5ffd5b506003546101e4565b34801561055d575f5ffd5b5061026a61056c366004613763565b611e9e565b34801561057c575f5ffd5b50610416611edb565b61058d613655565b61059682611bbd565b6105b35760405163510b8aad60e11b815260040160405180910390fd5b6040805180820182526001600160a01b0384168082525f908152602081815290839020835160a0810185528154815260018201546001600160801b03811682850152600160801b81046001600160401b031695820195909552600160c01b90940460ff161515606085015260028101805493949285019360808401919061063990613cf2565b80601f016020809104026020016040519081016040528092919081815260200182805461066590613cf2565b80156106b05780601f10610687576101008083540402835291602001916106b0565b820191905f5260205f20905b81548152906001019060200180831161069357829003601f168201915b50505091909252505050905292915050565b6106ca612098565b5f5b8181101561070b576107038383838181106106e9576106e9613d24565b90506020020160208101906106fe9190613763565b6120f3565b6001016106cc565b505050565b7f6572af8bf9a0a86efb88dcc30011626a15c9c4603503aa4466a3f87a1867deef3361073a6121cd565b604080516001600160a01b0393841681529290911660208301520160405180910390a1565b610767612098565b601080546001600160801b0319166001600160801b0383169081179091556040519081527f8c4d35e54a3f2ef1134138fd8ea3daee6a3c89e10d2665996babdf70261e2c76906020015b60405180910390a150565b60606107c6612098565b601154829084106107d857505f6107fc565b6011546107e58486613d4c565b11156107fc576011546107f9908590613d5f565b90505b5f816001600160401b03811115610815576108156139d4565b60405190808252806020026020018201604052801561085a57816020015b604080518082019091525f8152606060208201528152602001906001900390816108335790505b5090505f5b82811015610944576040518060400160405280828861087e9190613d4c565b610889906001613d4c565b8152602001601161089a848a613d4c565b815481106108aa576108aa613d24565b905f5260205f2001805480602002602001604051908101604052809291908181526020015f905b82821015610918575f848152602090819020604080518082019091526002850290910180546001600160a01b031682526001908101548284015290835290920191016108d1565b5050505081525082828151811061093157610931613d24565b602090810291909101015260010161085f565b509150505b92915050565b610957612423565b610960826124c7565b61096a82826124cf565b5050565b5f61097761258b565b505f5160206140485f395f51905f5290565b5f6109926125d4565b805490915060ff600160401b82041615906001600160401b03165f811580156109b85750825b90505f826001600160401b031660011480156109d35750303b155b9050811580156109e1575080155b156109ff5760405163f92ee8a960e01b815260040160405180910390fd5b845467ffffffffffffffff191660011785558315610a2957845460ff60401b1916600160401b1785555b610a32336125fc565b6001600f55601080546001600160801b0319166001600160801b0388161790558315610a9857845460ff60401b19168555604051600181527fc7f505b2f371ae2175ee4913f4499e1f2633a7b5936321eed1cdaeb6115181d29060200160405180910390a15b505050505050565b610aa933611bbd565b610ac65760405163510b8aad60e11b815260040160405180910390fd5b610ad0828261260d565b335f908152602081905260409020600201610aec828483613db6565b50610af633612681565b8015610b085750610b06336126ca565b155b15610b1657610b163361272c565b7f4af0b5984c9f88659d661fb64dcb63a5b946809cf1c78a8c6e0f6ef93c917032338383604051610b4993929190613e6f565b60405180910390a15050565b6010546001600160801b03163414610b80576040516358d620b360e01b815260040160405180910390fd5b335f9081526001602052604090205460ff1615610bb05760405163132e7efb60e31b815260040160405180910390fd5b610bba828261260d565b5f6040518060a001604052805f8152602001346001600160801b031681526020015f6001600160401b031681526020015f1515815260200184848080601f0160208091040260200160405190810160405280939291908181526020018383808284375f920182905250939094525050338152600160208181526040808420805460ff19168417905583825292839020855181559085015191810180549386015160608701511515600160c01b0260ff60c01b196001600160401b03909216600160801b026001600160c01b03199096166001600160801b0390951694909417949094179390931691909117909155608083015192935083929091506002820190610cc49082613eae565b5050600380546001810182555f919091527fc2575a0e9e593c00f959f8c92f12db2869c3395a3b0502d05e2516446f71f85b0180546001600160a01b03191633908117909155610d14915061272c565b7f61809fa303a3a57f4d70552f533f3e0b003173d424590cd4bb22a2afe000990c338484604051610d4793929190613e6f565b60405180910390a1505050565b610d5d81611bbd565b610d7a5760405163510b8aad60e11b815260040160405180910390fd5b6001600160a01b0381165f9081526020819052604090206001810154600160c01b900460ff1615610dbe5760405163510ae2bd60e11b815260040160405180910390fd5b806002018054610dcd90613cf2565b90505f03610dee5760405163970c784d60e01b815260040160405180910390fd5b335f90815260076020526040902080546001600160a01b03848116911603610e2957604051630d41c52760e01b815260040160405180910390fd5b80546001600160a01b031615610e4357610e416121cd565b505b604080516080810182526001600160a01b03808616825233803160208085019182525f85870181815260608701828152948252600790925295909520935184549084166001600160a01b03199182161785559051600185015593516002840180549184169186169190911790555160039092018054928216929093169190911790915560085416610ef55760088054336001600160a01b03199182168117909255600980549091169091179055610f4c565b600980546001600160a01b039081165f9081526007602052604080822060030180546001600160a01b0319908116339081179092558554828552929093206002018054841692909416919091179092558254161790555b600a8054905f610f5b83613f68565b9091555050815433319083905f90610f74908490613d4c565b909155505060018281018054601090610f9e908490600160801b90046001600160401b0316613f80565b82546001600160401b039182166101009390930a928302919092021990911617905550604080513381526001600160a01b03851660208201527fce0c7a2a940807f7dc2ce7a615c2532e915e6c0ac9a08bc4ed9d515a710a53e29101610d47565b611007612098565b6110105f61279f565b565b61101a612098565b6011541561103b576040516349625b3b60e01b815260040160405180910390fd5b6001600160a01b0384165f9081526001602052604090205460ff16156110745760405163132e7efb60e31b815260040160405180910390fd5b60025f8484604051611087929190613f9f565b604080519182900390912082526020820192909252015f205460ff16156110c157604051637e4c066f60e01b815260040160405180910390fd5b81156110d1576110d1838361260d565b5f6040518060a001604052805f81526020015f6001600160801b031681526020015f6001600160401b03168152602001831515815260200185858080601f0160208091040260200160405190810160405280939291908181526020018383808284375f9201829052509390945250506001600160a01b0388168152600160208181526040808420805460ff19168417905583825292839020855181559085015191810180549386015160608701511515600160c01b0260ff60c01b196001600160401b03909216600160801b026001600160c01b03199096166001600160801b03909516949094179490941793909316919091179091556080830151929350839290915060028201906111e49082613eae565b5050600380546001810182555f919091527fc2575a0e9e593c00f959f8c92f12db2869c3395a3b0502d05e2516446f71f85b0180546001600160a01b0319166001600160a01b03881617905550811561124c5760068054905f61124683613f68565b91905055505b61125585612681565b15611263576112638561272c565b7f61809fa303a3a57f4d70552f533f3e0b003173d424590cd4bb22a2afe000990c85858560405161129693929190613e6f565b60405180910390a15050505050565b600c546060905f906001600160401b038111156112c4576112c46139d4565b6040519080825280602002602001820160405280156112fd57816020015b6112ea613655565b8152602001906001900390816112e25790505b5090505f5b600c54811015611462575f600c828154811061132057611320613d24565b5f918252602080832091909101546001600160a01b031680835282825260409283902083518085018552828152845160a0810186528254815260018301546001600160801b03811682870152600160801b81046001600160401b031696820196909652600160c01b90950460ff161515606086015260028201805493965091949093840192909185916080840191906113b890613cf2565b80601f01602080910402602001604051908101604052809291908181526020018280546113e490613cf2565b801561142f5780601f106114065761010080835404028352916020019161142f565b820191905f5260205f20905b81548152906001019060200180831161141257829003601f168201915b50505050508152505081525084848151811061144d5761144d613d24565b60209081029190910101525050600101611302565b50919050565b61147133611bbd565b61148e5760405163668191af60e11b815260040160405180910390fd5b335f9081526020819052604090206001810154600160c01b900460ff16156114c957604051632d8b5c9760e21b815260040160405180910390fd5b600f54600454116114ed57604051633b15f1f760e21b815260040160405180910390fd5b6001818101805460ff60c01b1916600160c01b179055600680545f90611514908490613d4c565b9091555061152390503361280f565b60018101546001600160801b0316156115bf576001810180546001600160801b031981169091556040516001600160801b03909116905f90339083908381818185875af1925050503d805f8114611595576040519150601f19603f3d011682016040523d82523d5f602084013e61159a565b606091505b50509050806115bc57604051633c31275160e21b815260040160405180910390fd5b50505b6040513381527f24250fc1ec78a1405ddd4cc8b75964858af228d05faa8d4bc1302966d8a54117906020016107b1565b6115f7612098565b8060ff165f0361161a57604051630e52390960e41b815260040160405180910390fd5b60ff8116600f5561162961291f565b611631612abd565b600d80546001600160a01b03191690556004545f906116569060ff8416908390612b0e565b90508060ff165f0361167b576040516367c0fced60e01b815260040160405180910390fd5b5f5b600454811015611988575f6004828154811061169b5761169b613d24565b5f9182526020808320909101546001600160a01b031680835290829052604090912060018101549192509060ff600160c01b90910416806116ea57508060020180546116e690613cf2565b1590505b156116f6575050611980565b600d546001600160a01b03166117315750600d80546001600160a01b0319166001600160a01b03929092169190911790556001600e55611980565b8360ff16600e54101561174f576117488285612b60565b5050611980565b600d546001600160a01b039081165f9081526020818152604091829020825180840184529386168452825160a0810184528554815260018601546001600160801b03811682850152600160801b81046001600160401b031694820194909452600160c01b90930460ff1615156060840152600285018054919461196d949093840192909187916080840191906117e490613cf2565b80601f016020809104026020016040519081016040528092919081815260200182805461181090613cf2565b801561185b5780601f106118325761010080835404028352916020019161185b565b820191905f5260205f20905b81548152906001019060200180831161183e57829003601f168201915b505050919092525050509052604080518082018252600d546001600160a01b03168152815160a0810183528554815260018601546001600160801b038116602080840191909152600160801b82046001600160401b031694830194909452600160c01b900460ff16151560608201526002860180549293840192879160808401916118e590613cf2565b80601f016020809104026020016040519081016040528092919081815260200182805461191190613cf2565b801561195c5780601f106119335761010080835404028352916020019161195c565b820191905f5260205f20905b81548152906001019060200180831161193f57829003601f168201915b505050505081525050815250612fa5565b1561197c5761197c8386612b60565b5050505b60010161167d565b50600e545f036119ab576040516367c0fced60e01b815260040160405180910390fd5b600d54600e546001600160a01b03909116905f906001600160401b038111156119d6576119d66139d4565b6040519080825280602002602001820160405280156119ff578160200160208202803683370190505b5090505f5b600e54811015611a595782828281518110611a2157611a21613d24565b6001600160a01b039283166020918202929092018101919091529381165f908152600b90945260409093205490921691600101611a04565b50611a6381612fe1565b601180546001810182555f9182527f31ecc21a745e3968a04e9570e4425bc18fa8019c68028196b546d1669c200c680190611aa090600c906136b6565b600f546001600160401b03811115611aba57611aba6139d4565b604051908082528060200260200182016040528015611ae3578160200160208202803683370190505b508051611af891600c916020909101906136d1565b505f5b600f54811015610a98575f83600e5483611b159190613fae565b81518110611b2557611b25613d24565b6020026020010151905080600c8381548110611b4357611b43613d24565b5f918252602080832090910180546001600160a01b039485166001600160a01b0319918216179091556040805180820182529585168087528452838352832054858301908152875460018181018a558986529390942095516002909402909501805493909416921691909117825591519082015501611afb565b6001600160a01b03165f9081526001602052604090205460ff1690565b611be2612098565b828114611c2e5760405162461bcd60e51b81526020600482015260156024820152740d2dce0eae840d8cadccee8d040dad2e6dac2e8c6d605b1b60448201526064015b60405180910390fd5b5f5b83811015611c9657611c8e858583818110611c4d57611c4d613d24565b9050602002016020810190611c629190613763565b848484818110611c7457611c74613d24565b9050602002016020810190611c899190613763565b6130f8565b600101611c30565b5050505050565b6060611ca7612098565b5f611cb5835f600a54612b0e565b6001600160401b03811115611ccc57611ccc6139d4565b604051908082528060200260200182016040528015611d1057816020015b604080518082019091525f8082526020820152815260200190600190039081611cea5790505b506008549091506001600160a01b0390811690851615611d4957506001600160a01b038085165f90815260076020526040902060030154165b5f5b6001600160a01b03821615801590611d6257508481105b15611dd7576001600160a01b038083165f818152600760209081526040918290208251808401909352928252825490931692810192909252908483611da681613f68565b945081518110611db857611db8613d24565b6020908102919091010152600301546001600160a01b03169150611d4b565b80835103611dea57829350505050610949565b5f816001600160401b03811115611e0357611e036139d4565b604051908082528060200260200182016040528015611e4757816020015b604080518082019091525f8082526020820152815260200190600190039081611e215790505b5090505f5b82811015611e9357848181518110611e6657611e66613d24565b6020026020010151828281518110611e8057611e80613d24565b6020908102919091010152600101611e4c565b509695505050505050565b611ea6612098565b6001600160a01b038116611ecf57604051631e4fbdf760e01b81525f6004820152602401611c25565b611ed88161279f565b50565b6003546060905f906001600160401b03811115611efa57611efa6139d4565b604051908082528060200260200182016040528015611f3357816020015b611f20613655565b815260200190600190039081611f185790505b5090505f5b600354811015611462575f60038281548110611f5657611f56613d24565b5f918252602080832091909101546001600160a01b031680835282825260409283902083518085018552828152845160a0810186528254815260018301546001600160801b03811682870152600160801b81046001600160401b031696820196909652600160c01b90950460ff16151560608601526002820180549396509194909384019290918591608084019190611fee90613cf2565b80601f016020809104026020016040519081016040528092919081815260200182805461201a90613cf2565b80156120655780601f1061203c57610100808354040283529160200191612065565b820191905f5260205f20905b81548152906001019060200180831161204857829003601f168201915b50505050508152505081525084848151811061208357612083613d24565b60209081029190910101525050600101611f38565b336120ca7f9016d09d72d40fdae2fd8ceac6b6234c7706214fd39c1cd1e609a0528c199300546001600160a01b031690565b6001600160a01b0316146110105760405163118cdaa760e01b8152336004820152602401611c25565b6001600160a01b038082165f9081526007602052604090208054909116612118575050565b60018101546001600160a01b0383163181101561217657612143816001600160a01b03851631613d5f565b82546001600160a01b03165f908152602081905260408120805490919061216b908490613d4c565b909155506121b89050565b61218a6001600160a01b0384163182613d5f565b82546001600160a01b03165f90815260208190526040812080549091906121b2908490613d5f565b90915550505b506001600160a01b0390911631600190910155565b335f90815260076020526040812080546001600160a01b03166122035760405163498ea63d60e01b815260040160405180910390fd5b6009546008546001600160a01b0391821691160361223c57600880546001600160a01b031990811690915560098054909116905561234f565b600954336001600160a01b0390911603612295576002810180546001600160a01b039081165f90815260076020526040902060030180546001600160a01b0319908116909155915460098054909316911617905561234f565b600854336001600160a01b03909116036122f9576009546001600160a01b039081165f9081526007602052604080822060020180546001600160a01b031990811690915560088054808616855292909320600301549116921691909117905561234f565b60038181018054600280850180546001600160a01b039081165f9081526007602052604080822090970180549583166001600160a01b031996871617905591549454811682529490200180549290931691161790555b80546001600160a01b03165f8181526020819052604081206001840154815491929091839190612380908490613d5f565b9091555050600181810180546010906123aa908490600160801b90046001600160401b0316613fcd565b82546001600160401b039182166101009390930a928302919092021990911617905550335f90815260076020526040812080546001600160a01b031990811682556001820183905560028201805482169055600390910180549091169055600a80549161241683613fec565b9091555091949350505050565b306001600160a01b037f00000000000000000000000000000000000000000000000000000000000000001614806124a957507f00000000000000000000000000000000000000000000000000000000000000006001600160a01b031661249d5f5160206140485f395f51905f52546001600160a01b031690565b6001600160a01b031614155b156110105760405163703e46dd60e11b815260040160405180910390fd5b611ed8612098565b816001600160a01b03166352d1902d6040518163ffffffff1660e01b8152600401602060405180830381865afa925050508015612529575060408051601f3d908101601f1916820190925261252691810190614001565b60015b61255157604051634c9c8ce360e01b81526001600160a01b0383166004820152602401611c25565b5f5160206140485f395f51905f52811461258157604051632a87526960e21b815260048101829052602401611c25565b61070b8383613372565b306001600160a01b037f000000000000000000000000000000000000000000000000000000000000000016146110105760405163703e46dd60e11b815260040160405180910390fd5b5f807ff0c57e16840df040f15088dc2f81fe391c3923bec73e23a9662efc9c229c6a00610949565b6126046133c7565b611ed8816133ec565b5f828260405161261e929190613f9f565b60408051918290039091205f8181526002602052919091205490915060ff161561265b57604051637e4c066f60e01b815260040160405180910390fd5b61266583836133f4565b5f908152600260205260409020805460ff191660011790555050565b6001600160a01b0381165f9081526020819052604081206001810154600160c01b900460ff161580156126c357508060020180546126be90613cf2565b151590505b9392505050565b6001600160a01b0381165f9081526005602052604081205460045481106126f357505f92915050565b826001600160a01b03166004828154811061271057612710613d24565b5f918252602090912001546001600160a01b0316149392505050565b60048054600180820183555f8390527f8a35acfbc15ff81a39ae7d344fd709f28e8600b4aa8c65c6b64bfe7fe36bd19b90910180546001600160a01b0319166001600160a01b03851617905590546127849190613d5f565b6001600160a01b039091165f90815260056020526040902055565b7f9016d09d72d40fdae2fd8ceac6b6234c7706214fd39c1cd1e609a0528c19930080546001600160a01b031981166001600160a01b03848116918217845560405192169182907f8be0079c531659141344cd1fd0a4f28419497f9722a3daafe3b4186f6b6457e0905f90a3505050565b612818816126ca565b61281f5750565b6001600160a01b0381165f9081526005602052604081205460045490919061284990600190613d5f565b90508082146128ce575f6004828154811061286657612866613d24565b5f91825260209091200154600480546001600160a01b03909216925082918590811061289457612894613d24565b5f91825260208083209190910180546001600160a01b0319166001600160a01b039485161790559290911681526005909152604090208290555b60048054806128df576128df614018565b5f828152602080822083015f1990810180546001600160a01b03191690559092019092556001600160a01b03949094168152600590935250506040812055565b6004545f81900361292d5750565b5f612939600183613d5f565b90505b801561096a575f61294e826001613d4c565b60408051426020820152908101849052606001604051602081830303815290604052805190602001205f1c6129839190613fae565b90508082036129925750612aab565b5f600483815481106129a6576129a6613d24565b5f918252602082200154600480546001600160a01b03909216935090849081106129d2576129d2613d24565b5f91825260209091200154600480546001600160a01b03909216925090849081106129ff576129ff613d24565b5f91825260209091200154600480546001600160a01b039092169186908110612a2a57612a2a613d24565b905f5260205f20015f6101000a8154816001600160a01b0302191690836001600160a01b031602179055508160048481548110612a6957612a69613d24565b5f91825260208083209190910180546001600160a01b0319166001600160a01b0394851617905593821681526005909352604080842094909455168152208190555b80612ab581613fec565b91505061293c565b600d546001600160a01b03165b6001600160a01b03811615612b07576001600160a01b039081165f908152600b6020526040902080546001600160a01b0319811690915516612aca565b505f600e55565b5f81831115612b3a57604051632457cde760e01b81526004810184905260248101839052604401611c25565b82841015612b495750816126c3565b81841115612b585750806126c3565b509192915050565b6001600160a01b0382165f90815260208181526040808320815160a0810183528154815260018201546001600160801b03811694820194909452600160801b84046001600160401b031692810192909252600160c01b90920460ff1615156060820152600282018054919291608084019190612bdb90613cf2565b80601f0160208091040260200160405190810160405280929190818152602001828054612c0790613cf2565b8015612c525780601f10612c2957610100808354040283529160200191612c52565b820191905f5260205f20905b815481529060010190602001808311612c3557829003601f168201915b505050919092525050604080518082018252600d546001600160a01b03168082525f908152602081815290839020835160a0810185528154815260018201546001600160801b03811682850152600160801b81046001600160401b031695820195909552600160c01b90940460ff1615156060850152600281018054969750612d9396939550918501939290916080840191612ced90613cf2565b80601f0160208091040260200160405190810160405280929190818152602001828054612d1990613cf2565b8015612d645780601f10612d3b57610100808354040283529160200191612d64565b820191905f5260205f20905b815481529060010190602001808311612d4757829003601f168201915b5050505050815250508152506040518060400160405280866001600160a01b0316815260200184815250612fa5565b15612da657612da183613415565b612f46565b600d546001600160a01b039081165f818152600b6020526040902054909116905b6001600160a01b038216612de457612ddf8186613466565b612f43565b6040805180820182526001600160a01b0384168082525f908152602081815290839020835160a0810185528154815260018201546001600160801b03811682850152600160801b81046001600160401b031695820195909552600160c01b90940460ff1615156060850152600281018054612f13959385019392916080840191612e6d90613cf2565b80601f0160208091040260200160405190810160405280929190818152602001828054612e9990613cf2565b8015612ee45780601f10612ebb57610100808354040283529160200191612ee4565b820191905f5260205f20905b815481529060010190602001808311612ec757829003601f168201915b5050505050815250508152506040518060400160405280886001600160a01b0316815260200186815250612fa5565b15612f2257612ddf8186613466565b506001600160a01b038082165f908152600b60205260409020541690612dc7565b50505b8160ff16600e54111561070b57600d80546001600160a01b039081165f908152600b6020526040812080546001600160a01b03198082169092558454931692168217909255600e80549192612f9a83613fec565b919050555050505050565b6020808201515190830151515f919003612fd15750805182516001600160a01b03918216911610610949565b5060209081015151910151511190565b80515f819003612fef575050565b5f612ffb600183613d5f565b90505b801561070b575f613010826001613d4c565b60408051426020820152908101849052606001604051602081830303815290604052805190602001205f1c6130459190613fae565b90505f84838151811061305a5761305a613d24565b6020026020010151905084828151811061307657613076613d24565b602002602001015185848151811061309057613090613d24565b60200260200101906001600160a01b031690816001600160a01b031681525050808583815181106130c3576130c3613d24565b60200260200101906001600160a01b031690816001600160a01b031681525050505080806130f090613fec565b915050612ffe565b60115415613119576040516349625b3b60e01b815260040160405180910390fd5b61312281611bbd565b61313f5760405163510b8aad60e11b815260040160405180910390fd5b6001600160a01b038083165f90815260076020526040902080549091161561317a57604051637c9a1cf960e01b815260040160405180910390fd5b604080516080810182526001600160a01b038085168252858116803160208085019182525f85870181815260608701828152948252600790925295909520935184549084166001600160a01b0319918216178555905160018501559351600284018054918416918616919091179055516003909201805492821692909316919091179091556008541661323757600880546001600160a01b0385166001600160a01b0319918216811790925560098054909116909117905561328f565b600980546001600160a01b039081165f9081526007602052604080822060030180548489166001600160a01b031991821681179092558554828552929093206002018054841692909416919091179092558254161790555b600a8054905f61329e83613f68565b90915550506001600160a01b038083165f908152602081905260408120805490928616319183916132d0908490613d4c565b9091555050600181810180546010906132fa908490600160801b90046001600160401b0316613f80565b92506101000a8154816001600160401b0302191690836001600160401b031602179055507fce0c7a2a940807f7dc2ce7a615c2532e915e6c0ac9a08bc4ed9d515a710a53e284846040516133649291906001600160a01b0392831681529116602082015260400190565b60405180910390a150505050565b61337b826134c4565b6040516001600160a01b038316907fbc7cd75a20ee27fd9adebab32041f755214dbc6bffa90cc0225b39da2e5c2d3b905f90a28051156133bf5761070b8282613527565b61096a613599565b6133cf6135b8565b61101057604051631afcd79f60e31b815260040160405180910390fd5b611ea66133c7565b6030811461096a576040516305db9dbd60e01b815260040160405180910390fd5b600d80546001600160a01b038381165f818152600b602052604081208054939094166001600160a01b031993841617909355835490911617909155600e80549161345e83613f68565b919050555050565b6001600160a01b038281165f818152600b602052604080822080548686168085529284208054919096166001600160a01b03199182161790955592825282549093169092179055600e8054916134bb83613f68565b91905055505050565b806001600160a01b03163b5f036134f957604051634c9c8ce360e01b81526001600160a01b0382166004820152602401611c25565b5f5160206140485f395f51905f5280546001600160a01b0319166001600160a01b0392909216919091179055565b60605f5f846001600160a01b031684604051613543919061402c565b5f60405180830381855af49150503d805f811461357b576040519150601f19603f3d011682016040523d82523d5f602084013e613580565b606091505b50915091506135908583836135d1565b95945050505050565b34156110105760405163b398979f60e01b815260040160405180910390fd5b5f6135c16125d4565b54600160401b900460ff16919050565b6060826135e6576135e18261362d565b6126c3565b81511580156135fd57506001600160a01b0384163b155b1561362657604051639996b31560e01b81526001600160a01b0385166004820152602401611c25565b50806126c3565b80511561363c57805160208201fd5b60405163d6bda27560e01b815260040160405180910390fd5b60405180604001604052805f6001600160a01b031681526020016136b16040518060a001604052805f81526020015f6001600160801b031681526020015f6001600160401b031681526020015f15158152602001606081525090565b905290565b5080545f8255905f5260205f2090810190611ed89190613734565b828054828255905f5260205f20908101928215613724579160200282015b8281111561372457825182546001600160a01b0319166001600160a01b039091161782556020909201916001909101906136ef565b50613730929150613734565b5090565b5b80821115613730575f8155600101613735565b80356001600160a01b038116811461375e575f5ffd5b919050565b5f60208284031215613773575f5ffd5b6126c382613748565b5f5b8381101561379657818101518382015260200161377e565b50505f910152565b5f81518084526137b581602086016020860161377c565b601f01601f19169290920160200192915050565b60018060a01b0381511682525f602082015160406020850152805160408501526001600160801b0360208201511660608501526001600160401b0360408201511660808501526060810151151560a08501526080810151905060a060c085015261383660e085018261379e565b949350505050565b602081525f6126c360208301846137c9565b5f5f83601f840112613860575f5ffd5b5081356001600160401b03811115613876575f5ffd5b6020830191508360208260051b8501011115613890575f5ffd5b9250929050565b5f5f602083850312156138a8575f5ffd5b82356001600160401b038111156138bd575f5ffd5b6138c985828601613850565b90969095509350505050565b5f602082840312156138e5575f5ffd5b81356001600160801b03811681146126c3575f5ffd5b5f5f6040838503121561390c575f5ffd5b50508035926020909101359150565b5f602082016020835280845180835260408501915060408160051b8601019250602086015f5b828110156139c857868503603f19018452815180518652602090810151604082880181905281519088018190529101905f9060608801905b808310156139b057835180516001600160a01b03168352602090810151818401529093019260019290920191604090910190613979565b50965050506020938401939190910190600101613941565b50929695505050505050565b634e487b7160e01b5f52604160045260245ffd5b5f5f604083850312156139f9575f5ffd5b613a0283613748565b915060208301356001600160401b03811115613a1c575f5ffd5b8301601f81018513613a2c575f5ffd5b80356001600160401b03811115613a4557613a456139d4565b604051601f8201601f19908116603f011681016001600160401b0381118282101715613a7357613a736139d4565b604052818152828201602001871015613a8a575f5ffd5b816020840160208301375f602083830101528093505050509250929050565b5f5f83601f840112613ab9575f5ffd5b5081356001600160401b03811115613acf575f5ffd5b602083019150836020828501011115613890575f5ffd5b5f5f60208385031215613af7575f5ffd5b82356001600160401b03811115613b0c575f5ffd5b6138c985828601613aa9565b5f5f5f5f60608587031215613b2b575f5ffd5b613b3485613748565b935060208501356001600160401b03811115613b4e575f5ffd5b613b5a87828801613aa9565b90945092505060408501358015158114613b72575f5ffd5b939692955090935050565b5f602082016020835280845180835260408501915060408160051b8601019250602086015f5b828110156139c857603f19878603018452613bbf8583516137c9565b94506020938401939190910190600101613ba3565b602081525f6126c3602083018461379e565b5f60208284031215613bf6575f5ffd5b813560ff811681146126c3575f5ffd5b5f5f5f5f60408587031215613c19575f5ffd5b84356001600160401b03811115613c2e575f5ffd5b613c3a87828801613850565b90955093505060208501356001600160401b03811115613c58575f5ffd5b613c6487828801613850565b95989497509550505050565b5f5f60408385031215613c81575f5ffd5b613c8a83613748565b946020939093013593505050565b602080825282518282018190525f918401906040840190835b81811015613ce757835180516001600160a01b039081168552602091820151168185015290930192604090920191600101613cb1565b509095945050505050565b600181811c90821680613d0657607f821691505b60208210810361146257634e487b7160e01b5f52602260045260245ffd5b634e487b7160e01b5f52603260045260245ffd5b634e487b7160e01b5f52601160045260245ffd5b8082018082111561094957610949613d38565b8181038181111561094957610949613d38565b601f82111561070b57805f5260205f20601f840160051c81016020851015613d975750805b601f840160051c820191505b81811015611c96575f8155600101613da3565b6001600160401b03831115613dcd57613dcd6139d4565b613de183613ddb8354613cf2565b83613d72565b5f601f841160018114613e12575f8515613dfb5750838201355b5f19600387901b1c1916600186901b178355611c96565b5f83815260208120601f198716915b82811015613e415786850135825560209485019460019092019101613e21565b5086821015613e5d575f1960f88860031b161c19848701351681555b505060018560011b0183555050505050565b6001600160a01b03841681526040602082018190528101829052818360608301375f818301606090810191909152601f909201601f1916010192915050565b81516001600160401b03811115613ec757613ec76139d4565b613edb81613ed58454613cf2565b84613d72565b6020601f821160018114613f0d575f8315613ef65750848201515b5f19600385901b1c1916600184901b178455611c96565b5f84815260208120601f198516915b82811015613f3c5787850151825560209485019460019092019101613f1c565b5084821015613f5957868401515f19600387901b60f8161c191681555b50505050600190811b01905550565b5f60018201613f7957613f79613d38565b5060010190565b6001600160401b03818116838216019081111561094957610949613d38565b818382375f9101908152919050565b5f82613fc857634e487b7160e01b5f52601260045260245ffd5b500690565b6001600160401b03828116828216039081111561094957610949613d38565b5f81613ffa57613ffa613d38565b505f190190565b5f60208284031215614011575f5ffd5b5051919050565b634e487b7160e01b5f52603160045260245ffd5b5f825161403d81846020870161377c565b919091019291505056fe360894a13ba1a3210667c828492db98dca3e2076cc3735a920a3ca505d382bbca264697066735822122054e6c6adbab0bb2d611684692d982b78b8d9ced7d298419694209aec1ae93b0464736f6c634300081b0033",
		"linkReferences": {}
	},
	"methodIdentifiers": {
		"UPGRADE_INTERFACE_VERSION()": "ad3cb1cc",
		"activeValidatorsCount()": "0d2bd909",
		"addValidator(address,bytes,bool)": "7c8a92c3",
		"addVotes(address[],address[])": "e9257dc8",
		"calculateRoundValidators(uint8)": "c5a74449",
		"fee()": "ddca3f43",
		"getAllValidators()": "f3513a37",
		"getRoundValidators()": "a250eaf1",
		"getRounds(uint256,uint256)": "40f74f47",
		"getRoundsCount()": "a09686c4",
		"getValidator(address)": "1904bb2e",
		"getVotes(address,uint256)": "eb9019d4",
		"getVotesCount()": "1b605b86",
		"initialize(uint128)": "56db9ef1",
		"isValidatorRegistered(address)": "d04a68c7",
		"owner()": "8da5cb5b",
		"proxiableUUID()": "52d1902d",
		"registerValidator(bytes)": "602a9eee",
		"renounceOwnership()": "715018a6",
		"resignValidator()": "b85f5da2",
		"resignedValidatorsCount()": "0777cbef",
		"roundValidatorsCount()": "b84d356e",
		"setFee(uint128)": "3687f24a",
		"transferOwnership(address)": "f2fde38b",
		"unvote()": "3174b689",
		"updateValidator(bytes)": "5a8eed73",
		"updateVoters(address[])": "2bdf6d43",
		"upgradeToAndCall(address,bytes)": "4f1ef286",
		"validatorsCount()": "ed612f8c",
		"version()": "54fd4d50",
		"vote(address)": "6dd7d8ea"
	},
	"id": 32
}