{
	"abi": [
		{
			"type": "constructor",
			"inputs": [],
			"stateMutability": "nonpayable"
		},
		{
			"type": "function",
			"name": "activeValidatorsCount",
			"inputs": [],
			"outputs": [
				{
					"name": "",
					"type": "uint256",
					"internalType": "uint256"
				}
			],
			"stateMutability": "view"
		},
		{
			"type": "function",
			"name": "calculateTopValidators",
			"inputs": [
				{
					"name": "n",
					"type": "uint8",
					"internalType": "uint8"
				}
			],
			"outputs": [],
			"stateMutability": "nonpayable"
		},
		{
			"type": "function",
			"name": "getAllValidators",
			"inputs": [],
			"outputs": [
				{
					"name": "",
					"type": "tuple[]",
					"internalType": "struct Validator[]",
					"components": [
						{
							"name": "addr",
							"type": "address",
							"internalType": "address"
						},
						{
							"name": "data",
							"type": "tuple",
							"internalType": "struct ValidatorData",
							"components": [
								{
									"name": "votersCount",
									"type": "uint256",
									"internalType": "uint256"
								},
								{
									"name": "voteBalance",
									"type": "uint256",
									"internalType": "uint256"
								},
								{
									"name": "isResigned",
									"type": "bool",
									"internalType": "bool"
								},
								{
									"name": "bls12_381_public_key",
									"type": "bytes",
									"internalType": "bytes"
								}
							]
						}
					]
				}
			],
			"stateMutability": "view"
		},
		{
			"type": "function",
			"name": "getRounds",
			"inputs": [
				{
					"name": "offset",
					"type": "uint256",
					"internalType": "uint256"
				},
				{
					"name": "count",
					"type": "uint256",
					"internalType": "uint256"
				}
			],
			"outputs": [
				{
					"name": "",
					"type": "tuple[]",
					"internalType": "struct Round[]",
					"components": [
						{
							"name": "round",
							"type": "uint256",
							"internalType": "uint256"
						},
						{
							"name": "validators",
							"type": "tuple[]",
							"internalType": "struct RoundValidator[]",
							"components": [
								{
									"name": "addr",
									"type": "address",
									"internalType": "address"
								},
								{
									"name": "voteBalance",
									"type": "uint256",
									"internalType": "uint256"
								}
							]
						}
					]
				}
			],
			"stateMutability": "view"
		},
		{
			"type": "function",
			"name": "getRoundsCount",
			"inputs": [],
			"outputs": [
				{
					"name": "",
					"type": "uint256",
					"internalType": "uint256"
				}
			],
			"stateMutability": "view"
		},
		{
			"type": "function",
			"name": "getTopValidators",
			"inputs": [],
			"outputs": [
				{
					"name": "",
					"type": "tuple[]",
					"internalType": "struct Validator[]",
					"components": [
						{
							"name": "addr",
							"type": "address",
							"internalType": "address"
						},
						{
							"name": "data",
							"type": "tuple",
							"internalType": "struct ValidatorData",
							"components": [
								{
									"name": "votersCount",
									"type": "uint256",
									"internalType": "uint256"
								},
								{
									"name": "voteBalance",
									"type": "uint256",
									"internalType": "uint256"
								},
								{
									"name": "isResigned",
									"type": "bool",
									"internalType": "bool"
								},
								{
									"name": "bls12_381_public_key",
									"type": "bytes",
									"internalType": "bytes"
								}
							]
						}
					]
				}
			],
			"stateMutability": "view"
		},
		{
			"type": "function",
			"name": "getValidator",
			"inputs": [
				{
					"name": "_addr",
					"type": "address",
					"internalType": "address"
				}
			],
			"outputs": [
				{
					"name": "",
					"type": "tuple",
					"internalType": "struct Validator",
					"components": [
						{
							"name": "addr",
							"type": "address",
							"internalType": "address"
						},
						{
							"name": "data",
							"type": "tuple",
							"internalType": "struct ValidatorData",
							"components": [
								{
									"name": "votersCount",
									"type": "uint256",
									"internalType": "uint256"
								},
								{
									"name": "voteBalance",
									"type": "uint256",
									"internalType": "uint256"
								},
								{
									"name": "isResigned",
									"type": "bool",
									"internalType": "bool"
								},
								{
									"name": "bls12_381_public_key",
									"type": "bytes",
									"internalType": "bytes"
								}
							]
						}
					]
				}
			],
			"stateMutability": "view"
		},
		{
			"type": "function",
			"name": "getVotes",
			"inputs": [
				{
					"name": "addr",
					"type": "address",
					"internalType": "address"
				},
				{
					"name": "count",
					"type": "uint256",
					"internalType": "uint256"
				}
			],
			"outputs": [
				{
					"name": "",
					"type": "tuple[]",
					"internalType": "struct VoteResult[]",
					"components": [
						{
							"name": "voter",
							"type": "address",
							"internalType": "address"
						},
						{
							"name": "validator",
							"type": "address",
							"internalType": "address"
						}
					]
				}
			],
			"stateMutability": "view"
		},
		{
			"type": "function",
			"name": "getVotesCount",
			"inputs": [],
			"outputs": [
				{
					"name": "",
					"type": "uint256",
					"internalType": "uint256"
				}
			],
			"stateMutability": "view"
		},
		{
			"type": "function",
			"name": "isValidatorRegistered",
			"inputs": [
				{
					"name": "addr",
					"type": "address",
					"internalType": "address"
				}
			],
			"outputs": [
				{
					"name": "",
					"type": "bool",
					"internalType": "bool"
				}
			],
			"stateMutability": "view"
		},
		{
			"type": "function",
			"name": "registerValidator",
			"inputs": [
				{
					"name": "bls12_381_public_key",
					"type": "bytes",
					"internalType": "bytes"
				}
			],
			"outputs": [],
			"stateMutability": "nonpayable"
		},
		{
			"type": "function",
			"name": "registeredValidatorsCount",
			"inputs": [],
			"outputs": [
				{
					"name": "",
					"type": "uint256",
					"internalType": "uint256"
				}
			],
			"stateMutability": "view"
		},
		{
			"type": "function",
			"name": "resignValidator",
			"inputs": [],
			"outputs": [],
			"stateMutability": "nonpayable"
		},
		{
			"type": "function",
			"name": "resignedValidatorsCount",
			"inputs": [],
			"outputs": [
				{
					"name": "",
					"type": "uint256",
					"internalType": "uint256"
				}
			],
			"stateMutability": "view"
		},
		{
			"type": "function",
			"name": "unvote",
			"inputs": [],
			"outputs": [],
			"stateMutability": "nonpayable"
		},
		{
			"type": "function",
			"name": "updateValidator",
			"inputs": [
				{
					"name": "_validator",
					"type": "tuple",
					"internalType": "struct Validator",
					"components": [
						{
							"name": "addr",
							"type": "address",
							"internalType": "address"
						},
						{
							"name": "data",
							"type": "tuple",
							"internalType": "struct ValidatorData",
							"components": [
								{
									"name": "votersCount",
									"type": "uint256",
									"internalType": "uint256"
								},
								{
									"name": "voteBalance",
									"type": "uint256",
									"internalType": "uint256"
								},
								{
									"name": "isResigned",
									"type": "bool",
									"internalType": "bool"
								},
								{
									"name": "bls12_381_public_key",
									"type": "bytes",
									"internalType": "bytes"
								}
							]
						}
					]
				}
			],
			"outputs": [],
			"stateMutability": "nonpayable"
		},
		{
			"type": "function",
			"name": "updateVoters",
			"inputs": [
				{
					"name": "voters",
					"type": "address[]",
					"internalType": "address[]"
				}
			],
			"outputs": [],
			"stateMutability": "nonpayable"
		},
		{
			"type": "function",
			"name": "vote",
			"inputs": [
				{
					"name": "addr",
					"type": "address",
					"internalType": "address"
				}
			],
			"outputs": [],
			"stateMutability": "nonpayable"
		},
		{
			"type": "event",
			"name": "Unvoted",
			"inputs": [
				{
					"name": "voter",
					"type": "address",
					"indexed": false,
					"internalType": "address"
				},
				{
					"name": "validator",
					"type": "address",
					"indexed": false,
					"internalType": "address"
				}
			],
			"anonymous": false
		},
		{
			"type": "event",
			"name": "ValidatorRegistered",
			"inputs": [
				{
					"name": "addr",
					"type": "address",
					"indexed": false,
					"internalType": "address"
				},
				{
					"name": "bls12_381_public_key",
					"type": "bytes",
					"indexed": false,
					"internalType": "bytes"
				}
			],
			"anonymous": false
		},
		{
			"type": "event",
			"name": "ValidatorResigned",
			"inputs": [
				{
					"name": "addr",
					"type": "address",
					"indexed": false,
					"internalType": "address"
				}
			],
			"anonymous": false
		},
		{
			"type": "event",
			"name": "Voted",
			"inputs": [
				{
					"name": "voter",
					"type": "address",
					"indexed": false,
					"internalType": "address"
				},
				{
					"name": "validator",
					"type": "address",
					"indexed": false,
					"internalType": "address"
				}
			],
			"anonymous": false
		}
	],
	"bytecode": {
		"object": "0x60a06040525f80805560018190556007819055600880546001600160a01b0319908116909155600980549091169055600c5534801561003c575f5ffd5b5033608052608051612bdb61007c5f395f81816103e4015281816104c30152818161069301528181610a0901528181610f2101526114e90152612bdb5ff3fe608060405234801561000f575f5ffd5b5060043610610111575f3560e01c80636dd7d8ea1161009e578063b85f5da21161006e578063b85f5da214610202578063d04a68c71461020a578063eb9019d414610245578063f1bd0b3714610265578063f3513a371461026c575f5ffd5b80636dd7d8ea146101bf578063a09686c4146101d2578063afeea115146101da578063b5cfa68c146101ef575f5ffd5b80632bdf6d43116100e45780632bdf6d431461015c5780633174b6891461017157806340f74f4714610179578063602a9eee1461019957806362525879146101ac575f5ffd5b80630777cbef146101155780630d2bd9091461012c5780631904bb2e146101345780631b605b8614610154575b5f5ffd5b6001545b6040519081526020015b60405180910390f35b600d54610119565b610147610142366004612457565b610274565b60405161012391906124fb565b600754610119565b61016f61016a36600461250d565b6103d9565b005b61016f610467565b61018c61018736600461257c565b6104b6565b604051610123919061259c565b61016f6101a7366004612655565b610689565b61016f6101ba3660046126b1565b610964565b61016f6101cd366004612457565b6109ff565b600e54610119565b6101e2610d79565b60405161012391906126e7565b61016f6101fd36600461273e565b610f16565b61016f6113bb565b610235610218366004612457565b6001600160a01b03165f9081526003602052604090205460ff1690565b6040519015158152602001610123565b61025861025336600461275e565b6114dc565b6040516101239190612786565b5f54610119565b6101e261171d565b61027c612361565b6001600160a01b0382165f9081526003602052604090205460ff166102e85760405162461bcd60e51b815260206004820152601c60248201527f56616c696461746f724461746120646f65736e2774206578697374730000000060448201526064015b60405180910390fd5b6040805180820182526001600160a01b0384168082525f90815260026020818152918490208451608081018652815481526001820154818501529181015460ff16151594820194909452600384018054939492850193919291606084019190610350906127e0565b80601f016020809104026020016040519081016040528092919081815260200182805461037c906127e0565b80156103c75780601f1061039e576101008083540402835291602001916103c7565b820191905f5260205f20905b8154815290600101906020018083116103aa57829003601f168201915b50505091909252505050905292915050565b336001600160a01b037f000000000000000000000000000000000000000000000000000000000000000016146104215760405162461bcd60e51b81526004016102df90612812565b5f5b818110156104625761045a83838381811061044057610440612847565b90506020020160208101906104559190612457565b6118b4565b600101610423565b505050565b7f6572af8bf9a0a86efb88dcc30011626a15c9c4603503aa4466a3f87a1867deef33610491611994565b604080516001600160a01b0393841681529290911660208301520160405180910390a1565b6060336001600160a01b037f000000000000000000000000000000000000000000000000000000000000000016146105005760405162461bcd60e51b81526004016102df90612812565b600e548290841061051257505f610536565b600e5461051f848661286f565b111561053657600e54610533908590612882565b90505b5f816001600160401b0381111561054f5761054f612895565b60405190808252806020026020018201604052801561059457816020015b604080518082019091525f81526060602082015281526020019060019003908161056d5790505b5090505f5b8281101561067e57604051806040016040528082886105b8919061286f565b6105c390600161286f565b8152602001600e6105d4848a61286f565b815481106105e4576105e4612847565b905f5260205f2001805480602002602001604051908101604052809291908181526020015f905b82821015610652575f848152602090819020604080518082019091526002850290910180546001600160a01b0316825260019081015482840152908352909201910161060b565b5050505081525082828151811061066b5761066b612847565b6020908102919091010152600101610599565b509150505b92915050565b6001600160a01b037f00000000000000000000000000000000000000000000000000000000000000001633036107015760405162461bcd60e51b815260206004820152601c60248201527f43616c6c65722069732074686520636f6e7472616374206f776e65720000000060448201526064016102df565b335f9081526003602052604090205460ff16156107605760405162461bcd60e51b815260206004820152601f60248201527f56616c696461746f7220697320616c726561647920726567697374657265640060448201526064016102df565b5f82826040516107719291906128a9565b60408051918290039091205f8181526004602052919091205490915060ff16156107e95760405162461bcd60e51b815260206004820152602360248201527f424c5331322d333831206b657920697320616c726561647920726567697374656044820152621c995960ea1b60648201526084016102df565b6107f38383611bfc565b5f60405180608001604052805f81526020015f81526020015f1515815260200185858080601f0160208091040260200160405190810160405280939291908181526020018383808284375f920182905250939094525050805492935090508061085b836128b8565b9091555050335f9081526003602081815260408084208054600160ff1991821681179092556002808552958390208751815593870151918401919091559085015193820180549091169315159390931790925560608301518392918201906108c39082612914565b5050505f82815260046020526040808220805460ff191660019081179091556005805491820181559092527f036b6384b5eca791c62761152d0c79bb0604c104a5fb6f4eb0703f3154bb3db090910180546001600160a01b0319163390811790915590517f61809fa303a3a57f4d70552f533f3e0b003173d424590cd4bb22a2afe000990c9161095691879087906129ce565b60405180910390a150505050565b6109746102186020830183612457565b6109c05760405162461bcd60e51b815260206004820152601c60248201527f56616c696461746f724461746120646f65736e2774206578697374730000000060448201526064016102df565b6109cd6020820182612a0d565b60025f6109dd6020850185612457565b6001600160a01b0316815260208101919091526040015f206104628282612ae4565b6001600160a01b037f0000000000000000000000000000000000000000000000000000000000000000163303610a775760405162461bcd60e51b815260206004820152601c60248201527f43616c6c65722069732074686520636f6e7472616374206f776e65720000000060448201526064016102df565b6001600160a01b0381165f9081526003602052604090205460ff16610ade5760405162461bcd60e51b815260206004820152601760248201527f4d75737420766f746520666f722076616c696461746f7200000000000000000060448201526064016102df565b6001600160a01b0381165f9081526002602081905260409091209081015460ff1615610b575760405162461bcd60e51b815260206004820152602260248201527f4d75737420766f746520666f7220756e72657369676e65642076616c6964617460448201526137b960f11b60648201526084016102df565b335f90815260066020526040902080546001600160a01b03848116911603610bc15760405162461bcd60e51b815260206004820181905260248201527f416c726561647920766f74656420666f7220746869732076616c696461746f7260448201526064016102df565b80546001600160a01b031615610bdb57610bd9611994565b505b604080516080810182526001600160a01b03808616825233803160208085019182525f85870181815260608701828152948252600690925295909520935184549084166001600160a01b03199182161785559051600185015593516002840180549184169186169190911790555160039092018054928216929093169190911790915560085416610c8d5760088054336001600160a01b03199182168117909255600980549091169091179055610ce4565b600980546001600160a01b039081165f9081526006602052604080822060030180546001600160a01b0319908116339081179092558554828552929093206002018054841692909416919091179092558254161790555b60078054905f610cf3836128b8565b9190505550336001600160a01b031631826001015f828254610d15919061286f565b9091555050815460019083905f90610d2e90849061286f565b9091555050604080513381526001600160a01b03851660208201527fce0c7a2a940807f7dc2ce7a615c2532e915e6c0ac9a08bc4ed9d515a710a53e2910160405180910390a1505050565b600d546060905f906001600160401b03811115610d9857610d98612895565b604051908082528060200260200182016040528015610dd157816020015b610dbe612361565b815260200190600190039081610db65790505b5090505f5b600d54811015610f10575f600d8281548110610df457610df4612847565b5f9182526020808320909101546001600160a01b03168083526002808352604093849020845180860186528381528551608081018752825481526001830154818701529282015460ff1615159583019590955260038101805493965090949384019285916060840191610e66906127e0565b80601f0160208091040260200160405190810160405280929190818152602001828054610e92906127e0565b8015610edd5780601f10610eb457610100808354040283529160200191610edd565b820191905f5260205f20905b815481529060010190602001808311610ec057829003601f168201915b505050505081525050815250848481518110610efb57610efb612847565b60209081029190910101525050600101610dd6565b50919050565b336001600160a01b037f00000000000000000000000000000000000000000000000000000000000000001614610f5e5760405162461bcd60e51b81526004016102df90612812565b610f66611c5e565b610f6e611dad565b600a80546001600160a01b03191690556001545f80549091610fa09160ff8516918491610f9b9190612882565b611dfe565b90508060ff165f03610fb0575050565b5f5b60055481101561125b575f60058281548110610fd057610fd0612847565b5f9182526020808320909101546001600160a01b03168083526002918290526040909220908101549192509060ff161561100b575050611253565b600a546001600160a01b03166110465750600a80546001600160a01b0319166001600160a01b03929092169190911790556001600c55611253565b8360ff16600c5410156110645761105d8285611e8f565b5050611253565b600a546001600160a01b039081165f908152600260208181526040928390208351808501855294871685528351608081018552865481526001870154818401529286015460ff161515938301939093526003850180549394611240949093928401929187916060840191906110d8906127e0565b80601f0160208091040260200160405190810160405280929190818152602001828054611104906127e0565b801561114f5780601f106111265761010080835404028352916020019161114f565b820191905f5260205f20905b81548152906001019060200180831161113257829003601f168201915b505050919092525050509052604080518082018252600a546001600160a01b031681528151608081018352855481526001860154602082810191909152600287015460ff161515938201939093526003860180549293840192879160608401916111b8906127e0565b80601f01602080910402602001604051908101604052809291908181526020018280546111e4906127e0565b801561122f5780601f106112065761010080835404028352916020019161122f565b820191905f5260205f20905b81548152906001019060200180831161121257829003601f168201915b50505050508152505081525061226e565b1561124f5761124f8386611e8f565b5050505b600101610fb2565b50600e80546001810182555f918252600a547fbb7b4a454dc3493923482f07822329ed19e8244eff582cc204f8554c3620c3fd909101916001600160a01b03909116906112aa90600d906123aa565b8260ff166001600160401b038111156112c5576112c5612895565b6040519080825280602002602001820160405280156112ee578160200160208202803683370190505b50805161130391600d916020909101906123c5565b505f5b8360ff168110156113b35781600d828154811061132557611325612847565b5f918252602080832090910180546001600160a01b039485166001600160a01b03199182161790915560408051808201825296851680885280855260028085528286206001908101548a87019081528b548083018d558c89528789209b519302909a01805492891692909516919091178455975192880192909255908352600b909152902054169101611306565b505050505b50565b335f9081526003602052604090205460ff166114195760405162461bcd60e51b815260206004820152601960248201527f43616c6c6572206973206e6f7420612076616c696461746f720000000000000060448201526064016102df565b335f9081526002602081905260409091209081015460ff161561147e5760405162461bcd60e51b815260206004820152601d60248201527f56616c696461746f7220697320616c72656164792072657369676e656400000060448201526064016102df565b60028101805460ff19166001908117909155805481905f906114a190839061286f565b90915550506040513381527f24250fc1ec78a1405ddd4cc8b75964858af228d05faa8d4bc1302966d8a541179060200160405180910390a150565b6060336001600160a01b037f000000000000000000000000000000000000000000000000000000000000000016146115265760405162461bcd60e51b81526004016102df90612812565b5f611534835f600754611dfe565b6001600160401b0381111561154b5761154b612895565b60405190808252806020026020018201604052801561158f57816020015b604080518082019091525f80825260208201528152602001906001900390816115695790505b506008549091506001600160a01b03908116908516156115c857506001600160a01b038085165f90815260066020526040902060030154165b5f5b6001600160a01b038216158015906115e157508481105b15611656576001600160a01b038083165f818152600660209081526040918290208251808401909352928252825490931692810192909252908483611625816128b8565b94508151811061163757611637612847565b6020908102919091010152600301546001600160a01b031691506115ca565b8083510361166957829350505050610683565b5f816001600160401b0381111561168257611682612895565b6040519080825280602002602001820160405280156116c657816020015b604080518082019091525f80825260208201528152602001906001900390816116a05790505b5090505f5b82811015611712578481815181106116e5576116e5612847565b60200260200101518282815181106116ff576116ff612847565b60209081029190910101526001016116cb565b509695505050505050565b6005546060905f906001600160401b0381111561173c5761173c612895565b60405190808252806020026020018201604052801561177557816020015b611762612361565b81526020019060019003908161175a5790505b5090505f5b600554811015610f10575f6005828154811061179857611798612847565b5f9182526020808320909101546001600160a01b03168083526002808352604093849020845180860186528381528551608081018752825481526001830154818701529282015460ff161515958301959095526003810180549396509094938401928591606084019161180a906127e0565b80601f0160208091040260200160405190810160405280929190818152602001828054611836906127e0565b80156118815780601f1061185857610100808354040283529160200191611881565b820191905f5260205f20905b81548152906001019060200180831161186457829003601f168201915b50505050508152505081525084848151811061189f5761189f612847565b6020908102919091010152505060010161177a565b6001600160a01b038082165f90815260066020526040902080549091166118d9575050565b60018101546001600160a01b0383163181101561193a57611904816001600160a01b03851631612882565b82546001600160a01b03165f908152600260205260408120600101805490919061192f90849061286f565b9091555061197f9050565b61194e6001600160a01b0384163182612882565b82546001600160a01b03165f9081526002602052604081206001018054909190611979908490612882565b90915550505b506001600160a01b0390911631600190910155565b335f90815260066020526040812080546001600160a01b0316611a075760405162461bcd60e51b815260206004820152602560248201527f4d75737420766f746520666f722076616c696461746f72206265666f726520756044820152646e766f746560d81b60648201526084016102df565b6009546008546001600160a01b03918216911603611a4057600880546001600160a01b0319908116909155600980549091169055611b53565b600954336001600160a01b0390911603611a99576002810180546001600160a01b039081165f90815260066020526040902060030180546001600160a01b03199081169091559154600980549093169116179055611b53565b600854336001600160a01b0390911603611afd576009546001600160a01b039081165f9081526006602052604080822060020180546001600160a01b0319908116909155600880548086168552929093206003015491169216919091179055611b53565b60038181018054600280850180546001600160a01b039081165f9081526006602052604080822090970180549583166001600160a01b031996871617905591549454811682529490200180549290931691161790555b80546001600160a01b03165f818152600260205260408120600180850154908201805492939192909190611b88908490612882565b9091555050805460019082905f90611ba1908490612882565b9091555050335f90815260066020526040812080546001600160a01b0319908116825560018201839055600282018054821690556003909101805490911690556007805491611bef83612b71565b9091555091949350505050565b60308114611c5a5760405162461bcd60e51b815260206004820152602560248201527f424c5331322d333831207075626c69634b6579206c656e67746820697320696e6044820152641d985b1a5960da1b60648201526084016102df565b5050565b6005545f611c6d600183612882565b90505b8015611c5a575f611c8282600161286f565b60408051426020820152449181019190915260608101849052608001604051602081830303815290604052805190602001205f1c611cc09190612b86565b90505f60058381548110611cd657611cd6612847565b5f91825260209091200154600580546001600160a01b0390921692509083908110611d0357611d03612847565b5f91825260209091200154600580546001600160a01b039092169185908110611d2e57611d2e612847565b905f5260205f20015f6101000a8154816001600160a01b0302191690836001600160a01b031602179055508060058381548110611d6d57611d6d612847565b905f5260205f20015f6101000a8154816001600160a01b0302191690836001600160a01b0316021790555050508080611da590612b71565b915050611c70565b600a546001600160a01b03165b6001600160a01b03811615611df7576001600160a01b039081165f908152600b6020526040902080546001600160a01b0319811690915516611dba565b505f600c55565b5f81831115611e675760405162461bcd60e51b815260206004820152602f60248201527f4d696e696d756d2073686f756c64206265206c657373207468616e206f72206560448201526e7175616c20746f206d6178696d756d60881b60648201526084016102df565b82841015611e76575081611e88565b81841115611e85575080611e88565b50825b9392505050565b6001600160a01b0382165f9081526002602081815260408084208151608081018352815481526001820154938101939093529283015460ff16151590820152600382018054919291606084019190611ee6906127e0565b80601f0160208091040260200160405190810160405280929190818152602001828054611f12906127e0565b8015611f5d5780601f10611f3457610100808354040283529160200191611f5d565b820191905f5260205f20905b815481529060010190602001808311611f4057829003601f168201915b505050919092525050604080518082018252600a546001600160a01b03168082525f90815260026020818152918490208451608081018652815481526001820154818501529181015460ff1615159482019490945260038401805496975061207e9693955091850193909290916060840191611fd8906127e0565b80601f0160208091040260200160405190810160405280929190818152602001828054612004906127e0565b801561204f5780601f106120265761010080835404028352916020019161204f565b820191905f5260205f20905b81548152906001019060200180831161203257829003601f168201915b5050505050815250508152506040518060400160405280866001600160a01b031681526020018481525061226e565b156120915761208c836122b2565b61220f565b600a546001600160a01b039081165f818152600b6020526040902054909116905b6001600160a01b0382166120cf576120ca8186612303565b61220c565b6040805180820182526001600160a01b0384168082525f90815260026020818152918490208451608081018652815481526001820154818501529181015460ff161515948201949094526003840180546121dc9593850193916060840191612136906127e0565b80601f0160208091040260200160405190810160405280929190818152602001828054612162906127e0565b80156121ad5780601f10612184576101008083540402835291602001916121ad565b820191905f5260205f20905b81548152906001019060200180831161219057829003601f168201915b5050505050815250508152506040518060400160405280886001600160a01b031681526020018681525061226e565b156121eb576120ca8186612303565b506001600160a01b038082165f908152600b602052604090205416906120b2565b50505b8160ff16600c54111561046257600a80546001600160a01b039081165f908152600b6020526040812080546001600160a01b03198082169092558454931692168217909255600c8054919261226383612b71565b919050555050505050565b5f8160200151602001518360200151602001510361229e5750805182516001600160a01b03918216911611610683565b506020908101518101519181015101511190565b600a80546001600160a01b038381165f818152600b602052604081208054939094166001600160a01b031993841617909355835490911617909155600c8054916122fb836128b8565b919050555050565b6001600160a01b038281165f818152600b602052604080822080548686168085529284208054919096166001600160a01b03199182161790955592825282549093169092179055600c805491612358836128b8565b91905055505050565b60405180604001604052805f6001600160a01b031681526020016123a560405180608001604052805f81526020015f81526020015f15158152602001606081525090565b905290565b5080545f8255905f5260205f20908101906113b89190612428565b828054828255905f5260205f20908101928215612418579160200282015b8281111561241857825182546001600160a01b0319166001600160a01b039091161782556020909201916001909101906123e3565b50612424929150612428565b5090565b5b80821115612424575f8155600101612429565b80356001600160a01b0381168114612452575f5ffd5b919050565b5f60208284031215612467575f5ffd5b611e888261243c565b60018060a01b0381511682525f602082015160406020850152805160408501526020810151606085015260408101511515608085015260608101519050608060a085015280518060c08601525f5b818110156124db57602081840181015160e08884010152016124be565b505f60e0828701015260e0601f19601f8301168601019250505092915050565b602081525f611e886020830184612470565b5f5f6020838503121561251e575f5ffd5b82356001600160401b03811115612533575f5ffd5b8301601f81018513612543575f5ffd5b80356001600160401b03811115612558575f5ffd5b8560208260051b840101111561256c575f5ffd5b6020919091019590945092505050565b5f5f6040838503121561258d575f5ffd5b50508035926020909101359150565b5f602082016020835280845180835260408501915060408160051b8601019250602086015f5b8281101561264957868503603f19018452815180518652602090810151604082880181905281519088018190529101905f9060608801905b8083101561263157835180516001600160a01b031683526020908101518184015290930192600192909201916040909101906125fa565b509650505060209384019391909101906001016125c2565b50929695505050505050565b5f5f60208385031215612666575f5ffd5b82356001600160401b0381111561267b575f5ffd5b8301601f8101851361268b575f5ffd5b80356001600160401b038111156126a0575f5ffd5b85602082840101111561256c575f5ffd5b5f602082840312156126c1575f5ffd5b81356001600160401b038111156126d6575f5ffd5b820160408185031215611e88575f5ffd5b5f602082016020835280845180835260408501915060408160051b8601019250602086015f5b8281101561264957603f19878603018452612729858351612470565b9450602093840193919091019060010161270d565b5f6020828403121561274e575f5ffd5b813560ff81168114611e88575f5ffd5b5f5f6040838503121561276f575f5ffd5b6127788361243c565b946020939093013593505050565b602080825282518282018190525f918401906040840190835b818110156127d557835180516001600160a01b03908116855260209182015116818501529093019260409092019160010161279f565b509095945050505050565b600181811c908216806127f457607f821691505b602082108103610f1057634e487b7160e01b5f52602260045260245ffd5b6020808252818101527f43616c6c6572206973206e6f742074686520636f6e7472616374206f776e6572604082015260600190565b634e487b7160e01b5f52603260045260245ffd5b634e487b7160e01b5f52601160045260245ffd5b808201808211156106835761068361285b565b818103818111156106835761068361285b565b634e487b7160e01b5f52604160045260245ffd5b818382375f9101908152919050565b5f600182016128c9576128c961285b565b5060010190565b601f82111561046257805f5260205f20601f840160051c810160208510156128f55750805b601f840160051c820191505b818110156113b3575f8155600101612901565b81516001600160401b0381111561292d5761292d612895565b6129418161293b84546127e0565b846128d0565b6020601f821160018114612973575f831561295c5750848201515b5f19600385901b1c1916600184901b1784556113b3565b5f84815260208120601f198516915b828110156129a25787850151825560209485019460019092019101612982565b50848210156129bf57868401515f19600387901b60f8161c191681555b50505050600190811b01905550565b6001600160a01b03841681526040602082018190528101829052818360608301375f818301606090810191909152601f909201601f1916010192915050565b5f8235607e19833603018112612a21575f5ffd5b9190910192915050565b6001600160401b03831115612a4257612a42612895565b612a5683612a5083546127e0565b836128d0565b5f601f841160018114612a87575f8515612a705750838201355b5f19600387901b1c1916600186901b1783556113b3565b5f83815260208120601f198716915b82811015612ab65786850135825560209485019460019092019101612a96565b5086821015612ad2575f1960f88860031b161c19848701351681555b505060018560011b0183555050505050565b8135815560208201356001820155600281016040830135801515808214612b09575f5ffd5b60ff19835416915060ff8116821783555050506060820135601e19833603018112612b32575f5ffd5b820180356001600160401b03811115612b49575f5ffd5b602082019150803603821315612b5d575f5ffd5b612b6b818360038601612a2b565b50505050565b5f81612b7f57612b7f61285b565b505f190190565b5f82612ba057634e487b7160e01b5f52601260045260245ffd5b50069056fea264697066735822122071b882f5aa13e15b9bba503811bfdf20f770de1ab04c653b0dfdade41b9c0bed64736f6c634300081b0033",
		"linkReferences": {}
	},
	"methodIdentifiers": {
		"activeValidatorsCount()": "0d2bd909",
		"calculateTopValidators(uint8)": "b5cfa68c",
		"getAllValidators()": "f3513a37",
		"getRounds(uint256,uint256)": "40f74f47",
		"getRoundsCount()": "a09686c4",
		"getTopValidators()": "afeea115",
		"getValidator(address)": "1904bb2e",
		"getVotes(address,uint256)": "eb9019d4",
		"getVotesCount()": "1b605b86",
		"isValidatorRegistered(address)": "d04a68c7",
		"registerValidator(bytes)": "602a9eee",
		"registeredValidatorsCount()": "f1bd0b37",
		"resignValidator()": "b85f5da2",
		"resignedValidatorsCount()": "0777cbef",
		"unvote()": "3174b689",
		"updateValidator((address,(uint256,uint256,bool,bytes)))": "62525879",
		"updateVoters(address[])": "2bdf6d43",
		"vote(address)": "6dd7d8ea"
	},
	"id": 23
}