{
	"abi": [
		{
			"type": "constructor",
			"inputs": [],
			"stateMutability": "nonpayable"
		},
		{
			"type": "function",
			"name": "activeValidatorsCount",
			"inputs": [],
			"outputs": [
				{
					"name": "",
					"type": "uint256",
					"internalType": "uint256"
				}
			],
			"stateMutability": "view"
		},
		{
			"type": "function",
			"name": "calculateTopValidators",
			"inputs": [
				{
					"name": "n",
					"type": "uint8",
					"internalType": "uint8"
				}
			],
			"outputs": [],
			"stateMutability": "nonpayable"
		},
		{
			"type": "function",
			"name": "getAllValidators",
			"inputs": [],
			"outputs": [
				{
					"name": "",
					"type": "tuple[]",
					"internalType": "struct Validator[]",
					"components": [
						{
							"name": "addr",
							"type": "address",
							"internalType": "address"
						},
						{
							"name": "data",
							"type": "tuple",
							"internalType": "struct ValidatorData",
							"components": [
								{
									"name": "votersCount",
									"type": "uint256",
									"internalType": "uint256"
								},
								{
									"name": "voteBalance",
									"type": "uint256",
									"internalType": "uint256"
								},
								{
									"name": "isResigned",
									"type": "bool",
									"internalType": "bool"
								},
								{
									"name": "bls12_381_public_key",
									"type": "bytes",
									"internalType": "bytes"
								}
							]
						}
					]
				}
			],
			"stateMutability": "view"
		},
		{
			"type": "function",
			"name": "getRounds",
			"inputs": [
				{
					"name": "offset",
					"type": "uint256",
					"internalType": "uint256"
				},
				{
					"name": "count",
					"type": "uint256",
					"internalType": "uint256"
				}
			],
			"outputs": [
				{
					"name": "",
					"type": "tuple[]",
					"internalType": "struct Round[]",
					"components": [
						{
							"name": "round",
							"type": "uint256",
							"internalType": "uint256"
						},
						{
							"name": "validators",
							"type": "tuple[]",
							"internalType": "struct RoundValidator[]",
							"components": [
								{
									"name": "addr",
									"type": "address",
									"internalType": "address"
								},
								{
									"name": "voteBalance",
									"type": "uint256",
									"internalType": "uint256"
								}
							]
						}
					]
				}
			],
			"stateMutability": "view"
		},
		{
			"type": "function",
			"name": "getRoundsCount",
			"inputs": [],
			"outputs": [
				{
					"name": "",
					"type": "uint256",
					"internalType": "uint256"
				}
			],
			"stateMutability": "view"
		},
		{
			"type": "function",
			"name": "getTopValidators",
			"inputs": [],
			"outputs": [
				{
					"name": "",
					"type": "tuple[]",
					"internalType": "struct Validator[]",
					"components": [
						{
							"name": "addr",
							"type": "address",
							"internalType": "address"
						},
						{
							"name": "data",
							"type": "tuple",
							"internalType": "struct ValidatorData",
							"components": [
								{
									"name": "votersCount",
									"type": "uint256",
									"internalType": "uint256"
								},
								{
									"name": "voteBalance",
									"type": "uint256",
									"internalType": "uint256"
								},
								{
									"name": "isResigned",
									"type": "bool",
									"internalType": "bool"
								},
								{
									"name": "bls12_381_public_key",
									"type": "bytes",
									"internalType": "bytes"
								}
							]
						}
					]
				}
			],
			"stateMutability": "view"
		},
		{
			"type": "function",
			"name": "getValidator",
			"inputs": [
				{
					"name": "_addr",
					"type": "address",
					"internalType": "address"
				}
			],
			"outputs": [
				{
					"name": "",
					"type": "tuple",
					"internalType": "struct Validator",
					"components": [
						{
							"name": "addr",
							"type": "address",
							"internalType": "address"
						},
						{
							"name": "data",
							"type": "tuple",
							"internalType": "struct ValidatorData",
							"components": [
								{
									"name": "votersCount",
									"type": "uint256",
									"internalType": "uint256"
								},
								{
									"name": "voteBalance",
									"type": "uint256",
									"internalType": "uint256"
								},
								{
									"name": "isResigned",
									"type": "bool",
									"internalType": "bool"
								},
								{
									"name": "bls12_381_public_key",
									"type": "bytes",
									"internalType": "bytes"
								}
							]
						}
					]
				}
			],
			"stateMutability": "view"
		},
		{
			"type": "function",
			"name": "getVotes",
			"inputs": [
				{
					"name": "addr",
					"type": "address",
					"internalType": "address"
				},
				{
					"name": "count",
					"type": "uint256",
					"internalType": "uint256"
				}
			],
			"outputs": [
				{
					"name": "",
					"type": "tuple[]",
					"internalType": "struct VoteResult[]",
					"components": [
						{
							"name": "voter",
							"type": "address",
							"internalType": "address"
						},
						{
							"name": "validator",
							"type": "address",
							"internalType": "address"
						}
					]
				}
			],
			"stateMutability": "view"
		},
		{
			"type": "function",
			"name": "getVotesCount",
			"inputs": [],
			"outputs": [
				{
					"name": "",
					"type": "uint256",
					"internalType": "uint256"
				}
			],
			"stateMutability": "view"
		},
		{
			"type": "function",
			"name": "isValidatorRegistered",
			"inputs": [
				{
					"name": "addr",
					"type": "address",
					"internalType": "address"
				}
			],
			"outputs": [
				{
					"name": "",
					"type": "bool",
					"internalType": "bool"
				}
			],
			"stateMutability": "view"
		},
		{
			"type": "function",
			"name": "registerValidator",
			"inputs": [
				{
					"name": "bls12_381_public_key",
					"type": "bytes",
					"internalType": "bytes"
				}
			],
			"outputs": [],
			"stateMutability": "nonpayable"
		},
		{
			"type": "function",
			"name": "registeredValidatorsCount",
			"inputs": [],
			"outputs": [
				{
					"name": "",
					"type": "uint256",
					"internalType": "uint256"
				}
			],
			"stateMutability": "view"
		},
		{
			"type": "function",
			"name": "resignValidator",
			"inputs": [],
			"outputs": [],
			"stateMutability": "nonpayable"
		},
		{
			"type": "function",
			"name": "resignedValidatorsCount",
			"inputs": [],
			"outputs": [
				{
					"name": "",
					"type": "uint256",
					"internalType": "uint256"
				}
			],
			"stateMutability": "view"
		},
		{
			"type": "function",
			"name": "unvote",
			"inputs": [],
			"outputs": [],
			"stateMutability": "nonpayable"
		},
		{
			"type": "function",
			"name": "updateValidator",
			"inputs": [
				{
					"name": "_validator",
					"type": "tuple",
					"internalType": "struct Validator",
					"components": [
						{
							"name": "addr",
							"type": "address",
							"internalType": "address"
						},
						{
							"name": "data",
							"type": "tuple",
							"internalType": "struct ValidatorData",
							"components": [
								{
									"name": "votersCount",
									"type": "uint256",
									"internalType": "uint256"
								},
								{
									"name": "voteBalance",
									"type": "uint256",
									"internalType": "uint256"
								},
								{
									"name": "isResigned",
									"type": "bool",
									"internalType": "bool"
								},
								{
									"name": "bls12_381_public_key",
									"type": "bytes",
									"internalType": "bytes"
								}
							]
						}
					]
				}
			],
			"outputs": [],
			"stateMutability": "nonpayable"
		},
		{
			"type": "function",
			"name": "updateVoters",
			"inputs": [
				{
					"name": "voters",
					"type": "address[]",
					"internalType": "address[]"
				}
			],
			"outputs": [],
			"stateMutability": "nonpayable"
		},
		{
			"type": "function",
			"name": "vote",
			"inputs": [
				{
					"name": "addr",
					"type": "address",
					"internalType": "address"
				}
			],
			"outputs": [],
			"stateMutability": "nonpayable"
		},
		{
			"type": "event",
			"name": "Unvoted",
			"inputs": [
				{
					"name": "voter",
					"type": "address",
					"indexed": false,
					"internalType": "address"
				},
				{
					"name": "validator",
					"type": "address",
					"indexed": false,
					"internalType": "address"
				}
			],
			"anonymous": false
		},
		{
			"type": "event",
			"name": "ValidatorRegistered",
			"inputs": [
				{
					"name": "addr",
					"type": "address",
					"indexed": false,
					"internalType": "address"
				},
				{
					"name": "bls12_381_public_key",
					"type": "bytes",
					"indexed": false,
					"internalType": "bytes"
				}
			],
			"anonymous": false
		},
		{
			"type": "event",
			"name": "ValidatorResigned",
			"inputs": [
				{
					"name": "addr",
					"type": "address",
					"indexed": false,
					"internalType": "address"
				}
			],
			"anonymous": false
		},
		{
			"type": "event",
			"name": "Voted",
			"inputs": [
				{
					"name": "voter",
					"type": "address",
					"indexed": false,
					"internalType": "address"
				},
				{
					"name": "validator",
					"type": "address",
					"indexed": false,
					"internalType": "address"
				}
			],
			"anonymous": false
		}
	],
	"bytecode": {
		"object": "0x60a06040525f80805560018190556007819055600880546001600160a01b0319908116909155600980549091169055600c5534801561003c575f5ffd5b5033608052608051612b7761007c5f395f81816103e401528181610700015281816108d001528181610c460152818161112e01526116f60152612b775ff3fe608060405234801561000f575f5ffd5b5060043610610111575f3560e01c80636dd7d8ea1161009e578063b85f5da21161006e578063b85f5da214610202578063d04a68c71461020a578063eb9019d414610245578063f1bd0b3714610265578063f3513a371461026c575f5ffd5b80636dd7d8ea146101bf578063a09686c4146101d2578063afeea115146101da578063b5cfa68c146101ef575f5ffd5b80632bdf6d43116100e45780632bdf6d431461015c5780633174b6891461017157806340f74f4714610179578063602a9eee1461019957806362525879146101ac575f5ffd5b80630777cbef146101155780630d2bd9091461012c5780631904bb2e146101345780631b605b8614610154575b5f5ffd5b6001545b6040519081526020015b60405180910390f35b600d54610119565b6101476101423660046123f3565b610274565b6040516101239190612497565b600754610119565b61016f61016a3660046124a9565b6103d9565b005b61016f610467565b61018c610187366004612518565b6106f3565b6040516101239190612538565b61016f6101a73660046125f1565b6108c6565b61016f6101ba36600461264d565b610ba1565b61016f6101cd3660046123f3565b610c3c565b600e54610119565b6101e2610f86565b6040516101239190612683565b61016f6101fd3660046126da565b611123565b61016f6115c8565b6102356102183660046123f3565b6001600160a01b03165f9081526003602052604090205460ff1690565b6040519015158152602001610123565b6102586102533660046126fa565b6116e9565b6040516101239190612722565b5f54610119565b6101e261192a565b61027c6122fd565b6001600160a01b0382165f9081526003602052604090205460ff166102e85760405162461bcd60e51b815260206004820152601c60248201527f56616c696461746f724461746120646f65736e2774206578697374730000000060448201526064015b60405180910390fd5b6040805180820182526001600160a01b0384168082525f90815260026020818152918490208451608081018652815481526001820154818501529181015460ff161515948201949094526003840180549394928501939192916060840191906103509061277c565b80601f016020809104026020016040519081016040528092919081815260200182805461037c9061277c565b80156103c75780601f1061039e576101008083540402835291602001916103c7565b820191905f5260205f20905b8154815290600101906020018083116103aa57829003601f168201915b50505091909252505050905292915050565b336001600160a01b037f000000000000000000000000000000000000000000000000000000000000000016146104215760405162461bcd60e51b81526004016102df906127ae565b5f5b818110156104625761045a838383818110610440576104406127e3565b905060200201602081019061045591906123f3565b611ac1565b600101610423565b505050565b335f90815260066020526040902080546001600160a01b03166104be5760405162461bcd60e51b815260206004820152600f60248201526e1513d113ce881b9bdd081d9bdd1959608a1b60448201526064016102df565b6009546008546001600160a01b039182169116036104f757600880546001600160a01b031990811690915560098054909116905561060a565b600954336001600160a01b0390911603610550576002810180546001600160a01b039081165f90815260066020526040902060030180546001600160a01b0319908116909155915460098054909316911617905561060a565b600854336001600160a01b03909116036105b4576009546001600160a01b039081165f9081526006602052604080822060020180546001600160a01b031990811690915560088054808616855292909320600301549116921691909117905561060a565b60038181018054600280850180546001600160a01b039081165f9081526006602052604080822090970180549583166001600160a01b031996871617905591549454811682529490200180549290931691161790555b8054604080513381526001600160a01b0390921660208301527f6572af8bf9a0a86efb88dcc30011626a15c9c4603503aa4466a3f87a1867deef910160405180910390a180546001600160a01b03165f90815260026020526040812060018084015490820180549293919290919061068390849061280b565b9091555050805460019082905f9061069c90849061280b565b9091555050335f90815260066020526040812080546001600160a01b03199081168255600182018390556002820180548216905560039091018054909116905560078054916106ea8361281e565b91905055505050565b6060336001600160a01b037f0000000000000000000000000000000000000000000000000000000000000000161461073d5760405162461bcd60e51b81526004016102df906127ae565b600e548290841061074f57505f610773565b600e5461075c8486612833565b111561077357600e5461077090859061280b565b90505b5f816001600160401b0381111561078c5761078c612846565b6040519080825280602002602001820160405280156107d157816020015b604080518082019091525f8152606060208201528152602001906001900390816107aa5790505b5090505f5b828110156108bb57604051806040016040528082886107f59190612833565b610800906001612833565b8152602001600e610811848a612833565b81548110610821576108216127e3565b905f5260205f2001805480602002602001604051908101604052809291908181526020015f905b8282101561088f575f848152602090819020604080518082019091526002850290910180546001600160a01b03168252600190810154828401529083529092019101610848565b505050508152508282815181106108a8576108a86127e3565b60209081029190910101526001016107d6565b509150505b92915050565b6001600160a01b037f000000000000000000000000000000000000000000000000000000000000000016330361093e5760405162461bcd60e51b815260206004820152601c60248201527f43616c6c65722069732074686520636f6e7472616374206f776e65720000000060448201526064016102df565b335f9081526003602052604090205460ff161561099d5760405162461bcd60e51b815260206004820152601f60248201527f56616c696461746f7220697320616c726561647920726567697374657265640060448201526064016102df565b5f82826040516109ae92919061285a565b60408051918290039091205f8181526004602052919091205490915060ff1615610a265760405162461bcd60e51b815260206004820152602360248201527f424c5331322d333831206b657920697320616c726561647920726567697374656044820152621c995960ea1b60648201526084016102df565b610a308383611ba1565b5f60405180608001604052805f81526020015f81526020015f1515815260200185858080601f0160208091040260200160405190810160405280939291908181526020018383808284375f9201829052509390945250508054929350905080610a9883612869565b9091555050335f9081526003602081815260408084208054600160ff199182168117909255600280855295839020875181559387015191840191909155908501519382018054909116931515939093179092556060830151839291820190610b0090826128c5565b5050505f82815260046020526040808220805460ff191660019081179091556005805491820181559092527f036b6384b5eca791c62761152d0c79bb0604c104a5fb6f4eb0703f3154bb3db090910180546001600160a01b0319163390811790915590517f61809fa303a3a57f4d70552f533f3e0b003173d424590cd4bb22a2afe000990c91610b93918790879061297f565b60405180910390a150505050565b610bb161021860208301836123f3565b610bfd5760405162461bcd60e51b815260206004820152601c60248201527f56616c696461746f724461746120646f65736e2774206578697374730000000060448201526064016102df565b610c0a60208201826129be565b60025f610c1a60208501856123f3565b6001600160a01b0316815260208101919091526040015f206104628282612a95565b6001600160a01b037f0000000000000000000000000000000000000000000000000000000000000000163303610cb45760405162461bcd60e51b815260206004820152601c60248201527f43616c6c65722069732074686520636f6e7472616374206f776e65720000000060448201526064016102df565b6001600160a01b0381165f9081526003602052604090205460ff16610d1b5760405162461bcd60e51b815260206004820152601760248201527f4d75737420766f746520666f722076616c696461746f7200000000000000000060448201526064016102df565b335f908152600660205260409020546001600160a01b031615610d705760405162461bcd60e51b815260206004820152600d60248201526c105b1c9958591e481d9bdd1959609a1b60448201526064016102df565b6001600160a01b0381165f9081526002602081905260409091209081015460ff1615610de95760405162461bcd60e51b815260206004820152602260248201527f4d75737420766f746520666f7220756e72657369676e65642076616c6964617460448201526137b960f11b60648201526084016102df565b604080516080810182526001600160a01b03808516825233803160208085019182525f85870181815260608701828152948252600690925295909520935184549084166001600160a01b03199182161785559051600185015593516002840180549184169186169190911790555160039092018054928216929093169190911790915560085416610e9b5760088054336001600160a01b03199182168117909255600980549091169091179055610ef2565b600980546001600160a01b039081165f9081526006602052604080822060030180546001600160a01b0319908116339081179092558554828552929093206002018054841692909416919091179092558254161790555b60078054905f610f0183612869565b9190505550336001600160a01b031631816001015f828254610f239190612833565b9091555050805460019082905f90610f3c908490612833565b9091555050604080513381526001600160a01b03841660208201527fce0c7a2a940807f7dc2ce7a615c2532e915e6c0ac9a08bc4ed9d515a710a53e2910160405180910390a15050565b600d546060905f906001600160401b03811115610fa557610fa5612846565b604051908082528060200260200182016040528015610fde57816020015b610fcb6122fd565b815260200190600190039081610fc35790505b5090505f5b600d5481101561111d575f600d8281548110611001576110016127e3565b5f9182526020808320909101546001600160a01b03168083526002808352604093849020845180860186528381528551608081018752825481526001830154818701529282015460ff16151595830195909552600381018054939650909493840192859160608401916110739061277c565b80601f016020809104026020016040519081016040528092919081815260200182805461109f9061277c565b80156110ea5780601f106110c1576101008083540402835291602001916110ea565b820191905f5260205f20905b8154815290600101906020018083116110cd57829003601f168201915b505050505081525050815250848481518110611108576111086127e3565b60209081029190910101525050600101610fe3565b50919050565b336001600160a01b037f0000000000000000000000000000000000000000000000000000000000000000161461116b5760405162461bcd60e51b81526004016102df906127ae565b611173611c03565b61117b611d52565b600a80546001600160a01b03191690556001545f805490916111ad9160ff85169184916111a8919061280b565b611da3565b90508060ff165f036111bd575050565b5f5b600554811015611468575f600582815481106111dd576111dd6127e3565b5f9182526020808320909101546001600160a01b03168083526002918290526040909220908101549192509060ff1615611218575050611460565b600a546001600160a01b03166112535750600a80546001600160a01b0319166001600160a01b03929092169190911790556001600c55611460565b8360ff16600c5410156112715761126a8285611e34565b5050611460565b600a546001600160a01b039081165f908152600260208181526040928390208351808501855294871685528351608081018552865481526001870154818401529286015460ff16151593830193909352600385018054939461144d949093928401929187916060840191906112e59061277c565b80601f01602080910402602001604051908101604052809291908181526020018280546113119061277c565b801561135c5780601f106113335761010080835404028352916020019161135c565b820191905f5260205f20905b81548152906001019060200180831161133f57829003601f168201915b505050919092525050509052604080518082018252600a546001600160a01b031681528151608081018352855481526001860154602082810191909152600287015460ff161515938201939093526003860180549293840192879160608401916113c59061277c565b80601f01602080910402602001604051908101604052809291908181526020018280546113f19061277c565b801561143c5780601f106114135761010080835404028352916020019161143c565b820191905f5260205f20905b81548152906001019060200180831161141f57829003601f168201915b505050505081525050815250612213565b1561145c5761145c8386611e34565b5050505b6001016111bf565b50600e80546001810182555f918252600a547fbb7b4a454dc3493923482f07822329ed19e8244eff582cc204f8554c3620c3fd909101916001600160a01b03909116906114b790600d90612346565b8260ff166001600160401b038111156114d2576114d2612846565b6040519080825280602002602001820160405280156114fb578160200160208202803683370190505b50805161151091600d91602090910190612361565b505f5b8360ff168110156115c05781600d8281548110611532576115326127e3565b5f918252602080832090910180546001600160a01b039485166001600160a01b03199182161790915560408051808201825296851680885280855260028085528286206001908101548a87019081528b548083018d558c89528789209b519302909a01805492891692909516919091178455975192880192909255908352600b909152902054169101611513565b505050505b50565b335f9081526003602052604090205460ff166116265760405162461bcd60e51b815260206004820152601960248201527f43616c6c6572206973206e6f7420612076616c696461746f720000000000000060448201526064016102df565b335f9081526002602081905260409091209081015460ff161561168b5760405162461bcd60e51b815260206004820152601d60248201527f56616c696461746f7220697320616c72656164792072657369676e656400000060448201526064016102df565b60028101805460ff19166001908117909155805481905f906116ae908390612833565b90915550506040513381527f24250fc1ec78a1405ddd4cc8b75964858af228d05faa8d4bc1302966d8a541179060200160405180910390a150565b6060336001600160a01b037f000000000000000000000000000000000000000000000000000000000000000016146117335760405162461bcd60e51b81526004016102df906127ae565b5f611741835f600754611da3565b6001600160401b0381111561175857611758612846565b60405190808252806020026020018201604052801561179c57816020015b604080518082019091525f80825260208201528152602001906001900390816117765790505b506008549091506001600160a01b03908116908516156117d557506001600160a01b038085165f90815260066020526040902060030154165b5f5b6001600160a01b038216158015906117ee57508481105b15611863576001600160a01b038083165f81815260066020908152604091829020825180840190935292825282549093169281019290925290848361183281612869565b945081518110611844576118446127e3565b6020908102919091010152600301546001600160a01b031691506117d7565b80835103611876578293505050506108c0565b5f816001600160401b0381111561188f5761188f612846565b6040519080825280602002602001820160405280156118d357816020015b604080518082019091525f80825260208201528152602001906001900390816118ad5790505b5090505f5b8281101561191f578481815181106118f2576118f26127e3565b602002602001015182828151811061190c5761190c6127e3565b60209081029190910101526001016118d8565b509695505050505050565b6005546060905f906001600160401b0381111561194957611949612846565b60405190808252806020026020018201604052801561198257816020015b61196f6122fd565b8152602001906001900390816119675790505b5090505f5b60055481101561111d575f600582815481106119a5576119a56127e3565b5f9182526020808320909101546001600160a01b03168083526002808352604093849020845180860186528381528551608081018752825481526001830154818701529282015460ff1615159583019590955260038101805493965090949384019285916060840191611a179061277c565b80601f0160208091040260200160405190810160405280929190818152602001828054611a439061277c565b8015611a8e5780601f10611a6557610100808354040283529160200191611a8e565b820191905f5260205f20905b815481529060010190602001808311611a7157829003601f168201915b505050505081525050815250848481518110611aac57611aac6127e3565b60209081029190910101525050600101611987565b6001600160a01b038082165f9081526006602052604090208054909116611ae6575050565b60018101546001600160a01b03831631811015611b4757611b11816001600160a01b0385163161280b565b82546001600160a01b03165f9081526002602052604081206001018054909190611b3c908490612833565b90915550611b8c9050565b611b5b6001600160a01b038416318261280b565b82546001600160a01b03165f9081526002602052604081206001018054909190611b8690849061280b565b90915550505b506001600160a01b0390911631600190910155565b60308114611bff5760405162461bcd60e51b815260206004820152602560248201527f424c5331322d333831207075626c69634b6579206c656e67746820697320696e6044820152641d985b1a5960da1b60648201526084016102df565b5050565b6005545f611c1260018361280b565b90505b8015611bff575f611c27826001612833565b60408051426020820152449181019190915260608101849052608001604051602081830303815290604052805190602001205f1c611c659190612b22565b90505f60058381548110611c7b57611c7b6127e3565b5f91825260209091200154600580546001600160a01b0390921692509083908110611ca857611ca86127e3565b5f91825260209091200154600580546001600160a01b039092169185908110611cd357611cd36127e3565b905f5260205f20015f6101000a8154816001600160a01b0302191690836001600160a01b031602179055508060058381548110611d1257611d126127e3565b905f5260205f20015f6101000a8154816001600160a01b0302191690836001600160a01b0316021790555050508080611d4a9061281e565b915050611c15565b600a546001600160a01b03165b6001600160a01b03811615611d9c576001600160a01b039081165f908152600b6020526040902080546001600160a01b0319811690915516611d5f565b505f600c55565b5f81831115611e0c5760405162461bcd60e51b815260206004820152602f60248201527f4d696e696d756d2073686f756c64206265206c657373207468616e206f72206560448201526e7175616c20746f206d6178696d756d60881b60648201526084016102df565b82841015611e1b575081611e2d565b81841115611e2a575080611e2d565b50825b9392505050565b6001600160a01b0382165f9081526002602081815260408084208151608081018352815481526001820154938101939093529283015460ff16151590820152600382018054919291606084019190611e8b9061277c565b80601f0160208091040260200160405190810160405280929190818152602001828054611eb79061277c565b8015611f025780601f10611ed957610100808354040283529160200191611f02565b820191905f5260205f20905b815481529060010190602001808311611ee557829003601f168201915b505050919092525050604080518082018252600a546001600160a01b03168082525f90815260026020818152918490208451608081018652815481526001820154818501529181015460ff161515948201949094526003840180549697506120239693955091850193909290916060840191611f7d9061277c565b80601f0160208091040260200160405190810160405280929190818152602001828054611fa99061277c565b8015611ff45780601f10611fcb57610100808354040283529160200191611ff4565b820191905f5260205f20905b815481529060010190602001808311611fd757829003601f168201915b5050505050815250508152506040518060400160405280866001600160a01b0316815260200184815250612213565b156120365761203183612257565b6121b4565b600a546001600160a01b039081165f818152600b6020526040902054909116905b6001600160a01b0382166120745761206f81866122a8565b6121b1565b6040805180820182526001600160a01b0384168082525f90815260026020818152918490208451608081018652815481526001820154818501529181015460ff1615159482019490945260038401805461218195938501939160608401916120db9061277c565b80601f01602080910402602001604051908101604052809291908181526020018280546121079061277c565b80156121525780601f1061212957610100808354040283529160200191612152565b820191905f5260205f20905b81548152906001019060200180831161213557829003601f168201915b5050505050815250508152506040518060400160405280886001600160a01b0316815260200186815250612213565b156121905761206f81866122a8565b506001600160a01b038082165f908152600b60205260409020541690612057565b50505b8160ff16600c54111561046257600a80546001600160a01b039081165f908152600b6020526040812080546001600160a01b03198082169092558454931692168217909255600c805491926122088361281e565b919050555050505050565b5f816020015160200151836020015160200151036122435750805182516001600160a01b039182169116116108c0565b506020908101518101519181015101511190565b600a80546001600160a01b038381165f818152600b602052604081208054939094166001600160a01b031993841617909355835490911617909155600c8054916122a083612869565b919050555050565b6001600160a01b038281165f818152600b602052604080822080548686168085529284208054919096166001600160a01b03199182161790955592825282549093169092179055600c8054916106ea83612869565b60405180604001604052805f6001600160a01b0316815260200161234160405180608001604052805f81526020015f81526020015f15158152602001606081525090565b905290565b5080545f8255905f5260205f20908101906115c591906123c4565b828054828255905f5260205f209081019282156123b4579160200282015b828111156123b457825182546001600160a01b0319166001600160a01b0390911617825560209092019160019091019061237f565b506123c09291506123c4565b5090565b5b808211156123c0575f81556001016123c5565b80356001600160a01b03811681146123ee575f5ffd5b919050565b5f60208284031215612403575f5ffd5b611e2d826123d8565b60018060a01b0381511682525f602082015160406020850152805160408501526020810151606085015260408101511515608085015260608101519050608060a085015280518060c08601525f5b8181101561247757602081840181015160e088840101520161245a565b505f60e0828701015260e0601f19601f8301168601019250505092915050565b602081525f611e2d602083018461240c565b5f5f602083850312156124ba575f5ffd5b82356001600160401b038111156124cf575f5ffd5b8301601f810185136124df575f5ffd5b80356001600160401b038111156124f4575f5ffd5b8560208260051b8401011115612508575f5ffd5b6020919091019590945092505050565b5f5f60408385031215612529575f5ffd5b50508035926020909101359150565b5f602082016020835280845180835260408501915060408160051b8601019250602086015f5b828110156125e557868503603f19018452815180518652602090810151604082880181905281519088018190529101905f9060608801905b808310156125cd57835180516001600160a01b03168352602090810151818401529093019260019290920191604090910190612596565b5096505050602093840193919091019060010161255e565b50929695505050505050565b5f5f60208385031215612602575f5ffd5b82356001600160401b03811115612617575f5ffd5b8301601f81018513612627575f5ffd5b80356001600160401b0381111561263c575f5ffd5b856020828401011115612508575f5ffd5b5f6020828403121561265d575f5ffd5b81356001600160401b03811115612672575f5ffd5b820160408185031215611e2d575f5ffd5b5f602082016020835280845180835260408501915060408160051b8601019250602086015f5b828110156125e557603f198786030184526126c585835161240c565b945060209384019391909101906001016126a9565b5f602082840312156126ea575f5ffd5b813560ff81168114611e2d575f5ffd5b5f5f6040838503121561270b575f5ffd5b612714836123d8565b946020939093013593505050565b602080825282518282018190525f918401906040840190835b8181101561277157835180516001600160a01b03908116855260209182015116818501529093019260409092019160010161273b565b509095945050505050565b600181811c9082168061279057607f821691505b60208210810361111d57634e487b7160e01b5f52602260045260245ffd5b6020808252818101527f43616c6c6572206973206e6f742074686520636f6e7472616374206f776e6572604082015260600190565b634e487b7160e01b5f52603260045260245ffd5b634e487b7160e01b5f52601160045260245ffd5b818103818111156108c0576108c06127f7565b5f8161282c5761282c6127f7565b505f190190565b808201808211156108c0576108c06127f7565b634e487b7160e01b5f52604160045260245ffd5b818382375f9101908152919050565b5f6001820161287a5761287a6127f7565b5060010190565b601f82111561046257805f5260205f20601f840160051c810160208510156128a65750805b601f840160051c820191505b818110156115c0575f81556001016128b2565b81516001600160401b038111156128de576128de612846565b6128f2816128ec845461277c565b84612881565b6020601f821160018114612924575f831561290d5750848201515b5f19600385901b1c1916600184901b1784556115c0565b5f84815260208120601f198516915b828110156129535787850151825560209485019460019092019101612933565b508482101561297057868401515f19600387901b60f8161c191681555b50505050600190811b01905550565b6001600160a01b03841681526040602082018190528101829052818360608301375f818301606090810191909152601f909201601f1916010192915050565b5f8235607e198336030181126129d2575f5ffd5b9190910192915050565b6001600160401b038311156129f3576129f3612846565b612a0783612a01835461277c565b83612881565b5f601f841160018114612a38575f8515612a215750838201355b5f19600387901b1c1916600186901b1783556115c0565b5f83815260208120601f198716915b82811015612a675786850135825560209485019460019092019101612a47565b5086821015612a83575f1960f88860031b161c19848701351681555b505060018560011b0183555050505050565b8135815560208201356001820155600281016040830135801515808214612aba575f5ffd5b60ff19835416915060ff8116821783555050506060820135601e19833603018112612ae3575f5ffd5b820180356001600160401b03811115612afa575f5ffd5b602082019150803603821315612b0e575f5ffd5b612b1c8183600386016129dc565b50505050565b5f82612b3c57634e487b7160e01b5f52601260045260245ffd5b50069056fea2646970667358221220ea30a4ce19f48f9f4e5f210af2ba4104775a4eb51e39226cc2db822b1b4211a264736f6c634300081b0033",
		"linkReferences": {}
	},
	"methodIdentifiers": {
		"activeValidatorsCount()": "0d2bd909",
		"calculateTopValidators(uint8)": "b5cfa68c",
		"getAllValidators()": "f3513a37",
		"getRounds(uint256,uint256)": "40f74f47",
		"getRoundsCount()": "a09686c4",
		"getTopValidators()": "afeea115",
		"getValidator(address)": "1904bb2e",
		"getVotes(address,uint256)": "eb9019d4",
		"getVotesCount()": "1b605b86",
		"isValidatorRegistered(address)": "d04a68c7",
		"registerValidator(bytes)": "602a9eee",
		"registeredValidatorsCount()": "f1bd0b37",
		"resignValidator()": "b85f5da2",
		"resignedValidatorsCount()": "0777cbef",
		"unvote()": "3174b689",
		"updateValidator((address,(uint256,uint256,bool,bytes)))": "62525879",
		"updateVoters(address[])": "2bdf6d43",
		"vote(address)": "6dd7d8ea"
	},
	"id": 23
}