{
	"abi": [
		{
			"type": "constructor",
			"inputs": [],
			"stateMutability": "nonpayable"
		},
		{
			"type": "function",
			"name": "activeValidatorsCount",
			"inputs": [],
			"outputs": [
				{
					"name": "",
					"type": "uint256",
					"internalType": "uint256"
				}
			],
			"stateMutability": "view"
		},
		{
			"type": "function",
			"name": "calculateActiveValidators",
			"inputs": [
				{
					"name": "n",
					"type": "uint8",
					"internalType": "uint8"
				}
			],
			"outputs": [],
			"stateMutability": "nonpayable"
		},
		{
			"type": "function",
			"name": "getActiveValidators",
			"inputs": [],
			"outputs": [
				{
					"name": "",
					"type": "tuple[]",
					"internalType": "struct Validator[]",
					"components": [
						{
							"name": "addr",
							"type": "address",
							"internalType": "address"
						},
						{
							"name": "data",
							"type": "tuple",
							"internalType": "struct ValidatorData",
							"components": [
								{
									"name": "votersCount",
									"type": "uint256",
									"internalType": "uint256"
								},
								{
									"name": "voteBalance",
									"type": "uint256",
									"internalType": "uint256"
								},
								{
									"name": "isResigned",
									"type": "bool",
									"internalType": "bool"
								},
								{
									"name": "blsPublicKey",
									"type": "bytes",
									"internalType": "bytes"
								}
							]
						}
					]
				}
			],
			"stateMutability": "view"
		},
		{
			"type": "function",
			"name": "getAllValidators",
			"inputs": [],
			"outputs": [
				{
					"name": "",
					"type": "tuple[]",
					"internalType": "struct Validator[]",
					"components": [
						{
							"name": "addr",
							"type": "address",
							"internalType": "address"
						},
						{
							"name": "data",
							"type": "tuple",
							"internalType": "struct ValidatorData",
							"components": [
								{
									"name": "votersCount",
									"type": "uint256",
									"internalType": "uint256"
								},
								{
									"name": "voteBalance",
									"type": "uint256",
									"internalType": "uint256"
								},
								{
									"name": "isResigned",
									"type": "bool",
									"internalType": "bool"
								},
								{
									"name": "blsPublicKey",
									"type": "bytes",
									"internalType": "bytes"
								}
							]
						}
					]
				}
			],
			"stateMutability": "view"
		},
		{
			"type": "function",
			"name": "getRounds",
			"inputs": [
				{
					"name": "offset",
					"type": "uint256",
					"internalType": "uint256"
				},
				{
					"name": "count",
					"type": "uint256",
					"internalType": "uint256"
				}
			],
			"outputs": [
				{
					"name": "",
					"type": "tuple[]",
					"internalType": "struct Round[]",
					"components": [
						{
							"name": "round",
							"type": "uint256",
							"internalType": "uint256"
						},
						{
							"name": "validators",
							"type": "tuple[]",
							"internalType": "struct RoundValidator[]",
							"components": [
								{
									"name": "addr",
									"type": "address",
									"internalType": "address"
								},
								{
									"name": "voteBalance",
									"type": "uint256",
									"internalType": "uint256"
								}
							]
						}
					]
				}
			],
			"stateMutability": "view"
		},
		{
			"type": "function",
			"name": "getRoundsCount",
			"inputs": [],
			"outputs": [
				{
					"name": "",
					"type": "uint256",
					"internalType": "uint256"
				}
			],
			"stateMutability": "view"
		},
		{
			"type": "function",
			"name": "getValidator",
			"inputs": [
				{
					"name": "addr",
					"type": "address",
					"internalType": "address"
				}
			],
			"outputs": [
				{
					"name": "",
					"type": "tuple",
					"internalType": "struct Validator",
					"components": [
						{
							"name": "addr",
							"type": "address",
							"internalType": "address"
						},
						{
							"name": "data",
							"type": "tuple",
							"internalType": "struct ValidatorData",
							"components": [
								{
									"name": "votersCount",
									"type": "uint256",
									"internalType": "uint256"
								},
								{
									"name": "voteBalance",
									"type": "uint256",
									"internalType": "uint256"
								},
								{
									"name": "isResigned",
									"type": "bool",
									"internalType": "bool"
								},
								{
									"name": "blsPublicKey",
									"type": "bytes",
									"internalType": "bytes"
								}
							]
						}
					]
				}
			],
			"stateMutability": "view"
		},
		{
			"type": "function",
			"name": "getVotes",
			"inputs": [
				{
					"name": "addr",
					"type": "address",
					"internalType": "address"
				},
				{
					"name": "count",
					"type": "uint256",
					"internalType": "uint256"
				}
			],
			"outputs": [
				{
					"name": "",
					"type": "tuple[]",
					"internalType": "struct VoteResult[]",
					"components": [
						{
							"name": "voter",
							"type": "address",
							"internalType": "address"
						},
						{
							"name": "validator",
							"type": "address",
							"internalType": "address"
						}
					]
				}
			],
			"stateMutability": "view"
		},
		{
			"type": "function",
			"name": "getVotesCount",
			"inputs": [],
			"outputs": [
				{
					"name": "",
					"type": "uint256",
					"internalType": "uint256"
				}
			],
			"stateMutability": "view"
		},
		{
			"type": "function",
			"name": "isValidatorRegistered",
			"inputs": [
				{
					"name": "addr",
					"type": "address",
					"internalType": "address"
				}
			],
			"outputs": [
				{
					"name": "",
					"type": "bool",
					"internalType": "bool"
				}
			],
			"stateMutability": "view"
		},
		{
			"type": "function",
			"name": "registerValidator",
			"inputs": [
				{
					"name": "blsPublicKey",
					"type": "bytes",
					"internalType": "bytes"
				}
			],
			"outputs": [],
			"stateMutability": "nonpayable"
		},
		{
			"type": "function",
			"name": "registeredValidatorsCount",
			"inputs": [],
			"outputs": [
				{
					"name": "",
					"type": "uint256",
					"internalType": "uint256"
				}
			],
			"stateMutability": "view"
		},
		{
			"type": "function",
			"name": "resignValidator",
			"inputs": [],
			"outputs": [],
			"stateMutability": "nonpayable"
		},
		{
			"type": "function",
			"name": "resignedValidatorsCount",
			"inputs": [],
			"outputs": [
				{
					"name": "",
					"type": "uint256",
					"internalType": "uint256"
				}
			],
			"stateMutability": "view"
		},
		{
			"type": "function",
			"name": "unvote",
			"inputs": [],
			"outputs": [],
			"stateMutability": "nonpayable"
		},
		{
			"type": "function",
			"name": "updateValidator",
			"inputs": [
				{
					"name": "blsPublicKey",
					"type": "bytes",
					"internalType": "bytes"
				}
			],
			"outputs": [],
			"stateMutability": "nonpayable"
		},
		{
			"type": "function",
			"name": "updateVoters",
			"inputs": [
				{
					"name": "voters",
					"type": "address[]",
					"internalType": "address[]"
				}
			],
			"outputs": [],
			"stateMutability": "nonpayable"
		},
		{
			"type": "function",
			"name": "vote",
			"inputs": [
				{
					"name": "addr",
					"type": "address",
					"internalType": "address"
				}
			],
			"outputs": [],
			"stateMutability": "nonpayable"
		},
		{
			"type": "event",
			"name": "Unvoted",
			"inputs": [
				{
					"name": "voter",
					"type": "address",
					"indexed": false,
					"internalType": "address"
				},
				{
					"name": "validator",
					"type": "address",
					"indexed": false,
					"internalType": "address"
				}
			],
			"anonymous": false
		},
		{
			"type": "event",
			"name": "ValidatorRegistered",
			"inputs": [
				{
					"name": "addr",
					"type": "address",
					"indexed": false,
					"internalType": "address"
				},
				{
					"name": "blsPublicKey",
					"type": "bytes",
					"indexed": false,
					"internalType": "bytes"
				}
			],
			"anonymous": false
		},
		{
			"type": "event",
			"name": "ValidatorResigned",
			"inputs": [
				{
					"name": "addr",
					"type": "address",
					"indexed": false,
					"internalType": "address"
				}
			],
			"anonymous": false
		},
		{
			"type": "event",
			"name": "ValidatorUpdated",
			"inputs": [
				{
					"name": "addr",
					"type": "address",
					"indexed": false,
					"internalType": "address"
				},
				{
					"name": "blsPublicKey",
					"type": "bytes",
					"indexed": false,
					"internalType": "bytes"
				}
			],
			"anonymous": false
		},
		{
			"type": "event",
			"name": "Voted",
			"inputs": [
				{
					"name": "voter",
					"type": "address",
					"indexed": false,
					"internalType": "address"
				},
				{
					"name": "validator",
					"type": "address",
					"indexed": false,
					"internalType": "address"
				}
			],
			"anonymous": false
		},
		{
			"type": "error",
			"name": "BlsKeyAlreadyRegistered",
			"inputs": []
		},
		{
			"type": "error",
			"name": "BlsKeyIsInvalid",
			"inputs": []
		},
		{
			"type": "error",
			"name": "CallerIsNotOwner",
			"inputs": []
		},
		{
			"type": "error",
			"name": "CallerIsNotValidator",
			"inputs": []
		},
		{
			"type": "error",
			"name": "CallerIsOwner",
			"inputs": []
		},
		{
			"type": "error",
			"name": "InvalidRange",
			"inputs": [
				{
					"name": "min",
					"type": "uint256",
					"internalType": "uint256"
				},
				{
					"name": "max",
					"type": "uint256",
					"internalType": "uint256"
				}
			]
		},
		{
			"type": "error",
			"name": "MissingVote",
			"inputs": []
		},
		{
			"type": "error",
			"name": "ValidatorAlreadyRegistered",
			"inputs": []
		},
		{
			"type": "error",
			"name": "ValidatorAlreadyResigned",
			"inputs": []
		},
		{
			"type": "error",
			"name": "ValidatorNotRegistered",
			"inputs": []
		},
		{
			"type": "error",
			"name": "VoteResignedValidator",
			"inputs": []
		},
		{
			"type": "error",
			"name": "VoteSameValidator",
			"inputs": []
		}
	],
	"bytecode": {
		"object": "0x60a06040525f60048190556005819055600780546001600160a01b03199081169091556008805490911690556009819055600d5534801561003e575f5ffd5b50336080526080516128776100855f395f81816103ad0152818161048d0152818161065f0152818161073d0152818161091401528181610bbe01526112d401526128775ff3fe608060405234801561000f575f5ffd5b5060043610610111575f3560e01c80636dd7d8ea1161009e578063b85f5da21161006e578063b85f5da214610202578063d04a68c71461020a578063eb9019d414610245578063f1bd0b3714610265578063f3513a371461026d575f5ffd5b80636dd7d8ea146101bf578063857861db146101d25780639de70258146101e5578063a09686c4146101fa575f5ffd5b80632bdf6d43116100e45780632bdf6d431461015c5780633174b6891461017157806340f74f47146101795780635a8eed7314610199578063602a9eee146101ac575f5ffd5b80630777cbef146101155780630d2bd9091461012c5780631904bb2e146101345780631b605b8614610154575b5f5ffd5b6005545b6040519081526020015b60405180910390f35b600b54610119565b6101476101423660046121fc565b610275565b60405161012391906122a0565b600954610119565b61016f61016a3660046122b2565b6103a2565b005b61016f610431565b61018c610187366004612323565b610480565b6040516101239190612343565b61016f6101a73660046123fc565b610655565b61016f6101ba3660046123fc565b610733565b61016f6101cd3660046121fc565b61090a565b61016f6101e036600461245a565b610bb3565b6101ed611065565b604051610123919061247a565b600e54610119565b61016f611206565b6102356102183660046121fc565b6001600160a01b03165f9081526001602052604090205460ff1690565b6040519015158152602001610123565b6102586102533660046124d1565b6112c7565b60405161012391906124f9565b600454610119565b6101ed61150b565b61027d612106565b6001600160a01b0382165f9081526001602052604090205460ff166102b55760405163510b8aad60e11b815260040160405180910390fd5b6040805180820182526001600160a01b0384168082525f908152602081815290839020835160808101855281548152600182015481840152600282015460ff1615159481019490945260038101805493949285019360608401919061031990612553565b80601f016020809104026020016040519081016040528092919081815260200182805461034590612553565b80156103905780601f1061036757610100808354040283529160200191610390565b820191905f5260205f20905b81548152906001019060200180831161037357829003601f168201915b50505091909252505050905292915050565b336001600160a01b037f000000000000000000000000000000000000000000000000000000000000000016146103eb57604051636db2465f60e01b815260040160405180910390fd5b5f5b8181101561042c5761042483838381811061040a5761040a612585565b905060200201602081019061041f91906121fc565b6116a6565b6001016103ed565b505050565b7f6572af8bf9a0a86efb88dcc30011626a15c9c4603503aa4466a3f87a1867deef3361045b611786565b604080516001600160a01b0393841681529290911660208301520160405180910390a1565b6060336001600160a01b037f000000000000000000000000000000000000000000000000000000000000000016146104cb57604051636db2465f60e01b815260040160405180910390fd5b600e54829084106104dd57505f610501565b600e546104ea84866125ad565b111561050157600e546104fe9085906125c0565b90505b5f8167ffffffffffffffff81111561051b5761051b6125d3565b60405190808252806020026020018201604052801561056057816020015b604080518082019091525f8152606060208201528152602001906001900390816105395790505b5090505f5b8281101561064a576040518060400160405280828861058491906125ad565b61058f9060016125ad565b8152602001600e6105a0848a6125ad565b815481106105b0576105b0612585565b905f5260205f2001805480602002602001604051908101604052809291908181526020015f905b8282101561061e575f848152602090819020604080518082019091526002850290910180546001600160a01b031682526001908101548284015290835290920191016105d7565b5050505081525082828151811061063757610637612585565b6020908102919091010152600101610565565b509150505b92915050565b6001600160a01b037f000000000000000000000000000000000000000000000000000000000000000016330361069e57604051630c148c4960e31b815260040160405180910390fd5b335f9081526001602052604090205460ff166106cd5760405163510b8aad60e11b815260040160405180910390fd5b6106d782826119b1565b335f9081526020819052604090206003016106f3828483612632565b507f4af0b5984c9f88659d661fb64dcb63a5b946809cf1c78a8c6e0f6ef93c917032338383604051610727939291906126ec565b60405180910390a15050565b6001600160a01b037f000000000000000000000000000000000000000000000000000000000000000016330361077c57604051630c148c4960e31b815260040160405180910390fd5b335f9081526001602052604090205460ff16156107ac5760405163132e7efb60e31b815260040160405180910390fd5b6107b682826119b1565b5f60405180608001604052805f81526020015f81526020015f1515815260200184848080601f0160208091040260200160405190810160405280939291908181526020018383808284375f92018290525093909452505060048054939450915061081f8361272b565b9091555050335f908152600160208181526040808420805460ff199081168517909155848352938190208551815591850151928201929092559083015160028201805490931690151517909155606082015182919060038201906108839082612743565b5050600380546001810182555f919091527fc2575a0e9e593c00f959f8c92f12db2869c3395a3b0502d05e2516446f71f85b0180546001600160a01b031916339081179091556040517f61809fa303a3a57f4d70552f533f3e0b003173d424590cd4bb22a2afe000990c92506108fd9190869086906126ec565b60405180910390a1505050565b6001600160a01b037f000000000000000000000000000000000000000000000000000000000000000016330361095357604051630c148c4960e31b815260040160405180910390fd5b6001600160a01b0381165f9081526001602052604090205460ff1661098b5760405163510b8aad60e11b815260040160405180910390fd5b6001600160a01b0381165f908152602081905260409020600281015460ff16156109c85760405163510ae2bd60e11b815260040160405180910390fd5b335f90815260066020526040902080546001600160a01b03848116911603610a0357604051630d41c52760e01b815260040160405180910390fd5b80546001600160a01b031615610a1d57610a1b611786565b505b604080516080810182526001600160a01b03808616825233803160208085019182525f85870181815260608701828152948252600690925295909520935184549084166001600160a01b03199182161785559051600185015593516002840180549184169186169190911790555160039092018054928216929093169190911790915560075416610acf5760078054336001600160a01b03199182168117909255600880549091169091179055610b26565b600880546001600160a01b039081165f9081526006602052604080822060030180546001600160a01b0319908116339081179092558554828552929093206002018054841692909416919091179092558254161790555b60098054905f610b358361272b565b9190505550336001600160a01b031631826001015f828254610b5791906125ad565b9091555050815460019083905f90610b709084906125ad565b9091555050604080513381526001600160a01b03851660208201527fce0c7a2a940807f7dc2ce7a615c2532e915e6c0ac9a08bc4ed9d515a710a53e291016108fd565b336001600160a01b037f00000000000000000000000000000000000000000000000000000000000000001614610bfc57604051636db2465f60e01b815260040160405180910390fd5b610c066003611a25565b610c0e611b69565b600c80546001600160a01b03191690556005546004545f91610c409160ff8516918491610c3b91906125c0565b611bba565b90508060ff165f03610c50575050565b5f5b600354811015610ef9575f60038281548110610c7057610c70612585565b5f9182526020808320909101546001600160a01b031680835290829052604090912060028101549192509060ff1615610caa575050610ef1565b600c546001600160a01b0316610ce55750600c80546001600160a01b0319166001600160a01b03929092169190911790556001600d55610ef1565b8360ff16600d541015610d0357610cfc8285611c12565b5050610ef1565b600c546001600160a01b039081165f9081526020818152604091829020825180840184529386168452825160808101845285548152600186015481840152600286015460ff161515938101939093526003850180549194610ede94909384019290918791606084019190610d7690612553565b80601f0160208091040260200160405190810160405280929190818152602001828054610da290612553565b8015610ded5780601f10610dc457610100808354040283529160200191610ded565b820191905f5260205f20905b815481529060010190602001808311610dd057829003601f168201915b505050919092525050509052604080518082018252600c546001600160a01b031681528151608081018352855481526001860154602082810191909152600287015460ff16151593820193909352600386018054929384019287916060840191610e5690612553565b80601f0160208091040260200160405190810160405280929190818152602001828054610e8290612553565b8015610ecd5780601f10610ea457610100808354040283529160200191610ecd565b820191905f5260205f20905b815481529060010190602001808311610eb057829003601f168201915b505050505081525050815250611fee565b15610eed57610eed8386611c12565b5050505b600101610c52565b50600e80546001810182555f918252600c547fbb7b4a454dc3493923482f07822329ed19e8244eff582cc204f8554c3620c3fd909101916001600160a01b0390911690610f4890600b9061214f565b8260ff1667ffffffffffffffff811115610f6457610f646125d3565b604051908082528060200260200182016040528015610f8d578160200160208202803683370190505b508051610fa291600b9160209091019061216a565b505f5b8360ff168110156110535781600b8281548110610fc457610fc4612585565b5f918252602080832090910180546001600160a01b039485166001600160a01b0319918216179091556040805180820182529685168088528085528484528185206001908101548986019081528a548083018c558b88528688209a516002909102909a0180549a89169a909516999099178455975192880192909255908352600a909152902054169101610fa5565b5061105e600b611a25565b5050505b50565b600b546060905f9067ffffffffffffffff811115611085576110856125d3565b6040519080825280602002602001820160405280156110be57816020015b6110ab612106565b8152602001906001900390816110a35790505b5090505f5b600b54811015611200575f600b82815481106110e1576110e1612585565b5f9182526020808320909101546001600160a01b031680835282825260409283902083518085018552828152845160808101865282548152600183015481860152600283015460ff16151595810195909552600382018054939650919490938401929091859160608401919061115690612553565b80601f016020809104026020016040519081016040528092919081815260200182805461118290612553565b80156111cd5780601f106111a4576101008083540402835291602001916111cd565b820191905f5260205f20905b8154815290600101906020018083116111b057829003601f168201915b5050505050815250508152508484815181106111eb576111eb612585565b602090810291909101015250506001016110c3565b50919050565b335f9081526001602052604090205460ff166112355760405163668191af60e11b815260040160405180910390fd5b335f908152602081905260409020600281015460ff161561126957604051632d8b5c9760e21b815260040160405180910390fd5b60028101805460ff19166001908117909155600580545f9061128c9084906125ad565b90915550506040513381527f24250fc1ec78a1405ddd4cc8b75964858af228d05faa8d4bc1302966d8a541179060200160405180910390a150565b6060336001600160a01b037f0000000000000000000000000000000000000000000000000000000000000000161461131257604051636db2465f60e01b815260040160405180910390fd5b5f611320835f600954611bba565b67ffffffffffffffff811115611338576113386125d3565b60405190808252806020026020018201604052801561137c57816020015b604080518082019091525f80825260208201528152602001906001900390816113565790505b506007549091506001600160a01b03908116908516156113b557506001600160a01b038085165f90815260066020526040902060030154165b5f5b6001600160a01b038216158015906113ce57508481105b15611443576001600160a01b038083165f8181526006602090815260409182902082518084019093529282528254909316928101929092529084836114128161272b565b94508151811061142457611424612585565b6020908102919091010152600301546001600160a01b031691506113b7565b808351036114565782935050505061064f565b5f8167ffffffffffffffff811115611470576114706125d3565b6040519080825280602002602001820160405280156114b457816020015b604080518082019091525f808252602082015281526020019060019003908161148e5790505b5090505f5b82811015611500578481815181106114d3576114d3612585565b60200260200101518282815181106114ed576114ed612585565b60209081029190910101526001016114b9565b509695505050505050565b6003546060905f9067ffffffffffffffff81111561152b5761152b6125d3565b60405190808252806020026020018201604052801561156457816020015b611551612106565b8152602001906001900390816115495790505b5090505f5b600354811015611200575f6003828154811061158757611587612585565b5f9182526020808320909101546001600160a01b031680835282825260409283902083518085018552828152845160808101865282548152600183015481860152600283015460ff1615159581019590955260038201805493965091949093840192909185916060840191906115fc90612553565b80601f016020809104026020016040519081016040528092919081815260200182805461162890612553565b80156116735780601f1061164a57610100808354040283529160200191611673565b820191905f5260205f20905b81548152906001019060200180831161165657829003601f168201915b50505050508152505081525084848151811061169157611691612585565b60209081029190910101525050600101611569565b6001600160a01b038082165f90815260066020526040902080549091166116cb575050565b60018101546001600160a01b0383163181101561172c576116f6816001600160a01b038516316125c0565b82546001600160a01b03165f90815260208190526040812060010180549091906117219084906125ad565b909155506117719050565b6117406001600160a01b03841631826125c0565b82546001600160a01b03165f908152602081905260408120600101805490919061176b9084906125c0565b90915550505b506001600160a01b0390911631600190910155565b335f90815260066020526040812080546001600160a01b03166117bc5760405163498ea63d60e01b815260040160405180910390fd5b6008546007546001600160a01b039182169116036117f557600780546001600160a01b0319908116909155600880549091169055611908565b600854336001600160a01b039091160361184e576002810180546001600160a01b039081165f90815260066020526040902060030180546001600160a01b03199081169091559154600880549093169116179055611908565b600754336001600160a01b03909116036118b2576008546001600160a01b039081165f9081526006602052604080822060020180546001600160a01b0319908116909155600780548086168552929093206003015491169216919091179055611908565b60038181018054600280850180546001600160a01b039081165f9081526006602052604080822090970180549583166001600160a01b031996871617905591549454811682529490200180549290931691161790555b80546001600160a01b03165f81815260208190526040812060018085015490820180549293919290919061193d9084906125c0565b9091555050805460019082905f906119569084906125c0565b9091555050335f90815260066020526040812080546001600160a01b03199081168255600182018390556002820180548216905560039091018054909116905560098054916119a4836127fe565b9091555091949350505050565b5f82826040516119c2929190612813565b60408051918290039091205f8181526002602052919091205490915060ff16156119ff57604051637e4c066f60e01b815260040160405180910390fd5b611a098383612032565b5f908152600260205260409020805460ff191660011790555050565b80545f611a336001836125c0565b90505b801561042c575f611a488260016125ad565b60408051426020820152908101849052606001604051602081830303815290604052805190602001205f1c611a7d9190612822565b90505f848381548110611a9257611a92612585565b5f9182526020909120015485546001600160a01b039091169150859083908110611abe57611abe612585565b905f5260205f20015f9054906101000a90046001600160a01b0316858481548110611aeb57611aeb612585565b905f5260205f20015f6101000a8154816001600160a01b0302191690836001600160a01b0316021790555080858381548110611b2957611b29612585565b905f5260205f20015f6101000a8154816001600160a01b0302191690836001600160a01b0316021790555050508080611b61906127fe565b915050611a36565b600c546001600160a01b03165b6001600160a01b03811615611bb3576001600160a01b039081165f908152600a6020526040902080546001600160a01b0319811690915516611b76565b505f600d55565b5f81831115611bea57604051632457cde760e01b8152600481018490526024810183905260440160405180910390fd5b82841015611bf9575081611c0b565b81841115611c08575080611c0b565b50825b9392505050565b6001600160a01b0382165f90815260208181526040808320815160808101835281548152600182015493810193909352600281015460ff16151591830191909152600381018054606084019190611c6890612553565b80601f0160208091040260200160405190810160405280929190818152602001828054611c9490612553565b8015611cdf5780601f10611cb657610100808354040283529160200191611cdf565b820191905f5260205f20905b815481529060010190602001808311611cc257829003601f168201915b505050919092525050604080518082018252600c546001600160a01b03168082525f908152602081815290839020835160808101855281548152600182015481840152600282015460ff16151594810194909452600381018054969750611dfe96939550918501939290916060840191611d5890612553565b80601f0160208091040260200160405190810160405280929190818152602001828054611d8490612553565b8015611dcf5780601f10611da657610100808354040283529160200191611dcf565b820191905f5260205f20905b815481529060010190602001808311611db257829003601f168201915b5050505050815250508152506040518060400160405280866001600160a01b0316815260200184815250611fee565b15611e1157611e0c83612057565b611f8f565b600c546001600160a01b039081165f818152600a6020526040902054909116905b6001600160a01b038216611e4f57611e4a81866120a8565b611f8c565b6040805180820182526001600160a01b0384168082525f908152602081815290839020835160808101855281548152600182015481840152600282015460ff16151594810194909452600381018054611f5c959385019392916060840191611eb690612553565b80601f0160208091040260200160405190810160405280929190818152602001828054611ee290612553565b8015611f2d5780601f10611f0457610100808354040283529160200191611f2d565b820191905f5260205f20905b815481529060010190602001808311611f1057829003601f168201915b5050505050815250508152506040518060400160405280886001600160a01b0316815260200186815250611fee565b15611f6b57611e4a81866120a8565b506001600160a01b038082165f908152600a60205260409020541690611e32565b50505b8160ff16600d54111561042c57600c80546001600160a01b039081165f908152600a6020526040812080546001600160a01b03198082169092558454931692168217909255600d80549192611fe3836127fe565b919050555050505050565b5f8160200151602001518360200151602001510361201e5750805182516001600160a01b0391821691161161064f565b506020908101518101519181015101511190565b60308114612053576040516305db9dbd60e01b815260040160405180910390fd5b5050565b600c80546001600160a01b038381165f818152600a602052604081208054939094166001600160a01b031993841617909355835490911617909155600d8054916120a08361272b565b919050555050565b6001600160a01b038281165f818152600a602052604080822080548686168085529284208054919096166001600160a01b03199182161790955592825282549093169092179055600d8054916120fd8361272b565b91905055505050565b60405180604001604052805f6001600160a01b0316815260200161214a60405180608001604052805f81526020015f81526020015f15158152602001606081525090565b905290565b5080545f8255905f5260205f209081019061106291906121cd565b828054828255905f5260205f209081019282156121bd579160200282015b828111156121bd57825182546001600160a01b0319166001600160a01b03909116178255602090920191600190910190612188565b506121c99291506121cd565b5090565b5b808211156121c9575f81556001016121ce565b80356001600160a01b03811681146121f7575f5ffd5b919050565b5f6020828403121561220c575f5ffd5b611c0b826121e1565b60018060a01b0381511682525f602082015160406020850152805160408501526020810151606085015260408101511515608085015260608101519050608060a085015280518060c08601525f5b8181101561228057602081840181015160e0888401015201612263565b505f60e0828701015260e0601f19601f8301168601019250505092915050565b602081525f611c0b6020830184612215565b5f5f602083850312156122c3575f5ffd5b823567ffffffffffffffff8111156122d9575f5ffd5b8301601f810185136122e9575f5ffd5b803567ffffffffffffffff8111156122ff575f5ffd5b8560208260051b8401011115612313575f5ffd5b6020919091019590945092505050565b5f5f60408385031215612334575f5ffd5b50508035926020909101359150565b5f602082016020835280845180835260408501915060408160051b8601019250602086015f5b828110156123f057868503603f19018452815180518652602090810151604082880181905281519088018190529101905f9060608801905b808310156123d857835180516001600160a01b031683526020908101518184015290930192600192909201916040909101906123a1565b50965050506020938401939190910190600101612369565b50929695505050505050565b5f5f6020838503121561240d575f5ffd5b823567ffffffffffffffff811115612423575f5ffd5b8301601f81018513612433575f5ffd5b803567ffffffffffffffff811115612449575f5ffd5b856020828401011115612313575f5ffd5b5f6020828403121561246a575f5ffd5b813560ff81168114611c0b575f5ffd5b5f602082016020835280845180835260408501915060408160051b8601019250602086015f5b828110156123f057603f198786030184526124bc858351612215565b945060209384019391909101906001016124a0565b5f5f604083850312156124e2575f5ffd5b6124eb836121e1565b946020939093013593505050565b602080825282518282018190525f918401906040840190835b8181101561254857835180516001600160a01b039081168552602091820151168185015290930192604090920191600101612512565b509095945050505050565b600181811c9082168061256757607f821691505b60208210810361120057634e487b7160e01b5f52602260045260245ffd5b634e487b7160e01b5f52603260045260245ffd5b634e487b7160e01b5f52601160045260245ffd5b8082018082111561064f5761064f612599565b8181038181111561064f5761064f612599565b634e487b7160e01b5f52604160045260245ffd5b601f82111561042c57805f5260205f20601f840160051c8101602085101561260c5750805b601f840160051c820191505b8181101561262b575f8155600101612618565b5050505050565b67ffffffffffffffff83111561264a5761264a6125d3565b61265e836126588354612553565b836125e7565b5f601f84116001811461268f575f85156126785750838201355b5f19600387901b1c1916600186901b17835561262b565b5f83815260208120601f198716915b828110156126be578685013582556020948501946001909201910161269e565b50868210156126da575f1960f88860031b161c19848701351681555b505060018560011b0183555050505050565b6001600160a01b03841681526040602082018190528101829052818360608301375f818301606090810191909152601f909201601f1916010192915050565b5f6001820161273c5761273c612599565b5060010190565b815167ffffffffffffffff81111561275d5761275d6125d3565b6127718161276b8454612553565b846125e7565b6020601f8211600181146127a3575f831561278c5750848201515b5f19600385901b1c1916600184901b17845561262b565b5f84815260208120601f198516915b828110156127d257878501518255602094850194600190920191016127b2565b50848210156127ef57868401515f19600387901b60f8161c191681555b50505050600190811b01905550565b5f8161280c5761280c612599565b505f190190565b818382375f9101908152919050565b5f8261283c57634e487b7160e01b5f52601260045260245ffd5b50069056fea264697066735822122044ebf31cbc9d43561186cc0bf3ebd8899a3c0b5a8b3f2eb79b559f384da5774564736f6c634300081b0033",
		"linkReferences": {}
	},
	"methodIdentifiers": {
		"activeValidatorsCount()": "0d2bd909",
		"calculateActiveValidators(uint8)": "857861db",
		"getActiveValidators()": "9de70258",
		"getAllValidators()": "f3513a37",
		"getRounds(uint256,uint256)": "40f74f47",
		"getRoundsCount()": "a09686c4",
		"getValidator(address)": "1904bb2e",
		"getVotes(address,uint256)": "eb9019d4",
		"getVotesCount()": "1b605b86",
		"isValidatorRegistered(address)": "d04a68c7",
		"registerValidator(bytes)": "602a9eee",
		"registeredValidatorsCount()": "f1bd0b37",
		"resignValidator()": "b85f5da2",
		"resignedValidatorsCount()": "0777cbef",
		"unvote()": "3174b689",
		"updateValidator(bytes)": "5a8eed73",
		"updateVoters(address[])": "2bdf6d43",
		"vote(address)": "6dd7d8ea"
	},
	"id": 23
}