{
	"abi": [
		{
			"type": "constructor",
			"inputs": [],
			"stateMutability": "nonpayable"
		},
		{
			"type": "function",
			"name": "activeValidatorsCount",
			"inputs": [],
			"outputs": [
				{
					"name": "",
					"type": "uint256",
					"internalType": "uint256"
				}
			],
			"stateMutability": "view"
		},
		{
			"type": "function",
			"name": "calculateTopValidators",
			"inputs": [
				{
					"name": "n",
					"type": "uint8",
					"internalType": "uint8"
				}
			],
			"outputs": [],
			"stateMutability": "nonpayable"
		},
		{
			"type": "function",
			"name": "getAllValidators",
			"inputs": [],
			"outputs": [
				{
					"name": "",
					"type": "tuple[]",
					"internalType": "struct Validator[]",
					"components": [
						{
							"name": "addr",
							"type": "address",
							"internalType": "address"
						},
						{
							"name": "data",
							"type": "tuple",
							"internalType": "struct ValidatorData",
							"components": [
								{
									"name": "votersCount",
									"type": "uint256",
									"internalType": "uint256"
								},
								{
									"name": "voteBalance",
									"type": "uint256",
									"internalType": "uint256"
								},
								{
									"name": "isResigned",
									"type": "bool",
									"internalType": "bool"
								},
								{
									"name": "bls12_381_public_key",
									"type": "bytes",
									"internalType": "bytes"
								}
							]
						}
					]
				}
			],
			"stateMutability": "view"
		},
		{
			"type": "function",
			"name": "getTopValidators",
			"inputs": [],
			"outputs": [
				{
					"name": "",
					"type": "tuple[]",
					"internalType": "struct Validator[]",
					"components": [
						{
							"name": "addr",
							"type": "address",
							"internalType": "address"
						},
						{
							"name": "data",
							"type": "tuple",
							"internalType": "struct ValidatorData",
							"components": [
								{
									"name": "votersCount",
									"type": "uint256",
									"internalType": "uint256"
								},
								{
									"name": "voteBalance",
									"type": "uint256",
									"internalType": "uint256"
								},
								{
									"name": "isResigned",
									"type": "bool",
									"internalType": "bool"
								},
								{
									"name": "bls12_381_public_key",
									"type": "bytes",
									"internalType": "bytes"
								}
							]
						}
					]
				}
			],
			"stateMutability": "view"
		},
		{
			"type": "function",
			"name": "getValidator",
			"inputs": [
				{
					"name": "_addr",
					"type": "address",
					"internalType": "address"
				}
			],
			"outputs": [
				{
					"name": "",
					"type": "tuple",
					"internalType": "struct Validator",
					"components": [
						{
							"name": "addr",
							"type": "address",
							"internalType": "address"
						},
						{
							"name": "data",
							"type": "tuple",
							"internalType": "struct ValidatorData",
							"components": [
								{
									"name": "votersCount",
									"type": "uint256",
									"internalType": "uint256"
								},
								{
									"name": "voteBalance",
									"type": "uint256",
									"internalType": "uint256"
								},
								{
									"name": "isResigned",
									"type": "bool",
									"internalType": "bool"
								},
								{
									"name": "bls12_381_public_key",
									"type": "bytes",
									"internalType": "bytes"
								}
							]
						}
					]
				}
			],
			"stateMutability": "view"
		},
		{
			"type": "function",
			"name": "getVotes",
			"inputs": [
				{
					"name": "addr",
					"type": "address",
					"internalType": "address"
				},
				{
					"name": "count",
					"type": "uint256",
					"internalType": "uint256"
				}
			],
			"outputs": [
				{
					"name": "",
					"type": "tuple[]",
					"internalType": "struct VoteResult[]",
					"components": [
						{
							"name": "voter",
							"type": "address",
							"internalType": "address"
						},
						{
							"name": "validator",
							"type": "address",
							"internalType": "address"
						}
					]
				}
			],
			"stateMutability": "view"
		},
		{
			"type": "function",
			"name": "getVotesCount",
			"inputs": [],
			"outputs": [
				{
					"name": "",
					"type": "uint256",
					"internalType": "uint256"
				}
			],
			"stateMutability": "view"
		},
		{
			"type": "function",
			"name": "isValidatorRegistered",
			"inputs": [
				{
					"name": "addr",
					"type": "address",
					"internalType": "address"
				}
			],
			"outputs": [
				{
					"name": "",
					"type": "bool",
					"internalType": "bool"
				}
			],
			"stateMutability": "view"
		},
		{
			"type": "function",
			"name": "registerValidator",
			"inputs": [
				{
					"name": "bls12_381_public_key",
					"type": "bytes",
					"internalType": "bytes"
				}
			],
			"outputs": [],
			"stateMutability": "nonpayable"
		},
		{
			"type": "function",
			"name": "registeredValidatorsCount",
			"inputs": [],
			"outputs": [
				{
					"name": "",
					"type": "uint256",
					"internalType": "uint256"
				}
			],
			"stateMutability": "view"
		},
		{
			"type": "function",
			"name": "resignValidator",
			"inputs": [],
			"outputs": [],
			"stateMutability": "nonpayable"
		},
		{
			"type": "function",
			"name": "resignedValidatorsCount",
			"inputs": [],
			"outputs": [
				{
					"name": "",
					"type": "uint256",
					"internalType": "uint256"
				}
			],
			"stateMutability": "view"
		},
		{
			"type": "function",
			"name": "unvote",
			"inputs": [],
			"outputs": [],
			"stateMutability": "nonpayable"
		},
		{
			"type": "function",
			"name": "updateValidator",
			"inputs": [
				{
					"name": "_validator",
					"type": "tuple",
					"internalType": "struct Validator",
					"components": [
						{
							"name": "addr",
							"type": "address",
							"internalType": "address"
						},
						{
							"name": "data",
							"type": "tuple",
							"internalType": "struct ValidatorData",
							"components": [
								{
									"name": "votersCount",
									"type": "uint256",
									"internalType": "uint256"
								},
								{
									"name": "voteBalance",
									"type": "uint256",
									"internalType": "uint256"
								},
								{
									"name": "isResigned",
									"type": "bool",
									"internalType": "bool"
								},
								{
									"name": "bls12_381_public_key",
									"type": "bytes",
									"internalType": "bytes"
								}
							]
						}
					]
				}
			],
			"outputs": [],
			"stateMutability": "nonpayable"
		},
		{
			"type": "function",
			"name": "updateVoters",
			"inputs": [
				{
					"name": "voters",
					"type": "address[]",
					"internalType": "address[]"
				}
			],
			"outputs": [],
			"stateMutability": "nonpayable"
		},
		{
			"type": "function",
			"name": "vote",
			"inputs": [
				{
					"name": "addr",
					"type": "address",
					"internalType": "address"
				}
			],
			"outputs": [],
			"stateMutability": "nonpayable"
		},
		{
			"type": "event",
			"name": "Unvoted",
			"inputs": [
				{
					"name": "voter",
					"type": "address",
					"indexed": false,
					"internalType": "address"
				},
				{
					"name": "validator",
					"type": "address",
					"indexed": false,
					"internalType": "address"
				}
			],
			"anonymous": false
		},
		{
			"type": "event",
			"name": "ValidatorRegistered",
			"inputs": [
				{
					"name": "addr",
					"type": "address",
					"indexed": false,
					"internalType": "address"
				},
				{
					"name": "bls12_381_public_key",
					"type": "bytes",
					"indexed": false,
					"internalType": "bytes"
				}
			],
			"anonymous": false
		},
		{
			"type": "event",
			"name": "ValidatorResigned",
			"inputs": [
				{
					"name": "addr",
					"type": "address",
					"indexed": false,
					"internalType": "address"
				}
			],
			"anonymous": false
		},
		{
			"type": "event",
			"name": "Voted",
			"inputs": [
				{
					"name": "voter",
					"type": "address",
					"indexed": false,
					"internalType": "address"
				},
				{
					"name": "validator",
					"type": "address",
					"indexed": false,
					"internalType": "address"
				}
			],
			"anonymous": false
		}
	],
	"bytecode": {
		"object": "0x60a06040525f80805560018190556007819055600880546001600160a01b0319908116909155600980549091169055600c5534801561003c575f5ffd5b50336080526080516128196100755f395f81816103a6015281816106bf01528181610a3501528181610f1d015261146201526128195ff3fe608060405234801561000f575f5ffd5b50600436106100fb575f3560e01c80636dd7d8ea11610093578063d04a68c711610063578063d04a68c7146101cc578063eb9019d414610207578063f1bd0b3714610227578063f3513a371461022e575f5ffd5b80636dd7d8ea14610189578063afeea1151461019c578063b5cfa68c146101b1578063b85f5da2146101c4575f5ffd5b80632bdf6d43116100ce5780632bdf6d43146101465780633174b6891461015b578063602a9eee146101635780636252587914610176575f5ffd5b80630777cbef146100ff5780630d2bd909146101165780631904bb2e1461011e5780631b605b861461013e575b5f5ffd5b6001545b6040519081526020015b60405180910390f35b600d54610103565b61013161012c366004612161565b610236565b60405161010d9190612205565b600754610103565b610159610154366004612217565b61039b565b005b610159610429565b610159610171366004612286565b6106b5565b6101596101843660046122e2565b610990565b610159610197366004612161565b610a2b565b6101a4610d75565b60405161010d9190612318565b6101596101bf36600461237b565b610f12565b610159611334565b6101f76101da366004612161565b6001600160a01b03165f9081526003602052604090205460ff1690565b604051901515815260200161010d565b61021a61021536600461239b565b611455565b60405161010d91906123c3565b5f54610103565b6101a4611698565b61023e61206b565b6001600160a01b0382165f9081526003602052604090205460ff166102aa5760405162461bcd60e51b815260206004820152601c60248201527f56616c696461746f724461746120646f65736e2774206578697374730000000060448201526064015b60405180910390fd5b6040805180820182526001600160a01b0384168082525f90815260026020818152918490208451608081018652815481526001820154818501529181015460ff161515948201949094526003840180549394928501939192916060840191906103129061241d565b80601f016020809104026020016040519081016040528092919081815260200182805461033e9061241d565b80156103895780601f1061036057610100808354040283529160200191610389565b820191905f5260205f20905b81548152906001019060200180831161036c57829003601f168201915b50505091909252505050905292915050565b336001600160a01b037f000000000000000000000000000000000000000000000000000000000000000016146103e35760405162461bcd60e51b81526004016102a19061244f565b5f5b818110156104245761041c83838381811061040257610402612484565b90506020020160208101906104179190612161565b61182f565b6001016103e5565b505050565b335f90815260066020526040902080546001600160a01b03166104805760405162461bcd60e51b815260206004820152600f60248201526e1513d113ce881b9bdd081d9bdd1959608a1b60448201526064016102a1565b6009546008546001600160a01b039182169116036104b957600880546001600160a01b03199081169091556009805490911690556105cc565b600954336001600160a01b0390911603610512576002810180546001600160a01b039081165f90815260066020526040902060030180546001600160a01b031990811690915591546009805490931691161790556105cc565b600854336001600160a01b0390911603610576576009546001600160a01b039081165f9081526006602052604080822060020180546001600160a01b03199081169091556008805480861685529290932060030154911692169190911790556105cc565b60038181018054600280850180546001600160a01b039081165f9081526006602052604080822090970180549583166001600160a01b031996871617905591549454811682529490200180549290931691161790555b8054604080513381526001600160a01b0390921660208301527f6572af8bf9a0a86efb88dcc30011626a15c9c4603503aa4466a3f87a1867deef910160405180910390a180546001600160a01b03165f9081526002602052604081206001808401549082018054929391929091906106459084906124ac565b9091555050805460019082905f9061065e9084906124ac565b9091555050335f90815260066020526040812080546001600160a01b03199081168255600182018390556002820180548216905560039091018054909116905560078054916106ac836124bf565b91905055505050565b6001600160a01b037f000000000000000000000000000000000000000000000000000000000000000016330361072d5760405162461bcd60e51b815260206004820152601c60248201527f43616c6c65722069732074686520636f6e7472616374206f776e65720000000060448201526064016102a1565b335f9081526003602052604090205460ff161561078c5760405162461bcd60e51b815260206004820152601f60248201527f56616c696461746f7220697320616c726561647920726567697374657265640060448201526064016102a1565b5f828260405161079d9291906124d4565b60408051918290039091205f8181526004602052919091205490915060ff16156108155760405162461bcd60e51b815260206004820152602360248201527f424c5331322d333831206b657920697320616c726561647920726567697374656044820152621c995960ea1b60648201526084016102a1565b61081f838361190f565b5f60405180608001604052805f81526020015f81526020015f1515815260200185858080601f0160208091040260200160405190810160405280939291908181526020018383808284375f9201829052509390945250508054929350905080610887836124e3565b9091555050335f9081526003602081815260408084208054600160ff1991821681179092556002808552958390208751815593870151918401919091559085015193820180549091169315159390931790925560608301518392918201906108ef908261255a565b5050505f82815260046020526040808220805460ff191660019081179091556005805491820181559092527f036b6384b5eca791c62761152d0c79bb0604c104a5fb6f4eb0703f3154bb3db090910180546001600160a01b0319163390811790915590517f61809fa303a3a57f4d70552f533f3e0b003173d424590cd4bb22a2afe000990c916109829187908790612614565b60405180910390a150505050565b6109a06101da6020830183612161565b6109ec5760405162461bcd60e51b815260206004820152601c60248201527f56616c696461746f724461746120646f65736e2774206578697374730000000060448201526064016102a1565b6109f96020820182612653565b60025f610a096020850185612161565b6001600160a01b0316815260208101919091526040015f20610424828261272a565b6001600160a01b037f0000000000000000000000000000000000000000000000000000000000000000163303610aa35760405162461bcd60e51b815260206004820152601c60248201527f43616c6c65722069732074686520636f6e7472616374206f776e65720000000060448201526064016102a1565b6001600160a01b0381165f9081526003602052604090205460ff16610b0a5760405162461bcd60e51b815260206004820152601760248201527f4d75737420766f746520666f722076616c696461746f7200000000000000000060448201526064016102a1565b335f908152600660205260409020546001600160a01b031615610b5f5760405162461bcd60e51b815260206004820152600d60248201526c105b1c9958591e481d9bdd1959609a1b60448201526064016102a1565b6001600160a01b0381165f9081526002602081905260409091209081015460ff1615610bd85760405162461bcd60e51b815260206004820152602260248201527f4d75737420766f746520666f7220756e72657369676e65642076616c6964617460448201526137b960f11b60648201526084016102a1565b604080516080810182526001600160a01b03808516825233803160208085019182525f85870181815260608701828152948252600690925295909520935184549084166001600160a01b03199182161785559051600185015593516002840180549184169186169190911790555160039092018054928216929093169190911790915560085416610c8a5760088054336001600160a01b03199182168117909255600980549091169091179055610ce1565b600980546001600160a01b039081165f9081526006602052604080822060030180546001600160a01b0319908116339081179092558554828552929093206002018054841692909416919091179092558254161790555b60078054905f610cf0836124e3565b9190505550336001600160a01b031631816001015f828254610d1291906127b1565b9091555050805460019082905f90610d2b9084906127b1565b9091555050604080513381526001600160a01b03841660208201527fce0c7a2a940807f7dc2ce7a615c2532e915e6c0ac9a08bc4ed9d515a710a53e2910160405180910390a15050565b600d546060905f906001600160401b03811115610d9457610d946124fb565b604051908082528060200260200182016040528015610dcd57816020015b610dba61206b565b815260200190600190039081610db25790505b5090505f5b600d54811015610f0c575f600d8281548110610df057610df0612484565b5f9182526020808320909101546001600160a01b03168083526002808352604093849020845180860186528381528551608081018752825481526001830154818701529282015460ff1615159583019590955260038101805493965090949384019285916060840191610e629061241d565b80601f0160208091040260200160405190810160405280929190818152602001828054610e8e9061241d565b8015610ed95780601f10610eb057610100808354040283529160200191610ed9565b820191905f5260205f20905b815481529060010190602001808311610ebc57829003601f168201915b505050505081525050815250848481518110610ef757610ef7612484565b60209081029190910101525050600101610dd2565b50919050565b336001600160a01b037f00000000000000000000000000000000000000000000000000000000000000001614610f5a5760405162461bcd60e51b81526004016102a19061244f565b610f62611971565b610f6a611ac0565b600a80546001600160a01b03191690556001545f80549091610f9c9160ff8516918491610f9791906124ac565b611b11565b90508060ff165f03610fac575050565b5f5b600554811015611257575f60058281548110610fcc57610fcc612484565b5f9182526020808320909101546001600160a01b03168083526002918290526040909220908101549192509060ff161561100757505061124f565b600a546001600160a01b03166110425750600a80546001600160a01b0319166001600160a01b03929092169190911790556001600c5561124f565b8360ff16600c541015611060576110598285611ba2565b505061124f565b600a546001600160a01b039081165f908152600260208181526040928390208351808501855294871685528351608081018552865481526001870154818401529286015460ff16151593830193909352600385018054939461123c949093928401929187916060840191906110d49061241d565b80601f01602080910402602001604051908101604052809291908181526020018280546111009061241d565b801561114b5780601f106111225761010080835404028352916020019161114b565b820191905f5260205f20905b81548152906001019060200180831161112e57829003601f168201915b505050919092525050509052604080518082018252600a546001600160a01b031681528151608081018352855481526001860154602082810191909152600287015460ff161515938201939093526003860180549293840192879160608401916111b49061241d565b80601f01602080910402602001604051908101604052809291908181526020018280546111e09061241d565b801561122b5780601f106112025761010080835404028352916020019161122b565b820191905f5260205f20905b81548152906001019060200180831161120e57829003601f168201915b505050505081525050815250611f81565b1561124b5761124b8386611ba2565b5050505b600101610fae565b50600a546001600160a01b031661126f600d5f6120b4565b8160ff166001600160401b0381111561128a5761128a6124fb565b6040519080825280602002602001820160405280156112b3578160200160208202803683370190505b5080516112c891600d916020909101906120cf565b505f5b8260ff1681101561132d5781600d82815481106112ea576112ea612484565b5f91825260208083209190910180546001600160a01b0319166001600160a01b039485161790559382168152600b909352604090922054909116906001016112cb565b5050505b50565b335f9081526003602052604090205460ff166113925760405162461bcd60e51b815260206004820152601960248201527f43616c6c6572206973206e6f7420612076616c696461746f720000000000000060448201526064016102a1565b335f9081526002602081905260409091209081015460ff16156113f75760405162461bcd60e51b815260206004820152601d60248201527f56616c696461746f7220697320616c72656164792072657369676e656400000060448201526064016102a1565b60028101805460ff19166001908117909155805481905f9061141a9083906127b1565b90915550506040513381527f24250fc1ec78a1405ddd4cc8b75964858af228d05faa8d4bc1302966d8a541179060200160405180910390a150565b6060336001600160a01b037f0000000000000000000000000000000000000000000000000000000000000000161461149f5760405162461bcd60e51b81526004016102a19061244f565b5f6114ad835f600754611b11565b6001600160401b038111156114c4576114c46124fb565b60405190808252806020026020018201604052801561150857816020015b604080518082019091525f80825260208201528152602001906001900390816114e25790505b506008549091506001600160a01b039081169085161561154157506001600160a01b038085165f90815260066020526040902060030154165b5f5b6001600160a01b0382161580159061155a57508481105b156115cf576001600160a01b038083165f81815260066020908152604091829020825180840190935292825282549093169281019290925290848361159e816124e3565b9450815181106115b0576115b0612484565b6020908102919091010152600301546001600160a01b03169150611543565b808351036115e257829350505050611692565b5f816001600160401b038111156115fb576115fb6124fb565b60405190808252806020026020018201604052801561163f57816020015b604080518082019091525f80825260208201528152602001906001900390816116195790505b5090505f5b8281101561168b5784818151811061165e5761165e612484565b602002602001015182828151811061167857611678612484565b6020908102919091010152600101611644565b5093505050505b92915050565b6005546060905f906001600160401b038111156116b7576116b76124fb565b6040519080825280602002602001820160405280156116f057816020015b6116dd61206b565b8152602001906001900390816116d55790505b5090505f5b600554811015610f0c575f6005828154811061171357611713612484565b5f9182526020808320909101546001600160a01b03168083526002808352604093849020845180860186528381528551608081018752825481526001830154818701529282015460ff16151595830195909552600381018054939650909493840192859160608401916117859061241d565b80601f01602080910402602001604051908101604052809291908181526020018280546117b19061241d565b80156117fc5780601f106117d3576101008083540402835291602001916117fc565b820191905f5260205f20905b8154815290600101906020018083116117df57829003601f168201915b50505050508152505081525084848151811061181a5761181a612484565b602090810291909101015250506001016116f5565b6001600160a01b038082165f9081526006602052604090208054909116611854575050565b60018101546001600160a01b038316318110156118b55761187f816001600160a01b038516316124ac565b82546001600160a01b03165f90815260026020526040812060010180549091906118aa9084906127b1565b909155506118fa9050565b6118c96001600160a01b03841631826124ac565b82546001600160a01b03165f90815260026020526040812060010180549091906118f49084906124ac565b90915550505b506001600160a01b0390911631600190910155565b6030811461196d5760405162461bcd60e51b815260206004820152602560248201527f424c5331322d333831207075626c69634b6579206c656e67746820697320696e6044820152641d985b1a5960da1b60648201526084016102a1565b5050565b6005545f6119806001836124ac565b90505b801561196d575f6119958260016127b1565b60408051426020820152449181019190915260608101849052608001604051602081830303815290604052805190602001205f1c6119d391906127c4565b90505f600583815481106119e9576119e9612484565b5f91825260209091200154600580546001600160a01b0390921692509083908110611a1657611a16612484565b5f91825260209091200154600580546001600160a01b039092169185908110611a4157611a41612484565b905f5260205f20015f6101000a8154816001600160a01b0302191690836001600160a01b031602179055508060058381548110611a8057611a80612484565b905f5260205f20015f6101000a8154816001600160a01b0302191690836001600160a01b0316021790555050508080611ab8906124bf565b915050611983565b600a546001600160a01b03165b6001600160a01b03811615611b0a576001600160a01b039081165f908152600b6020526040902080546001600160a01b0319811690915516611acd565b505f600c55565b5f81831115611b7a5760405162461bcd60e51b815260206004820152602f60248201527f4d696e696d756d2073686f756c64206265206c657373207468616e206f72206560448201526e7175616c20746f206d6178696d756d60881b60648201526084016102a1565b82841015611b89575081611b9b565b81841115611b98575080611b9b565b50825b9392505050565b6001600160a01b0382165f9081526002602081815260408084208151608081018352815481526001820154938101939093529283015460ff16151590820152600382018054919291606084019190611bf99061241d565b80601f0160208091040260200160405190810160405280929190818152602001828054611c259061241d565b8015611c705780601f10611c4757610100808354040283529160200191611c70565b820191905f5260205f20905b815481529060010190602001808311611c5357829003601f168201915b505050919092525050604080518082018252600a546001600160a01b03168082525f90815260026020818152918490208451608081018652815481526001820154818501529181015460ff16151594820194909452600384018054969750611d919693955091850193909290916060840191611ceb9061241d565b80601f0160208091040260200160405190810160405280929190818152602001828054611d179061241d565b8015611d625780601f10611d3957610100808354040283529160200191611d62565b820191905f5260205f20905b815481529060010190602001808311611d4557829003601f168201915b5050505050815250508152506040518060400160405280866001600160a01b0316815260200184815250611f81565b15611da457611d9f83611fc5565b611f22565b600a546001600160a01b039081165f818152600b6020526040902054909116905b6001600160a01b038216611de257611ddd8186612016565b611f1f565b6040805180820182526001600160a01b0384168082525f90815260026020818152918490208451608081018652815481526001820154818501529181015460ff16151594820194909452600384018054611eef9593850193916060840191611e499061241d565b80601f0160208091040260200160405190810160405280929190818152602001828054611e759061241d565b8015611ec05780601f10611e9757610100808354040283529160200191611ec0565b820191905f5260205f20905b815481529060010190602001808311611ea357829003601f168201915b5050505050815250508152506040518060400160405280886001600160a01b0316815260200186815250611f81565b15611efe57611ddd8186612016565b506001600160a01b038082165f908152600b60205260409020541690611dc5565b50505b8160ff16600c54111561042457600a80546001600160a01b039081165f908152600b6020526040812080546001600160a01b03198082169092558454931692168217909255600c80549192611f76836124bf565b919050555050505050565b5f81602001516020015183602001516020015103611fb15750805182516001600160a01b03918216911611611692565b506020908101518101519181015101511190565b600a80546001600160a01b038381165f818152600b602052604081208054939094166001600160a01b031993841617909355835490911617909155600c80549161200e836124e3565b919050555050565b6001600160a01b038281165f818152600b602052604080822080548686168085529284208054919096166001600160a01b03199182161790955592825282549093169092179055600c8054916106ac836124e3565b60405180604001604052805f6001600160a01b031681526020016120af60405180608001604052805f81526020015f81526020015f15158152602001606081525090565b905290565b5080545f8255905f5260205f20908101906113319190612132565b828054828255905f5260205f20908101928215612122579160200282015b8281111561212257825182546001600160a01b0319166001600160a01b039091161782556020909201916001909101906120ed565b5061212e929150612132565b5090565b5b8082111561212e575f8155600101612133565b80356001600160a01b038116811461215c575f5ffd5b919050565b5f60208284031215612171575f5ffd5b611b9b82612146565b60018060a01b0381511682525f602082015160406020850152805160408501526020810151606085015260408101511515608085015260608101519050608060a085015280518060c08601525f5b818110156121e557602081840181015160e08884010152016121c8565b505f60e0828701015260e0601f19601f8301168601019250505092915050565b602081525f611b9b602083018461217a565b5f5f60208385031215612228575f5ffd5b82356001600160401b0381111561223d575f5ffd5b8301601f8101851361224d575f5ffd5b80356001600160401b03811115612262575f5ffd5b8560208260051b8401011115612276575f5ffd5b6020919091019590945092505050565b5f5f60208385031215612297575f5ffd5b82356001600160401b038111156122ac575f5ffd5b8301601f810185136122bc575f5ffd5b80356001600160401b038111156122d1575f5ffd5b856020828401011115612276575f5ffd5b5f602082840312156122f2575f5ffd5b81356001600160401b03811115612307575f5ffd5b820160408185031215611b9b575f5ffd5b5f602082016020835280845180835260408501915060408160051b8601019250602086015f5b8281101561236f57603f1987860301845261235a85835161217a565b9450602093840193919091019060010161233e565b50929695505050505050565b5f6020828403121561238b575f5ffd5b813560ff81168114611b9b575f5ffd5b5f5f604083850312156123ac575f5ffd5b6123b583612146565b946020939093013593505050565b602080825282518282018190525f918401906040840190835b8181101561241257835180516001600160a01b0390811685526020918201511681850152909301926040909201916001016123dc565b509095945050505050565b600181811c9082168061243157607f821691505b602082108103610f0c57634e487b7160e01b5f52602260045260245ffd5b6020808252818101527f43616c6c6572206973206e6f742074686520636f6e7472616374206f776e6572604082015260600190565b634e487b7160e01b5f52603260045260245ffd5b634e487b7160e01b5f52601160045260245ffd5b8181038181111561169257611692612498565b5f816124cd576124cd612498565b505f190190565b818382375f9101908152919050565b5f600182016124f4576124f4612498565b5060010190565b634e487b7160e01b5f52604160045260245ffd5b601f82111561042457805f5260205f20601f840160051c810160208510156125345750805b601f840160051c820191505b81811015612553575f8155600101612540565b5050505050565b81516001600160401b03811115612573576125736124fb565b61258781612581845461241d565b8461250f565b6020601f8211600181146125b9575f83156125a25750848201515b5f19600385901b1c1916600184901b178455612553565b5f84815260208120601f198516915b828110156125e857878501518255602094850194600190920191016125c8565b508482101561260557868401515f19600387901b60f8161c191681555b50505050600190811b01905550565b6001600160a01b03841681526040602082018190528101829052818360608301375f818301606090810191909152601f909201601f1916010192915050565b5f8235607e19833603018112612667575f5ffd5b9190910192915050565b6001600160401b03831115612688576126886124fb565b61269c83612696835461241d565b8361250f565b5f601f8411600181146126cd575f85156126b65750838201355b5f19600387901b1c1916600186901b178355612553565b5f83815260208120601f198716915b828110156126fc57868501358255602094850194600190920191016126dc565b5086821015612718575f1960f88860031b161c19848701351681555b505060018560011b0183555050505050565b813581556020820135600182015560028101604083013580151580821461274f575f5ffd5b60ff19835416915060ff8116821783555050506060820135601e19833603018112612778575f5ffd5b820180356001600160401b0381111561278f575f5ffd5b6020820191508036038213156127a3575f5ffd5b61132d818360038601612671565b8082018082111561169257611692612498565b5f826127de57634e487b7160e01b5f52601260045260245ffd5b50069056fea2646970667358221220a8ee0b1320141255bce1b410559059bcda15b2e7d6bad21420e5b904b6bec7e564736f6c634300081b0033",
		"linkReferences": {}
	},
	"methodIdentifiers": {
		"activeValidatorsCount()": "0d2bd909",
		"calculateTopValidators(uint8)": "b5cfa68c",
		"getAllValidators()": "f3513a37",
		"getTopValidators()": "afeea115",
		"getValidator(address)": "1904bb2e",
		"getVotes(address,uint256)": "eb9019d4",
		"getVotesCount()": "1b605b86",
		"isValidatorRegistered(address)": "d04a68c7",
		"registerValidator(bytes)": "602a9eee",
		"registeredValidatorsCount()": "f1bd0b37",
		"resignValidator()": "b85f5da2",
		"resignedValidatorsCount()": "0777cbef",
		"unvote()": "3174b689",
		"updateValidator((address,(uint256,uint256,bool,bytes)))": "62525879",
		"updateVoters(address[])": "2bdf6d43",
		"vote(address)": "6dd7d8ea"
	},
	"id": 23
}