{
	"abi": [
		{
			"type": "function",
			"name": "UPGRADE_INTERFACE_VERSION",
			"inputs": [],
			"outputs": [
				{
					"name": "",
					"type": "string",
					"internalType": "string"
				}
			],
			"stateMutability": "view"
		},
		{
			"type": "function",
			"name": "activeValidatorsCount",
			"inputs": [],
			"outputs": [
				{
					"name": "",
					"type": "uint256",
					"internalType": "uint256"
				}
			],
			"stateMutability": "view"
		},
		{
			"type": "function",
			"name": "addValidator",
			"inputs": [
				{
					"name": "addr",
					"type": "address",
					"internalType": "address"
				},
				{
					"name": "blsPublicKey",
					"type": "bytes",
					"internalType": "bytes"
				},
				{
					"name": "isResigned",
					"type": "bool",
					"internalType": "bool"
				}
			],
			"outputs": [],
			"stateMutability": "nonpayable"
		},
		{
			"type": "function",
			"name": "addVote",
			"inputs": [
				{
					"name": "voter",
					"type": "address",
					"internalType": "address"
				},
				{
					"name": "validator",
					"type": "address",
					"internalType": "address"
				}
			],
			"outputs": [],
			"stateMutability": "nonpayable"
		},
		{
			"type": "function",
			"name": "calculateActiveValidators",
			"inputs": [
				{
					"name": "n",
					"type": "uint8",
					"internalType": "uint8"
				}
			],
			"outputs": [],
			"stateMutability": "nonpayable"
		},
		{
			"type": "function",
			"name": "getActiveValidators",
			"inputs": [],
			"outputs": [
				{
					"name": "",
					"type": "tuple[]",
					"internalType": "struct ConsensusV1.Validator[]",
					"components": [
						{
							"name": "addr",
							"type": "address",
							"internalType": "address"
						},
						{
							"name": "data",
							"type": "tuple",
							"internalType": "struct ConsensusV1.ValidatorData",
							"components": [
								{
									"name": "votersCount",
									"type": "uint256",
									"internalType": "uint256"
								},
								{
									"name": "voteBalance",
									"type": "uint256",
									"internalType": "uint256"
								},
								{
									"name": "isResigned",
									"type": "bool",
									"internalType": "bool"
								},
								{
									"name": "blsPublicKey",
									"type": "bytes",
									"internalType": "bytes"
								}
							]
						}
					]
				}
			],
			"stateMutability": "view"
		},
		{
			"type": "function",
			"name": "getAllValidators",
			"inputs": [],
			"outputs": [
				{
					"name": "",
					"type": "tuple[]",
					"internalType": "struct ConsensusV1.Validator[]",
					"components": [
						{
							"name": "addr",
							"type": "address",
							"internalType": "address"
						},
						{
							"name": "data",
							"type": "tuple",
							"internalType": "struct ConsensusV1.ValidatorData",
							"components": [
								{
									"name": "votersCount",
									"type": "uint256",
									"internalType": "uint256"
								},
								{
									"name": "voteBalance",
									"type": "uint256",
									"internalType": "uint256"
								},
								{
									"name": "isResigned",
									"type": "bool",
									"internalType": "bool"
								},
								{
									"name": "blsPublicKey",
									"type": "bytes",
									"internalType": "bytes"
								}
							]
						}
					]
				}
			],
			"stateMutability": "view"
		},
		{
			"type": "function",
			"name": "getRounds",
			"inputs": [
				{
					"name": "offset",
					"type": "uint256",
					"internalType": "uint256"
				},
				{
					"name": "count",
					"type": "uint256",
					"internalType": "uint256"
				}
			],
			"outputs": [
				{
					"name": "",
					"type": "tuple[]",
					"internalType": "struct ConsensusV1.Round[]",
					"components": [
						{
							"name": "round",
							"type": "uint256",
							"internalType": "uint256"
						},
						{
							"name": "validators",
							"type": "tuple[]",
							"internalType": "struct ConsensusV1.RoundValidator[]",
							"components": [
								{
									"name": "addr",
									"type": "address",
									"internalType": "address"
								},
								{
									"name": "voteBalance",
									"type": "uint256",
									"internalType": "uint256"
								}
							]
						}
					]
				}
			],
			"stateMutability": "view"
		},
		{
			"type": "function",
			"name": "getRoundsCount",
			"inputs": [],
			"outputs": [
				{
					"name": "",
					"type": "uint256",
					"internalType": "uint256"
				}
			],
			"stateMutability": "view"
		},
		{
			"type": "function",
			"name": "getValidator",
			"inputs": [
				{
					"name": "addr",
					"type": "address",
					"internalType": "address"
				}
			],
			"outputs": [
				{
					"name": "",
					"type": "tuple",
					"internalType": "struct ConsensusV1.Validator",
					"components": [
						{
							"name": "addr",
							"type": "address",
							"internalType": "address"
						},
						{
							"name": "data",
							"type": "tuple",
							"internalType": "struct ConsensusV1.ValidatorData",
							"components": [
								{
									"name": "votersCount",
									"type": "uint256",
									"internalType": "uint256"
								},
								{
									"name": "voteBalance",
									"type": "uint256",
									"internalType": "uint256"
								},
								{
									"name": "isResigned",
									"type": "bool",
									"internalType": "bool"
								},
								{
									"name": "blsPublicKey",
									"type": "bytes",
									"internalType": "bytes"
								}
							]
						}
					]
				}
			],
			"stateMutability": "view"
		},
		{
			"type": "function",
			"name": "getVotes",
			"inputs": [
				{
					"name": "addr",
					"type": "address",
					"internalType": "address"
				},
				{
					"name": "count",
					"type": "uint256",
					"internalType": "uint256"
				}
			],
			"outputs": [
				{
					"name": "",
					"type": "tuple[]",
					"internalType": "struct ConsensusV1.VoteResult[]",
					"components": [
						{
							"name": "voter",
							"type": "address",
							"internalType": "address"
						},
						{
							"name": "validator",
							"type": "address",
							"internalType": "address"
						}
					]
				}
			],
			"stateMutability": "view"
		},
		{
			"type": "function",
			"name": "getVotesCount",
			"inputs": [],
			"outputs": [
				{
					"name": "",
					"type": "uint256",
					"internalType": "uint256"
				}
			],
			"stateMutability": "view"
		},
		{
			"type": "function",
			"name": "initialize",
			"inputs": [],
			"outputs": [],
			"stateMutability": "nonpayable"
		},
		{
			"type": "function",
			"name": "isValidatorRegistered",
			"inputs": [
				{
					"name": "addr",
					"type": "address",
					"internalType": "address"
				}
			],
			"outputs": [
				{
					"name": "",
					"type": "bool",
					"internalType": "bool"
				}
			],
			"stateMutability": "view"
		},
		{
			"type": "function",
			"name": "owner",
			"inputs": [],
			"outputs": [
				{
					"name": "",
					"type": "address",
					"internalType": "address"
				}
			],
			"stateMutability": "view"
		},
		{
			"type": "function",
			"name": "proxiableUUID",
			"inputs": [],
			"outputs": [
				{
					"name": "",
					"type": "bytes32",
					"internalType": "bytes32"
				}
			],
			"stateMutability": "view"
		},
		{
			"type": "function",
			"name": "registerValidator",
			"inputs": [
				{
					"name": "blsPublicKey",
					"type": "bytes",
					"internalType": "bytes"
				}
			],
			"outputs": [],
			"stateMutability": "nonpayable"
		},
		{
			"type": "function",
			"name": "registeredValidatorsCount",
			"inputs": [],
			"outputs": [
				{
					"name": "",
					"type": "uint256",
					"internalType": "uint256"
				}
			],
			"stateMutability": "view"
		},
		{
			"type": "function",
			"name": "renounceOwnership",
			"inputs": [],
			"outputs": [],
			"stateMutability": "nonpayable"
		},
		{
			"type": "function",
			"name": "resignValidator",
			"inputs": [],
			"outputs": [],
			"stateMutability": "nonpayable"
		},
		{
			"type": "function",
			"name": "resignedValidatorsCount",
			"inputs": [],
			"outputs": [
				{
					"name": "",
					"type": "uint256",
					"internalType": "uint256"
				}
			],
			"stateMutability": "view"
		},
		{
			"type": "function",
			"name": "transferOwnership",
			"inputs": [
				{
					"name": "newOwner",
					"type": "address",
					"internalType": "address"
				}
			],
			"outputs": [],
			"stateMutability": "nonpayable"
		},
		{
			"type": "function",
			"name": "unvote",
			"inputs": [],
			"outputs": [],
			"stateMutability": "nonpayable"
		},
		{
			"type": "function",
			"name": "updateValidator",
			"inputs": [
				{
					"name": "blsPublicKey",
					"type": "bytes",
					"internalType": "bytes"
				}
			],
			"outputs": [],
			"stateMutability": "nonpayable"
		},
		{
			"type": "function",
			"name": "updateVoters",
			"inputs": [
				{
					"name": "voters",
					"type": "address[]",
					"internalType": "address[]"
				}
			],
			"outputs": [],
			"stateMutability": "nonpayable"
		},
		{
			"type": "function",
			"name": "upgradeToAndCall",
			"inputs": [
				{
					"name": "newImplementation",
					"type": "address",
					"internalType": "address"
				},
				{
					"name": "data",
					"type": "bytes",
					"internalType": "bytes"
				}
			],
			"outputs": [],
			"stateMutability": "payable"
		},
		{
			"type": "function",
			"name": "version",
			"inputs": [],
			"outputs": [
				{
					"name": "",
					"type": "uint256",
					"internalType": "uint256"
				}
			],
			"stateMutability": "pure"
		},
		{
			"type": "function",
			"name": "vote",
			"inputs": [
				{
					"name": "addr",
					"type": "address",
					"internalType": "address"
				}
			],
			"outputs": [],
			"stateMutability": "nonpayable"
		},
		{
			"type": "event",
			"name": "Initialized",
			"inputs": [
				{
					"name": "version",
					"type": "uint64",
					"indexed": false,
					"internalType": "uint64"
				}
			],
			"anonymous": false
		},
		{
			"type": "event",
			"name": "OwnershipTransferred",
			"inputs": [
				{
					"name": "previousOwner",
					"type": "address",
					"indexed": true,
					"internalType": "address"
				},
				{
					"name": "newOwner",
					"type": "address",
					"indexed": true,
					"internalType": "address"
				}
			],
			"anonymous": false
		},
		{
			"type": "event",
			"name": "Unvoted",
			"inputs": [
				{
					"name": "voter",
					"type": "address",
					"indexed": false,
					"internalType": "address"
				},
				{
					"name": "validator",
					"type": "address",
					"indexed": false,
					"internalType": "address"
				}
			],
			"anonymous": false
		},
		{
			"type": "event",
			"name": "Upgraded",
			"inputs": [
				{
					"name": "implementation",
					"type": "address",
					"indexed": true,
					"internalType": "address"
				}
			],
			"anonymous": false
		},
		{
			"type": "event",
			"name": "ValidatorRegistered",
			"inputs": [
				{
					"name": "addr",
					"type": "address",
					"indexed": false,
					"internalType": "address"
				},
				{
					"name": "blsPublicKey",
					"type": "bytes",
					"indexed": false,
					"internalType": "bytes"
				}
			],
			"anonymous": false
		},
		{
			"type": "event",
			"name": "ValidatorResigned",
			"inputs": [
				{
					"name": "addr",
					"type": "address",
					"indexed": false,
					"internalType": "address"
				}
			],
			"anonymous": false
		},
		{
			"type": "event",
			"name": "ValidatorUpdated",
			"inputs": [
				{
					"name": "addr",
					"type": "address",
					"indexed": false,
					"internalType": "address"
				},
				{
					"name": "blsPublicKey",
					"type": "bytes",
					"indexed": false,
					"internalType": "bytes"
				}
			],
			"anonymous": false
		},
		{
			"type": "event",
			"name": "Voted",
			"inputs": [
				{
					"name": "voter",
					"type": "address",
					"indexed": false,
					"internalType": "address"
				},
				{
					"name": "validator",
					"type": "address",
					"indexed": false,
					"internalType": "address"
				}
			],
			"anonymous": false
		},
		{
			"type": "error",
			"name": "AddressEmptyCode",
			"inputs": [
				{
					"name": "target",
					"type": "address",
					"internalType": "address"
				}
			]
		},
		{
			"type": "error",
			"name": "AlreadyVoted",
			"inputs": []
		},
		{
			"type": "error",
			"name": "BellowMinValidators",
			"inputs": []
		},
		{
			"type": "error",
			"name": "BlsKeyAlreadyRegistered",
			"inputs": []
		},
		{
			"type": "error",
			"name": "BlsKeyIsInvalid",
			"inputs": []
		},
		{
			"type": "error",
			"name": "CallerIsNotValidator",
			"inputs": []
		},
		{
			"type": "error",
			"name": "ERC1967InvalidImplementation",
			"inputs": [
				{
					"name": "implementation",
					"type": "address",
					"internalType": "address"
				}
			]
		},
		{
			"type": "error",
			"name": "ERC1967NonPayable",
			"inputs": []
		},
		{
			"type": "error",
			"name": "FailedCall",
			"inputs": []
		},
		{
			"type": "error",
			"name": "ImportIsNotAllowed",
			"inputs": []
		},
		{
			"type": "error",
			"name": "InvalidInitialization",
			"inputs": []
		},
		{
			"type": "error",
			"name": "InvalidParameters",
			"inputs": []
		},
		{
			"type": "error",
			"name": "InvalidRange",
			"inputs": [
				{
					"name": "min",
					"type": "uint256",
					"internalType": "uint256"
				},
				{
					"name": "max",
					"type": "uint256",
					"internalType": "uint256"
				}
			]
		},
		{
			"type": "error",
			"name": "MissingVote",
			"inputs": []
		},
		{
			"type": "error",
			"name": "NoActiveValidators",
			"inputs": []
		},
		{
			"type": "error",
			"name": "NotInitializing",
			"inputs": []
		},
		{
			"type": "error",
			"name": "OwnableInvalidOwner",
			"inputs": [
				{
					"name": "owner",
					"type": "address",
					"internalType": "address"
				}
			]
		},
		{
			"type": "error",
			"name": "OwnableUnauthorizedAccount",
			"inputs": [
				{
					"name": "account",
					"type": "address",
					"internalType": "address"
				}
			]
		},
		{
			"type": "error",
			"name": "UUPSUnauthorizedCallContext",
			"inputs": []
		},
		{
			"type": "error",
			"name": "UUPSUnsupportedProxiableUUID",
			"inputs": [
				{
					"name": "slot",
					"type": "bytes32",
					"internalType": "bytes32"
				}
			]
		},
		{
			"type": "error",
			"name": "ValidatorAlreadyRegistered",
			"inputs": []
		},
		{
			"type": "error",
			"name": "ValidatorAlreadyResigned",
			"inputs": []
		},
		{
			"type": "error",
			"name": "ValidatorNotRegistered",
			"inputs": []
		},
		{
			"type": "error",
			"name": "VoteResignedValidator",
			"inputs": []
		},
		{
			"type": "error",
			"name": "VoteSameValidator",
			"inputs": []
		},
		{
			"type": "error",
			"name": "VoteValidatorWithoutBlsPublicKey",
			"inputs": []
		}
	],
	"bytecode": {
		"object": "0x60a0604052306080523480156012575f5ffd5b5060805161387e6100395f395f81816122680152818161229101526123d0015261387e5ff3fe6080604052600436106101af575f3560e01c8063715018a6116100e7578063ad3cb1cc11610087578063eb9019d411610062578063eb9019d4146104a2578063f1bd0b37146104ce578063f2fde38b146104e2578063f3513a3714610501575f5ffd5b8063ad3cb1cc14610422578063b85f5da21461045f578063d04a68c714610473575f5ffd5b8063857861db116100c2578063857861db146103885780638da5cb5b146103a75780639de70258146103ed578063a09686c41461040e575f5ffd5b8063715018a6146103415780637c8a92c3146103555780638129fc1c14610374575f5ffd5b806340f74f471161015257806354fd4d501161012d57806354fd4d50146102d15780635a8eed73146102e4578063602a9eee146103035780636dd7d8ea14610322575f5ffd5b806340f74f471461027e5780634f1ef286146102aa57806352d1902d146102bd575f5ffd5b80631b605b861161018d5780631b605b86146102165780632bdf6d431461022a5780633174b6891461024b5780633d09c2a81461025f575f5ffd5b80630777cbef146101b35780630d2bd909146101d65780631904bb2e146101ea575b5f5ffd5b3480156101be575f5ffd5b506005545b6040519081526020015b60405180910390f35b3480156101e1575f5ffd5b50600d546101c3565b3480156101f5575f5ffd5b50610209610204366004613014565b610515565b6040516101cd91906130d3565b348015610221575f5ffd5b506009546101c3565b348015610235575f5ffd5b506102496102443660046130e5565b610630565b005b348015610256575f5ffd5b5061024961067e565b34801561026a575f5ffd5b50610249610279366004613154565b6106cd565b348015610289575f5ffd5b5061029d610298366004613185565b610918565b6040516101cd91906131a5565b6102496102b8366004613272565b610aab565b3480156102c8575f5ffd5b506101c3610aca565b3480156102dc575f5ffd5b5060016101c3565b3480156102ef575f5ffd5b506102496102fe366004613377565b610ae5565b34801561030e575f5ffd5b5061024961031d366004613377565b610b71565b34801561032d575f5ffd5b5061024961033c366004613014565b610cff565b34801561034c575f5ffd5b50610249610f7d565b348015610360575f5ffd5b5061024961036f3660046133b5565b610f90565b34801561037f575f5ffd5b506102496111cf565b348015610393575f5ffd5b506102496103a236600461341a565b6112db565b3480156103b2575f5ffd5b507f9016d09d72d40fdae2fd8ceac6b6234c7706214fd39c1cd1e609a0528c199300546040516001600160a01b0390911681526020016101cd565b3480156103f8575f5ffd5b50610401611874565b6040516101cd919061343a565b348015610419575f5ffd5b50600f546101c3565b34801561042d575f5ffd5b50610452604051806040016040528060058152602001640352e302e360dc1b81525081565b6040516101cd9190613491565b34801561046a575f5ffd5b50610249611a14565b34801561047e575f5ffd5b5061049261048d366004613014565b611afd565b60405190151581526020016101cd565b3480156104ad575f5ffd5b506104c16104bc3660046134a3565b611b1a565b6040516101cd91906134cb565b3480156104d9575f5ffd5b506004546101c3565b3480156104ed575f5ffd5b506102496104fc366004613014565b611d1b565b34801561050c575f5ffd5b50610401611d5d565b61051d612f1e565b61052682611afd565b6105435760405163510b8aad60e11b815260040160405180910390fd5b6040805180820182526001600160a01b0384168082525f908152602081815290839020835160808101855281548152600182015481840152600282015460ff161515948101949094526003810180549394928501936060840191906105a790613525565b80601f01602080910402602001604051908101604052809291908181526020018280546105d390613525565b801561061e5780601f106105f55761010080835404028352916020019161061e565b820191905f5260205f20905b81548152906001019060200180831161060157829003601f168201915b50505091909252505050905292915050565b610638611ef7565b5f5b818110156106795761067183838381811061065757610657613557565b905060200201602081019061066c9190613014565b611f52565b60010161063a565b505050565b7f6572af8bf9a0a86efb88dcc30011626a15c9c4603503aa4466a3f87a1867deef336106a8612032565b604080516001600160a01b0393841681529290911660208301520160405180910390a1565b6106d5611ef7565b600f54156106f6576040516349625b3b60e01b815260040160405180910390fd5b6106ff81611afd565b61071c5760405163510b8aad60e11b815260040160405180910390fd5b6001600160a01b038083165f90815260066020526040902080549091161561075757604051637c9a1cf960e01b815260040160405180910390fd5b604080516080810182526001600160a01b038085168252858116803160208085019182525f85870181815260608701828152948252600690925295909520935184549084166001600160a01b0319918216178555905160018501559351600284018054918416918616919091179055516003909201805492821692909316919091179091556007541661081457600780546001600160a01b0385166001600160a01b0319918216811790925560088054909116909117905561086c565b600880546001600160a01b039081165f9081526006602052604080822060030180548489166001600160a01b031991821681179092558554828552929093206002018054841692909416919091179092558254161790555b60098054905f61087b8361357f565b90915550506001600160a01b038083165f90815260208190526040812060018101805491938716319290916108b1908490613597565b9091555050805460019082905f906108ca908490613597565b9091555050604080516001600160a01b038087168252851660208201527fce0c7a2a940807f7dc2ce7a615c2532e915e6c0ac9a08bc4ed9d515a710a53e2910160405180910390a150505050565b6060610922611ef7565b600f548290841061093457505f610958565b600f546109418486613597565b111561095857600f546109559085906135aa565b90505b5f816001600160401b038111156109715761097161325e565b6040519080825280602002602001820160405280156109b657816020015b604080518082019091525f81526060602082015281526020019060019003908161098f5790505b5090505f5b82811015610aa057604051806040016040528082886109da9190613597565b6109e5906001613597565b8152602001600f6109f6848a613597565b81548110610a0657610a06613557565b905f5260205f2001805480602002602001604051908101604052809291908181526020015f905b82821015610a74575f848152602090819020604080518082019091526002850290910180546001600160a01b03168252600190810154828401529083529092019101610a2d565b50505050815250828281518110610a8d57610a8d613557565b60209081029190910101526001016109bb565b509150505b92915050565b610ab361225d565b610abc82612301565b610ac68282612309565b5050565b5f610ad36123c5565b505f5160206138295f395f51905f5290565b610aee33611afd565b610b0b5760405163510b8aad60e11b815260040160405180910390fd5b610b15828261240e565b335f908152602081905260409020600301610b31828483613601565b507f4af0b5984c9f88659d661fb64dcb63a5b946809cf1c78a8c6e0f6ef93c917032338383604051610b65939291906136ba565b60405180910390a15050565b335f9081526001602052604090205460ff1615610ba15760405163132e7efb60e31b815260040160405180910390fd5b610bab828261240e565b5f60405180608001604052805f81526020015f81526020015f1515815260200184848080601f0160208091040260200160405190810160405280939291908181526020018383808284375f920182905250939094525050600480549394509150610c148361357f565b9091555050335f908152600160208181526040808420805460ff19908116851790915584835293819020855181559185015192820192909255908301516002820180549093169015151790915560608201518291906003820190610c7890826136f9565b5050600380546001810182555f919091527fc2575a0e9e593c00f959f8c92f12db2869c3395a3b0502d05e2516446f71f85b0180546001600160a01b031916339081179091556040517f61809fa303a3a57f4d70552f533f3e0b003173d424590cd4bb22a2afe000990c9250610cf29190869086906136ba565b60405180910390a1505050565b610d0881611afd565b610d255760405163510b8aad60e11b815260040160405180910390fd5b6001600160a01b0381165f908152602081905260409020600281015460ff1615610d625760405163510ae2bd60e11b815260040160405180910390fd5b806003018054610d7190613525565b90505f03610d925760405163970c784d60e01b815260040160405180910390fd5b335f90815260066020526040902080546001600160a01b03848116911603610dcd57604051630d41c52760e01b815260040160405180910390fd5b80546001600160a01b031615610de757610de5612032565b505b604080516080810182526001600160a01b03808616825233803160208085019182525f85870181815260608701828152948252600690925295909520935184549084166001600160a01b03199182161785559051600185015593516002840180549184169186169190911790555160039092018054928216929093169190911790915560075416610e995760078054336001600160a01b03199182168117909255600880549091169091179055610ef0565b600880546001600160a01b039081165f9081526006602052604080822060030180546001600160a01b0319908116339081179092558554828552929093206002018054841692909416919091179092558254161790555b60098054905f610eff8361357f565b9190505550336001600160a01b031631826001015f828254610f219190613597565b9091555050815460019083905f90610f3a908490613597565b9091555050604080513381526001600160a01b03851660208201527fce0c7a2a940807f7dc2ce7a615c2532e915e6c0ac9a08bc4ed9d515a710a53e29101610cf2565b610f85611ef7565b610f8e5f612482565b565b610f98611ef7565b600f5415610fb9576040516349625b3b60e01b815260040160405180910390fd5b6001600160a01b0384165f9081526001602052604090205460ff1615610ff25760405163132e7efb60e31b815260040160405180910390fd5b60025f84846040516110059291906137b3565b604080519182900390912082526020820192909252015f205460ff161561103f57604051637e4c066f60e01b815260040160405180910390fd5b811561104f5761104f838361240e565b5f60405180608001604052805f81526020015f8152602001831515815260200185858080601f0160208091040260200160405190810160405280939291908181526020018383808284375f9201829052509390945250506004805493945091506110b88361357f565b90915550506001600160a01b0385165f908152600160208181526040808420805460ff1990811685179091558483529381902085518155918501519282019290925590830151600282018054909316901515179091556060820151829190600382019061112590826136f9565b5050600380546001810182555f919091527fc2575a0e9e593c00f959f8c92f12db2869c3395a3b0502d05e2516446f71f85b0180546001600160a01b0319166001600160a01b03881617905550811561118d5760058054905f6111878361357f565b91905055505b7f61809fa303a3a57f4d70552f533f3e0b003173d424590cd4bb22a2afe000990c8585856040516111c0939291906136ba565b60405180910390a15050505050565b7ff0c57e16840df040f15088dc2f81fe391c3923bec73e23a9662efc9c229c6a008054600160401b810460ff1615906001600160401b03165f811580156112135750825b90505f826001600160401b0316600114801561122e5750303b155b90508115801561123c575080155b1561125a5760405163f92ee8a960e01b815260040160405180910390fd5b845467ffffffffffffffff19166001178555831561128457845460ff60401b1916600160401b1785555b61128d336124f2565b6001600e5583156112d457845460ff60401b19168555604051600181527fc7f505b2f371ae2175ee4913f4499e1f2633a7b5936321eed1cdaeb6115181d2906020016111c0565b5050505050565b6112e3611ef7565b8060ff165f0361130657604051630e52390960e41b815260040160405180910390fd5b60ff8116600e556113176003612503565b61131f612653565b600c80546001600160a01b03191690556005546004545f916113519160ff851691849161134c91906135aa565b6126a4565b90508060ff165f03611376576040516367c0fced60e01b815260040160405180910390fd5b5f5b600354811015611638575f6003828154811061139657611396613557565b5f9182526020808320909101546001600160a01b031680835290829052604090912060028101549192509060ff16806113dd57508060030180546113d990613525565b1590505b156113e9575050611630565b600c546001600160a01b03166114245750600c80546001600160a01b0319166001600160a01b03929092169190911790556001600d55611630565b8360ff16600d5410156114425761143b82856126f8565b5050611630565b600c546001600160a01b039081165f9081526020818152604091829020825180840184529386168452825160808101845285548152600186015481840152600286015460ff16151593810193909352600385018054919461161d949093840192909187916060840191906114b590613525565b80601f01602080910402602001604051908101604052809291908181526020018280546114e190613525565b801561152c5780601f106115035761010080835404028352916020019161152c565b820191905f5260205f20905b81548152906001019060200180831161150f57829003601f168201915b505050919092525050509052604080518082018252600c546001600160a01b031681528151608081018352855481526001860154602082810191909152600287015460ff1615159382019390935260038601805492938401928791606084019161159590613525565b80601f01602080910402602001604051908101604052809291908181526020018280546115c190613525565b801561160c5780601f106115e35761010080835404028352916020019161160c565b820191905f5260205f20905b8154815290600101906020018083116115ef57829003601f168201915b505050505081525050815250612ad4565b1561162c5761162c83866126f8565b5050505b600101611378565b50600d545f0361165b576040516367c0fced60e01b815260040160405180910390fd5b600c54600d546001600160a01b03909116905f906001600160401b038111156116865761168661325e565b6040519080825280602002602001820160405280156116af578160200160208202803683370190505b5090505f5b600d5481101561170957828282815181106116d1576116d1613557565b6001600160a01b039283166020918202929092018101919091529381165f908152600a909452604090932054909216916001016116b4565b5061171381612b18565b600f80546001810182555f9182527f8d1108e10bcb7c27dddfc02ed9d693a074039d026cf4ea4240b40f7d581ac802019061175090600b90612f67565b600e546001600160401b0381111561176a5761176a61325e565b604051908082528060200260200182016040528015611793578160200160208202803683370190505b5080516117a891600b91602090910190612f82565b505f5b600e5481101561186c575f83600d54836117c591906137c2565b815181106117d5576117d5613557565b6020026020010151905080600b83815481106117f3576117f3613557565b5f918252602080832090910180546001600160a01b039485166001600160a01b0319918216179091556040805180820182529585168087528452838352832060019081015486840190815288548083018a55898652939094209551600290930290950180549290941691161782555190820155016117ab565b505050505050565b600b546060905f906001600160401b038111156118935761189361325e565b6040519080825280602002602001820160405280156118cc57816020015b6118b9612f1e565b8152602001906001900390816118b15790505b5090505f5b600b54811015611a0e575f600b82815481106118ef576118ef613557565b5f9182526020808320909101546001600160a01b031680835282825260409283902083518085018552828152845160808101865282548152600183015481860152600283015460ff16151595810195909552600382018054939650919490938401929091859160608401919061196490613525565b80601f016020809104026020016040519081016040528092919081815260200182805461199090613525565b80156119db5780601f106119b2576101008083540402835291602001916119db565b820191905f5260205f20905b8154815290600101906020018083116119be57829003601f168201915b5050505050815250508152508484815181106119f9576119f9613557565b602090810291909101015250506001016118d1565b50919050565b611a1d33611afd565b611a3a5760405163668191af60e11b815260040160405180910390fd5b335f908152602081905260409020600281015460ff1615611a6e57604051632d8b5c9760e21b815260040160405180910390fd5b600e54600554600454611a8191906135aa565b11611a9f57604051633b15f1f760e21b815260040160405180910390fd5b60028101805460ff19166001908117909155600580545f90611ac2908490613597565b90915550506040513381527f24250fc1ec78a1405ddd4cc8b75964858af228d05faa8d4bc1302966d8a541179060200160405180910390a150565b6001600160a01b03165f9081526001602052604090205460ff1690565b6060611b24611ef7565b5f611b32835f6009546126a4565b6001600160401b03811115611b4957611b4961325e565b604051908082528060200260200182016040528015611b8d57816020015b604080518082019091525f8082526020820152815260200190600190039081611b675790505b506007549091506001600160a01b0390811690851615611bc657506001600160a01b038085165f90815260066020526040902060030154165b5f5b6001600160a01b03821615801590611bdf57508481105b15611c54576001600160a01b038083165f818152600660209081526040918290208251808401909352928252825490931692810192909252908483611c238161357f565b945081518110611c3557611c35613557565b6020908102919091010152600301546001600160a01b03169150611bc8565b80835103611c6757829350505050610aa5565b5f816001600160401b03811115611c8057611c8061325e565b604051908082528060200260200182016040528015611cc457816020015b604080518082019091525f8082526020820152815260200190600190039081611c9e5790505b5090505f5b82811015611d1057848181518110611ce357611ce3613557565b6020026020010151828281518110611cfd57611cfd613557565b6020908102919091010152600101611cc9565b509695505050505050565b611d23611ef7565b6001600160a01b038116611d5157604051631e4fbdf760e01b81525f60048201526024015b60405180910390fd5b611d5a81612482565b50565b6003546060905f906001600160401b03811115611d7c57611d7c61325e565b604051908082528060200260200182016040528015611db557816020015b611da2612f1e565b815260200190600190039081611d9a5790505b5090505f5b600354811015611a0e575f60038281548110611dd857611dd8613557565b5f9182526020808320909101546001600160a01b031680835282825260409283902083518085018552828152845160808101865282548152600183015481860152600283015460ff161515958101959095526003820180549396509194909384019290918591606084019190611e4d90613525565b80601f0160208091040260200160405190810160405280929190818152602001828054611e7990613525565b8015611ec45780601f10611e9b57610100808354040283529160200191611ec4565b820191905f5260205f20905b815481529060010190602001808311611ea757829003601f168201915b505050505081525050815250848481518110611ee257611ee2613557565b60209081029190910101525050600101611dba565b33611f297f9016d09d72d40fdae2fd8ceac6b6234c7706214fd39c1cd1e609a0528c199300546001600160a01b031690565b6001600160a01b031614610f8e5760405163118cdaa760e01b8152336004820152602401611d48565b6001600160a01b038082165f9081526006602052604090208054909116611f77575050565b60018101546001600160a01b03831631811015611fd857611fa2816001600160a01b038516316135aa565b82546001600160a01b03165f9081526020819052604081206001018054909190611fcd908490613597565b9091555061201d9050565b611fec6001600160a01b03841631826135aa565b82546001600160a01b03165f90815260208190526040812060010180549091906120179084906135aa565b90915550505b506001600160a01b0390911631600190910155565b335f90815260066020526040812080546001600160a01b03166120685760405163498ea63d60e01b815260040160405180910390fd5b6008546007546001600160a01b039182169116036120a157600780546001600160a01b03199081169091556008805490911690556121b4565b600854336001600160a01b03909116036120fa576002810180546001600160a01b039081165f90815260066020526040902060030180546001600160a01b031990811690915591546008805490931691161790556121b4565b600754336001600160a01b039091160361215e576008546001600160a01b039081165f9081526006602052604080822060020180546001600160a01b03199081169091556007805480861685529290932060030154911692169190911790556121b4565b60038181018054600280850180546001600160a01b039081165f9081526006602052604080822090970180549583166001600160a01b031996871617905591549454811682529490200180549290931691161790555b80546001600160a01b03165f8181526020819052604081206001808501549082018054929391929091906121e99084906135aa565b9091555050805460019082905f906122029084906135aa565b9091555050335f90815260066020526040812080546001600160a01b0319908116825560018201839055600282018054821690556003909101805490911690556009805491612250836137e1565b9091555091949350505050565b306001600160a01b037f00000000000000000000000000000000000000000000000000000000000000001614806122e357507f00000000000000000000000000000000000000000000000000000000000000006001600160a01b03166122d75f5160206138295f395f51905f52546001600160a01b031690565b6001600160a01b031614155b15610f8e5760405163703e46dd60e11b815260040160405180910390fd5b611d5a611ef7565b816001600160a01b03166352d1902d6040518163ffffffff1660e01b8152600401602060405180830381865afa925050508015612363575060408051601f3d908101601f19168201909252612360918101906137f6565b60015b61238b57604051634c9c8ce360e01b81526001600160a01b0383166004820152602401611d48565b5f5160206138295f395f51905f5281146123bb57604051632a87526960e21b815260048101829052602401611d48565b6106798383612c2f565b306001600160a01b037f00000000000000000000000000000000000000000000000000000000000000001614610f8e5760405163703e46dd60e11b815260040160405180910390fd5b5f828260405161241f9291906137b3565b60408051918290039091205f8181526002602052919091205490915060ff161561245c57604051637e4c066f60e01b815260040160405180910390fd5b6124668383612c84565b5f908152600260205260409020805460ff191660011790555050565b7f9016d09d72d40fdae2fd8ceac6b6234c7706214fd39c1cd1e609a0528c19930080546001600160a01b031981166001600160a01b03848116918217845560405192169182907f8be0079c531659141344cd1fd0a4f28419497f9722a3daafe3b4186f6b6457e0905f90a3505050565b6124fa612ca5565b611d5a81612cee565b80545f819003612511575050565b5f61251d6001836135aa565b90505b8015610679575f612532826001613597565b60408051426020820152908101849052606001604051602081830303815290604052805190602001205f1c61256791906137c2565b90505f84838154811061257c5761257c613557565b5f9182526020909120015485546001600160a01b0390911691508590839081106125a8576125a8613557565b905f5260205f20015f9054906101000a90046001600160a01b03168584815481106125d5576125d5613557565b905f5260205f20015f6101000a8154816001600160a01b0302191690836001600160a01b031602179055508085838154811061261357612613613557565b905f5260205f20015f6101000a8154816001600160a01b0302191690836001600160a01b031602179055505050808061264b906137e1565b915050612520565b600c546001600160a01b03165b6001600160a01b0381161561269d576001600160a01b039081165f908152600a6020526040902080546001600160a01b0319811690915516612660565b505f600d55565b5f818311156126d057604051632457cde760e01b81526004810184905260248101839052604401611d48565b828410156126df5750816126f1565b818411156126ee5750806126f1565b50825b9392505050565b6001600160a01b0382165f90815260208181526040808320815160808101835281548152600182015493810193909352600281015460ff1615159183019190915260038101805460608401919061274e90613525565b80601f016020809104026020016040519081016040528092919081815260200182805461277a90613525565b80156127c55780601f1061279c576101008083540402835291602001916127c5565b820191905f5260205f20905b8154815290600101906020018083116127a857829003601f168201915b505050919092525050604080518082018252600c546001600160a01b03168082525f908152602081815290839020835160808101855281548152600182015481840152600282015460ff161515948101949094526003810180549697506128e49693955091850193929091606084019161283e90613525565b80601f016020809104026020016040519081016040528092919081815260200182805461286a90613525565b80156128b55780601f1061288c576101008083540402835291602001916128b5565b820191905f5260205f20905b81548152906001019060200180831161289857829003601f168201915b5050505050815250508152506040518060400160405280866001600160a01b0316815260200184815250612ad4565b156128f7576128f283612cf6565b612a75565b600c546001600160a01b039081165f818152600a6020526040902054909116905b6001600160a01b038216612935576129308186612d47565b612a72565b6040805180820182526001600160a01b0384168082525f908152602081815290839020835160808101855281548152600182015481840152600282015460ff16151594810194909452600381018054612a4295938501939291606084019161299c90613525565b80601f01602080910402602001604051908101604052809291908181526020018280546129c890613525565b8015612a135780601f106129ea57610100808354040283529160200191612a13565b820191905f5260205f20905b8154815290600101906020018083116129f657829003601f168201915b5050505050815250508152506040518060400160405280886001600160a01b0316815260200186815250612ad4565b15612a51576129308186612d47565b506001600160a01b038082165f908152600a60205260409020541690612918565b50505b8160ff16600d54111561067957600c80546001600160a01b039081165f908152600a6020526040812080546001600160a01b03198082169092558454931692168217909255600d80549192612ac9836137e1565b919050555050505050565b5f81602001516020015183602001516020015103612b045750805182516001600160a01b03918216911611610aa5565b506020908101518101519181015101511190565b80515f819003612b26575050565b5f612b326001836135aa565b90505b8015610679575f612b47826001613597565b60408051426020820152908101849052606001604051602081830303815290604052805190602001205f1c612b7c91906137c2565b90505f848381518110612b9157612b91613557565b60200260200101519050848281518110612bad57612bad613557565b6020026020010151858481518110612bc757612bc7613557565b60200260200101906001600160a01b031690816001600160a01b03168152505080858381518110612bfa57612bfa613557565b60200260200101906001600160a01b031690816001600160a01b03168152505050508080612c27906137e1565b915050612b35565b612c3882612da5565b6040516001600160a01b038316907fbc7cd75a20ee27fd9adebab32041f755214dbc6bffa90cc0225b39da2e5c2d3b905f90a2805115612c7c576106798282612e08565b610ac6612e7a565b60308114610ac6576040516305db9dbd60e01b815260040160405180910390fd5b7ff0c57e16840df040f15088dc2f81fe391c3923bec73e23a9662efc9c229c6a0054600160401b900460ff16610f8e57604051631afcd79f60e31b815260040160405180910390fd5b611d23612ca5565b600c80546001600160a01b038381165f818152600a602052604081208054939094166001600160a01b031993841617909355835490911617909155600d805491612d3f8361357f565b919050555050565b6001600160a01b038281165f818152600a602052604080822080548686168085529284208054919096166001600160a01b03199182161790955592825282549093169092179055600d805491612d9c8361357f565b91905055505050565b806001600160a01b03163b5f03612dda57604051634c9c8ce360e01b81526001600160a01b0382166004820152602401611d48565b5f5160206138295f395f51905f5280546001600160a01b0319166001600160a01b0392909216919091179055565b60605f5f846001600160a01b031684604051612e24919061380d565b5f60405180830381855af49150503d805f8114612e5c576040519150601f19603f3d011682016040523d82523d5f602084013e612e61565b606091505b5091509150612e71858383612e99565b95945050505050565b3415610f8e5760405163b398979f60e01b815260040160405180910390fd5b606082612eae57612ea982612ef5565b6126f1565b8151158015612ec557506001600160a01b0384163b155b15612eee57604051639996b31560e01b81526001600160a01b0385166004820152602401611d48565b50806126f1565b805115612f055780518082602001fd5b60405163d6bda27560e01b815260040160405180910390fd5b60405180604001604052805f6001600160a01b03168152602001612f6260405180608001604052805f81526020015f81526020015f15158152602001606081525090565b905290565b5080545f8255905f5260205f2090810190611d5a9190612fe5565b828054828255905f5260205f20908101928215612fd5579160200282015b82811115612fd557825182546001600160a01b0319166001600160a01b03909116178255602090920191600190910190612fa0565b50612fe1929150612fe5565b5090565b5b80821115612fe1575f8155600101612fe6565b80356001600160a01b038116811461300f575f5ffd5b919050565b5f60208284031215613024575f5ffd5b6126f182612ff9565b5f5b8381101561304757818101518382015260200161302f565b50505f910152565b5f815180845261306681602086016020860161302d565b601f01601f19169290920160200192915050565b60018060a01b0381511682525f602082015160406020850152805160408501526020810151606085015260408101511515608085015260608101519050608060a08501526130cb60c085018261304f565b949350505050565b602081525f6126f1602083018461307a565b5f5f602083850312156130f6575f5ffd5b82356001600160401b0381111561310b575f5ffd5b8301601f8101851361311b575f5ffd5b80356001600160401b03811115613130575f5ffd5b8560208260051b8401011115613144575f5ffd5b6020919091019590945092505050565b5f5f60408385031215613165575f5ffd5b61316e83612ff9565b915061317c60208401612ff9565b90509250929050565b5f5f60408385031215613196575f5ffd5b50508035926020909101359150565b5f602082016020835280845180835260408501915060408160051b8601019250602086015f5b8281101561325257868503603f19018452815180518652602090810151604082880181905281519088018190529101905f9060608801905b8083101561323a57835180516001600160a01b03168352602090810151818401529093019260019290920191604090910190613203565b509650505060209384019391909101906001016131cb565b50929695505050505050565b634e487b7160e01b5f52604160045260245ffd5b5f5f60408385031215613283575f5ffd5b61328c83612ff9565b915060208301356001600160401b038111156132a6575f5ffd5b8301601f810185136132b6575f5ffd5b80356001600160401b038111156132cf576132cf61325e565b604051601f8201601f19908116603f011681016001600160401b03811182821017156132fd576132fd61325e565b604052818152828201602001871015613314575f5ffd5b816020840160208301375f602083830101528093505050509250929050565b5f5f83601f840112613343575f5ffd5b5081356001600160401b03811115613359575f5ffd5b602083019150836020828501011115613370575f5ffd5b9250929050565b5f5f60208385031215613388575f5ffd5b82356001600160401b0381111561339d575f5ffd5b6133a985828601613333565b90969095509350505050565b5f5f5f5f606085870312156133c8575f5ffd5b6133d185612ff9565b935060208501356001600160401b038111156133eb575f5ffd5b6133f787828801613333565b9094509250506040850135801515811461340f575f5ffd5b939692955090935050565b5f6020828403121561342a575f5ffd5b813560ff811681146126f1575f5ffd5b5f602082016020835280845180835260408501915060408160051b8601019250602086015f5b8281101561325257603f1987860301845261347c85835161307a565b94506020938401939190910190600101613460565b602081525f6126f1602083018461304f565b5f5f604083850312156134b4575f5ffd5b6134bd83612ff9565b946020939093013593505050565b602080825282518282018190525f918401906040840190835b8181101561351a57835180516001600160a01b0390811685526020918201511681850152909301926040909201916001016134e4565b509095945050505050565b600181811c9082168061353957607f821691505b602082108103611a0e57634e487b7160e01b5f52602260045260245ffd5b634e487b7160e01b5f52603260045260245ffd5b634e487b7160e01b5f52601160045260245ffd5b5f600182016135905761359061356b565b5060010190565b80820180821115610aa557610aa561356b565b81810381811115610aa557610aa561356b565b601f82111561067957805f5260205f20601f840160051c810160208510156135e25750805b601f840160051c820191505b818110156112d4575f81556001016135ee565b6001600160401b038311156136185761361861325e565b61362c836136268354613525565b836135bd565b5f601f84116001811461365d575f85156136465750838201355b5f19600387901b1c1916600186901b1783556112d4565b5f83815260208120601f198716915b8281101561368c578685013582556020948501946001909201910161366c565b50868210156136a8575f1960f88860031b161c19848701351681555b505060018560011b0183555050505050565b6001600160a01b03841681526040602082018190528101829052818360608301375f818301606090810191909152601f909201601f1916010192915050565b81516001600160401b038111156137125761371261325e565b613726816137208454613525565b846135bd565b6020601f821160018114613758575f83156137415750848201515b5f19600385901b1c1916600184901b1784556112d4565b5f84815260208120601f198516915b828110156137875787850151825560209485019460019092019101613767565b50848210156137a457868401515f19600387901b60f8161c191681555b50505050600190811b01905550565b818382375f9101908152919050565b5f826137dc57634e487b7160e01b5f52601260045260245ffd5b500690565b5f816137ef576137ef61356b565b505f190190565b5f60208284031215613806575f5ffd5b5051919050565b5f825161381e81846020870161302d565b919091019291505056fe360894a13ba1a3210667c828492db98dca3e2076cc3735a920a3ca505d382bbca2646970667358221220983e2d933e18f12cab95985824dc16db07106a30fc15cd31c83493c6e0e0f72b64736f6c634300081b0033",
		"linkReferences": {}
	},
	"methodIdentifiers": {
		"UPGRADE_INTERFACE_VERSION()": "ad3cb1cc",
		"activeValidatorsCount()": "0d2bd909",
		"addValidator(address,bytes,bool)": "7c8a92c3",
		"addVote(address,address)": "3d09c2a8",
		"calculateActiveValidators(uint8)": "857861db",
		"getActiveValidators()": "9de70258",
		"getAllValidators()": "f3513a37",
		"getRounds(uint256,uint256)": "40f74f47",
		"getRoundsCount()": "a09686c4",
		"getValidator(address)": "1904bb2e",
		"getVotes(address,uint256)": "eb9019d4",
		"getVotesCount()": "1b605b86",
		"initialize()": "8129fc1c",
		"isValidatorRegistered(address)": "d04a68c7",
		"owner()": "8da5cb5b",
		"proxiableUUID()": "52d1902d",
		"registerValidator(bytes)": "602a9eee",
		"registeredValidatorsCount()": "f1bd0b37",
		"renounceOwnership()": "715018a6",
		"resignValidator()": "b85f5da2",
		"resignedValidatorsCount()": "0777cbef",
		"transferOwnership(address)": "f2fde38b",
		"unvote()": "3174b689",
		"updateValidator(bytes)": "5a8eed73",
		"updateVoters(address[])": "2bdf6d43",
		"upgradeToAndCall(address,bytes)": "4f1ef286",
		"version()": "54fd4d50",
		"vote(address)": "6dd7d8ea"
	},
	"id": 37
}