{
	"abi": [
		{
			"type": "function",
			"name": "UPGRADE_INTERFACE_VERSION",
			"inputs": [],
			"outputs": [
				{
					"name": "",
					"type": "string",
					"internalType": "string"
				}
			],
			"stateMutability": "view"
		},
		{
			"type": "function",
			"name": "activeValidatorsCount",
			"inputs": [],
			"outputs": [
				{
					"name": "",
					"type": "uint256",
					"internalType": "uint256"
				}
			],
			"stateMutability": "view"
		},
		{
			"type": "function",
			"name": "calculateActiveValidators",
			"inputs": [
				{
					"name": "n",
					"type": "uint8",
					"internalType": "uint8"
				}
			],
			"outputs": [],
			"stateMutability": "nonpayable"
		},
		{
			"type": "function",
			"name": "getActiveValidators",
			"inputs": [],
			"outputs": [
				{
					"name": "",
					"type": "tuple[]",
					"internalType": "struct Validator[]",
					"components": [
						{
							"name": "addr",
							"type": "address",
							"internalType": "address"
						},
						{
							"name": "data",
							"type": "tuple",
							"internalType": "struct ValidatorData",
							"components": [
								{
									"name": "votersCount",
									"type": "uint256",
									"internalType": "uint256"
								},
								{
									"name": "voteBalance",
									"type": "uint256",
									"internalType": "uint256"
								},
								{
									"name": "isResigned",
									"type": "bool",
									"internalType": "bool"
								},
								{
									"name": "blsPublicKey",
									"type": "bytes",
									"internalType": "bytes"
								}
							]
						}
					]
				}
			],
			"stateMutability": "view"
		},
		{
			"type": "function",
			"name": "getAllValidators",
			"inputs": [],
			"outputs": [
				{
					"name": "",
					"type": "tuple[]",
					"internalType": "struct Validator[]",
					"components": [
						{
							"name": "addr",
							"type": "address",
							"internalType": "address"
						},
						{
							"name": "data",
							"type": "tuple",
							"internalType": "struct ValidatorData",
							"components": [
								{
									"name": "votersCount",
									"type": "uint256",
									"internalType": "uint256"
								},
								{
									"name": "voteBalance",
									"type": "uint256",
									"internalType": "uint256"
								},
								{
									"name": "isResigned",
									"type": "bool",
									"internalType": "bool"
								},
								{
									"name": "blsPublicKey",
									"type": "bytes",
									"internalType": "bytes"
								}
							]
						}
					]
				}
			],
			"stateMutability": "view"
		},
		{
			"type": "function",
			"name": "getRounds",
			"inputs": [
				{
					"name": "offset",
					"type": "uint256",
					"internalType": "uint256"
				},
				{
					"name": "count",
					"type": "uint256",
					"internalType": "uint256"
				}
			],
			"outputs": [
				{
					"name": "",
					"type": "tuple[]",
					"internalType": "struct Round[]",
					"components": [
						{
							"name": "round",
							"type": "uint256",
							"internalType": "uint256"
						},
						{
							"name": "validators",
							"type": "tuple[]",
							"internalType": "struct RoundValidator[]",
							"components": [
								{
									"name": "addr",
									"type": "address",
									"internalType": "address"
								},
								{
									"name": "voteBalance",
									"type": "uint256",
									"internalType": "uint256"
								}
							]
						}
					]
				}
			],
			"stateMutability": "view"
		},
		{
			"type": "function",
			"name": "getRoundsCount",
			"inputs": [],
			"outputs": [
				{
					"name": "",
					"type": "uint256",
					"internalType": "uint256"
				}
			],
			"stateMutability": "view"
		},
		{
			"type": "function",
			"name": "getValidator",
			"inputs": [
				{
					"name": "addr",
					"type": "address",
					"internalType": "address"
				}
			],
			"outputs": [
				{
					"name": "",
					"type": "tuple",
					"internalType": "struct Validator",
					"components": [
						{
							"name": "addr",
							"type": "address",
							"internalType": "address"
						},
						{
							"name": "data",
							"type": "tuple",
							"internalType": "struct ValidatorData",
							"components": [
								{
									"name": "votersCount",
									"type": "uint256",
									"internalType": "uint256"
								},
								{
									"name": "voteBalance",
									"type": "uint256",
									"internalType": "uint256"
								},
								{
									"name": "isResigned",
									"type": "bool",
									"internalType": "bool"
								},
								{
									"name": "blsPublicKey",
									"type": "bytes",
									"internalType": "bytes"
								}
							]
						}
					]
				}
			],
			"stateMutability": "view"
		},
		{
			"type": "function",
			"name": "getVotes",
			"inputs": [
				{
					"name": "addr",
					"type": "address",
					"internalType": "address"
				},
				{
					"name": "count",
					"type": "uint256",
					"internalType": "uint256"
				}
			],
			"outputs": [
				{
					"name": "",
					"type": "tuple[]",
					"internalType": "struct VoteResult[]",
					"components": [
						{
							"name": "voter",
							"type": "address",
							"internalType": "address"
						},
						{
							"name": "validator",
							"type": "address",
							"internalType": "address"
						}
					]
				}
			],
			"stateMutability": "view"
		},
		{
			"type": "function",
			"name": "getVotesCount",
			"inputs": [],
			"outputs": [
				{
					"name": "",
					"type": "uint256",
					"internalType": "uint256"
				}
			],
			"stateMutability": "view"
		},
		{
			"type": "function",
			"name": "initialize",
			"inputs": [],
			"outputs": [],
			"stateMutability": "nonpayable"
		},
		{
			"type": "function",
			"name": "isValidatorRegistered",
			"inputs": [
				{
					"name": "addr",
					"type": "address",
					"internalType": "address"
				}
			],
			"outputs": [
				{
					"name": "",
					"type": "bool",
					"internalType": "bool"
				}
			],
			"stateMutability": "view"
		},
		{
			"type": "function",
			"name": "proxiableUUID",
			"inputs": [],
			"outputs": [
				{
					"name": "",
					"type": "bytes32",
					"internalType": "bytes32"
				}
			],
			"stateMutability": "view"
		},
		{
			"type": "function",
			"name": "registerValidator",
			"inputs": [
				{
					"name": "blsPublicKey",
					"type": "bytes",
					"internalType": "bytes"
				}
			],
			"outputs": [],
			"stateMutability": "nonpayable"
		},
		{
			"type": "function",
			"name": "registeredValidatorsCount",
			"inputs": [],
			"outputs": [
				{
					"name": "",
					"type": "uint256",
					"internalType": "uint256"
				}
			],
			"stateMutability": "view"
		},
		{
			"type": "function",
			"name": "resignValidator",
			"inputs": [],
			"outputs": [],
			"stateMutability": "nonpayable"
		},
		{
			"type": "function",
			"name": "resignedValidatorsCount",
			"inputs": [],
			"outputs": [
				{
					"name": "",
					"type": "uint256",
					"internalType": "uint256"
				}
			],
			"stateMutability": "view"
		},
		{
			"type": "function",
			"name": "unvote",
			"inputs": [],
			"outputs": [],
			"stateMutability": "nonpayable"
		},
		{
			"type": "function",
			"name": "updateValidator",
			"inputs": [
				{
					"name": "blsPublicKey",
					"type": "bytes",
					"internalType": "bytes"
				}
			],
			"outputs": [],
			"stateMutability": "nonpayable"
		},
		{
			"type": "function",
			"name": "updateVoters",
			"inputs": [
				{
					"name": "voters",
					"type": "address[]",
					"internalType": "address[]"
				}
			],
			"outputs": [],
			"stateMutability": "nonpayable"
		},
		{
			"type": "function",
			"name": "upgradeToAndCall",
			"inputs": [
				{
					"name": "newImplementation",
					"type": "address",
					"internalType": "address"
				},
				{
					"name": "data",
					"type": "bytes",
					"internalType": "bytes"
				}
			],
			"outputs": [],
			"stateMutability": "payable"
		},
		{
			"type": "function",
			"name": "version",
			"inputs": [],
			"outputs": [
				{
					"name": "",
					"type": "uint256",
					"internalType": "uint256"
				}
			],
			"stateMutability": "pure"
		},
		{
			"type": "function",
			"name": "vote",
			"inputs": [
				{
					"name": "addr",
					"type": "address",
					"internalType": "address"
				}
			],
			"outputs": [],
			"stateMutability": "nonpayable"
		},
		{
			"type": "event",
			"name": "Initialized",
			"inputs": [
				{
					"name": "version",
					"type": "uint64",
					"indexed": false,
					"internalType": "uint64"
				}
			],
			"anonymous": false
		},
		{
			"type": "event",
			"name": "Unvoted",
			"inputs": [
				{
					"name": "voter",
					"type": "address",
					"indexed": false,
					"internalType": "address"
				},
				{
					"name": "validator",
					"type": "address",
					"indexed": false,
					"internalType": "address"
				}
			],
			"anonymous": false
		},
		{
			"type": "event",
			"name": "Upgraded",
			"inputs": [
				{
					"name": "implementation",
					"type": "address",
					"indexed": true,
					"internalType": "address"
				}
			],
			"anonymous": false
		},
		{
			"type": "event",
			"name": "ValidatorRegistered",
			"inputs": [
				{
					"name": "addr",
					"type": "address",
					"indexed": false,
					"internalType": "address"
				},
				{
					"name": "blsPublicKey",
					"type": "bytes",
					"indexed": false,
					"internalType": "bytes"
				}
			],
			"anonymous": false
		},
		{
			"type": "event",
			"name": "ValidatorResigned",
			"inputs": [
				{
					"name": "addr",
					"type": "address",
					"indexed": false,
					"internalType": "address"
				}
			],
			"anonymous": false
		},
		{
			"type": "event",
			"name": "ValidatorUpdated",
			"inputs": [
				{
					"name": "addr",
					"type": "address",
					"indexed": false,
					"internalType": "address"
				},
				{
					"name": "blsPublicKey",
					"type": "bytes",
					"indexed": false,
					"internalType": "bytes"
				}
			],
			"anonymous": false
		},
		{
			"type": "event",
			"name": "Voted",
			"inputs": [
				{
					"name": "voter",
					"type": "address",
					"indexed": false,
					"internalType": "address"
				},
				{
					"name": "validator",
					"type": "address",
					"indexed": false,
					"internalType": "address"
				}
			],
			"anonymous": false
		},
		{
			"type": "error",
			"name": "AddressEmptyCode",
			"inputs": [
				{
					"name": "target",
					"type": "address",
					"internalType": "address"
				}
			]
		},
		{
			"type": "error",
			"name": "BlsKeyAlreadyRegistered",
			"inputs": []
		},
		{
			"type": "error",
			"name": "BlsKeyIsInvalid",
			"inputs": []
		},
		{
			"type": "error",
			"name": "CallerIsNotOwner",
			"inputs": []
		},
		{
			"type": "error",
			"name": "CallerIsNotValidator",
			"inputs": []
		},
		{
			"type": "error",
			"name": "CallerIsOwner",
			"inputs": []
		},
		{
			"type": "error",
			"name": "ERC1967InvalidImplementation",
			"inputs": [
				{
					"name": "implementation",
					"type": "address",
					"internalType": "address"
				}
			]
		},
		{
			"type": "error",
			"name": "ERC1967NonPayable",
			"inputs": []
		},
		{
			"type": "error",
			"name": "FailedCall",
			"inputs": []
		},
		{
			"type": "error",
			"name": "InvalidInitialization",
			"inputs": []
		},
		{
			"type": "error",
			"name": "InvalidRange",
			"inputs": [
				{
					"name": "min",
					"type": "uint256",
					"internalType": "uint256"
				},
				{
					"name": "max",
					"type": "uint256",
					"internalType": "uint256"
				}
			]
		},
		{
			"type": "error",
			"name": "MissingVote",
			"inputs": []
		},
		{
			"type": "error",
			"name": "NotInitializing",
			"inputs": []
		},
		{
			"type": "error",
			"name": "UUPSUnauthorizedCallContext",
			"inputs": []
		},
		{
			"type": "error",
			"name": "UUPSUnsupportedProxiableUUID",
			"inputs": [
				{
					"name": "slot",
					"type": "bytes32",
					"internalType": "bytes32"
				}
			]
		},
		{
			"type": "error",
			"name": "ValidatorAlreadyRegistered",
			"inputs": []
		},
		{
			"type": "error",
			"name": "ValidatorAlreadyResigned",
			"inputs": []
		},
		{
			"type": "error",
			"name": "ValidatorNotRegistered",
			"inputs": []
		},
		{
			"type": "error",
			"name": "VoteResignedValidator",
			"inputs": []
		},
		{
			"type": "error",
			"name": "VoteSameValidator",
			"inputs": []
		}
	],
	"bytecode": {
		"object": "0x60a0604052306080525f60058190556006819055600880546001600160a01b0319908116909155600980549091169055600a819055600e553480156041575f5ffd5b50608051612f446100685f395f8181611bb601528181611bdf0152611d470152612f445ff3fe60806040526004361061013c575f3560e01c8063602a9eee116100b3578063ad3cb1cc1161006d578063ad3cb1cc14610317578063b85f5da214610354578063d04a68c714610368578063eb9019d4146103af578063f1bd0b37146103db578063f3513a37146103ef575f5ffd5b8063602a9eee146102715780636dd7d8ea146102905780638129fc1c146102af578063857861db146102c35780639de70258146102e2578063a09686c414610303575f5ffd5b80633174b689116101045780633174b689146101d857806340f74f47146101ec5780634f1ef2861461021857806352d1902d1461022b57806354fd4d501461023f5780635a8eed7314610252575f5ffd5b80630777cbef146101405780630d2bd909146101635780631904bb2e146101775780631b605b86146101a35780632bdf6d43146101b7575b5f5ffd5b34801561014b575f5ffd5b506006545b6040519081526020015b60405180910390f35b34801561016e575f5ffd5b50600c54610150565b348015610182575f5ffd5b50610196610191366004612796565b610403565b60405161015a9190612855565b3480156101ae575f5ffd5b50600a54610150565b3480156101c2575f5ffd5b506101d66101d1366004612867565b610534565b005b3480156101e3575f5ffd5b506101d66105a4565b3480156101f7575f5ffd5b5061020b6102063660046128d6565b6105f3565b60405161015a91906128f6565b6101d66102263660046129c3565b6107a9565b348015610236575f5ffd5b506101506107c8565b34801561024a575f5ffd5b506001610150565b34801561025d575f5ffd5b506101d661026c366004612a84565b6107e3565b34801561027c575f5ffd5b506101d661028b366004612a84565b6108a2565b34801561029b575f5ffd5b506101d66102aa366004612796565b610a5a565b3480156102ba575f5ffd5b506101d6610ce4565b3480156102ce575f5ffd5b506101d66102dd366004612ae0565b610df7565b3480156102ed575f5ffd5b506102f661128a565b60405161015a9190612b00565b34801561030e575f5ffd5b50600f54610150565b348015610322575f5ffd5b50610347604051806040016040528060058152602001640352e302e360dc1b81525081565b60405161015a9190612b57565b34801561035f575f5ffd5b506101d6611427565b348015610373575f5ffd5b5061039f610382366004612796565b6001600160a01b03165f9081526002602052604090205460ff1690565b604051901515815260200161015a565b3480156103ba575f5ffd5b506103ce6103c9366004612b69565b6114e8565b60405161015a9190612b91565b3480156103e6575f5ffd5b50600554610150565b3480156103fa575f5ffd5b506102f661170c565b61040b6126a0565b6001600160a01b0382165f9081526002602052604090205460ff166104435760405163510b8aad60e11b815260040160405180910390fd5b6040805180820182526001600160a01b0384168082525f90815260016020818152918490208451608081018652815481529181015482840152600281015460ff161515948201949094526003840180549394928501939192916060840191906104ab90612beb565b80601f01602080910402602001604051908101604052809291908181526020018280546104d790612beb565b80156105225780601f106104f957610100808354040283529160200191610522565b820191905f5260205f20905b81548152906001019060200180831161050557829003601f168201915b50505091909252505050905292915050565b5f546001600160a01b0316331461055e57604051636db2465f60e01b815260040160405180910390fd5b5f5b8181101561059f5761059783838381811061057d5761057d612c1d565b90506020020160208101906105929190612796565b6118a3565b600101610560565b505050565b7f6572af8bf9a0a86efb88dcc30011626a15c9c4603503aa4466a3f87a1867deef336105ce611983565b604080516001600160a01b0393841681529290911660208301520160405180910390a1565b5f546060906001600160a01b0316331461062057604051636db2465f60e01b815260040160405180910390fd5b600f548290841061063257505f610656565b600f5461063f8486612c45565b111561065657600f54610653908590612c58565b90505b5f816001600160401b0381111561066f5761066f6129af565b6040519080825280602002602001820160405280156106b457816020015b604080518082019091525f81526060602082015281526020019060019003908161068d5790505b5090505f5b8281101561079e57604051806040016040528082886106d89190612c45565b6106e3906001612c45565b8152602001600f6106f4848a612c45565b8154811061070457610704612c1d565b905f5260205f2001805480602002602001604051908101604052809291908181526020015f905b82821015610772575f848152602090819020604080518082019091526002850290910180546001600160a01b0316825260019081015482840152908352909201910161072b565b5050505081525082828151811061078b5761078b612c1d565b60209081029190910101526001016106b9565b509150505b92915050565b6107b1611bab565b6107ba82611c51565b6107c48282611c7b565b5050565b5f6107d1611d3c565b505f516020612eef5f395f51905f5290565b5f546001600160a01b0316330361080d57604051630c148c4960e31b815260040160405180910390fd5b335f9081526002602052604090205460ff1661083c5760405163510b8aad60e11b815260040160405180910390fd5b6108468282611d85565b335f908152600160205260409020600301610862828483612caf565b507f4af0b5984c9f88659d661fb64dcb63a5b946809cf1c78a8c6e0f6ef93c91703233838360405161089693929190612d68565b60405180910390a15050565b5f546001600160a01b031633036108cc57604051630c148c4960e31b815260040160405180910390fd5b335f9081526002602052604090205460ff16156108fc5760405163132e7efb60e31b815260040160405180910390fd5b6109068282611d85565b5f60405180608001604052805f81526020015f81526020015f1515815260200184848080601f0160208091040260200160405190810160405280939291908181526020018383808284375f92018290525093909452505060058054939450915061096f83612da7565b9091555050335f9081526002602081815260408084208054600160ff19918216811790925581845294829020865181559286015190830155840151918101805490931691151591909117909155606082015182919060038201906109d39082612dbf565b5050600480546001810182555f919091527f8a35acfbc15ff81a39ae7d344fd709f28e8600b4aa8c65c6b64bfe7fe36bd19b0180546001600160a01b031916339081179091556040517f61809fa303a3a57f4d70552f533f3e0b003173d424590cd4bb22a2afe000990c9250610a4d919086908690612d68565b60405180910390a1505050565b5f546001600160a01b03163303610a8457604051630c148c4960e31b815260040160405180910390fd5b6001600160a01b0381165f9081526002602052604090205460ff16610abc5760405163510b8aad60e11b815260040160405180910390fd5b6001600160a01b0381165f908152600160205260409020600281015460ff1615610af95760405163510ae2bd60e11b815260040160405180910390fd5b335f90815260076020526040902080546001600160a01b03848116911603610b3457604051630d41c52760e01b815260040160405180910390fd5b80546001600160a01b031615610b4e57610b4c611983565b505b604080516080810182526001600160a01b03808616825233803160208085019182525f85870181815260608701828152948252600790925295909520935184549084166001600160a01b03199182161785559051600185015593516002840180549184169186169190911790555160039092018054928216929093169190911790915560085416610c005760088054336001600160a01b03199182168117909255600980549091169091179055610c57565b600980546001600160a01b039081165f9081526007602052604080822060030180546001600160a01b0319908116339081179092558554828552929093206002018054841692909416919091179092558254161790555b600a8054905f610c6683612da7565b9190505550336001600160a01b031631826001015f828254610c889190612c45565b9091555050815460019083905f90610ca1908490612c45565b9091555050604080513381526001600160a01b03851660208201527fce0c7a2a940807f7dc2ce7a615c2532e915e6c0ac9a08bc4ed9d515a710a53e29101610a4d565b7ff0c57e16840df040f15088dc2f81fe391c3923bec73e23a9662efc9c229c6a008054600160401b810460ff1615906001600160401b03165f81158015610d285750825b90505f826001600160401b03166001148015610d435750303b155b905081158015610d51575080155b15610d6f5760405163f92ee8a960e01b815260040160405180910390fd5b845467ffffffffffffffff191660011785558315610d9957845460ff60401b1916600160401b1785555b5f80546001600160a01b031916331790558315610df057845460ff60401b19168555604051600181527fc7f505b2f371ae2175ee4913f4499e1f2633a7b5936321eed1cdaeb6115181d29060200160405180910390a15b5050505050565b5f546001600160a01b03163314610e2157604051636db2465f60e01b815260040160405180910390fd5b610e2b6004611df9565b610e33611f3d565b600d80546001600160a01b03191690556006546005545f91610e659160ff8516918491610e609190612c58565b611f8e565b90508060ff165f03610e75575050565b5f5b600454811015611120575f60048281548110610e9557610e95612c1d565b5f9182526020808320909101546001600160a01b03168083526001909152604090912060028101549192509060ff1615610ed0575050611118565b600d546001600160a01b0316610f0b5750600d80546001600160a01b0319166001600160a01b03929092169190911790556001600e55611118565b8360ff16600e541015610f2957610f228285611fe2565b5050611118565b600d546001600160a01b039081165f908152600160208181526040928390208351808501855294871685528351608081018552865481529286015483830152600286015460ff16151593830193909352600385018054939461110594909392840192918791606084019190610f9d90612beb565b80601f0160208091040260200160405190810160405280929190818152602001828054610fc990612beb565b80156110145780601f10610feb57610100808354040283529160200191611014565b820191905f5260205f20905b815481529060010190602001808311610ff757829003601f168201915b505050919092525050509052604080518082018252600d546001600160a01b031681528151608081018352855481526001860154602082810191909152600287015460ff1615159382019390935260038601805492938401928791606084019161107d90612beb565b80601f01602080910402602001604051908101604052809291908181526020018280546110a990612beb565b80156110f45780601f106110cb576101008083540402835291602001916110f4565b820191905f5260205f20905b8154815290600101906020018083116110d757829003601f168201915b5050505050815250508152506123be565b15611114576111148386611fe2565b5050505b600101610e77565b50600f80546001810182555f918252600d547f8d1108e10bcb7c27dddfc02ed9d693a074039d026cf4ea4240b40f7d581ac802909101916001600160a01b039091169061116f90600c906126e9565b8260ff166001600160401b0381111561118a5761118a6129af565b6040519080825280602002602001820160405280156111b3578160200160208202803683370190505b5080516111c891600c91602090910190612704565b505f5b8360ff168110156112785781600c82815481106111ea576111ea612c1d565b5f918252602080832090910180546001600160a01b039485166001600160a01b03199182161790915560408051808201825296851680885280855260018085528286208101548986019081528a548083018c558b88528688209a516002909102909a0180549a89169a909516999099178455975192880192909255908352600b9091529020541691016111cb565b50611283600c611df9565b5050505b50565b600c546060905f906001600160401b038111156112a9576112a96129af565b6040519080825280602002602001820160405280156112e257816020015b6112cf6126a0565b8152602001906001900390816112c75790505b5090505f5b600c54811015611421575f600c828154811061130557611305612c1d565b5f9182526020808320909101546001600160a01b03168083526001808352604093849020845180860186528381528551608081018752825481529282015483860152600282015460ff161515958301959095526003810180549396509094938401928591606084019161137790612beb565b80601f01602080910402602001604051908101604052809291908181526020018280546113a390612beb565b80156113ee5780601f106113c5576101008083540402835291602001916113ee565b820191905f5260205f20905b8154815290600101906020018083116113d157829003601f168201915b50505050508152505081525084848151811061140c5761140c612c1d565b602090810291909101015250506001016112e7565b50919050565b335f9081526002602052604090205460ff166114565760405163668191af60e11b815260040160405180910390fd5b335f908152600160205260409020600281015460ff161561148a57604051632d8b5c9760e21b815260040160405180910390fd5b60028101805460ff19166001908117909155600680545f906114ad908490612c45565b90915550506040513381527f24250fc1ec78a1405ddd4cc8b75964858af228d05faa8d4bc1302966d8a541179060200160405180910390a150565b5f546060906001600160a01b0316331461151557604051636db2465f60e01b815260040160405180910390fd5b5f611523835f600a54611f8e565b6001600160401b0381111561153a5761153a6129af565b60405190808252806020026020018201604052801561157e57816020015b604080518082019091525f80825260208201528152602001906001900390816115585790505b506008549091506001600160a01b03908116908516156115b757506001600160a01b038085165f90815260076020526040902060030154165b5f5b6001600160a01b038216158015906115d057508481105b15611645576001600160a01b038083165f81815260076020908152604091829020825180840190935292825282549093169281019290925290848361161481612da7565b94508151811061162657611626612c1d565b6020908102919091010152600301546001600160a01b031691506115b9565b80835103611658578293505050506107a3565b5f816001600160401b03811115611671576116716129af565b6040519080825280602002602001820160405280156116b557816020015b604080518082019091525f808252602082015281526020019060019003908161168f5790505b5090505f5b82811015611701578481815181106116d4576116d4612c1d565b60200260200101518282815181106116ee576116ee612c1d565b60209081029190910101526001016116ba565b509695505050505050565b6004546060905f906001600160401b0381111561172b5761172b6129af565b60405190808252806020026020018201604052801561176457816020015b6117516126a0565b8152602001906001900390816117495790505b5090505f5b600454811015611421575f6004828154811061178757611787612c1d565b5f9182526020808320909101546001600160a01b03168083526001808352604093849020845180860186528381528551608081018752825481529282015483860152600282015460ff16151595830195909552600381018054939650909493840192859160608401916117f990612beb565b80601f016020809104026020016040519081016040528092919081815260200182805461182590612beb565b80156118705780601f1061184757610100808354040283529160200191611870565b820191905f5260205f20905b81548152906001019060200180831161185357829003601f168201915b50505050508152505081525084848151811061188e5761188e612c1d565b60209081029190910101525050600101611769565b6001600160a01b038082165f90815260076020526040902080549091166118c8575050565b60018101546001600160a01b03831631811015611929576118f3816001600160a01b03851631612c58565b82546001600160a01b03165f908152600160208190526040822001805490919061191e908490612c45565b9091555061196e9050565b61193d6001600160a01b0384163182612c58565b82546001600160a01b03165f9081526001602081905260408220018054909190611968908490612c58565b90915550505b506001600160a01b0390911631600190910155565b335f90815260076020526040812080546001600160a01b03166119b95760405163498ea63d60e01b815260040160405180910390fd5b6009546008546001600160a01b039182169116036119f257600880546001600160a01b0319908116909155600980549091169055611b05565b600954336001600160a01b0390911603611a4b576002810180546001600160a01b039081165f90815260076020526040902060030180546001600160a01b03199081169091559154600980549093169116179055611b05565b600854336001600160a01b0390911603611aaf576009546001600160a01b039081165f9081526007602052604080822060020180546001600160a01b0319908116909155600880548086168552929093206003015491169216919091179055611b05565b60038181018054600280850180546001600160a01b039081165f9081526007602052604080822090970180549583166001600160a01b031996871617905591549454811682529490200180549290931691161790555b80546001600160a01b03165f818152600160208190526040822081850154918101805491939091611b37908490612c58565b9091555050805460019082905f90611b50908490612c58565b9091555050335f90815260076020526040812080546001600160a01b031990811682556001820183905560028201805482169055600390910180549091169055600a805491611b9e83612e79565b9091555091949350505050565b306001600160a01b037f0000000000000000000000000000000000000000000000000000000000000000161480611c3157507f00000000000000000000000000000000000000000000000000000000000000006001600160a01b0316611c255f516020612eef5f395f51905f52546001600160a01b031690565b6001600160a01b031614155b15611c4f5760405163703e46dd60e11b815260040160405180910390fd5b565b5f546001600160a01b0316331461128757604051636db2465f60e01b815260040160405180910390fd5b816001600160a01b03166352d1902d6040518163ffffffff1660e01b8152600401602060405180830381865afa925050508015611cd5575060408051601f3d908101601f19168201909252611cd291810190612e8e565b60015b611d0257604051634c9c8ce360e01b81526001600160a01b03831660048201526024015b60405180910390fd5b5f516020612eef5f395f51905f528114611d3257604051632a87526960e21b815260048101829052602401611cf9565b61059f8383612402565b306001600160a01b037f00000000000000000000000000000000000000000000000000000000000000001614611c4f5760405163703e46dd60e11b815260040160405180910390fd5b5f8282604051611d96929190612ea5565b60408051918290039091205f8181526003602052919091205490915060ff1615611dd357604051637e4c066f60e01b815260040160405180910390fd5b611ddd8383612457565b5f908152600360205260409020805460ff191660011790555050565b80545f611e07600183612c58565b90505b801561059f575f611e1c826001612c45565b60408051426020820152908101849052606001604051602081830303815290604052805190602001205f1c611e519190612eb4565b90505f848381548110611e6657611e66612c1d565b5f9182526020909120015485546001600160a01b039091169150859083908110611e9257611e92612c1d565b905f5260205f20015f9054906101000a90046001600160a01b0316858481548110611ebf57611ebf612c1d565b905f5260205f20015f6101000a8154816001600160a01b0302191690836001600160a01b0316021790555080858381548110611efd57611efd612c1d565b905f5260205f20015f6101000a8154816001600160a01b0302191690836001600160a01b0316021790555050508080611f3590612e79565b915050611e0a565b600d546001600160a01b03165b6001600160a01b03811615611f87576001600160a01b039081165f908152600b6020526040902080546001600160a01b0319811690915516611f4a565b505f600e55565b5f81831115611fba57604051632457cde760e01b81526004810184905260248101839052604401611cf9565b82841015611fc9575081611fdb565b81841115611fd8575080611fdb565b50825b9392505050565b6001600160a01b0382165f9081526001602081815260408084208151608081018352815481529381015492840192909252600282015460ff1615159083015260038101805460608401919061203690612beb565b80601f016020809104026020016040519081016040528092919081815260200182805461206290612beb565b80156120ad5780601f10612084576101008083540402835291602001916120ad565b820191905f5260205f20905b81548152906001019060200180831161209057829003601f168201915b505050919092525050604080518082018252600d546001600160a01b03168082525f90815260016020818152918490208451608081018652815481529181015482840152600281015460ff161515948201949094526003840180549697506121ce969395509185019390929091606084019161212890612beb565b80601f016020809104026020016040519081016040528092919081815260200182805461215490612beb565b801561219f5780601f106121765761010080835404028352916020019161219f565b820191905f5260205f20905b81548152906001019060200180831161218257829003601f168201915b5050505050815250508152506040518060400160405280866001600160a01b03168152602001848152506123be565b156121e1576121dc83612478565b61235f565b600d546001600160a01b039081165f818152600b6020526040902054909116905b6001600160a01b03821661221f5761221a81866124c9565b61235c565b6040805180820182526001600160a01b0384168082525f90815260016020818152918490208451608081018652815481529181015482840152600281015460ff1615159482019490945260038401805461232c959385019391606084019161228690612beb565b80601f01602080910402602001604051908101604052809291908181526020018280546122b290612beb565b80156122fd5780601f106122d4576101008083540402835291602001916122fd565b820191905f5260205f20905b8154815290600101906020018083116122e057829003601f168201915b5050505050815250508152506040518060400160405280886001600160a01b03168152602001868152506123be565b1561233b5761221a81866124c9565b506001600160a01b038082165f908152600b60205260409020541690612202565b50505b8160ff16600e54111561059f57600d80546001600160a01b039081165f908152600b6020526040812080546001600160a01b03198082169092558454931692168217909255600e805491926123b383612e79565b919050555050505050565b5f816020015160200151836020015160200151036123ee5750805182516001600160a01b039182169116116107a3565b506020908101518101519181015101511190565b61240b82612527565b6040516001600160a01b038316907fbc7cd75a20ee27fd9adebab32041f755214dbc6bffa90cc0225b39da2e5c2d3b905f90a280511561244f5761059f828261258a565b6107c46125fc565b603081146107c4576040516305db9dbd60e01b815260040160405180910390fd5b600d80546001600160a01b038381165f818152600b602052604081208054939094166001600160a01b031993841617909355835490911617909155600e8054916124c183612da7565b919050555050565b6001600160a01b038281165f818152600b602052604080822080548686168085529284208054919096166001600160a01b03199182161790955592825282549093169092179055600e80549161251e83612da7565b91905055505050565b806001600160a01b03163b5f0361255c57604051634c9c8ce360e01b81526001600160a01b0382166004820152602401611cf9565b5f516020612eef5f395f51905f5280546001600160a01b0319166001600160a01b0392909216919091179055565b60605f5f846001600160a01b0316846040516125a69190612ed3565b5f60405180830381855af49150503d805f81146125de576040519150601f19603f3d011682016040523d82523d5f602084013e6125e3565b606091505b50915091506125f385838361261b565b95945050505050565b3415611c4f5760405163b398979f60e01b815260040160405180910390fd5b6060826126305761262b82612677565b611fdb565b815115801561264757506001600160a01b0384163b155b1561267057604051639996b31560e01b81526001600160a01b0385166004820152602401611cf9565b5080611fdb565b8051156126875780518082602001fd5b60405163d6bda27560e01b815260040160405180910390fd5b60405180604001604052805f6001600160a01b031681526020016126e460405180608001604052805f81526020015f81526020015f15158152602001606081525090565b905290565b5080545f8255905f5260205f20908101906112879190612767565b828054828255905f5260205f20908101928215612757579160200282015b8281111561275757825182546001600160a01b0319166001600160a01b03909116178255602090920191600190910190612722565b50612763929150612767565b5090565b5b80821115612763575f8155600101612768565b80356001600160a01b0381168114612791575f5ffd5b919050565b5f602082840312156127a6575f5ffd5b611fdb8261277b565b5f5b838110156127c95781810151838201526020016127b1565b50505f910152565b5f81518084526127e88160208601602086016127af565b601f01601f19169290920160200192915050565b60018060a01b0381511682525f602082015160406020850152805160408501526020810151606085015260408101511515608085015260608101519050608060a085015261284d60c08501826127d1565b949350505050565b602081525f611fdb60208301846127fc565b5f5f60208385031215612878575f5ffd5b82356001600160401b0381111561288d575f5ffd5b8301601f8101851361289d575f5ffd5b80356001600160401b038111156128b2575f5ffd5b8560208260051b84010111156128c6575f5ffd5b6020919091019590945092505050565b5f5f604083850312156128e7575f5ffd5b50508035926020909101359150565b5f602082016020835280845180835260408501915060408160051b8601019250602086015f5b828110156129a357868503603f19018452815180518652602090810151604082880181905281519088018190529101905f9060608801905b8083101561298b57835180516001600160a01b03168352602090810151818401529093019260019290920191604090910190612954565b5096505050602093840193919091019060010161291c565b50929695505050505050565b634e487b7160e01b5f52604160045260245ffd5b5f5f604083850312156129d4575f5ffd5b6129dd8361277b565b915060208301356001600160401b038111156129f7575f5ffd5b8301601f81018513612a07575f5ffd5b80356001600160401b03811115612a2057612a206129af565b604051601f8201601f19908116603f011681016001600160401b0381118282101715612a4e57612a4e6129af565b604052818152828201602001871015612a65575f5ffd5b816020840160208301375f602083830101528093505050509250929050565b5f5f60208385031215612a95575f5ffd5b82356001600160401b03811115612aaa575f5ffd5b8301601f81018513612aba575f5ffd5b80356001600160401b03811115612acf575f5ffd5b8560208284010111156128c6575f5ffd5b5f60208284031215612af0575f5ffd5b813560ff81168114611fdb575f5ffd5b5f602082016020835280845180835260408501915060408160051b8601019250602086015f5b828110156129a357603f19878603018452612b428583516127fc565b94506020938401939190910190600101612b26565b602081525f611fdb60208301846127d1565b5f5f60408385031215612b7a575f5ffd5b612b838361277b565b946020939093013593505050565b602080825282518282018190525f918401906040840190835b81811015612be057835180516001600160a01b039081168552602091820151168185015290930192604090920191600101612baa565b509095945050505050565b600181811c90821680612bff57607f821691505b60208210810361142157634e487b7160e01b5f52602260045260245ffd5b634e487b7160e01b5f52603260045260245ffd5b634e487b7160e01b5f52601160045260245ffd5b808201808211156107a3576107a3612c31565b818103818111156107a3576107a3612c31565b601f82111561059f57805f5260205f20601f840160051c81016020851015612c905750805b601f840160051c820191505b81811015610df0575f8155600101612c9c565b6001600160401b03831115612cc657612cc66129af565b612cda83612cd48354612beb565b83612c6b565b5f601f841160018114612d0b575f8515612cf45750838201355b5f19600387901b1c1916600186901b178355610df0565b5f83815260208120601f198716915b82811015612d3a5786850135825560209485019460019092019101612d1a565b5086821015612d56575f1960f88860031b161c19848701351681555b505060018560011b0183555050505050565b6001600160a01b03841681526040602082018190528101829052818360608301375f818301606090810191909152601f909201601f1916010192915050565b5f60018201612db857612db8612c31565b5060010190565b81516001600160401b03811115612dd857612dd86129af565b612dec81612de68454612beb565b84612c6b565b6020601f821160018114612e1e575f8315612e075750848201515b5f19600385901b1c1916600184901b178455610df0565b5f84815260208120601f198516915b82811015612e4d5787850151825560209485019460019092019101612e2d565b5084821015612e6a57868401515f19600387901b60f8161c191681555b50505050600190811b01905550565b5f81612e8757612e87612c31565b505f190190565b5f60208284031215612e9e575f5ffd5b5051919050565b818382375f9101908152919050565b5f82612ece57634e487b7160e01b5f52601260045260245ffd5b500690565b5f8251612ee48184602087016127af565b919091019291505056fe360894a13ba1a3210667c828492db98dca3e2076cc3735a920a3ca505d382bbca2646970667358221220efab82a201d6dddc2e13da9f914b0fbd0d7c1a447c644186f665d4d1ac586ce364736f6c634300081b0033",
		"linkReferences": {}
	},
	"methodIdentifiers": {
		"UPGRADE_INTERFACE_VERSION()": "ad3cb1cc",
		"activeValidatorsCount()": "0d2bd909",
		"calculateActiveValidators(uint8)": "857861db",
		"getActiveValidators()": "9de70258",
		"getAllValidators()": "f3513a37",
		"getRounds(uint256,uint256)": "40f74f47",
		"getRoundsCount()": "a09686c4",
		"getValidator(address)": "1904bb2e",
		"getVotes(address,uint256)": "eb9019d4",
		"getVotesCount()": "1b605b86",
		"initialize()": "8129fc1c",
		"isValidatorRegistered(address)": "d04a68c7",
		"proxiableUUID()": "52d1902d",
		"registerValidator(bytes)": "602a9eee",
		"registeredValidatorsCount()": "f1bd0b37",
		"resignValidator()": "b85f5da2",
		"resignedValidatorsCount()": "0777cbef",
		"unvote()": "3174b689",
		"updateValidator(bytes)": "5a8eed73",
		"updateVoters(address[])": "2bdf6d43",
		"upgradeToAndCall(address,bytes)": "4f1ef286",
		"version()": "54fd4d50",
		"vote(address)": "6dd7d8ea"
	},
	"id": 34
}