{
	"abi": [
		{
			"type": "function",
			"name": "UPGRADE_INTERFACE_VERSION",
			"inputs": [],
			"outputs": [
				{
					"name": "",
					"type": "string",
					"internalType": "string"
				}
			],
			"stateMutability": "view"
		},
		{
			"type": "function",
			"name": "activeValidatorsCount",
			"inputs": [],
			"outputs": [
				{
					"name": "",
					"type": "uint256",
					"internalType": "uint256"
				}
			],
			"stateMutability": "view"
		},
		{
			"type": "function",
			"name": "calculateActiveValidators",
			"inputs": [
				{
					"name": "n",
					"type": "uint8",
					"internalType": "uint8"
				}
			],
			"outputs": [],
			"stateMutability": "nonpayable"
		},
		{
			"type": "function",
			"name": "getActiveValidators",
			"inputs": [],
			"outputs": [
				{
					"name": "",
					"type": "tuple[]",
					"internalType": "struct Validator[]",
					"components": [
						{
							"name": "addr",
							"type": "address",
							"internalType": "address"
						},
						{
							"name": "data",
							"type": "tuple",
							"internalType": "struct ValidatorData",
							"components": [
								{
									"name": "votersCount",
									"type": "uint256",
									"internalType": "uint256"
								},
								{
									"name": "voteBalance",
									"type": "uint256",
									"internalType": "uint256"
								},
								{
									"name": "isResigned",
									"type": "bool",
									"internalType": "bool"
								},
								{
									"name": "blsPublicKey",
									"type": "bytes",
									"internalType": "bytes"
								}
							]
						}
					]
				}
			],
			"stateMutability": "view"
		},
		{
			"type": "function",
			"name": "getAllValidators",
			"inputs": [],
			"outputs": [
				{
					"name": "",
					"type": "tuple[]",
					"internalType": "struct Validator[]",
					"components": [
						{
							"name": "addr",
							"type": "address",
							"internalType": "address"
						},
						{
							"name": "data",
							"type": "tuple",
							"internalType": "struct ValidatorData",
							"components": [
								{
									"name": "votersCount",
									"type": "uint256",
									"internalType": "uint256"
								},
								{
									"name": "voteBalance",
									"type": "uint256",
									"internalType": "uint256"
								},
								{
									"name": "isResigned",
									"type": "bool",
									"internalType": "bool"
								},
								{
									"name": "blsPublicKey",
									"type": "bytes",
									"internalType": "bytes"
								}
							]
						}
					]
				}
			],
			"stateMutability": "view"
		},
		{
			"type": "function",
			"name": "getRounds",
			"inputs": [
				{
					"name": "offset",
					"type": "uint256",
					"internalType": "uint256"
				},
				{
					"name": "count",
					"type": "uint256",
					"internalType": "uint256"
				}
			],
			"outputs": [
				{
					"name": "",
					"type": "tuple[]",
					"internalType": "struct Round[]",
					"components": [
						{
							"name": "round",
							"type": "uint256",
							"internalType": "uint256"
						},
						{
							"name": "validators",
							"type": "tuple[]",
							"internalType": "struct RoundValidator[]",
							"components": [
								{
									"name": "addr",
									"type": "address",
									"internalType": "address"
								},
								{
									"name": "voteBalance",
									"type": "uint256",
									"internalType": "uint256"
								}
							]
						}
					]
				}
			],
			"stateMutability": "view"
		},
		{
			"type": "function",
			"name": "getRoundsCount",
			"inputs": [],
			"outputs": [
				{
					"name": "",
					"type": "uint256",
					"internalType": "uint256"
				}
			],
			"stateMutability": "view"
		},
		{
			"type": "function",
			"name": "getValidator",
			"inputs": [
				{
					"name": "addr",
					"type": "address",
					"internalType": "address"
				}
			],
			"outputs": [
				{
					"name": "",
					"type": "tuple",
					"internalType": "struct Validator",
					"components": [
						{
							"name": "addr",
							"type": "address",
							"internalType": "address"
						},
						{
							"name": "data",
							"type": "tuple",
							"internalType": "struct ValidatorData",
							"components": [
								{
									"name": "votersCount",
									"type": "uint256",
									"internalType": "uint256"
								},
								{
									"name": "voteBalance",
									"type": "uint256",
									"internalType": "uint256"
								},
								{
									"name": "isResigned",
									"type": "bool",
									"internalType": "bool"
								},
								{
									"name": "blsPublicKey",
									"type": "bytes",
									"internalType": "bytes"
								}
							]
						}
					]
				}
			],
			"stateMutability": "view"
		},
		{
			"type": "function",
			"name": "getVotes",
			"inputs": [
				{
					"name": "addr",
					"type": "address",
					"internalType": "address"
				},
				{
					"name": "count",
					"type": "uint256",
					"internalType": "uint256"
				}
			],
			"outputs": [
				{
					"name": "",
					"type": "tuple[]",
					"internalType": "struct VoteResult[]",
					"components": [
						{
							"name": "voter",
							"type": "address",
							"internalType": "address"
						},
						{
							"name": "validator",
							"type": "address",
							"internalType": "address"
						}
					]
				}
			],
			"stateMutability": "view"
		},
		{
			"type": "function",
			"name": "getVotesCount",
			"inputs": [],
			"outputs": [
				{
					"name": "",
					"type": "uint256",
					"internalType": "uint256"
				}
			],
			"stateMutability": "view"
		},
		{
			"type": "function",
			"name": "initialize",
			"inputs": [],
			"outputs": [],
			"stateMutability": "nonpayable"
		},
		{
			"type": "function",
			"name": "isValidatorRegistered",
			"inputs": [
				{
					"name": "addr",
					"type": "address",
					"internalType": "address"
				}
			],
			"outputs": [
				{
					"name": "",
					"type": "bool",
					"internalType": "bool"
				}
			],
			"stateMutability": "view"
		},
		{
			"type": "function",
			"name": "proxiableUUID",
			"inputs": [],
			"outputs": [
				{
					"name": "",
					"type": "bytes32",
					"internalType": "bytes32"
				}
			],
			"stateMutability": "view"
		},
		{
			"type": "function",
			"name": "registerValidator",
			"inputs": [
				{
					"name": "blsPublicKey",
					"type": "bytes",
					"internalType": "bytes"
				}
			],
			"outputs": [],
			"stateMutability": "nonpayable"
		},
		{
			"type": "function",
			"name": "registeredValidatorsCount",
			"inputs": [],
			"outputs": [
				{
					"name": "",
					"type": "uint256",
					"internalType": "uint256"
				}
			],
			"stateMutability": "view"
		},
		{
			"type": "function",
			"name": "resignValidator",
			"inputs": [],
			"outputs": [],
			"stateMutability": "nonpayable"
		},
		{
			"type": "function",
			"name": "resignedValidatorsCount",
			"inputs": [],
			"outputs": [
				{
					"name": "",
					"type": "uint256",
					"internalType": "uint256"
				}
			],
			"stateMutability": "view"
		},
		{
			"type": "function",
			"name": "unvote",
			"inputs": [],
			"outputs": [],
			"stateMutability": "nonpayable"
		},
		{
			"type": "function",
			"name": "updateValidator",
			"inputs": [
				{
					"name": "blsPublicKey",
					"type": "bytes",
					"internalType": "bytes"
				}
			],
			"outputs": [],
			"stateMutability": "nonpayable"
		},
		{
			"type": "function",
			"name": "updateVoters",
			"inputs": [
				{
					"name": "voters",
					"type": "address[]",
					"internalType": "address[]"
				}
			],
			"outputs": [],
			"stateMutability": "nonpayable"
		},
		{
			"type": "function",
			"name": "upgradeToAndCall",
			"inputs": [
				{
					"name": "newImplementation",
					"type": "address",
					"internalType": "address"
				},
				{
					"name": "data",
					"type": "bytes",
					"internalType": "bytes"
				}
			],
			"outputs": [],
			"stateMutability": "payable"
		},
		{
			"type": "function",
			"name": "version",
			"inputs": [],
			"outputs": [
				{
					"name": "",
					"type": "uint256",
					"internalType": "uint256"
				}
			],
			"stateMutability": "pure"
		},
		{
			"type": "function",
			"name": "vote",
			"inputs": [
				{
					"name": "addr",
					"type": "address",
					"internalType": "address"
				}
			],
			"outputs": [],
			"stateMutability": "nonpayable"
		},
		{
			"type": "event",
			"name": "Initialized",
			"inputs": [
				{
					"name": "version",
					"type": "uint64",
					"indexed": false,
					"internalType": "uint64"
				}
			],
			"anonymous": false
		},
		{
			"type": "event",
			"name": "Unvoted",
			"inputs": [
				{
					"name": "voter",
					"type": "address",
					"indexed": false,
					"internalType": "address"
				},
				{
					"name": "validator",
					"type": "address",
					"indexed": false,
					"internalType": "address"
				}
			],
			"anonymous": false
		},
		{
			"type": "event",
			"name": "Upgraded",
			"inputs": [
				{
					"name": "implementation",
					"type": "address",
					"indexed": true,
					"internalType": "address"
				}
			],
			"anonymous": false
		},
		{
			"type": "event",
			"name": "ValidatorRegistered",
			"inputs": [
				{
					"name": "addr",
					"type": "address",
					"indexed": false,
					"internalType": "address"
				},
				{
					"name": "blsPublicKey",
					"type": "bytes",
					"indexed": false,
					"internalType": "bytes"
				}
			],
			"anonymous": false
		},
		{
			"type": "event",
			"name": "ValidatorResigned",
			"inputs": [
				{
					"name": "addr",
					"type": "address",
					"indexed": false,
					"internalType": "address"
				}
			],
			"anonymous": false
		},
		{
			"type": "event",
			"name": "ValidatorUpdated",
			"inputs": [
				{
					"name": "addr",
					"type": "address",
					"indexed": false,
					"internalType": "address"
				},
				{
					"name": "blsPublicKey",
					"type": "bytes",
					"indexed": false,
					"internalType": "bytes"
				}
			],
			"anonymous": false
		},
		{
			"type": "event",
			"name": "Voted",
			"inputs": [
				{
					"name": "voter",
					"type": "address",
					"indexed": false,
					"internalType": "address"
				},
				{
					"name": "validator",
					"type": "address",
					"indexed": false,
					"internalType": "address"
				}
			],
			"anonymous": false
		},
		{
			"type": "error",
			"name": "AddressEmptyCode",
			"inputs": [
				{
					"name": "target",
					"type": "address",
					"internalType": "address"
				}
			]
		},
		{
			"type": "error",
			"name": "BellowMinValidators",
			"inputs": []
		},
		{
			"type": "error",
			"name": "BlsKeyAlreadyRegistered",
			"inputs": []
		},
		{
			"type": "error",
			"name": "BlsKeyIsInvalid",
			"inputs": []
		},
		{
			"type": "error",
			"name": "CallerIsNotOwner",
			"inputs": []
		},
		{
			"type": "error",
			"name": "CallerIsNotValidator",
			"inputs": []
		},
		{
			"type": "error",
			"name": "CallerIsOwner",
			"inputs": []
		},
		{
			"type": "error",
			"name": "ERC1967InvalidImplementation",
			"inputs": [
				{
					"name": "implementation",
					"type": "address",
					"internalType": "address"
				}
			]
		},
		{
			"type": "error",
			"name": "ERC1967NonPayable",
			"inputs": []
		},
		{
			"type": "error",
			"name": "FailedCall",
			"inputs": []
		},
		{
			"type": "error",
			"name": "InvalidInitialization",
			"inputs": []
		},
		{
			"type": "error",
			"name": "InvalidRange",
			"inputs": [
				{
					"name": "min",
					"type": "uint256",
					"internalType": "uint256"
				},
				{
					"name": "max",
					"type": "uint256",
					"internalType": "uint256"
				}
			]
		},
		{
			"type": "error",
			"name": "MissingVote",
			"inputs": []
		},
		{
			"type": "error",
			"name": "NotInitializing",
			"inputs": []
		},
		{
			"type": "error",
			"name": "UUPSUnauthorizedCallContext",
			"inputs": []
		},
		{
			"type": "error",
			"name": "UUPSUnsupportedProxiableUUID",
			"inputs": [
				{
					"name": "slot",
					"type": "bytes32",
					"internalType": "bytes32"
				}
			]
		},
		{
			"type": "error",
			"name": "ValidatorAlreadyRegistered",
			"inputs": []
		},
		{
			"type": "error",
			"name": "ValidatorAlreadyResigned",
			"inputs": []
		},
		{
			"type": "error",
			"name": "ValidatorNotRegistered",
			"inputs": []
		},
		{
			"type": "error",
			"name": "VoteResignedValidator",
			"inputs": []
		},
		{
			"type": "error",
			"name": "VoteSameValidator",
			"inputs": []
		}
	],
	"bytecode": {
		"object": "0x60a0604052306080523480156012575f5ffd5b5060805161313a6100395f395f8181611ca101528181611cca0152611e32015261313a5ff3fe60806040526004361061013c575f3560e01c8063602a9eee116100b3578063ad3cb1cc1161006d578063ad3cb1cc14610317578063b85f5da214610354578063d04a68c714610368578063eb9019d4146103af578063f1bd0b37146103db578063f3513a37146103ef575f5ffd5b8063602a9eee146102715780636dd7d8ea146102905780638129fc1c146102af578063857861db146102c35780639de70258146102e2578063a09686c414610303575f5ffd5b80633174b689116101045780633174b689146101d857806340f74f47146101ec5780634f1ef2861461021857806352d1902d1461022b57806354fd4d501461023f5780635a8eed7314610252575f5ffd5b80630777cbef146101405780630d2bd909146101635780631904bb2e146101775780631b605b86146101a35780632bdf6d43146101b7575b5f5ffd5b34801561014b575f5ffd5b506006545b6040519081526020015b60405180910390f35b34801561016e575f5ffd5b50600e54610150565b348015610182575f5ffd5b5061019661019136600461298c565b610403565b60405161015a9190612a4b565b3480156101ae575f5ffd5b50600a54610150565b3480156101c2575f5ffd5b506101d66101d1366004612a5d565b610534565b005b3480156101e3575f5ffd5b506101d66105a4565b3480156101f7575f5ffd5b5061020b610206366004612acc565b6105f3565b60405161015a9190612aec565b6101d6610226366004612bb9565b6107a9565b348015610236575f5ffd5b506101506107c8565b34801561024a575f5ffd5b506001610150565b34801561025d575f5ffd5b506101d661026c366004612c7a565b6107e3565b34801561027c575f5ffd5b506101d661028b366004612c7a565b6108a2565b34801561029b575f5ffd5b506101d66102aa36600461298c565b610a5a565b3480156102ba575f5ffd5b506101d6610ce4565b3480156102ce575f5ffd5b506101d66102dd366004612cd6565b610dfc565b3480156102ed575f5ffd5b506102f6611344565b60405161015a9190612cf6565b34801561030e575f5ffd5b50601054610150565b348015610322575f5ffd5b50610347604051806040016040528060058152602001640352e302e360dc1b81525081565b60405161015a9190612d4d565b34801561035f575f5ffd5b506101d66114e1565b348015610373575f5ffd5b5061039f61038236600461298c565b6001600160a01b03165f9081526002602052604090205460ff1690565b604051901515815260200161015a565b3480156103ba575f5ffd5b506103ce6103c9366004612d5f565b6115d3565b60405161015a9190612d87565b3480156103e6575f5ffd5b50600554610150565b3480156103fa575f5ffd5b506102f66117f7565b61040b612896565b6001600160a01b0382165f9081526002602052604090205460ff166104435760405163510b8aad60e11b815260040160405180910390fd5b6040805180820182526001600160a01b0384168082525f90815260016020818152918490208451608081018652815481529181015482840152600281015460ff161515948201949094526003840180549394928501939192916060840191906104ab90612de1565b80601f01602080910402602001604051908101604052809291908181526020018280546104d790612de1565b80156105225780601f106104f957610100808354040283529160200191610522565b820191905f5260205f20905b81548152906001019060200180831161050557829003601f168201915b50505091909252505050905292915050565b5f546001600160a01b0316331461055e57604051636db2465f60e01b815260040160405180910390fd5b5f5b8181101561059f5761059783838381811061057d5761057d612e13565b9050602002016020810190610592919061298c565b61198e565b600101610560565b505050565b7f6572af8bf9a0a86efb88dcc30011626a15c9c4603503aa4466a3f87a1867deef336105ce611a6e565b604080516001600160a01b0393841681529290911660208301520160405180910390a1565b5f546060906001600160a01b0316331461062057604051636db2465f60e01b815260040160405180910390fd5b6010548290841061063257505f610656565b60105461063f8486612e3b565b111561065657601054610653908590612e4e565b90505b5f816001600160401b0381111561066f5761066f612ba5565b6040519080825280602002602001820160405280156106b457816020015b604080518082019091525f81526060602082015281526020019060019003908161068d5790505b5090505f5b8281101561079e57604051806040016040528082886106d89190612e3b565b6106e3906001612e3b565b815260200160106106f4848a612e3b565b8154811061070457610704612e13565b905f5260205f2001805480602002602001604051908101604052809291908181526020015f905b82821015610772575f848152602090819020604080518082019091526002850290910180546001600160a01b0316825260019081015482840152908352909201910161072b565b5050505081525082828151811061078b5761078b612e13565b60209081029190910101526001016106b9565b509150505b92915050565b6107b1611c96565b6107ba82611d3c565b6107c48282611d66565b5050565b5f6107d1611e27565b505f5160206130e55f395f51905f5290565b5f546001600160a01b0316330361080d57604051630c148c4960e31b815260040160405180910390fd5b335f9081526002602052604090205460ff1661083c5760405163510b8aad60e11b815260040160405180910390fd5b6108468282611e70565b335f908152600160205260409020600301610862828483612ea5565b507f4af0b5984c9f88659d661fb64dcb63a5b946809cf1c78a8c6e0f6ef93c91703233838360405161089693929190612f5e565b60405180910390a15050565b5f546001600160a01b031633036108cc57604051630c148c4960e31b815260040160405180910390fd5b335f9081526002602052604090205460ff16156108fc5760405163132e7efb60e31b815260040160405180910390fd5b6109068282611e70565b5f60405180608001604052805f81526020015f81526020015f1515815260200184848080601f0160208091040260200160405190810160405280939291908181526020018383808284375f92018290525093909452505060058054939450915061096f83612f9d565b9091555050335f9081526002602081815260408084208054600160ff19918216811790925581845294829020865181559286015190830155840151918101805490931691151591909117909155606082015182919060038201906109d39082612fb5565b5050600480546001810182555f919091527f8a35acfbc15ff81a39ae7d344fd709f28e8600b4aa8c65c6b64bfe7fe36bd19b0180546001600160a01b031916339081179091556040517f61809fa303a3a57f4d70552f533f3e0b003173d424590cd4bb22a2afe000990c9250610a4d919086908690612f5e565b60405180910390a1505050565b5f546001600160a01b03163303610a8457604051630c148c4960e31b815260040160405180910390fd5b6001600160a01b0381165f9081526002602052604090205460ff16610abc5760405163510b8aad60e11b815260040160405180910390fd5b6001600160a01b0381165f908152600160205260409020600281015460ff1615610af95760405163510ae2bd60e11b815260040160405180910390fd5b335f90815260076020526040902080546001600160a01b03848116911603610b3457604051630d41c52760e01b815260040160405180910390fd5b80546001600160a01b031615610b4e57610b4c611a6e565b505b604080516080810182526001600160a01b03808616825233803160208085019182525f85870181815260608701828152948252600790925295909520935184549084166001600160a01b03199182161785559051600185015593516002840180549184169186169190911790555160039092018054928216929093169190911790915560085416610c005760088054336001600160a01b03199182168117909255600980549091169091179055610c57565b600980546001600160a01b039081165f9081526007602052604080822060030180546001600160a01b0319908116339081179092558554828552929093206002018054841692909416919091179092558254161790555b600a8054905f610c6683612f9d565b9190505550336001600160a01b031631826001015f828254610c889190612e3b565b9091555050815460019083905f90610ca1908490612e3b565b9091555050604080513381526001600160a01b03851660208201527fce0c7a2a940807f7dc2ce7a615c2532e915e6c0ac9a08bc4ed9d515a710a53e29101610a4d565b7ff0c57e16840df040f15088dc2f81fe391c3923bec73e23a9662efc9c229c6a008054600160401b810460ff1615906001600160401b03165f81158015610d285750825b90505f826001600160401b03166001148015610d435750303b155b905081158015610d51575080155b15610d6f5760405163f92ee8a960e01b815260040160405180910390fd5b845467ffffffffffffffff191660011785558315610d9957845460ff60401b1916600160401b1785555b5f80546001600160a01b031916331790556001600f558315610df557845460ff60401b19168555604051600181527fc7f505b2f371ae2175ee4913f4499e1f2633a7b5936321eed1cdaeb6115181d29060200160405180910390a15b5050505050565b5f546001600160a01b03163314610e2657604051636db2465f60e01b815260040160405180910390fd5b60ff8116600f55610e376004611ee4565b610e3f612028565b600d80546001600160a01b03191690556006546005545f91610e719160ff8516918491610e6c9190612e4e565b612079565b90508060ff165f03610e81575050565b5f5b60045481101561112c575f60048281548110610ea157610ea1612e13565b5f9182526020808320909101546001600160a01b03168083526001909152604090912060028101549192509060ff1615610edc575050611124565b600d546001600160a01b0316610f175750600d80546001600160a01b0319166001600160a01b03929092169190911790556001600e55611124565b8360ff16600e541015610f3557610f2e82856120cd565b5050611124565b600d546001600160a01b039081165f908152600160208181526040928390208351808501855294871685528351608081018552865481529286015483830152600286015460ff16151593830193909352600385018054939461111194909392840192918791606084019190610fa990612de1565b80601f0160208091040260200160405190810160405280929190818152602001828054610fd590612de1565b80156110205780601f10610ff757610100808354040283529160200191611020565b820191905f5260205f20905b81548152906001019060200180831161100357829003601f168201915b505050919092525050509052604080518082018252600d546001600160a01b031681528151608081018352855481526001860154602082810191909152600287015460ff1615159382019390935260038601805492938401928791606084019161108990612de1565b80601f01602080910402602001604051908101604052809291908181526020018280546110b590612de1565b80156111005780601f106110d757610100808354040283529160200191611100565b820191905f5260205f20905b8154815290600101906020018083116110e357829003601f168201915b5050505050815250508152506124a9565b156111205761112083866120cd565b5050505b600101610e83565b50600d546001600160a01b03165f60ff83166001600160401b0381111561115557611155612ba5565b60405190808252806020026020018201604052801561117e578160200160208202803683370190505b5090505f5b8360ff168110156111d957828282815181106111a1576111a1612e13565b6001600160a01b039283166020918202929092018101919091529381165f908152600b90945260409093205490921691600101611183565b506111e3816124ed565b601080546001810182555f9182527f1b6847dc741a1b0cd08d278845f9d819d87b734759afb55fe2de5cb82a9ae672019061122090600c906128df565b600f546001600160401b0381111561123a5761123a612ba5565b604051908082528060200260200182016040528015611263578160200160208202803683370190505b50805161127891600c916020909101906128fa565b505f5b600f5481101561133b575f8361129460ff88168461306f565b815181106112a4576112a4612e13565b6020026020010151905080600c83815481106112c2576112c2612e13565b5f918252602080832090910180546001600160a01b039485166001600160a01b0319918216179091556040805180820182529585168087528452600180845290842081015486840190815288548083018a558986529390942095516002909302909501805492909416911617825551908201550161127b565b50505050505b50565b600c546060905f906001600160401b0381111561136357611363612ba5565b60405190808252806020026020018201604052801561139c57816020015b611389612896565b8152602001906001900390816113815790505b5090505f5b600c548110156114db575f600c82815481106113bf576113bf612e13565b5f9182526020808320909101546001600160a01b03168083526001808352604093849020845180860186528381528551608081018752825481529282015483860152600282015460ff161515958301959095526003810180549396509094938401928591606084019161143190612de1565b80601f016020809104026020016040519081016040528092919081815260200182805461145d90612de1565b80156114a85780601f1061147f576101008083540402835291602001916114a8565b820191905f5260205f20905b81548152906001019060200180831161148b57829003601f168201915b5050505050815250508152508484815181106114c6576114c6612e13565b602090810291909101015250506001016113a1565b50919050565b335f9081526002602052604090205460ff166115105760405163668191af60e11b815260040160405180910390fd5b335f908152600160205260409020600281015460ff161561154457604051632d8b5c9760e21b815260040160405180910390fd5b600f546006546005546115579190612e4e565b1161157557604051633b15f1f760e21b815260040160405180910390fd5b60028101805460ff19166001908117909155600680545f90611598908490612e3b565b90915550506040513381527f24250fc1ec78a1405ddd4cc8b75964858af228d05faa8d4bc1302966d8a541179060200160405180910390a150565b5f546060906001600160a01b0316331461160057604051636db2465f60e01b815260040160405180910390fd5b5f61160e835f600a54612079565b6001600160401b0381111561162557611625612ba5565b60405190808252806020026020018201604052801561166957816020015b604080518082019091525f80825260208201528152602001906001900390816116435790505b506008549091506001600160a01b03908116908516156116a257506001600160a01b038085165f90815260076020526040902060030154165b5f5b6001600160a01b038216158015906116bb57508481105b15611730576001600160a01b038083165f8181526007602090815260409182902082518084019093529282528254909316928101929092529084836116ff81612f9d565b94508151811061171157611711612e13565b6020908102919091010152600301546001600160a01b031691506116a4565b80835103611743578293505050506107a3565b5f816001600160401b0381111561175c5761175c612ba5565b6040519080825280602002602001820160405280156117a057816020015b604080518082019091525f808252602082015281526020019060019003908161177a5790505b5090505f5b828110156117ec578481815181106117bf576117bf612e13565b60200260200101518282815181106117d9576117d9612e13565b60209081029190910101526001016117a5565b509695505050505050565b6004546060905f906001600160401b0381111561181657611816612ba5565b60405190808252806020026020018201604052801561184f57816020015b61183c612896565b8152602001906001900390816118345790505b5090505f5b6004548110156114db575f6004828154811061187257611872612e13565b5f9182526020808320909101546001600160a01b03168083526001808352604093849020845180860186528381528551608081018752825481529282015483860152600282015460ff16151595830195909552600381018054939650909493840192859160608401916118e490612de1565b80601f016020809104026020016040519081016040528092919081815260200182805461191090612de1565b801561195b5780601f106119325761010080835404028352916020019161195b565b820191905f5260205f20905b81548152906001019060200180831161193e57829003601f168201915b50505050508152505081525084848151811061197957611979612e13565b60209081029190910101525050600101611854565b6001600160a01b038082165f90815260076020526040902080549091166119b3575050565b60018101546001600160a01b03831631811015611a14576119de816001600160a01b03851631612e4e565b82546001600160a01b03165f9081526001602081905260408220018054909190611a09908490612e3b565b90915550611a599050565b611a286001600160a01b0384163182612e4e565b82546001600160a01b03165f9081526001602081905260408220018054909190611a53908490612e4e565b90915550505b506001600160a01b0390911631600190910155565b335f90815260076020526040812080546001600160a01b0316611aa45760405163498ea63d60e01b815260040160405180910390fd5b6009546008546001600160a01b03918216911603611add57600880546001600160a01b0319908116909155600980549091169055611bf0565b600954336001600160a01b0390911603611b36576002810180546001600160a01b039081165f90815260076020526040902060030180546001600160a01b03199081169091559154600980549093169116179055611bf0565b600854336001600160a01b0390911603611b9a576009546001600160a01b039081165f9081526007602052604080822060020180546001600160a01b0319908116909155600880548086168552929093206003015491169216919091179055611bf0565b60038181018054600280850180546001600160a01b039081165f9081526007602052604080822090970180549583166001600160a01b031996871617905591549454811682529490200180549290931691161790555b80546001600160a01b03165f818152600160208190526040822081850154918101805491939091611c22908490612e4e565b9091555050805460019082905f90611c3b908490612e4e565b9091555050335f90815260076020526040812080546001600160a01b031990811682556001820183905560028201805482169055600390910180549091169055600a805491611c898361308e565b9091555091949350505050565b306001600160a01b037f0000000000000000000000000000000000000000000000000000000000000000161480611d1c57507f00000000000000000000000000000000000000000000000000000000000000006001600160a01b0316611d105f5160206130e55f395f51905f52546001600160a01b031690565b6001600160a01b031614155b15611d3a5760405163703e46dd60e11b815260040160405180910390fd5b565b5f546001600160a01b0316331461134157604051636db2465f60e01b815260040160405180910390fd5b816001600160a01b03166352d1902d6040518163ffffffff1660e01b8152600401602060405180830381865afa925050508015611dc0575060408051601f3d908101601f19168201909252611dbd918101906130a3565b60015b611ded57604051634c9c8ce360e01b81526001600160a01b03831660048201526024015b60405180910390fd5b5f5160206130e55f395f51905f528114611e1d57604051632a87526960e21b815260048101829052602401611de4565b61059f83836125f8565b306001600160a01b037f00000000000000000000000000000000000000000000000000000000000000001614611d3a5760405163703e46dd60e11b815260040160405180910390fd5b5f8282604051611e819291906130ba565b60408051918290039091205f8181526003602052919091205490915060ff1615611ebe57604051637e4c066f60e01b815260040160405180910390fd5b611ec8838361264d565b5f908152600360205260409020805460ff191660011790555050565b80545f611ef2600183612e4e565b90505b801561059f575f611f07826001612e3b565b60408051426020820152908101849052606001604051602081830303815290604052805190602001205f1c611f3c919061306f565b90505f848381548110611f5157611f51612e13565b5f9182526020909120015485546001600160a01b039091169150859083908110611f7d57611f7d612e13565b905f5260205f20015f9054906101000a90046001600160a01b0316858481548110611faa57611faa612e13565b905f5260205f20015f6101000a8154816001600160a01b0302191690836001600160a01b0316021790555080858381548110611fe857611fe8612e13565b905f5260205f20015f6101000a8154816001600160a01b0302191690836001600160a01b03160217905550505080806120209061308e565b915050611ef5565b600d546001600160a01b03165b6001600160a01b03811615612072576001600160a01b039081165f908152600b6020526040902080546001600160a01b0319811690915516612035565b505f600e55565b5f818311156120a557604051632457cde760e01b81526004810184905260248101839052604401611de4565b828410156120b45750816120c6565b818411156120c35750806120c6565b50825b9392505050565b6001600160a01b0382165f9081526001602081815260408084208151608081018352815481529381015492840192909252600282015460ff1615159083015260038101805460608401919061212190612de1565b80601f016020809104026020016040519081016040528092919081815260200182805461214d90612de1565b80156121985780601f1061216f57610100808354040283529160200191612198565b820191905f5260205f20905b81548152906001019060200180831161217b57829003601f168201915b505050919092525050604080518082018252600d546001600160a01b03168082525f90815260016020818152918490208451608081018652815481529181015482840152600281015460ff161515948201949094526003840180549697506122b9969395509185019390929091606084019161221390612de1565b80601f016020809104026020016040519081016040528092919081815260200182805461223f90612de1565b801561228a5780601f106122615761010080835404028352916020019161228a565b820191905f5260205f20905b81548152906001019060200180831161226d57829003601f168201915b5050505050815250508152506040518060400160405280866001600160a01b03168152602001848152506124a9565b156122cc576122c78361266e565b61244a565b600d546001600160a01b039081165f818152600b6020526040902054909116905b6001600160a01b03821661230a5761230581866126bf565b612447565b6040805180820182526001600160a01b0384168082525f90815260016020818152918490208451608081018652815481529181015482840152600281015460ff16151594820194909452600384018054612417959385019391606084019161237190612de1565b80601f016020809104026020016040519081016040528092919081815260200182805461239d90612de1565b80156123e85780601f106123bf576101008083540402835291602001916123e8565b820191905f5260205f20905b8154815290600101906020018083116123cb57829003601f168201915b5050505050815250508152506040518060400160405280886001600160a01b03168152602001868152506124a9565b156124265761230581866126bf565b506001600160a01b038082165f908152600b602052604090205416906122ed565b50505b8160ff16600e54111561059f57600d80546001600160a01b039081165f908152600b6020526040812080546001600160a01b03198082169092558454931692168217909255600e8054919261249e8361308e565b919050555050505050565b5f816020015160200151836020015160200151036124d95750805182516001600160a01b039182169116116107a3565b506020908101518101519181015101511190565b80515f6124fb600183612e4e565b90505b801561059f575f612510826001612e3b565b60408051426020820152908101849052606001604051602081830303815290604052805190602001205f1c612545919061306f565b90505f84838151811061255a5761255a612e13565b6020026020010151905084828151811061257657612576612e13565b602002602001015185848151811061259057612590612e13565b60200260200101906001600160a01b031690816001600160a01b031681525050808583815181106125c3576125c3612e13565b60200260200101906001600160a01b031690816001600160a01b031681525050505080806125f09061308e565b9150506124fe565b6126018261271d565b6040516001600160a01b038316907fbc7cd75a20ee27fd9adebab32041f755214dbc6bffa90cc0225b39da2e5c2d3b905f90a28051156126455761059f8282612780565b6107c46127f2565b603081146107c4576040516305db9dbd60e01b815260040160405180910390fd5b600d80546001600160a01b038381165f818152600b602052604081208054939094166001600160a01b031993841617909355835490911617909155600e8054916126b783612f9d565b919050555050565b6001600160a01b038281165f818152600b602052604080822080548686168085529284208054919096166001600160a01b03199182161790955592825282549093169092179055600e80549161271483612f9d565b91905055505050565b806001600160a01b03163b5f0361275257604051634c9c8ce360e01b81526001600160a01b0382166004820152602401611de4565b5f5160206130e55f395f51905f5280546001600160a01b0319166001600160a01b0392909216919091179055565b60605f5f846001600160a01b03168460405161279c91906130c9565b5f60405180830381855af49150503d805f81146127d4576040519150601f19603f3d011682016040523d82523d5f602084013e6127d9565b606091505b50915091506127e9858383612811565b95945050505050565b3415611d3a5760405163b398979f60e01b815260040160405180910390fd5b606082612826576128218261286d565b6120c6565b815115801561283d57506001600160a01b0384163b155b1561286657604051639996b31560e01b81526001600160a01b0385166004820152602401611de4565b50806120c6565b80511561287d5780518082602001fd5b60405163d6bda27560e01b815260040160405180910390fd5b60405180604001604052805f6001600160a01b031681526020016128da60405180608001604052805f81526020015f81526020015f15158152602001606081525090565b905290565b5080545f8255905f5260205f2090810190611341919061295d565b828054828255905f5260205f2090810192821561294d579160200282015b8281111561294d57825182546001600160a01b0319166001600160a01b03909116178255602090920191600190910190612918565b5061295992915061295d565b5090565b5b80821115612959575f815560010161295e565b80356001600160a01b0381168114612987575f5ffd5b919050565b5f6020828403121561299c575f5ffd5b6120c682612971565b5f5b838110156129bf5781810151838201526020016129a7565b50505f910152565b5f81518084526129de8160208601602086016129a5565b601f01601f19169290920160200192915050565b60018060a01b0381511682525f602082015160406020850152805160408501526020810151606085015260408101511515608085015260608101519050608060a0850152612a4360c08501826129c7565b949350505050565b602081525f6120c660208301846129f2565b5f5f60208385031215612a6e575f5ffd5b82356001600160401b03811115612a83575f5ffd5b8301601f81018513612a93575f5ffd5b80356001600160401b03811115612aa8575f5ffd5b8560208260051b8401011115612abc575f5ffd5b6020919091019590945092505050565b5f5f60408385031215612add575f5ffd5b50508035926020909101359150565b5f602082016020835280845180835260408501915060408160051b8601019250602086015f5b82811015612b9957868503603f19018452815180518652602090810151604082880181905281519088018190529101905f9060608801905b80831015612b8157835180516001600160a01b03168352602090810151818401529093019260019290920191604090910190612b4a565b50965050506020938401939190910190600101612b12565b50929695505050505050565b634e487b7160e01b5f52604160045260245ffd5b5f5f60408385031215612bca575f5ffd5b612bd383612971565b915060208301356001600160401b03811115612bed575f5ffd5b8301601f81018513612bfd575f5ffd5b80356001600160401b03811115612c1657612c16612ba5565b604051601f8201601f19908116603f011681016001600160401b0381118282101715612c4457612c44612ba5565b604052818152828201602001871015612c5b575f5ffd5b816020840160208301375f602083830101528093505050509250929050565b5f5f60208385031215612c8b575f5ffd5b82356001600160401b03811115612ca0575f5ffd5b8301601f81018513612cb0575f5ffd5b80356001600160401b03811115612cc5575f5ffd5b856020828401011115612abc575f5ffd5b5f60208284031215612ce6575f5ffd5b813560ff811681146120c6575f5ffd5b5f602082016020835280845180835260408501915060408160051b8601019250602086015f5b82811015612b9957603f19878603018452612d388583516129f2565b94506020938401939190910190600101612d1c565b602081525f6120c660208301846129c7565b5f5f60408385031215612d70575f5ffd5b612d7983612971565b946020939093013593505050565b602080825282518282018190525f918401906040840190835b81811015612dd657835180516001600160a01b039081168552602091820151168185015290930192604090920191600101612da0565b509095945050505050565b600181811c90821680612df557607f821691505b6020821081036114db57634e487b7160e01b5f52602260045260245ffd5b634e487b7160e01b5f52603260045260245ffd5b634e487b7160e01b5f52601160045260245ffd5b808201808211156107a3576107a3612e27565b818103818111156107a3576107a3612e27565b601f82111561059f57805f5260205f20601f840160051c81016020851015612e865750805b601f840160051c820191505b81811015610df5575f8155600101612e92565b6001600160401b03831115612ebc57612ebc612ba5565b612ed083612eca8354612de1565b83612e61565b5f601f841160018114612f01575f8515612eea5750838201355b5f19600387901b1c1916600186901b178355610df5565b5f83815260208120601f198716915b82811015612f305786850135825560209485019460019092019101612f10565b5086821015612f4c575f1960f88860031b161c19848701351681555b505060018560011b0183555050505050565b6001600160a01b03841681526040602082018190528101829052818360608301375f818301606090810191909152601f909201601f1916010192915050565b5f60018201612fae57612fae612e27565b5060010190565b81516001600160401b03811115612fce57612fce612ba5565b612fe281612fdc8454612de1565b84612e61565b6020601f821160018114613014575f8315612ffd5750848201515b5f19600385901b1c1916600184901b178455610df5565b5f84815260208120601f198516915b828110156130435787850151825560209485019460019092019101613023565b508482101561306057868401515f19600387901b60f8161c191681555b50505050600190811b01905550565b5f8261308957634e487b7160e01b5f52601260045260245ffd5b500690565b5f8161309c5761309c612e27565b505f190190565b5f602082840312156130b3575f5ffd5b5051919050565b818382375f9101908152919050565b5f82516130da8184602087016129a5565b919091019291505056fe360894a13ba1a3210667c828492db98dca3e2076cc3735a920a3ca505d382bbca26469706673582212208c47d03fa1593ed63612f581f11b1afcbddb0bbd3c642439ad3d51aaea98388e64736f6c634300081b0033",
		"linkReferences": {}
	},
	"methodIdentifiers": {
		"UPGRADE_INTERFACE_VERSION()": "ad3cb1cc",
		"activeValidatorsCount()": "0d2bd909",
		"calculateActiveValidators(uint8)": "857861db",
		"getActiveValidators()": "9de70258",
		"getAllValidators()": "f3513a37",
		"getRounds(uint256,uint256)": "40f74f47",
		"getRoundsCount()": "a09686c4",
		"getValidator(address)": "1904bb2e",
		"getVotes(address,uint256)": "eb9019d4",
		"getVotesCount()": "1b605b86",
		"initialize()": "8129fc1c",
		"isValidatorRegistered(address)": "d04a68c7",
		"proxiableUUID()": "52d1902d",
		"registerValidator(bytes)": "602a9eee",
		"registeredValidatorsCount()": "f1bd0b37",
		"resignValidator()": "b85f5da2",
		"resignedValidatorsCount()": "0777cbef",
		"unvote()": "3174b689",
		"updateValidator(bytes)": "5a8eed73",
		"updateVoters(address[])": "2bdf6d43",
		"upgradeToAndCall(address,bytes)": "4f1ef286",
		"version()": "54fd4d50",
		"vote(address)": "6dd7d8ea"
	},
	"id": 34
}