{
	"abi": [
		{
			"type": "function",
			"name": "UPGRADE_INTERFACE_VERSION",
			"inputs": [],
			"outputs": [
				{
					"name": "",
					"type": "string",
					"internalType": "string"
				}
			],
			"stateMutability": "view"
		},
		{
			"type": "function",
			"name": "activeValidatorsCount",
			"inputs": [],
			"outputs": [
				{
					"name": "",
					"type": "uint256",
					"internalType": "uint256"
				}
			],
			"stateMutability": "view"
		},
		{
			"type": "function",
			"name": "addValidator",
			"inputs": [
				{
					"name": "addr",
					"type": "address",
					"internalType": "address"
				},
				{
					"name": "blsPublicKey",
					"type": "bytes",
					"internalType": "bytes"
				},
				{
					"name": "isResigned",
					"type": "bool",
					"internalType": "bool"
				}
			],
			"outputs": [],
			"stateMutability": "nonpayable"
		},
		{
			"type": "function",
			"name": "addVote",
			"inputs": [
				{
					"name": "voter",
					"type": "address",
					"internalType": "address"
				},
				{
					"name": "validator",
					"type": "address",
					"internalType": "address"
				}
			],
			"outputs": [],
			"stateMutability": "nonpayable"
		},
		{
			"type": "function",
			"name": "calculateActiveValidators",
			"inputs": [
				{
					"name": "n",
					"type": "uint8",
					"internalType": "uint8"
				}
			],
			"outputs": [],
			"stateMutability": "nonpayable"
		},
		{
			"type": "function",
			"name": "getActiveValidators",
			"inputs": [],
			"outputs": [
				{
					"name": "",
					"type": "tuple[]",
					"internalType": "struct Validator[]",
					"components": [
						{
							"name": "addr",
							"type": "address",
							"internalType": "address"
						},
						{
							"name": "data",
							"type": "tuple",
							"internalType": "struct ValidatorData",
							"components": [
								{
									"name": "votersCount",
									"type": "uint256",
									"internalType": "uint256"
								},
								{
									"name": "voteBalance",
									"type": "uint256",
									"internalType": "uint256"
								},
								{
									"name": "isResigned",
									"type": "bool",
									"internalType": "bool"
								},
								{
									"name": "blsPublicKey",
									"type": "bytes",
									"internalType": "bytes"
								}
							]
						}
					]
				}
			],
			"stateMutability": "view"
		},
		{
			"type": "function",
			"name": "getAllValidators",
			"inputs": [],
			"outputs": [
				{
					"name": "",
					"type": "tuple[]",
					"internalType": "struct Validator[]",
					"components": [
						{
							"name": "addr",
							"type": "address",
							"internalType": "address"
						},
						{
							"name": "data",
							"type": "tuple",
							"internalType": "struct ValidatorData",
							"components": [
								{
									"name": "votersCount",
									"type": "uint256",
									"internalType": "uint256"
								},
								{
									"name": "voteBalance",
									"type": "uint256",
									"internalType": "uint256"
								},
								{
									"name": "isResigned",
									"type": "bool",
									"internalType": "bool"
								},
								{
									"name": "blsPublicKey",
									"type": "bytes",
									"internalType": "bytes"
								}
							]
						}
					]
				}
			],
			"stateMutability": "view"
		},
		{
			"type": "function",
			"name": "getRounds",
			"inputs": [
				{
					"name": "offset",
					"type": "uint256",
					"internalType": "uint256"
				},
				{
					"name": "count",
					"type": "uint256",
					"internalType": "uint256"
				}
			],
			"outputs": [
				{
					"name": "",
					"type": "tuple[]",
					"internalType": "struct Round[]",
					"components": [
						{
							"name": "round",
							"type": "uint256",
							"internalType": "uint256"
						},
						{
							"name": "validators",
							"type": "tuple[]",
							"internalType": "struct RoundValidator[]",
							"components": [
								{
									"name": "addr",
									"type": "address",
									"internalType": "address"
								},
								{
									"name": "voteBalance",
									"type": "uint256",
									"internalType": "uint256"
								}
							]
						}
					]
				}
			],
			"stateMutability": "view"
		},
		{
			"type": "function",
			"name": "getRoundsCount",
			"inputs": [],
			"outputs": [
				{
					"name": "",
					"type": "uint256",
					"internalType": "uint256"
				}
			],
			"stateMutability": "view"
		},
		{
			"type": "function",
			"name": "getValidator",
			"inputs": [
				{
					"name": "addr",
					"type": "address",
					"internalType": "address"
				}
			],
			"outputs": [
				{
					"name": "",
					"type": "tuple",
					"internalType": "struct Validator",
					"components": [
						{
							"name": "addr",
							"type": "address",
							"internalType": "address"
						},
						{
							"name": "data",
							"type": "tuple",
							"internalType": "struct ValidatorData",
							"components": [
								{
									"name": "votersCount",
									"type": "uint256",
									"internalType": "uint256"
								},
								{
									"name": "voteBalance",
									"type": "uint256",
									"internalType": "uint256"
								},
								{
									"name": "isResigned",
									"type": "bool",
									"internalType": "bool"
								},
								{
									"name": "blsPublicKey",
									"type": "bytes",
									"internalType": "bytes"
								}
							]
						}
					]
				}
			],
			"stateMutability": "view"
		},
		{
			"type": "function",
			"name": "getVotes",
			"inputs": [
				{
					"name": "addr",
					"type": "address",
					"internalType": "address"
				},
				{
					"name": "count",
					"type": "uint256",
					"internalType": "uint256"
				}
			],
			"outputs": [
				{
					"name": "",
					"type": "tuple[]",
					"internalType": "struct VoteResult[]",
					"components": [
						{
							"name": "voter",
							"type": "address",
							"internalType": "address"
						},
						{
							"name": "validator",
							"type": "address",
							"internalType": "address"
						}
					]
				}
			],
			"stateMutability": "view"
		},
		{
			"type": "function",
			"name": "getVotesCount",
			"inputs": [],
			"outputs": [
				{
					"name": "",
					"type": "uint256",
					"internalType": "uint256"
				}
			],
			"stateMutability": "view"
		},
		{
			"type": "function",
			"name": "initialize",
			"inputs": [],
			"outputs": [],
			"stateMutability": "nonpayable"
		},
		{
			"type": "function",
			"name": "isValidatorRegistered",
			"inputs": [
				{
					"name": "addr",
					"type": "address",
					"internalType": "address"
				}
			],
			"outputs": [
				{
					"name": "",
					"type": "bool",
					"internalType": "bool"
				}
			],
			"stateMutability": "view"
		},
		{
			"type": "function",
			"name": "proxiableUUID",
			"inputs": [],
			"outputs": [
				{
					"name": "",
					"type": "bytes32",
					"internalType": "bytes32"
				}
			],
			"stateMutability": "view"
		},
		{
			"type": "function",
			"name": "registerValidator",
			"inputs": [
				{
					"name": "blsPublicKey",
					"type": "bytes",
					"internalType": "bytes"
				}
			],
			"outputs": [],
			"stateMutability": "nonpayable"
		},
		{
			"type": "function",
			"name": "registeredValidatorsCount",
			"inputs": [],
			"outputs": [
				{
					"name": "",
					"type": "uint256",
					"internalType": "uint256"
				}
			],
			"stateMutability": "view"
		},
		{
			"type": "function",
			"name": "resignValidator",
			"inputs": [],
			"outputs": [],
			"stateMutability": "nonpayable"
		},
		{
			"type": "function",
			"name": "resignedValidatorsCount",
			"inputs": [],
			"outputs": [
				{
					"name": "",
					"type": "uint256",
					"internalType": "uint256"
				}
			],
			"stateMutability": "view"
		},
		{
			"type": "function",
			"name": "unvote",
			"inputs": [],
			"outputs": [],
			"stateMutability": "nonpayable"
		},
		{
			"type": "function",
			"name": "updateValidator",
			"inputs": [
				{
					"name": "blsPublicKey",
					"type": "bytes",
					"internalType": "bytes"
				}
			],
			"outputs": [],
			"stateMutability": "nonpayable"
		},
		{
			"type": "function",
			"name": "updateVoters",
			"inputs": [
				{
					"name": "voters",
					"type": "address[]",
					"internalType": "address[]"
				}
			],
			"outputs": [],
			"stateMutability": "nonpayable"
		},
		{
			"type": "function",
			"name": "upgradeToAndCall",
			"inputs": [
				{
					"name": "newImplementation",
					"type": "address",
					"internalType": "address"
				},
				{
					"name": "data",
					"type": "bytes",
					"internalType": "bytes"
				}
			],
			"outputs": [],
			"stateMutability": "payable"
		},
		{
			"type": "function",
			"name": "version",
			"inputs": [],
			"outputs": [
				{
					"name": "",
					"type": "uint256",
					"internalType": "uint256"
				}
			],
			"stateMutability": "pure"
		},
		{
			"type": "function",
			"name": "vote",
			"inputs": [
				{
					"name": "addr",
					"type": "address",
					"internalType": "address"
				}
			],
			"outputs": [],
			"stateMutability": "nonpayable"
		},
		{
			"type": "event",
			"name": "Initialized",
			"inputs": [
				{
					"name": "version",
					"type": "uint64",
					"indexed": false,
					"internalType": "uint64"
				}
			],
			"anonymous": false
		},
		{
			"type": "event",
			"name": "Unvoted",
			"inputs": [
				{
					"name": "voter",
					"type": "address",
					"indexed": false,
					"internalType": "address"
				},
				{
					"name": "validator",
					"type": "address",
					"indexed": false,
					"internalType": "address"
				}
			],
			"anonymous": false
		},
		{
			"type": "event",
			"name": "Upgraded",
			"inputs": [
				{
					"name": "implementation",
					"type": "address",
					"indexed": true,
					"internalType": "address"
				}
			],
			"anonymous": false
		},
		{
			"type": "event",
			"name": "ValidatorRegistered",
			"inputs": [
				{
					"name": "addr",
					"type": "address",
					"indexed": false,
					"internalType": "address"
				},
				{
					"name": "blsPublicKey",
					"type": "bytes",
					"indexed": false,
					"internalType": "bytes"
				}
			],
			"anonymous": false
		},
		{
			"type": "event",
			"name": "ValidatorResigned",
			"inputs": [
				{
					"name": "addr",
					"type": "address",
					"indexed": false,
					"internalType": "address"
				}
			],
			"anonymous": false
		},
		{
			"type": "event",
			"name": "ValidatorUpdated",
			"inputs": [
				{
					"name": "addr",
					"type": "address",
					"indexed": false,
					"internalType": "address"
				},
				{
					"name": "blsPublicKey",
					"type": "bytes",
					"indexed": false,
					"internalType": "bytes"
				}
			],
			"anonymous": false
		},
		{
			"type": "event",
			"name": "Voted",
			"inputs": [
				{
					"name": "voter",
					"type": "address",
					"indexed": false,
					"internalType": "address"
				},
				{
					"name": "validator",
					"type": "address",
					"indexed": false,
					"internalType": "address"
				}
			],
			"anonymous": false
		},
		{
			"type": "error",
			"name": "AddressEmptyCode",
			"inputs": [
				{
					"name": "target",
					"type": "address",
					"internalType": "address"
				}
			]
		},
		{
			"type": "error",
			"name": "AlreadyVoted",
			"inputs": []
		},
		{
			"type": "error",
			"name": "BellowMinValidators",
			"inputs": []
		},
		{
			"type": "error",
			"name": "BlsKeyAlreadyRegistered",
			"inputs": []
		},
		{
			"type": "error",
			"name": "BlsKeyIsInvalid",
			"inputs": []
		},
		{
			"type": "error",
			"name": "CallerIsNotOwner",
			"inputs": []
		},
		{
			"type": "error",
			"name": "CallerIsNotValidator",
			"inputs": []
		},
		{
			"type": "error",
			"name": "CallerIsOwner",
			"inputs": []
		},
		{
			"type": "error",
			"name": "ERC1967InvalidImplementation",
			"inputs": [
				{
					"name": "implementation",
					"type": "address",
					"internalType": "address"
				}
			]
		},
		{
			"type": "error",
			"name": "ERC1967NonPayable",
			"inputs": []
		},
		{
			"type": "error",
			"name": "FailedCall",
			"inputs": []
		},
		{
			"type": "error",
			"name": "ImportIsNotAllowed",
			"inputs": []
		},
		{
			"type": "error",
			"name": "InvalidInitialization",
			"inputs": []
		},
		{
			"type": "error",
			"name": "InvalidParameters",
			"inputs": []
		},
		{
			"type": "error",
			"name": "InvalidRange",
			"inputs": [
				{
					"name": "min",
					"type": "uint256",
					"internalType": "uint256"
				},
				{
					"name": "max",
					"type": "uint256",
					"internalType": "uint256"
				}
			]
		},
		{
			"type": "error",
			"name": "MissingVote",
			"inputs": []
		},
		{
			"type": "error",
			"name": "NoActiveValidators",
			"inputs": []
		},
		{
			"type": "error",
			"name": "NotInitializing",
			"inputs": []
		},
		{
			"type": "error",
			"name": "UUPSUnauthorizedCallContext",
			"inputs": []
		},
		{
			"type": "error",
			"name": "UUPSUnsupportedProxiableUUID",
			"inputs": [
				{
					"name": "slot",
					"type": "bytes32",
					"internalType": "bytes32"
				}
			]
		},
		{
			"type": "error",
			"name": "ValidatorAlreadyRegistered",
			"inputs": []
		},
		{
			"type": "error",
			"name": "ValidatorAlreadyResigned",
			"inputs": []
		},
		{
			"type": "error",
			"name": "ValidatorNotRegistered",
			"inputs": []
		},
		{
			"type": "error",
			"name": "VoteResignedValidator",
			"inputs": []
		},
		{
			"type": "error",
			"name": "VoteSameValidator",
			"inputs": []
		},
		{
			"type": "error",
			"name": "VoteValidatorWithoutBlsPublicKey",
			"inputs": []
		}
	],
	"bytecode": {
		"object": "0x60a0604052306080523480156012575f5ffd5b506080516137b36100395f395f81816122430152818161226c01526123d701526137b35ff3fe608060405260043610610161575f3560e01c8063602a9eee116100cd578063a09686c411610087578063d04a68c711610062578063d04a68c7146103cb578063eb9019d4146103fa578063f1bd0b3714610426578063f3513a371461043a575f5ffd5b8063a09686c414610366578063ad3cb1cc1461037a578063b85f5da2146103b7575f5ffd5b8063602a9eee146102b55780636dd7d8ea146102d45780637c8a92c3146102f35780638129fc1c14610312578063857861db146103265780639de7025814610345575f5ffd5b80633d09c2a81161011e5780633d09c2a81461021157806340f74f47146102305780634f1ef2861461025c57806352d1902d1461026f57806354fd4d50146102835780635a8eed7314610296575f5ffd5b80630777cbef146101655780630d2bd909146101885780631904bb2e1461019c5780631b605b86146101c85780632bdf6d43146101dc5780633174b689146101fd575b5f5ffd5b348015610170575f5ffd5b506006545b6040519081526020015b60405180910390f35b348015610193575f5ffd5b50600e54610175565b3480156101a7575f5ffd5b506101bb6101b6366004612f49565b61044e565b60405161017f9190613008565b3480156101d3575f5ffd5b50600a54610175565b3480156101e7575f5ffd5b506101fb6101f636600461301a565b61056d565b005b348015610208575f5ffd5b506101fb6105dd565b34801561021c575f5ffd5b506101fb61022b366004613089565b61062c565b34801561023b575f5ffd5b5061024f61024a3660046130ba565b61089a565b60405161017f91906130da565b6101fb61026a3660046131a7565b610a50565b34801561027a575f5ffd5b50610175610a6f565b34801561028e575f5ffd5b506001610175565b3480156102a1575f5ffd5b506101fb6102b03660046132ac565b610a8a565b3480156102c0575f5ffd5b506101fb6102cf3660046132ac565b610b40565b3480156102df575f5ffd5b506101fb6102ee366004612f49565b610cf8565b3480156102fe575f5ffd5b506101fb61030d3660046132ea565b610fa0565b34801561031d575f5ffd5b506101fb611201565b348015610331575f5ffd5b506101fb61034036600461334f565b611315565b348015610350575f5ffd5b506103596118d2565b60405161017f919061336f565b348015610371575f5ffd5b50601054610175565b348015610385575f5ffd5b506103aa604051806040016040528060058152602001640352e302e360dc1b81525081565b60405161017f91906133c6565b3480156103c2575f5ffd5b506101fb611a6f565b3480156103d6575f5ffd5b506103ea6103e5366004612f49565b611b58565b604051901515815260200161017f565b348015610405575f5ffd5b506104196104143660046133d8565b611b75565b60405161017f9190613400565b348015610431575f5ffd5b50600554610175565b348015610445575f5ffd5b50610359611d99565b610456612e53565b61045f82611b58565b61047c5760405163510b8aad60e11b815260040160405180910390fd5b6040805180820182526001600160a01b0384168082525f90815260016020818152918490208451608081018652815481529181015482840152600281015460ff161515948201949094526003840180549394928501939192916060840191906104e49061345a565b80601f01602080910402602001604051908101604052809291908181526020018280546105109061345a565b801561055b5780601f106105325761010080835404028352916020019161055b565b820191905f5260205f20905b81548152906001019060200180831161053e57829003601f168201915b50505091909252505050905292915050565b5f546001600160a01b0316331461059757604051636db2465f60e01b815260040160405180910390fd5b5f5b818110156105d8576105d08383838181106105b6576105b661348c565b90506020020160208101906105cb9190612f49565b611f30565b600101610599565b505050565b7f6572af8bf9a0a86efb88dcc30011626a15c9c4603503aa4466a3f87a1867deef33610607612010565b604080516001600160a01b0393841681529290911660208301520160405180910390a1565b5f546001600160a01b0316331461065657604051636db2465f60e01b815260040160405180910390fd5b60105415610677576040516349625b3b60e01b815260040160405180910390fd5b61068081611b58565b61069d5760405163510b8aad60e11b815260040160405180910390fd5b6001600160a01b038083165f9081526007602052604090208054909116156106d857604051637c9a1cf960e01b815260040160405180910390fd5b604080516080810182526001600160a01b038085168252858116803160208085019182525f85870181815260608701828152948252600790925295909520935184549084166001600160a01b0319918216178555905160018501559351600284018054918416918616919091179055516003909201805492821692909316919091179091556008541661079557600880546001600160a01b0385166001600160a01b031991821681179092556009805490911690911790556107ed565b600980546001600160a01b039081165f9081526007602052604080822060030180548489166001600160a01b031991821681179092558554828552929093206002018054841692909416919091179092558254161790555b600a8054905f6107fc836134b4565b90915550506001600160a01b038083165f9081526001602081905260408220908101805491938716319290916108339084906134cc565b9091555050805460019082905f9061084c9084906134cc565b9091555050604080516001600160a01b038087168252851660208201527fce0c7a2a940807f7dc2ce7a615c2532e915e6c0ac9a08bc4ed9d515a710a53e2910160405180910390a150505050565b5f546060906001600160a01b031633146108c757604051636db2465f60e01b815260040160405180910390fd5b601054829084106108d957505f6108fd565b6010546108e684866134cc565b11156108fd576010546108fa9085906134df565b90505b5f816001600160401b0381111561091657610916613193565b60405190808252806020026020018201604052801561095b57816020015b604080518082019091525f8152606060208201528152602001906001900390816109345790505b5090505f5b82811015610a45576040518060400160405280828861097f91906134cc565b61098a9060016134cc565b8152602001601061099b848a6134cc565b815481106109ab576109ab61348c565b905f5260205f2001805480602002602001604051908101604052809291908181526020015f905b82821015610a19575f848152602090819020604080518082019091526002850290910180546001600160a01b031682526001908101548284015290835290920191016109d2565b50505050815250828281518110610a3257610a3261348c565b6020908102919091010152600101610960565b509150505b92915050565b610a58612238565b610a61826122de565b610a6b828261230b565b5050565b5f610a786123cc565b505f51602061375e5f395f51905f5290565b5f546001600160a01b03163303610ab457604051630c148c4960e31b815260040160405180910390fd5b610abd33611b58565b610ada5760405163510b8aad60e11b815260040160405180910390fd5b610ae48282612415565b335f908152600160205260409020600301610b00828483613536565b507f4af0b5984c9f88659d661fb64dcb63a5b946809cf1c78a8c6e0f6ef93c917032338383604051610b34939291906135ef565b60405180910390a15050565b5f546001600160a01b03163303610b6a57604051630c148c4960e31b815260040160405180910390fd5b335f9081526002602052604090205460ff1615610b9a5760405163132e7efb60e31b815260040160405180910390fd5b610ba48282612415565b5f60405180608001604052805f81526020015f81526020015f1515815260200184848080601f0160208091040260200160405190810160405280939291908181526020018383808284375f920182905250939094525050600580549394509150610c0d836134b4565b9091555050335f9081526002602081815260408084208054600160ff1991821681179092558184529482902086518155928601519083015584015191810180549093169115159190911790915560608201518291906003820190610c71908261362e565b5050600480546001810182555f919091527f8a35acfbc15ff81a39ae7d344fd709f28e8600b4aa8c65c6b64bfe7fe36bd19b0180546001600160a01b031916339081179091556040517f61809fa303a3a57f4d70552f533f3e0b003173d424590cd4bb22a2afe000990c9250610ceb9190869086906135ef565b60405180910390a1505050565b5f546001600160a01b03163303610d2257604051630c148c4960e31b815260040160405180910390fd5b610d2b81611b58565b610d485760405163510b8aad60e11b815260040160405180910390fd5b6001600160a01b0381165f908152600160205260409020600281015460ff1615610d855760405163510ae2bd60e11b815260040160405180910390fd5b806003018054610d949061345a565b90505f03610db55760405163970c784d60e01b815260040160405180910390fd5b335f90815260076020526040902080546001600160a01b03848116911603610df057604051630d41c52760e01b815260040160405180910390fd5b80546001600160a01b031615610e0a57610e08612010565b505b604080516080810182526001600160a01b03808616825233803160208085019182525f85870181815260608701828152948252600790925295909520935184549084166001600160a01b03199182161785559051600185015593516002840180549184169186169190911790555160039092018054928216929093169190911790915560085416610ebc5760088054336001600160a01b03199182168117909255600980549091169091179055610f13565b600980546001600160a01b039081165f9081526007602052604080822060030180546001600160a01b0319908116339081179092558554828552929093206002018054841692909416919091179092558254161790555b600a8054905f610f22836134b4565b9190505550336001600160a01b031631826001015f828254610f4491906134cc565b9091555050815460019083905f90610f5d9084906134cc565b9091555050604080513381526001600160a01b03851660208201527fce0c7a2a940807f7dc2ce7a615c2532e915e6c0ac9a08bc4ed9d515a710a53e29101610ceb565b5f546001600160a01b03163314610fca57604051636db2465f60e01b815260040160405180910390fd5b60105415610feb576040516349625b3b60e01b815260040160405180910390fd5b6001600160a01b0384165f9081526002602052604090205460ff16156110245760405163132e7efb60e31b815260040160405180910390fd5b60035f84846040516110379291906136e8565b604080519182900390912082526020820192909252015f205460ff161561107157604051637e4c066f60e01b815260040160405180910390fd5b8115611081576110818383612415565b5f60405180608001604052805f81526020015f8152602001831515815260200185858080601f0160208091040260200160405190810160405280939291908181526020018383808284375f9201829052509390945250506005805493945091506110ea836134b4565b90915550506001600160a01b0385165f9081526002602081815260408084208054600160ff1991821681179092558184529482902086518155928601519083015584015191810180549093169115159190911790915560608201518291906003820190611157908261362e565b5050600480546001810182555f919091527f8a35acfbc15ff81a39ae7d344fd709f28e8600b4aa8c65c6b64bfe7fe36bd19b0180546001600160a01b0319166001600160a01b0388161790555081156111bf5760068054905f6111b9836134b4565b91905055505b7f61809fa303a3a57f4d70552f533f3e0b003173d424590cd4bb22a2afe000990c8585856040516111f2939291906135ef565b60405180910390a15050505050565b7ff0c57e16840df040f15088dc2f81fe391c3923bec73e23a9662efc9c229c6a008054600160401b810460ff1615906001600160401b03165f811580156112455750825b90505f826001600160401b031660011480156112605750303b155b90508115801561126e575080155b1561128c5760405163f92ee8a960e01b815260040160405180910390fd5b845467ffffffffffffffff1916600117855583156112b657845460ff60401b1916600160401b1785555b5f80546001600160a01b031916331790556001600f55831561130e57845460ff60401b19168555604051600181527fc7f505b2f371ae2175ee4913f4499e1f2633a7b5936321eed1cdaeb6115181d2906020016111f2565b5050505050565b5f546001600160a01b0316331461133f57604051636db2465f60e01b815260040160405180910390fd5b8060ff165f0361136257604051630e52390960e41b815260040160405180910390fd5b60ff8116600f556113736004612489565b61137b6125d9565b600d80546001600160a01b03191690556006546005545f916113ad9160ff85169184916113a891906134df565b61262a565b90508060ff165f036113d2576040516367c0fced60e01b815260040160405180910390fd5b5f5b600454811015611696575f600482815481106113f2576113f261348c565b5f9182526020808320909101546001600160a01b03168083526001909152604090912060028101549192509060ff168061143a57508060030180546114369061345a565b1590505b1561144657505061168e565b600d546001600160a01b03166114815750600d80546001600160a01b0319166001600160a01b03929092169190911790556001600e5561168e565b8360ff16600e54101561149f57611498828561267e565b505061168e565b600d546001600160a01b039081165f908152600160208181526040928390208351808501855294871685528351608081018552865481529286015483830152600286015460ff16151593830193909352600385018054939461167b949093928401929187916060840191906115139061345a565b80601f016020809104026020016040519081016040528092919081815260200182805461153f9061345a565b801561158a5780601f106115615761010080835404028352916020019161158a565b820191905f5260205f20905b81548152906001019060200180831161156d57829003601f168201915b505050919092525050509052604080518082018252600d546001600160a01b031681528151608081018352855481526001860154602082810191909152600287015460ff161515938201939093526003860180549293840192879160608401916115f39061345a565b80601f016020809104026020016040519081016040528092919081815260200182805461161f9061345a565b801561166a5780601f106116415761010080835404028352916020019161166a565b820191905f5260205f20905b81548152906001019060200180831161164d57829003601f168201915b505050505081525050815250612a5a565b1561168a5761168a838661267e565b5050505b6001016113d4565b50600e545f036116b9576040516367c0fced60e01b815260040160405180910390fd5b600d54600e546001600160a01b03909116905f906001600160401b038111156116e4576116e4613193565b60405190808252806020026020018201604052801561170d578160200160208202803683370190505b5090505f5b600e54811015611767578282828151811061172f5761172f61348c565b6001600160a01b039283166020918202929092018101919091529381165f908152600b90945260409093205490921691600101611712565b5061177181612a9e565b601080546001810182555f9182527f1b6847dc741a1b0cd08d278845f9d819d87b734759afb55fe2de5cb82a9ae67201906117ae90600c90612e9c565b600f546001600160401b038111156117c8576117c8613193565b6040519080825280602002602001820160405280156117f1578160200160208202803683370190505b50805161180691600c91602090910190612eb7565b505f5b600f548110156118ca575f83600e548361182391906136f7565b815181106118335761183361348c565b6020026020010151905080600c83815481106118515761185161348c565b5f918252602080832090910180546001600160a01b039485166001600160a01b0319918216179091556040805180820182529585168087528452600180845290842081015486840190815288548083018a5589865293909420955160029093029095018054929094169116178255519082015501611809565b505050505050565b600c546060905f906001600160401b038111156118f1576118f1613193565b60405190808252806020026020018201604052801561192a57816020015b611917612e53565b81526020019060019003908161190f5790505b5090505f5b600c54811015611a69575f600c828154811061194d5761194d61348c565b5f9182526020808320909101546001600160a01b03168083526001808352604093849020845180860186528381528551608081018752825481529282015483860152600282015460ff16151595830195909552600381018054939650909493840192859160608401916119bf9061345a565b80601f01602080910402602001604051908101604052809291908181526020018280546119eb9061345a565b8015611a365780601f10611a0d57610100808354040283529160200191611a36565b820191905f5260205f20905b815481529060010190602001808311611a1957829003601f168201915b505050505081525050815250848481518110611a5457611a5461348c565b6020908102919091010152505060010161192f565b50919050565b611a7833611b58565b611a955760405163668191af60e11b815260040160405180910390fd5b335f908152600160205260409020600281015460ff1615611ac957604051632d8b5c9760e21b815260040160405180910390fd5b600f54600654600554611adc91906134df565b11611afa57604051633b15f1f760e21b815260040160405180910390fd5b60028101805460ff19166001908117909155600680545f90611b1d9084906134cc565b90915550506040513381527f24250fc1ec78a1405ddd4cc8b75964858af228d05faa8d4bc1302966d8a541179060200160405180910390a150565b6001600160a01b03165f9081526002602052604090205460ff1690565b5f546060906001600160a01b03163314611ba257604051636db2465f60e01b815260040160405180910390fd5b5f611bb0835f600a5461262a565b6001600160401b03811115611bc757611bc7613193565b604051908082528060200260200182016040528015611c0b57816020015b604080518082019091525f8082526020820152815260200190600190039081611be55790505b506008549091506001600160a01b0390811690851615611c4457506001600160a01b038085165f90815260076020526040902060030154165b5f5b6001600160a01b03821615801590611c5d57508481105b15611cd2576001600160a01b038083165f818152600760209081526040918290208251808401909352928252825490931692810192909252908483611ca1816134b4565b945081518110611cb357611cb361348c565b6020908102919091010152600301546001600160a01b03169150611c46565b80835103611ce557829350505050610a4a565b5f816001600160401b03811115611cfe57611cfe613193565b604051908082528060200260200182016040528015611d4257816020015b604080518082019091525f8082526020820152815260200190600190039081611d1c5790505b5090505f5b82811015611d8e57848181518110611d6157611d6161348c565b6020026020010151828281518110611d7b57611d7b61348c565b6020908102919091010152600101611d47565b509695505050505050565b6004546060905f906001600160401b03811115611db857611db8613193565b604051908082528060200260200182016040528015611df157816020015b611dde612e53565b815260200190600190039081611dd65790505b5090505f5b600454811015611a69575f60048281548110611e1457611e1461348c565b5f9182526020808320909101546001600160a01b03168083526001808352604093849020845180860186528381528551608081018752825481529282015483860152600282015460ff1615159583019590955260038101805493965090949384019285916060840191611e869061345a565b80601f0160208091040260200160405190810160405280929190818152602001828054611eb29061345a565b8015611efd5780601f10611ed457610100808354040283529160200191611efd565b820191905f5260205f20905b815481529060010190602001808311611ee057829003601f168201915b505050505081525050815250848481518110611f1b57611f1b61348c565b60209081029190910101525050600101611df6565b6001600160a01b038082165f9081526007602052604090208054909116611f55575050565b60018101546001600160a01b03831631811015611fb657611f80816001600160a01b038516316134df565b82546001600160a01b03165f9081526001602081905260408220018054909190611fab9084906134cc565b90915550611ffb9050565b611fca6001600160a01b03841631826134df565b82546001600160a01b03165f9081526001602081905260408220018054909190611ff59084906134df565b90915550505b506001600160a01b0390911631600190910155565b335f90815260076020526040812080546001600160a01b03166120465760405163498ea63d60e01b815260040160405180910390fd5b6009546008546001600160a01b0391821691160361207f57600880546001600160a01b0319908116909155600980549091169055612192565b600954336001600160a01b03909116036120d8576002810180546001600160a01b039081165f90815260076020526040902060030180546001600160a01b03199081169091559154600980549093169116179055612192565b600854336001600160a01b039091160361213c576009546001600160a01b039081165f9081526007602052604080822060020180546001600160a01b0319908116909155600880548086168552929093206003015491169216919091179055612192565b60038181018054600280850180546001600160a01b039081165f9081526007602052604080822090970180549583166001600160a01b031996871617905591549454811682529490200180549290931691161790555b80546001600160a01b03165f8181526001602081905260408220818501549181018054919390916121c49084906134df565b9091555050805460019082905f906121dd9084906134df565b9091555050335f90815260076020526040812080546001600160a01b031990811682556001820183905560028201805482169055600390910180549091169055600a80549161222b83613716565b9091555091949350505050565b306001600160a01b037f00000000000000000000000000000000000000000000000000000000000000001614806122be57507f00000000000000000000000000000000000000000000000000000000000000006001600160a01b03166122b25f51602061375e5f395f51905f52546001600160a01b031690565b6001600160a01b031614155b156122dc5760405163703e46dd60e11b815260040160405180910390fd5b565b5f546001600160a01b0316331461230857604051636db2465f60e01b815260040160405180910390fd5b50565b816001600160a01b03166352d1902d6040518163ffffffff1660e01b8152600401602060405180830381865afa925050508015612365575060408051601f3d908101601f191682019092526123629181019061372b565b60015b61239257604051634c9c8ce360e01b81526001600160a01b03831660048201526024015b60405180910390fd5b5f51602061375e5f395f51905f5281146123c257604051632a87526960e21b815260048101829052602401612389565b6105d88383612bb5565b306001600160a01b037f000000000000000000000000000000000000000000000000000000000000000016146122dc5760405163703e46dd60e11b815260040160405180910390fd5b5f82826040516124269291906136e8565b60408051918290039091205f8181526003602052919091205490915060ff161561246357604051637e4c066f60e01b815260040160405180910390fd5b61246d8383612c0a565b5f908152600360205260409020805460ff191660011790555050565b80545f819003612497575050565b5f6124a36001836134df565b90505b80156105d8575f6124b88260016134cc565b60408051426020820152908101849052606001604051602081830303815290604052805190602001205f1c6124ed91906136f7565b90505f8483815481106125025761250261348c565b5f9182526020909120015485546001600160a01b03909116915085908390811061252e5761252e61348c565b905f5260205f20015f9054906101000a90046001600160a01b031685848154811061255b5761255b61348c565b905f5260205f20015f6101000a8154816001600160a01b0302191690836001600160a01b03160217905550808583815481106125995761259961348c565b905f5260205f20015f6101000a8154816001600160a01b0302191690836001600160a01b03160217905550505080806125d190613716565b9150506124a6565b600d546001600160a01b03165b6001600160a01b03811615612623576001600160a01b039081165f908152600b6020526040902080546001600160a01b03198116909155166125e6565b505f600e55565b5f8183111561265657604051632457cde760e01b81526004810184905260248101839052604401612389565b82841015612665575081612677565b81841115612674575080612677565b50825b9392505050565b6001600160a01b0382165f9081526001602081815260408084208151608081018352815481529381015492840192909252600282015460ff161515908301526003810180546060840191906126d29061345a565b80601f01602080910402602001604051908101604052809291908181526020018280546126fe9061345a565b80156127495780601f1061272057610100808354040283529160200191612749565b820191905f5260205f20905b81548152906001019060200180831161272c57829003601f168201915b505050919092525050604080518082018252600d546001600160a01b03168082525f90815260016020818152918490208451608081018652815481529181015482840152600281015460ff1615159482019490945260038401805496975061286a96939550918501939092909160608401916127c49061345a565b80601f01602080910402602001604051908101604052809291908181526020018280546127f09061345a565b801561283b5780601f106128125761010080835404028352916020019161283b565b820191905f5260205f20905b81548152906001019060200180831161281e57829003601f168201915b5050505050815250508152506040518060400160405280866001600160a01b0316815260200184815250612a5a565b1561287d5761287883612c2b565b6129fb565b600d546001600160a01b039081165f818152600b6020526040902054909116905b6001600160a01b0382166128bb576128b68186612c7c565b6129f8565b6040805180820182526001600160a01b0384168082525f90815260016020818152918490208451608081018652815481529181015482840152600281015460ff161515948201949094526003840180546129c895938501939160608401916129229061345a565b80601f016020809104026020016040519081016040528092919081815260200182805461294e9061345a565b80156129995780601f1061297057610100808354040283529160200191612999565b820191905f5260205f20905b81548152906001019060200180831161297c57829003601f168201915b5050505050815250508152506040518060400160405280886001600160a01b0316815260200186815250612a5a565b156129d7576128b68186612c7c565b506001600160a01b038082165f908152600b6020526040902054169061289e565b50505b8160ff16600e5411156105d857600d80546001600160a01b039081165f908152600b6020526040812080546001600160a01b03198082169092558454931692168217909255600e80549192612a4f83613716565b919050555050505050565b5f81602001516020015183602001516020015103612a8a5750805182516001600160a01b03918216911611610a4a565b506020908101518101519181015101511190565b80515f819003612aac575050565b5f612ab86001836134df565b90505b80156105d8575f612acd8260016134cc565b60408051426020820152908101849052606001604051602081830303815290604052805190602001205f1c612b0291906136f7565b90505f848381518110612b1757612b1761348c565b60200260200101519050848281518110612b3357612b3361348c565b6020026020010151858481518110612b4d57612b4d61348c565b60200260200101906001600160a01b031690816001600160a01b03168152505080858381518110612b8057612b8061348c565b60200260200101906001600160a01b031690816001600160a01b03168152505050508080612bad90613716565b915050612abb565b612bbe82612cda565b6040516001600160a01b038316907fbc7cd75a20ee27fd9adebab32041f755214dbc6bffa90cc0225b39da2e5c2d3b905f90a2805115612c02576105d88282612d3d565b610a6b612daf565b60308114610a6b576040516305db9dbd60e01b815260040160405180910390fd5b600d80546001600160a01b038381165f818152600b602052604081208054939094166001600160a01b031993841617909355835490911617909155600e805491612c74836134b4565b919050555050565b6001600160a01b038281165f818152600b602052604080822080548686168085529284208054919096166001600160a01b03199182161790955592825282549093169092179055600e805491612cd1836134b4565b91905055505050565b806001600160a01b03163b5f03612d0f57604051634c9c8ce360e01b81526001600160a01b0382166004820152602401612389565b5f51602061375e5f395f51905f5280546001600160a01b0319166001600160a01b0392909216919091179055565b60605f5f846001600160a01b031684604051612d599190613742565b5f60405180830381855af49150503d805f8114612d91576040519150601f19603f3d011682016040523d82523d5f602084013e612d96565b606091505b5091509150612da6858383612dce565b95945050505050565b34156122dc5760405163b398979f60e01b815260040160405180910390fd5b606082612de357612dde82612e2a565b612677565b8151158015612dfa57506001600160a01b0384163b155b15612e2357604051639996b31560e01b81526001600160a01b0385166004820152602401612389565b5080612677565b805115612e3a5780518082602001fd5b60405163d6bda27560e01b815260040160405180910390fd5b60405180604001604052805f6001600160a01b03168152602001612e9760405180608001604052805f81526020015f81526020015f15158152602001606081525090565b905290565b5080545f8255905f5260205f20908101906123089190612f1a565b828054828255905f5260205f20908101928215612f0a579160200282015b82811115612f0a57825182546001600160a01b0319166001600160a01b03909116178255602090920191600190910190612ed5565b50612f16929150612f1a565b5090565b5b80821115612f16575f8155600101612f1b565b80356001600160a01b0381168114612f44575f5ffd5b919050565b5f60208284031215612f59575f5ffd5b61267782612f2e565b5f5b83811015612f7c578181015183820152602001612f64565b50505f910152565b5f8151808452612f9b816020860160208601612f62565b601f01601f19169290920160200192915050565b60018060a01b0381511682525f602082015160406020850152805160408501526020810151606085015260408101511515608085015260608101519050608060a085015261300060c0850182612f84565b949350505050565b602081525f6126776020830184612faf565b5f5f6020838503121561302b575f5ffd5b82356001600160401b03811115613040575f5ffd5b8301601f81018513613050575f5ffd5b80356001600160401b03811115613065575f5ffd5b8560208260051b8401011115613079575f5ffd5b6020919091019590945092505050565b5f5f6040838503121561309a575f5ffd5b6130a383612f2e565b91506130b160208401612f2e565b90509250929050565b5f5f604083850312156130cb575f5ffd5b50508035926020909101359150565b5f602082016020835280845180835260408501915060408160051b8601019250602086015f5b8281101561318757868503603f19018452815180518652602090810151604082880181905281519088018190529101905f9060608801905b8083101561316f57835180516001600160a01b03168352602090810151818401529093019260019290920191604090910190613138565b50965050506020938401939190910190600101613100565b50929695505050505050565b634e487b7160e01b5f52604160045260245ffd5b5f5f604083850312156131b8575f5ffd5b6131c183612f2e565b915060208301356001600160401b038111156131db575f5ffd5b8301601f810185136131eb575f5ffd5b80356001600160401b0381111561320457613204613193565b604051601f8201601f19908116603f011681016001600160401b038111828210171561323257613232613193565b604052818152828201602001871015613249575f5ffd5b816020840160208301375f602083830101528093505050509250929050565b5f5f83601f840112613278575f5ffd5b5081356001600160401b0381111561328e575f5ffd5b6020830191508360208285010111156132a5575f5ffd5b9250929050565b5f5f602083850312156132bd575f5ffd5b82356001600160401b038111156132d2575f5ffd5b6132de85828601613268565b90969095509350505050565b5f5f5f5f606085870312156132fd575f5ffd5b61330685612f2e565b935060208501356001600160401b03811115613320575f5ffd5b61332c87828801613268565b90945092505060408501358015158114613344575f5ffd5b939692955090935050565b5f6020828403121561335f575f5ffd5b813560ff81168114612677575f5ffd5b5f602082016020835280845180835260408501915060408160051b8601019250602086015f5b8281101561318757603f198786030184526133b1858351612faf565b94506020938401939190910190600101613395565b602081525f6126776020830184612f84565b5f5f604083850312156133e9575f5ffd5b6133f283612f2e565b946020939093013593505050565b602080825282518282018190525f918401906040840190835b8181101561344f57835180516001600160a01b039081168552602091820151168185015290930192604090920191600101613419565b509095945050505050565b600181811c9082168061346e57607f821691505b602082108103611a6957634e487b7160e01b5f52602260045260245ffd5b634e487b7160e01b5f52603260045260245ffd5b634e487b7160e01b5f52601160045260245ffd5b5f600182016134c5576134c56134a0565b5060010190565b80820180821115610a4a57610a4a6134a0565b81810381811115610a4a57610a4a6134a0565b601f8211156105d857805f5260205f20601f840160051c810160208510156135175750805b601f840160051c820191505b8181101561130e575f8155600101613523565b6001600160401b0383111561354d5761354d613193565b6135618361355b835461345a565b836134f2565b5f601f841160018114613592575f851561357b5750838201355b5f19600387901b1c1916600186901b17835561130e565b5f83815260208120601f198716915b828110156135c157868501358255602094850194600190920191016135a1565b50868210156135dd575f1960f88860031b161c19848701351681555b505060018560011b0183555050505050565b6001600160a01b03841681526040602082018190528101829052818360608301375f818301606090810191909152601f909201601f1916010192915050565b81516001600160401b0381111561364757613647613193565b61365b81613655845461345a565b846134f2565b6020601f82116001811461368d575f83156136765750848201515b5f19600385901b1c1916600184901b17845561130e565b5f84815260208120601f198516915b828110156136bc578785015182556020948501946001909201910161369c565b50848210156136d957868401515f19600387901b60f8161c191681555b50505050600190811b01905550565b818382375f9101908152919050565b5f8261371157634e487b7160e01b5f52601260045260245ffd5b500690565b5f81613724576137246134a0565b505f190190565b5f6020828403121561373b575f5ffd5b5051919050565b5f8251613753818460208701612f62565b919091019291505056fe360894a13ba1a3210667c828492db98dca3e2076cc3735a920a3ca505d382bbca2646970667358221220097a22481535eaba5c9398d57215eff7bab7190afe504744aabe16a8d8e251f264736f6c634300081b0033",
		"linkReferences": {}
	},
	"methodIdentifiers": {
		"UPGRADE_INTERFACE_VERSION()": "ad3cb1cc",
		"activeValidatorsCount()": "0d2bd909",
		"addValidator(address,bytes,bool)": "7c8a92c3",
		"addVote(address,address)": "3d09c2a8",
		"calculateActiveValidators(uint8)": "857861db",
		"getActiveValidators()": "9de70258",
		"getAllValidators()": "f3513a37",
		"getRounds(uint256,uint256)": "40f74f47",
		"getRoundsCount()": "a09686c4",
		"getValidator(address)": "1904bb2e",
		"getVotes(address,uint256)": "eb9019d4",
		"getVotesCount()": "1b605b86",
		"initialize()": "8129fc1c",
		"isValidatorRegistered(address)": "d04a68c7",
		"proxiableUUID()": "52d1902d",
		"registerValidator(bytes)": "602a9eee",
		"registeredValidatorsCount()": "f1bd0b37",
		"resignValidator()": "b85f5da2",
		"resignedValidatorsCount()": "0777cbef",
		"unvote()": "3174b689",
		"updateValidator(bytes)": "5a8eed73",
		"updateVoters(address[])": "2bdf6d43",
		"upgradeToAndCall(address,bytes)": "4f1ef286",
		"version()": "54fd4d50",
		"vote(address)": "6dd7d8ea"
	},
	"id": 34
}