{
	"abi": [
		{
			"type": "function",
			"name": "pay",
			"inputs": [
				{
					"name": "recipients",
					"type": "address[]",
					"internalType": "address payable[]"
				},
				{
					"name": "amounts",
					"type": "uint256[]",
					"internalType": "uint256[]"
				}
			],
			"outputs": [],
			"stateMutability": "payable"
		},
		{
			"type": "error",
			"name": "FailedToSendEther",
			"inputs": []
		},
		{
			"type": "error",
			"name": "InvalidValue",
			"inputs": []
		},
		{
			"type": "error",
			"name": "RecipientsAndAmountsMismatch",
			"inputs": []
		}
	],
	"bytecode": {
		"object": "0x6080604052348015600e575f5ffd5b506102c98061001c5f395ff3fe60806040526004361061001d575f3560e01c8063084ce70814610021575b5f5ffd5b61003461002f3660046101c1565b610036565b005b828114610056576040516366d5293b60e11b815260040160405180910390fd5b5f805b8281101561008f578383828181106100735761007361022d565b90506020020135826100859190610241565b9150600101610059565b508034146100b057604051632a9ffab760e21b815260040160405180910390fd5b5f5b84811015610171575f8686838181106100cd576100cd61022d565b90506020020160208101906100e29190610266565b6001600160a01b03168585848181106100fd576100fd61022d565b905060200201356040515f6040518083038185875af1925050503d805f8114610141576040519150601f19603f3d011682016040523d82523d5f602084013e610146565b606091505b505090508061016857604051630dcf35db60e41b815260040160405180910390fd5b506001016100b2565b505050505050565b5f5f83601f840112610189575f5ffd5b50813567ffffffffffffffff8111156101a0575f5ffd5b6020830191508360208260051b85010111156101ba575f5ffd5b9250929050565b5f5f5f5f604085870312156101d4575f5ffd5b843567ffffffffffffffff8111156101ea575f5ffd5b6101f687828801610179565b909550935050602085013567ffffffffffffffff811115610215575f5ffd5b61022187828801610179565b95989497509550505050565b634e487b7160e01b5f52603260045260245ffd5b8082018082111561026057634e487b7160e01b5f52601160045260245ffd5b92915050565b5f60208284031215610276575f5ffd5b81356001600160a01b038116811461028c575f5ffd5b939250505056fea2646970667358221220ec4bbfa12830c55f441490d2b67f3e926f82b1bd605044cbbc4d38711a4237cc64736f6c634300081b0033",
		"linkReferences": {}
	},
	"methodIdentifiers": {
		"pay(address[],uint256[])": "084ce708"
	},
	"id": 23
}