{
	"abi": [
		{
			"type": "function",
			"name": "UPGRADE_INTERFACE_VERSION",
			"inputs": [],
			"outputs": [
				{
					"name": "",
					"type": "string",
					"internalType": "string"
				}
			],
			"stateMutability": "view"
		},
		{
			"type": "function",
			"name": "initialize",
			"inputs": [],
			"outputs": [],
			"stateMutability": "nonpayable"
		},
		{
			"type": "function",
			"name": "owner",
			"inputs": [],
			"outputs": [
				{
					"name": "",
					"type": "address",
					"internalType": "address"
				}
			],
			"stateMutability": "view"
		},
		{
			"type": "function",
			"name": "pay",
			"inputs": [
				{
					"name": "recipients",
					"type": "address[]",
					"internalType": "address payable[]"
				},
				{
					"name": "amounts",
					"type": "uint256[]",
					"internalType": "uint256[]"
				}
			],
			"outputs": [],
			"stateMutability": "payable"
		},
		{
			"type": "function",
			"name": "proxiableUUID",
			"inputs": [],
			"outputs": [
				{
					"name": "",
					"type": "bytes32",
					"internalType": "bytes32"
				}
			],
			"stateMutability": "view"
		},
		{
			"type": "function",
			"name": "renounceOwnership",
			"inputs": [],
			"outputs": [],
			"stateMutability": "nonpayable"
		},
		{
			"type": "function",
			"name": "transferOwnership",
			"inputs": [
				{
					"name": "newOwner",
					"type": "address",
					"internalType": "address"
				}
			],
			"outputs": [],
			"stateMutability": "nonpayable"
		},
		{
			"type": "function",
			"name": "upgradeToAndCall",
			"inputs": [
				{
					"name": "newImplementation",
					"type": "address",
					"internalType": "address"
				},
				{
					"name": "data",
					"type": "bytes",
					"internalType": "bytes"
				}
			],
			"outputs": [],
			"stateMutability": "payable"
		},
		{
			"type": "function",
			"name": "version",
			"inputs": [],
			"outputs": [
				{
					"name": "",
					"type": "uint256",
					"internalType": "uint256"
				}
			],
			"stateMutability": "pure"
		},
		{
			"type": "event",
			"name": "Initialized",
			"inputs": [
				{
					"name": "version",
					"type": "uint64",
					"indexed": false,
					"internalType": "uint64"
				}
			],
			"anonymous": false
		},
		{
			"type": "event",
			"name": "OwnershipTransferred",
			"inputs": [
				{
					"name": "previousOwner",
					"type": "address",
					"indexed": true,
					"internalType": "address"
				},
				{
					"name": "newOwner",
					"type": "address",
					"indexed": true,
					"internalType": "address"
				}
			],
			"anonymous": false
		},
		{
			"type": "event",
			"name": "Payment",
			"inputs": [
				{
					"name": "recipient",
					"type": "address",
					"indexed": true,
					"internalType": "address"
				},
				{
					"name": "amount",
					"type": "uint256",
					"indexed": false,
					"internalType": "uint256"
				},
				{
					"name": "success",
					"type": "bool",
					"indexed": false,
					"internalType": "bool"
				}
			],
			"anonymous": false
		},
		{
			"type": "event",
			"name": "Upgraded",
			"inputs": [
				{
					"name": "implementation",
					"type": "address",
					"indexed": true,
					"internalType": "address"
				}
			],
			"anonymous": false
		},
		{
			"type": "error",
			"name": "AddressEmptyCode",
			"inputs": [
				{
					"name": "target",
					"type": "address",
					"internalType": "address"
				}
			]
		},
		{
			"type": "error",
			"name": "ERC1967InvalidImplementation",
			"inputs": [
				{
					"name": "implementation",
					"type": "address",
					"internalType": "address"
				}
			]
		},
		{
			"type": "error",
			"name": "ERC1967NonPayable",
			"inputs": []
		},
		{
			"type": "error",
			"name": "FailedCall",
			"inputs": []
		},
		{
			"type": "error",
			"name": "InvalidInitialization",
			"inputs": []
		},
		{
			"type": "error",
			"name": "InvalidValue",
			"inputs": []
		},
		{
			"type": "error",
			"name": "NotInitializing",
			"inputs": []
		},
		{
			"type": "error",
			"name": "OwnableInvalidOwner",
			"inputs": [
				{
					"name": "owner",
					"type": "address",
					"internalType": "address"
				}
			]
		},
		{
			"type": "error",
			"name": "OwnableUnauthorizedAccount",
			"inputs": [
				{
					"name": "account",
					"type": "address",
					"internalType": "address"
				}
			]
		},
		{
			"type": "error",
			"name": "RecipientsAndAmountsMismatch",
			"inputs": []
		},
		{
			"type": "error",
			"name": "UUPSUnauthorizedCallContext",
			"inputs": []
		},
		{
			"type": "error",
			"name": "UUPSUnsupportedProxiableUUID",
			"inputs": [
				{
					"name": "slot",
					"type": "bytes32",
					"internalType": "bytes32"
				}
			]
		}
	],
	"bytecode": {
		"object": "0x60a0604052306080523480156012575f5ffd5b50608051610d6f6100395f395f81816105dd01528181610606015261074a0152610d6f5ff3fe608060405260043610610084575f3560e01c8063715018a611610057578063715018a6146100ea5780638129fc1c146100fe5780638da5cb5b14610112578063ad3cb1cc14610158578063f2fde38b14610195575f5ffd5b8063084ce708146100885780634f1ef2861461009d57806352d1902d146100b057806354fd4d50146100d7575b5f5ffd5b61009b610096366004610ad0565b6101b4565b005b61009b6100ab366004610b64565b61043b565b3480156100bb575f5ffd5b506100c461045a565b6040519081526020015b60405180910390f35b3480156100e2575f5ffd5b5060016100c4565b3480156100f5575f5ffd5b5061009b610475565b348015610109575f5ffd5b5061009b610488565b34801561011d575f5ffd5b507f9016d09d72d40fdae2fd8ceac6b6234c7706214fd39c1cd1e609a0528c199300546040516001600160a01b0390911681526020016100ce565b348015610163575f5ffd5b50610188604051806040016040528060058152602001640352e302e360dc1b81525081565b6040516100ce9190610c4c565b3480156101a0575f5ffd5b5061009b6101af366004610c7e565b610595565b8281146101d4576040516366d5293b60e11b815260040160405180910390fd5b5f805b8281101561020d578383828181106101f1576101f1610c99565b90506020020135826102039190610cc1565b91506001016101d7565b5080341461022e57604051632a9ffab760e21b815260040160405180910390fd5b835f81900361023e575050610435565b5f5b8581101561039f575f87878381811061025b5761025b610c99565b90506020020160208101906102709190610c7e565b6001600160a01b031686868481811061028b5761028b610c99565b90506020020135611388906040515f60405180830381858888f193505050503d805f81146102d4576040519150601f19603f3d011682016040523d82523d5f602084013e6102d9565b606091505b50509050801561030a578585838181106102f5576102f5610c99565b90506020020135846103079190610cd4565b93505b87878381811061031c5761031c610c99565b90506020020160208101906103319190610c7e565b6001600160a01b03167ff62eb0089c279dea4693baf6185affe0fe98a35d3c5ddbf4a6a0a557636533bd87878581811061036d5761036d610c99565b905060200201358360405161038e9291909182521515602082015260400190565b60405180910390a250600101610240565b508115610432576040515f90339084908381818185875af1925050503d805f81146103e5576040519150601f19603f3d011682016040523d82523d5f602084013e6103ea565b606091505b50509050806104305760405162461bcd60e51b815260206004820152600d60248201526c1499599d5b990819985a5b1959609a1b60448201526064015b60405180910390fd5b505b50505b50505050565b6104436105d2565b61044c82610676565b610456828261067e565b5050565b5f61046361073f565b505f516020610d1a5f395f51905f5290565b61047d610788565b6104865f6107e3565b565b7ff0c57e16840df040f15088dc2f81fe391c3923bec73e23a9662efc9c229c6a008054600160401b810460ff16159067ffffffffffffffff165f811580156104cd5750825b90505f8267ffffffffffffffff1660011480156104e95750303b155b9050811580156104f7575080155b156105155760405163f92ee8a960e01b815260040160405180910390fd5b845467ffffffffffffffff19166001178555831561053f57845460ff60401b1916600160401b1785555b61054833610853565b831561058e57845460ff60401b19168555604051600181527fc7f505b2f371ae2175ee4913f4499e1f2633a7b5936321eed1cdaeb6115181d29060200160405180910390a15b5050505050565b61059d610788565b6001600160a01b0381166105c657604051631e4fbdf760e01b81525f6004820152602401610427565b6105cf816107e3565b50565b306001600160a01b037f000000000000000000000000000000000000000000000000000000000000000016148061065857507f00000000000000000000000000000000000000000000000000000000000000006001600160a01b031661064c5f516020610d1a5f395f51905f52546001600160a01b031690565b6001600160a01b031614155b156104865760405163703e46dd60e11b815260040160405180910390fd5b6105cf610788565b816001600160a01b03166352d1902d6040518163ffffffff1660e01b8152600401602060405180830381865afa9250505080156106d8575060408051601f3d908101601f191682019092526106d591810190610ce7565b60015b61070057604051634c9c8ce360e01b81526001600160a01b0383166004820152602401610427565b5f516020610d1a5f395f51905f52811461073057604051632a87526960e21b815260048101829052602401610427565b61073a8383610864565b505050565b306001600160a01b037f000000000000000000000000000000000000000000000000000000000000000016146104865760405163703e46dd60e11b815260040160405180910390fd5b336107ba7f9016d09d72d40fdae2fd8ceac6b6234c7706214fd39c1cd1e609a0528c199300546001600160a01b031690565b6001600160a01b0316146104865760405163118cdaa760e01b8152336004820152602401610427565b7f9016d09d72d40fdae2fd8ceac6b6234c7706214fd39c1cd1e609a0528c19930080546001600160a01b031981166001600160a01b03848116918217845560405192169182907f8be0079c531659141344cd1fd0a4f28419497f9722a3daafe3b4186f6b6457e0905f90a3505050565b61085b6108b9565b6105cf81610902565b61086d8261090a565b6040516001600160a01b038316907fbc7cd75a20ee27fd9adebab32041f755214dbc6bffa90cc0225b39da2e5c2d3b905f90a28051156108b15761073a828261096d565b6104566109e1565b7ff0c57e16840df040f15088dc2f81fe391c3923bec73e23a9662efc9c229c6a0054600160401b900460ff1661048657604051631afcd79f60e31b815260040160405180910390fd5b61059d6108b9565b806001600160a01b03163b5f0361093f57604051634c9c8ce360e01b81526001600160a01b0382166004820152602401610427565b5f516020610d1a5f395f51905f5280546001600160a01b0319166001600160a01b0392909216919091179055565b60605f5f846001600160a01b0316846040516109899190610cfe565b5f60405180830381855af49150503d805f81146109c1576040519150601f19603f3d011682016040523d82523d5f602084013e6109c6565b606091505b50915091506109d6858383610a00565b925050505b92915050565b34156104865760405163b398979f60e01b815260040160405180910390fd5b606082610a1557610a1082610a5f565b610a58565b8151158015610a2c57506001600160a01b0384163b155b15610a5557604051639996b31560e01b81526001600160a01b0385166004820152602401610427565b50805b9392505050565b805115610a6f5780518082602001fd5b60405163d6bda27560e01b815260040160405180910390fd5b5f5f83601f840112610a98575f5ffd5b50813567ffffffffffffffff811115610aaf575f5ffd5b6020830191508360208260051b8501011115610ac9575f5ffd5b9250929050565b5f5f5f5f60408587031215610ae3575f5ffd5b843567ffffffffffffffff811115610af9575f5ffd5b610b0587828801610a88565b909550935050602085013567ffffffffffffffff811115610b24575f5ffd5b610b3087828801610a88565b95989497509550505050565b6001600160a01b03811681146105cf575f5ffd5b634e487b7160e01b5f52604160045260245ffd5b5f5f60408385031215610b75575f5ffd5b8235610b8081610b3c565b9150602083013567ffffffffffffffff811115610b9b575f5ffd5b8301601f81018513610bab575f5ffd5b803567ffffffffffffffff811115610bc557610bc5610b50565b604051601f8201601f19908116603f0116810167ffffffffffffffff81118282101715610bf457610bf4610b50565b604052818152828201602001871015610c0b575f5ffd5b816020840160208301375f602083830101528093505050509250929050565b5f5b83811015610c44578181015183820152602001610c2c565b50505f910152565b602081525f8251806020840152610c6a816040850160208701610c2a565b601f01601f19169190910160400192915050565b5f60208284031215610c8e575f5ffd5b8135610a5881610b3c565b634e487b7160e01b5f52603260045260245ffd5b634e487b7160e01b5f52601160045260245ffd5b808201808211156109db576109db610cad565b818103818111156109db576109db610cad565b5f60208284031215610cf7575f5ffd5b5051919050565b5f8251610d0f818460208701610c2a565b919091019291505056fe360894a13ba1a3210667c828492db98dca3e2076cc3735a920a3ca505d382bbca26469706673582212209f058e289072ced37e8041de5833fba2ac092646a2a5e68c82669479a5ad26be64736f6c634300081b0033",
		"linkReferences": {}
	},
	"methodIdentifiers": {
		"UPGRADE_INTERFACE_VERSION()": "ad3cb1cc",
		"initialize()": "8129fc1c",
		"owner()": "8da5cb5b",
		"pay(address[],uint256[])": "084ce708",
		"proxiableUUID()": "52d1902d",
		"renounceOwnership()": "715018a6",
		"transferOwnership(address)": "f2fde38b",
		"upgradeToAndCall(address,bytes)": "4f1ef286",
		"version()": "54fd4d50"
	},
	"id": 36
}