{
	"abi": [
		{
			"type": "function",
			"name": "UPGRADE_INTERFACE_VERSION",
			"inputs": [],
			"outputs": [
				{
					"name": "",
					"type": "string",
					"internalType": "string"
				}
			],
			"stateMutability": "view"
		},
		{
			"type": "function",
			"name": "addUsername",
			"inputs": [
				{
					"name": "user",
					"type": "address",
					"internalType": "address"
				},
				{
					"name": "username",
					"type": "string",
					"internalType": "string"
				}
			],
			"outputs": [],
			"stateMutability": "nonpayable"
		},
		{
			"type": "function",
			"name": "getUsername",
			"inputs": [
				{
					"name": "user",
					"type": "address",
					"internalType": "address"
				}
			],
			"outputs": [
				{
					"name": "",
					"type": "string",
					"internalType": "string"
				}
			],
			"stateMutability": "view"
		},
		{
			"type": "function",
			"name": "getUsernames",
			"inputs": [
				{
					"name": "addresses",
					"type": "address[]",
					"internalType": "address[]"
				}
			],
			"outputs": [
				{
					"name": "",
					"type": "tuple[]",
					"internalType": "struct User[]",
					"components": [
						{
							"name": "addr",
							"type": "address",
							"internalType": "address"
						},
						{
							"name": "username",
							"type": "string",
							"internalType": "string"
						}
					]
				}
			],
			"stateMutability": "view"
		},
		{
			"type": "function",
			"name": "initialize",
			"inputs": [],
			"outputs": [],
			"stateMutability": "nonpayable"
		},
		{
			"type": "function",
			"name": "isUsernameRegistered",
			"inputs": [
				{
					"name": "username",
					"type": "string",
					"internalType": "string"
				}
			],
			"outputs": [
				{
					"name": "",
					"type": "bool",
					"internalType": "bool"
				}
			],
			"stateMutability": "view"
		},
		{
			"type": "function",
			"name": "isUsernameValid",
			"inputs": [
				{
					"name": "username",
					"type": "string",
					"internalType": "string"
				}
			],
			"outputs": [
				{
					"name": "",
					"type": "bool",
					"internalType": "bool"
				}
			],
			"stateMutability": "pure"
		},
		{
			"type": "function",
			"name": "proxiableUUID",
			"inputs": [],
			"outputs": [
				{
					"name": "",
					"type": "bytes32",
					"internalType": "bytes32"
				}
			],
			"stateMutability": "view"
		},
		{
			"type": "function",
			"name": "registerUsername",
			"inputs": [
				{
					"name": "username",
					"type": "string",
					"internalType": "string"
				}
			],
			"outputs": [],
			"stateMutability": "nonpayable"
		},
		{
			"type": "function",
			"name": "resignUsername",
			"inputs": [],
			"outputs": [],
			"stateMutability": "nonpayable"
		},
		{
			"type": "function",
			"name": "upgradeToAndCall",
			"inputs": [
				{
					"name": "newImplementation",
					"type": "address",
					"internalType": "address"
				},
				{
					"name": "data",
					"type": "bytes",
					"internalType": "bytes"
				}
			],
			"outputs": [],
			"stateMutability": "payable"
		},
		{
			"type": "function",
			"name": "version",
			"inputs": [],
			"outputs": [
				{
					"name": "",
					"type": "uint256",
					"internalType": "uint256"
				}
			],
			"stateMutability": "pure"
		},
		{
			"type": "event",
			"name": "Initialized",
			"inputs": [
				{
					"name": "version",
					"type": "uint64",
					"indexed": false,
					"internalType": "uint64"
				}
			],
			"anonymous": false
		},
		{
			"type": "event",
			"name": "Upgraded",
			"inputs": [
				{
					"name": "implementation",
					"type": "address",
					"indexed": true,
					"internalType": "address"
				}
			],
			"anonymous": false
		},
		{
			"type": "event",
			"name": "UsernameRegistered",
			"inputs": [
				{
					"name": "addr",
					"type": "address",
					"indexed": false,
					"internalType": "address"
				},
				{
					"name": "username",
					"type": "string",
					"indexed": false,
					"internalType": "string"
				},
				{
					"name": "previousUsername",
					"type": "string",
					"indexed": false,
					"internalType": "string"
				}
			],
			"anonymous": false
		},
		{
			"type": "event",
			"name": "UsernameResigned",
			"inputs": [
				{
					"name": "addr",
					"type": "address",
					"indexed": false,
					"internalType": "address"
				},
				{
					"name": "username",
					"type": "string",
					"indexed": false,
					"internalType": "string"
				}
			],
			"anonymous": false
		},
		{
			"type": "error",
			"name": "AddressEmptyCode",
			"inputs": [
				{
					"name": "target",
					"type": "address",
					"internalType": "address"
				}
			]
		},
		{
			"type": "error",
			"name": "CallerIsNotOwner",
			"inputs": []
		},
		{
			"type": "error",
			"name": "CallerIsOwner",
			"inputs": []
		},
		{
			"type": "error",
			"name": "ERC1967InvalidImplementation",
			"inputs": [
				{
					"name": "implementation",
					"type": "address",
					"internalType": "address"
				}
			]
		},
		{
			"type": "error",
			"name": "ERC1967NonPayable",
			"inputs": []
		},
		{
			"type": "error",
			"name": "FailedCall",
			"inputs": []
		},
		{
			"type": "error",
			"name": "InvalidInitialization",
			"inputs": []
		},
		{
			"type": "error",
			"name": "InvalidUsername",
			"inputs": []
		},
		{
			"type": "error",
			"name": "NotInitializing",
			"inputs": []
		},
		{
			"type": "error",
			"name": "TakenUsername",
			"inputs": []
		},
		{
			"type": "error",
			"name": "UUPSUnauthorizedCallContext",
			"inputs": []
		},
		{
			"type": "error",
			"name": "UUPSUnsupportedProxiableUUID",
			"inputs": [
				{
					"name": "slot",
					"type": "bytes32",
					"internalType": "bytes32"
				}
			]
		},
		{
			"type": "error",
			"name": "UsernameNotRegistered",
			"inputs": []
		}
	],
	"bytecode": {
		"object": "0x60a0604052306080523480156012575f5ffd5b506080516116b26100395f395f8181610cc701528181610cf00152610e5801526116b25ff3fe6080604052600436106100a5575f3560e01c80638129fc1c116100625780638129fc1c1461017c578063ad3cb1cc14610190578063ce43c032146101cd578063e5abdcef146101ec578063ebed6dab1461020b578063f5ab196e1461021f575f5ffd5b8063117720be146100a957806336a94134146100dd5780634f1ef286146100fe57806352ac20911461011157806352d1902d1461014757806354fd4d5014610169575b5f5ffd5b3480156100b4575f5ffd5b506100c86100c336600461115a565b61024b565b60405190151581526020015b60405180910390f35b3480156100e8575f5ffd5b506100fc6100f736600461115a565b61025b565b005b6100fc61010c3660046111af565b6102bb565b34801561011c575f5ffd5b506100c861012b36600461115a565b80516020918201205f9081526002909152604090205460ff1690565b348015610152575f5ffd5b5061015b6102d6565b6040519081526020016100d4565b348015610174575f5ffd5b50600161015b565b348015610187575f5ffd5b506100fc6102f1565b34801561019b575f5ffd5b506101c0604051806040016040528060058152602001640352e302e360dc1b81525081565b6040516100d4919061125a565b3480156101d8575f5ffd5b506101c06101e736600461126c565b610407565b3480156101f7575f5ffd5b506100fc610206366004611285565b6104b0565b348015610216575f5ffd5b506100fc61051b565b34801561022a575f5ffd5b5061023e6102393660046112c6565b610673565b6040516100d49190611337565b5f61025582610938565b92915050565b5f546001600160a01b0316330361028557604051630c148c4960e31b815260040160405180910390fd5b8061028f81610938565b6102ac57604051630a1de65160e31b815260040160405180910390fd5b6102b7338383610b49565b5050565b6102c3610cbc565b6102cc82610d62565b6102b78282610d8c565b5f6102df610e4d565b505f51602061165d5f395f51905f5290565b7ff0c57e16840df040f15088dc2f81fe391c3923bec73e23a9662efc9c229c6a008054600160401b810460ff16159067ffffffffffffffff165f811580156103365750825b90505f8267ffffffffffffffff1660011480156103525750303b155b905081158015610360575080155b1561037e5760405163f92ee8a960e01b815260040160405180910390fd5b845467ffffffffffffffff1916600117855583156103a857845460ff60401b1916600160401b1785555b5f80546001600160a01b03191633179055831561040057845460ff60401b19168555604051600181527fc7f505b2f371ae2175ee4913f4499e1f2633a7b5936321eed1cdaeb6115181d2906020015b60405180910390a15b5050505050565b6001600160a01b0381165f90815260016020526040902080546060919061042d906113ba565b80601f0160208091040260200160405190810160405280929190818152602001828054610459906113ba565b80156104a45780601f1061047b576101008083540402835291602001916104a4565b820191905f5260205f20905b81548152906001019060200180831161048757829003601f168201915b50505050509050919050565b5f546001600160a01b031633146104da57604051636db2465f60e01b815260040160405180910390fd5b80518190600111806104ed575060148151115b1561050b57604051630a1de65160e31b815260040160405180910390fd5b610516838383610b49565b505050565b335f9081526001602052604081208054610534906113ba565b80601f0160208091040260200160405190810160405280929190818152602001828054610560906113ba565b80156105ab5780601f10610582576101008083540402835291602001916105ab565b820191905f5260205f20905b81548152906001019060200180831161058e57829003601f168201915b505050505090505f8151111561065757335f90815260016020526040808220905160029183916105db91906113f2565b604080519182900390912082526020808301939093529081015f908120805460ff1916941515949094179093553383526001909152812061061b91611067565b7ff5a79d28213d53340730f0c5a952f4809e33db20cbe21a2a0b5fa7d77fa107b3338260405161064c929190611463565b60405180910390a150565b6040516341c5396760e01b815260040160405180910390fd5b50565b60605f8267ffffffffffffffff81111561068f5761068f6110b1565b6040519080825280602002602001820160405280156106d457816020015b604080518082019091525f8152606060208201528152602001906001900390816106ad5790505b5090505f805b848110156108825760015f8787848181106106f7576106f7611486565b905060200201602081019061070c919061126c565b6001600160a01b03166001600160a01b031681526020019081526020015f208054610736906113ba565b15905061087a57604051806040016040528087878481811061075a5761075a611486565b905060200201602081019061076f919061126c565b6001600160a01b0316815260200160015f89898681811061079257610792611486565b90506020020160208101906107a7919061126c565b6001600160a01b03166001600160a01b031681526020019081526020015f2080546107d1906113ba565b80601f01602080910402602001604051908101604052809291908181526020018280546107fd906113ba565b80156108485780601f1061081f57610100808354040283529160200191610848565b820191905f5260205f20905b81548152906001019060200180831161082b57829003601f168201915b505050505081525083838061085c906114ae565b94508151811061086e5761086e611486565b60200260200101819052505b6001016106da565b505f8167ffffffffffffffff81111561089d5761089d6110b1565b6040519080825280602002602001820160405280156108e257816020015b604080518082019091525f8152606060208201528152602001906001900390816108bb5790505b5090505f5b8281101561092e5783818151811061090157610901611486565b602002602001015182828151811061091b5761091b611486565b60209081029190910101526001016108e7565b5095945050505050565b5f60018251108061094a575060148251115b1561095657505f919050565b815f8151811061096857610968611486565b6020910101516001600160f81b031916605f60f81b14806109ba5750816001835161099391906114c6565b815181106109a3576109a3611486565b6020910101516001600160f81b031916605f60f81b145b156109c657505f919050565b5f5b8251811015610b4057603060f81b8382815181106109e8576109e8611486565b01602001516001600160f81b03191610801590610a295750603960f81b838281518110610a1757610a17611486565b01602001516001600160f81b03191611155b158015610a8b5750606160f81b838281518110610a4857610a48611486565b01602001516001600160f81b03191610801590610a895750607a60f81b838281518110610a7757610a77611486565b01602001516001600160f81b03191611155b155b8015610abc5750828181518110610aa457610aa4611486565b6020910101516001600160f81b031916605f60f81b14155b15610ac957505f92915050565b828181518110610adb57610adb611486565b6020910101516001600160f81b031916605f60f81b148015610b2b575082610b048260016114d9565b81518110610b1457610b14611486565b6020910101516001600160f81b031916605f60f81b145b15610b3857505f92915050565b6001016109c8565b50600192915050565b80516020808301919091205f818152600290925260409091205460ff1615610b845760405163506517a760e11b815260040160405180910390fd5b6001600160a01b0384165f9081526001602052604081208054610ba6906113ba565b80601f0160208091040260200160405190810160405280929190818152602001828054610bd2906113ba565b8015610c1d5780601f10610bf457610100808354040283529160200191610c1d565b820191905f5260205f20905b815481529060010190602001808311610c0057829003601f168201915b505050505090505f81511115610c4e5780516020808301919091205f908152600290915260409020805460ff191690555b6001600160a01b0385165f908152600160205260409020610c6f8582611530565b505f8281526002602052604090819020805460ff19166001179055517fdc393f1f31882fea068a12acfed8ed6e9f7e88a6ed213355b5afb78ad76a7045906103f7908790879085906115eb565b306001600160a01b037f0000000000000000000000000000000000000000000000000000000000000000161480610d4257507f00000000000000000000000000000000000000000000000000000000000000006001600160a01b0316610d365f51602061165d5f395f51905f52546001600160a01b031690565b6001600160a01b031614155b15610d605760405163703e46dd60e11b815260040160405180910390fd5b565b5f546001600160a01b0316331461067057604051636db2465f60e01b815260040160405180910390fd5b816001600160a01b03166352d1902d6040518163ffffffff1660e01b8152600401602060405180830381865afa925050508015610de6575060408051601f3d908101601f19168201909252610de39181019061162a565b60015b610e1357604051634c9c8ce360e01b81526001600160a01b03831660048201526024015b60405180910390fd5b5f51602061165d5f395f51905f528114610e4357604051632a87526960e21b815260048101829052602401610e0a565b6105168383610e96565b306001600160a01b037f00000000000000000000000000000000000000000000000000000000000000001614610d605760405163703e46dd60e11b815260040160405180910390fd5b610e9f82610eeb565b6040516001600160a01b038316907fbc7cd75a20ee27fd9adebab32041f755214dbc6bffa90cc0225b39da2e5c2d3b905f90a2805115610ee3576105168282610f4e565b6102b7610fc0565b806001600160a01b03163b5f03610f2057604051634c9c8ce360e01b81526001600160a01b0382166004820152602401610e0a565b5f51602061165d5f395f51905f5280546001600160a01b0319166001600160a01b0392909216919091179055565b60605f5f846001600160a01b031684604051610f6a9190611641565b5f60405180830381855af49150503d805f8114610fa2576040519150601f19603f3d011682016040523d82523d5f602084013e610fa7565b606091505b5091509150610fb7858383610fdf565b95945050505050565b3415610d605760405163b398979f60e01b815260040160405180910390fd5b606082610ff457610fef8261103e565b611037565b815115801561100b57506001600160a01b0384163b155b1561103457604051639996b31560e01b81526001600160a01b0385166004820152602401610e0a565b50805b9392505050565b80511561104e5780518082602001fd5b60405163d6bda27560e01b815260040160405180910390fd5b508054611073906113ba565b5f825580601f10611082575050565b601f0160209004905f5260205f209081019061067091905b808211156110ad575f815560010161109a565b5090565b634e487b7160e01b5f52604160045260245ffd5b5f5f67ffffffffffffffff8411156110df576110df6110b1565b50604051601f19601f85018116603f0116810181811067ffffffffffffffff8211171561110e5761110e6110b1565b604052838152905080828401851015611125575f5ffd5b838360208301375f60208583010152509392505050565b5f82601f83011261114b575f5ffd5b611037838335602085016110c5565b5f6020828403121561116a575f5ffd5b813567ffffffffffffffff811115611180575f5ffd5b61118c8482850161113c565b949350505050565b80356001600160a01b03811681146111aa575f5ffd5b919050565b5f5f604083850312156111c0575f5ffd5b6111c983611194565b9150602083013567ffffffffffffffff8111156111e4575f5ffd5b8301601f810185136111f4575f5ffd5b611203858235602084016110c5565b9150509250929050565b5f5b8381101561122757818101518382015260200161120f565b50505f910152565b5f815180845261124681602086016020860161120d565b601f01601f19169290920160200192915050565b602081525f611037602083018461122f565b5f6020828403121561127c575f5ffd5b61103782611194565b5f5f60408385031215611296575f5ffd5b61129f83611194565b9150602083013567ffffffffffffffff8111156112ba575f5ffd5b6112038582860161113c565b5f5f602083850312156112d7575f5ffd5b823567ffffffffffffffff8111156112ed575f5ffd5b8301601f810185136112fd575f5ffd5b803567ffffffffffffffff811115611313575f5ffd5b8560208260051b8401011115611327575f5ffd5b6020919091019590945092505050565b5f602082016020835280845180835260408501915060408160051b8601019250602086015f5b828110156113ae57868503603f19018452815180516001600160a01b031686526020908101516040918701829052906113989087018261122f565b955050602093840193919091019060010161135d565b50929695505050505050565b600181811c908216806113ce57607f821691505b6020821081036113ec57634e487b7160e01b5f52602260045260245ffd5b50919050565b5f5f83546113ff816113ba565b600182168015611416576001811461142b57611458565b60ff1983168652811515820286019350611458565b865f5260205f205f5b8381101561145057815488820152600190910190602001611434565b505081860193505b509195945050505050565b6001600160a01b03831681526040602082018190525f9061118c9083018461122f565b634e487b7160e01b5f52603260045260245ffd5b634e487b7160e01b5f52601160045260245ffd5b5f600182016114bf576114bf61149a565b5060010190565b818103818111156102555761025561149a565b808201808211156102555761025561149a565b601f82111561051657805f5260205f20601f840160051c810160208510156115115750805b601f840160051c820191505b81811015610400575f815560010161151d565b815167ffffffffffffffff81111561154a5761154a6110b1565b61155e8161155884546113ba565b846114ec565b6020601f821160018114611590575f83156115795750848201515b5f19600385901b1c1916600184901b178455610400565b5f84815260208120601f198516915b828110156115bf578785015182556020948501946001909201910161159f565b50848210156115dc57868401515f19600387901b60f8161c191681555b50505050600190811b01905550565b6001600160a01b03841681526060602082018190525f9061160e9083018561122f565b8281036040840152611620818561122f565b9695505050505050565b5f6020828403121561163a575f5ffd5b5051919050565b5f825161165281846020870161120d565b919091019291505056fe360894a13ba1a3210667c828492db98dca3e2076cc3735a920a3ca505d382bbca2646970667358221220d2fc5411a958aafe626468e24f4ba4b0e43b042d930d34ca7935738c7bdc1d5664736f6c634300081b0033",
		"linkReferences": {}
	},
	"methodIdentifiers": {
		"UPGRADE_INTERFACE_VERSION()": "ad3cb1cc",
		"addUsername(address,string)": "e5abdcef",
		"getUsername(address)": "ce43c032",
		"getUsernames(address[])": "f5ab196e",
		"initialize()": "8129fc1c",
		"isUsernameRegistered(string)": "52ac2091",
		"isUsernameValid(string)": "117720be",
		"proxiableUUID()": "52d1902d",
		"registerUsername(string)": "36a94134",
		"resignUsername()": "ebed6dab",
		"upgradeToAndCall(address,bytes)": "4f1ef286",
		"version()": "54fd4d50"
	},
	"id": 34
}