{
	"abi": [
		{
			"type": "function",
			"name": "UPGRADE_INTERFACE_VERSION",
			"inputs": [],
			"outputs": [
				{
					"name": "",
					"type": "string",
					"internalType": "string"
				}
			],
			"stateMutability": "view"
		},
		{
			"type": "function",
			"name": "addUsername",
			"inputs": [
				{
					"name": "user",
					"type": "address",
					"internalType": "address"
				},
				{
					"name": "username",
					"type": "string",
					"internalType": "string"
				}
			],
			"outputs": [],
			"stateMutability": "nonpayable"
		},
		{
			"type": "function",
			"name": "getUsername",
			"inputs": [
				{
					"name": "user",
					"type": "address",
					"internalType": "address"
				}
			],
			"outputs": [
				{
					"name": "",
					"type": "string",
					"internalType": "string"
				}
			],
			"stateMutability": "view"
		},
		{
			"type": "function",
			"name": "getUsernames",
			"inputs": [
				{
					"name": "addresses",
					"type": "address[]",
					"internalType": "address[]"
				}
			],
			"outputs": [
				{
					"name": "",
					"type": "tuple[]",
					"internalType": "struct User[]",
					"components": [
						{
							"name": "addr",
							"type": "address",
							"internalType": "address"
						},
						{
							"name": "username",
							"type": "string",
							"internalType": "string"
						}
					]
				}
			],
			"stateMutability": "view"
		},
		{
			"type": "function",
			"name": "initialize",
			"inputs": [],
			"outputs": [],
			"stateMutability": "nonpayable"
		},
		{
			"type": "function",
			"name": "isUsernameRegistered",
			"inputs": [
				{
					"name": "username",
					"type": "string",
					"internalType": "string"
				}
			],
			"outputs": [
				{
					"name": "",
					"type": "bool",
					"internalType": "bool"
				}
			],
			"stateMutability": "view"
		},
		{
			"type": "function",
			"name": "isUsernameValid",
			"inputs": [
				{
					"name": "username",
					"type": "string",
					"internalType": "string"
				}
			],
			"outputs": [
				{
					"name": "",
					"type": "bool",
					"internalType": "bool"
				}
			],
			"stateMutability": "pure"
		},
		{
			"type": "function",
			"name": "owner",
			"inputs": [],
			"outputs": [
				{
					"name": "",
					"type": "address",
					"internalType": "address"
				}
			],
			"stateMutability": "view"
		},
		{
			"type": "function",
			"name": "proxiableUUID",
			"inputs": [],
			"outputs": [
				{
					"name": "",
					"type": "bytes32",
					"internalType": "bytes32"
				}
			],
			"stateMutability": "view"
		},
		{
			"type": "function",
			"name": "registerUsername",
			"inputs": [
				{
					"name": "username",
					"type": "string",
					"internalType": "string"
				}
			],
			"outputs": [],
			"stateMutability": "nonpayable"
		},
		{
			"type": "function",
			"name": "renounceOwnership",
			"inputs": [],
			"outputs": [],
			"stateMutability": "nonpayable"
		},
		{
			"type": "function",
			"name": "resignUsername",
			"inputs": [],
			"outputs": [],
			"stateMutability": "nonpayable"
		},
		{
			"type": "function",
			"name": "transferOwnership",
			"inputs": [
				{
					"name": "newOwner",
					"type": "address",
					"internalType": "address"
				}
			],
			"outputs": [],
			"stateMutability": "nonpayable"
		},
		{
			"type": "function",
			"name": "upgradeToAndCall",
			"inputs": [
				{
					"name": "newImplementation",
					"type": "address",
					"internalType": "address"
				},
				{
					"name": "data",
					"type": "bytes",
					"internalType": "bytes"
				}
			],
			"outputs": [],
			"stateMutability": "payable"
		},
		{
			"type": "function",
			"name": "version",
			"inputs": [],
			"outputs": [
				{
					"name": "",
					"type": "uint256",
					"internalType": "uint256"
				}
			],
			"stateMutability": "pure"
		},
		{
			"type": "event",
			"name": "Initialized",
			"inputs": [
				{
					"name": "version",
					"type": "uint64",
					"indexed": false,
					"internalType": "uint64"
				}
			],
			"anonymous": false
		},
		{
			"type": "event",
			"name": "OwnershipTransferred",
			"inputs": [
				{
					"name": "previousOwner",
					"type": "address",
					"indexed": true,
					"internalType": "address"
				},
				{
					"name": "newOwner",
					"type": "address",
					"indexed": true,
					"internalType": "address"
				}
			],
			"anonymous": false
		},
		{
			"type": "event",
			"name": "Upgraded",
			"inputs": [
				{
					"name": "implementation",
					"type": "address",
					"indexed": true,
					"internalType": "address"
				}
			],
			"anonymous": false
		},
		{
			"type": "event",
			"name": "UsernameRegistered",
			"inputs": [
				{
					"name": "addr",
					"type": "address",
					"indexed": false,
					"internalType": "address"
				},
				{
					"name": "username",
					"type": "string",
					"indexed": false,
					"internalType": "string"
				},
				{
					"name": "previousUsername",
					"type": "string",
					"indexed": false,
					"internalType": "string"
				}
			],
			"anonymous": false
		},
		{
			"type": "event",
			"name": "UsernameResigned",
			"inputs": [
				{
					"name": "addr",
					"type": "address",
					"indexed": false,
					"internalType": "address"
				},
				{
					"name": "username",
					"type": "string",
					"indexed": false,
					"internalType": "string"
				}
			],
			"anonymous": false
		},
		{
			"type": "error",
			"name": "AddressEmptyCode",
			"inputs": [
				{
					"name": "target",
					"type": "address",
					"internalType": "address"
				}
			]
		},
		{
			"type": "error",
			"name": "ERC1967InvalidImplementation",
			"inputs": [
				{
					"name": "implementation",
					"type": "address",
					"internalType": "address"
				}
			]
		},
		{
			"type": "error",
			"name": "ERC1967NonPayable",
			"inputs": []
		},
		{
			"type": "error",
			"name": "FailedCall",
			"inputs": []
		},
		{
			"type": "error",
			"name": "InvalidInitialization",
			"inputs": []
		},
		{
			"type": "error",
			"name": "InvalidUsername",
			"inputs": []
		},
		{
			"type": "error",
			"name": "NotInitializing",
			"inputs": []
		},
		{
			"type": "error",
			"name": "OwnableInvalidOwner",
			"inputs": [
				{
					"name": "owner",
					"type": "address",
					"internalType": "address"
				}
			]
		},
		{
			"type": "error",
			"name": "OwnableUnauthorizedAccount",
			"inputs": [
				{
					"name": "account",
					"type": "address",
					"internalType": "address"
				}
			]
		},
		{
			"type": "error",
			"name": "TakenUsername",
			"inputs": []
		},
		{
			"type": "error",
			"name": "UUPSUnauthorizedCallContext",
			"inputs": []
		},
		{
			"type": "error",
			"name": "UUPSUnsupportedProxiableUUID",
			"inputs": [
				{
					"name": "slot",
					"type": "bytes32",
					"internalType": "bytes32"
				}
			]
		},
		{
			"type": "error",
			"name": "UsernameNotRegistered",
			"inputs": []
		}
	],
	"bytecode": {
		"object": "0x60a0604052306080523480156012575f5ffd5b5060805161186b6100395f395f8181610d7c01528181610da50152610ee4015261186b5ff3fe6080604052600436106100e4575f3560e01c80638129fc1c11610087578063e5abdcef11610057578063e5abdcef14610285578063ebed6dab146102a4578063f2fde38b146102b8578063f5ab196e146102d7575f5ffd5b80638129fc1c146101cf5780638da5cb5b146101e3578063ad3cb1cc14610229578063ce43c03214610266575f5ffd5b806352ac2091116100c257806352ac20911461015057806352d1902d1461018657806354fd4d50146101a8578063715018a6146101bb575f5ffd5b8063117720be146100e857806336a941341461011c5780634f1ef2861461013d575b5f5ffd5b3480156100f3575f5ffd5b50610107610102366004611313565b610303565b60405190151581526020015b60405180910390f35b348015610127575f5ffd5b5061013b610136366004611313565b610313565b005b61013b61014b366004611368565b610349565b34801561015b575f5ffd5b5061010761016a366004611313565b80516020918201205f9081526001909152604090205460ff1690565b348015610191575f5ffd5b5061019a610364565b604051908152602001610113565b3480156101b3575f5ffd5b50600161019a565b3480156101c6575f5ffd5b5061013b61037f565b3480156101da575f5ffd5b5061013b610392565b3480156101ee575f5ffd5b507f9016d09d72d40fdae2fd8ceac6b6234c7706214fd39c1cd1e609a0528c199300546040516001600160a01b039091168152602001610113565b348015610234575f5ffd5b50610259604051806040016040528060058152602001640352e302e360dc1b81525081565b6040516101139190611413565b348015610271575f5ffd5b50610259610280366004611425565b6104a0565b348015610290575f5ffd5b5061013b61029f36600461143e565b610549565b3480156102af575f5ffd5b5061013b610592565b3480156102c3575f5ffd5b5061013b6102d2366004611425565b6106e9565b3480156102e2575f5ffd5b506102f66102f136600461147f565b610728565b60405161011391906114f0565b5f61030d826109eb565b92915050565b8061031d816109eb565b61033a57604051630a1de65160e31b815260040160405180910390fd5b610345338383610bfc565b5050565b610351610d71565b61035a82610e15565b6103458282610e1d565b5f61036d610ed9565b505f5160206118165f395f51905f5290565b610387610f22565b6103905f610f7d565b565b7ff0c57e16840df040f15088dc2f81fe391c3923bec73e23a9662efc9c229c6a008054600160401b810460ff16159067ffffffffffffffff165f811580156103d75750825b90505f8267ffffffffffffffff1660011480156103f35750303b155b905081158015610401575080155b1561041f5760405163f92ee8a960e01b815260040160405180910390fd5b845467ffffffffffffffff19166001178555831561044957845460ff60401b1916600160401b1785555b61045233610fed565b831561049957845460ff60401b19168555604051600181527fc7f505b2f371ae2175ee4913f4499e1f2633a7b5936321eed1cdaeb6115181d2906020015b60405180910390a15b5050505050565b6001600160a01b0381165f9081526020819052604090208054606091906104c690611573565b80601f01602080910402602001604051908101604052809291908181526020018280546104f290611573565b801561053d5780601f106105145761010080835404028352916020019161053d565b820191905f5260205f20905b81548152906001019060200180831161052057829003601f168201915b50505050509050919050565b610551610f22565b8051819060011180610564575060148151115b1561058257604051630a1de65160e31b815260040160405180910390fd5b61058d838383610bfc565b505050565b335f90815260208190526040812080546105ab90611573565b80601f01602080910402602001604051908101604052809291908181526020018280546105d790611573565b80156106225780601f106105f957610100808354040283529160200191610622565b820191905f5260205f20905b81548152906001019060200180831161060557829003601f168201915b505050505090505f815111156106cd57335f908152602081905260408082209051600191839161065291906115ab565b604080519182900390912082526020808301939093529081015f908120805460ff19169415159490941790935533835290829052812061069191611220565b7ff5a79d28213d53340730f0c5a952f4809e33db20cbe21a2a0b5fa7d77fa107b333826040516106c292919061161c565b60405180910390a150565b6040516341c5396760e01b815260040160405180910390fd5b50565b6106f1610f22565b6001600160a01b03811661071f57604051631e4fbdf760e01b81525f60048201526024015b60405180910390fd5b6106e681610f7d565b60605f8267ffffffffffffffff8111156107445761074461126a565b60405190808252806020026020018201604052801561078957816020015b604080518082019091525f8152606060208201528152602001906001900390816107625790505b5090505f805b84811015610935575f5f8787848181106107ab576107ab61163f565b90506020020160208101906107c09190611425565b6001600160a01b03166001600160a01b031681526020019081526020015f2080546107ea90611573565b15905061092d57604051806040016040528087878481811061080e5761080e61163f565b90506020020160208101906108239190611425565b6001600160a01b031681526020015f5f8989868181106108455761084561163f565b905060200201602081019061085a9190611425565b6001600160a01b03166001600160a01b031681526020019081526020015f20805461088490611573565b80601f01602080910402602001604051908101604052809291908181526020018280546108b090611573565b80156108fb5780601f106108d2576101008083540402835291602001916108fb565b820191905f5260205f20905b8154815290600101906020018083116108de57829003601f168201915b505050505081525083838061090f90611667565b9450815181106109215761092161163f565b60200260200101819052505b60010161078f565b505f8167ffffffffffffffff8111156109505761095061126a565b60405190808252806020026020018201604052801561099557816020015b604080518082019091525f81526060602082015281526020019060019003908161096e5790505b5090505f5b828110156109e1578381815181106109b4576109b461163f565b60200260200101518282815181106109ce576109ce61163f565b602090810291909101015260010161099a565b5095945050505050565b5f6001825110806109fd575060148251115b15610a0957505f919050565b815f81518110610a1b57610a1b61163f565b6020910101516001600160f81b031916605f60f81b1480610a6d57508160018351610a46919061167f565b81518110610a5657610a5661163f565b6020910101516001600160f81b031916605f60f81b145b15610a7957505f919050565b5f5b8251811015610bf357603060f81b838281518110610a9b57610a9b61163f565b01602001516001600160f81b03191610801590610adc5750603960f81b838281518110610aca57610aca61163f565b01602001516001600160f81b03191611155b158015610b3e5750606160f81b838281518110610afb57610afb61163f565b01602001516001600160f81b03191610801590610b3c5750607a60f81b838281518110610b2a57610b2a61163f565b01602001516001600160f81b03191611155b155b8015610b6f5750828181518110610b5757610b5761163f565b6020910101516001600160f81b031916605f60f81b14155b15610b7c57505f92915050565b828181518110610b8e57610b8e61163f565b6020910101516001600160f81b031916605f60f81b148015610bde575082610bb7826001611692565b81518110610bc757610bc761163f565b6020910101516001600160f81b031916605f60f81b145b15610beb57505f92915050565b600101610a7b565b50600192915050565b80516020808301919091205f818152600190925260409091205460ff1615610c375760405163506517a760e11b815260040160405180910390fd5b6001600160a01b0384165f9081526020819052604081208054610c5990611573565b80601f0160208091040260200160405190810160405280929190818152602001828054610c8590611573565b8015610cd05780601f10610ca757610100808354040283529160200191610cd0565b820191905f5260205f20905b815481529060010190602001808311610cb357829003601f168201915b505050505090505f81511115610d015780516020808301919091205f908152600190915260409020805460ff191690555b6001600160a01b0385165f908152602081905260409020610d2285826116e9565b505f82815260016020819052604091829020805460ff19169091179055517fdc393f1f31882fea068a12acfed8ed6e9f7e88a6ed213355b5afb78ad76a704590610490908790879085906117a4565b306001600160a01b037f0000000000000000000000000000000000000000000000000000000000000000161480610df757507f00000000000000000000000000000000000000000000000000000000000000006001600160a01b0316610deb5f5160206118165f395f51905f52546001600160a01b031690565b6001600160a01b031614155b156103905760405163703e46dd60e11b815260040160405180910390fd5b6106e6610f22565b816001600160a01b03166352d1902d6040518163ffffffff1660e01b8152600401602060405180830381865afa925050508015610e77575060408051601f3d908101601f19168201909252610e74918101906117e3565b60015b610e9f57604051634c9c8ce360e01b81526001600160a01b0383166004820152602401610716565b5f5160206118165f395f51905f528114610ecf57604051632a87526960e21b815260048101829052602401610716565b61058d8383610ffe565b306001600160a01b037f000000000000000000000000000000000000000000000000000000000000000016146103905760405163703e46dd60e11b815260040160405180910390fd5b33610f547f9016d09d72d40fdae2fd8ceac6b6234c7706214fd39c1cd1e609a0528c199300546001600160a01b031690565b6001600160a01b0316146103905760405163118cdaa760e01b8152336004820152602401610716565b7f9016d09d72d40fdae2fd8ceac6b6234c7706214fd39c1cd1e609a0528c19930080546001600160a01b031981166001600160a01b03848116918217845560405192169182907f8be0079c531659141344cd1fd0a4f28419497f9722a3daafe3b4186f6b6457e0905f90a3505050565b610ff5611053565b6106e68161109c565b611007826110a4565b6040516001600160a01b038316907fbc7cd75a20ee27fd9adebab32041f755214dbc6bffa90cc0225b39da2e5c2d3b905f90a280511561104b5761058d8282611107565b610345611179565b7ff0c57e16840df040f15088dc2f81fe391c3923bec73e23a9662efc9c229c6a0054600160401b900460ff1661039057604051631afcd79f60e31b815260040160405180910390fd5b6106f1611053565b806001600160a01b03163b5f036110d957604051634c9c8ce360e01b81526001600160a01b0382166004820152602401610716565b5f5160206118165f395f51905f5280546001600160a01b0319166001600160a01b0392909216919091179055565b60605f5f846001600160a01b03168460405161112391906117fa565b5f60405180830381855af49150503d805f811461115b576040519150601f19603f3d011682016040523d82523d5f602084013e611160565b606091505b5091509150611170858383611198565b95945050505050565b34156103905760405163b398979f60e01b815260040160405180910390fd5b6060826111ad576111a8826111f7565b6111f0565b81511580156111c457506001600160a01b0384163b155b156111ed57604051639996b31560e01b81526001600160a01b0385166004820152602401610716565b50805b9392505050565b8051156112075780518082602001fd5b60405163d6bda27560e01b815260040160405180910390fd5b50805461122c90611573565b5f825580601f1061123b575050565b601f0160209004905f5260205f20908101906106e691905b80821115611266575f8155600101611253565b5090565b634e487b7160e01b5f52604160045260245ffd5b5f5f67ffffffffffffffff8411156112985761129861126a565b50604051601f19601f85018116603f0116810181811067ffffffffffffffff821117156112c7576112c761126a565b6040528381529050808284018510156112de575f5ffd5b838360208301375f60208583010152509392505050565b5f82601f830112611304575f5ffd5b6111f08383356020850161127e565b5f60208284031215611323575f5ffd5b813567ffffffffffffffff811115611339575f5ffd5b611345848285016112f5565b949350505050565b80356001600160a01b0381168114611363575f5ffd5b919050565b5f5f60408385031215611379575f5ffd5b6113828361134d565b9150602083013567ffffffffffffffff81111561139d575f5ffd5b8301601f810185136113ad575f5ffd5b6113bc8582356020840161127e565b9150509250929050565b5f5b838110156113e05781810151838201526020016113c8565b50505f910152565b5f81518084526113ff8160208601602086016113c6565b601f01601f19169290920160200192915050565b602081525f6111f060208301846113e8565b5f60208284031215611435575f5ffd5b6111f08261134d565b5f5f6040838503121561144f575f5ffd5b6114588361134d565b9150602083013567ffffffffffffffff811115611473575f5ffd5b6113bc858286016112f5565b5f5f60208385031215611490575f5ffd5b823567ffffffffffffffff8111156114a6575f5ffd5b8301601f810185136114b6575f5ffd5b803567ffffffffffffffff8111156114cc575f5ffd5b8560208260051b84010111156114e0575f5ffd5b6020919091019590945092505050565b5f602082016020835280845180835260408501915060408160051b8601019250602086015f5b8281101561156757868503603f19018452815180516001600160a01b03168652602090810151604091870182905290611551908701826113e8565b9550506020938401939190910190600101611516565b50929695505050505050565b600181811c9082168061158757607f821691505b6020821081036115a557634e487b7160e01b5f52602260045260245ffd5b50919050565b5f5f83546115b881611573565b6001821680156115cf57600181146115e457611611565b60ff1983168652811515820286019350611611565b865f5260205f205f5b83811015611609578154888201526001909101906020016115ed565b505081860193505b509195945050505050565b6001600160a01b03831681526040602082018190525f90611345908301846113e8565b634e487b7160e01b5f52603260045260245ffd5b634e487b7160e01b5f52601160045260245ffd5b5f6001820161167857611678611653565b5060010190565b8181038181111561030d5761030d611653565b8082018082111561030d5761030d611653565b601f82111561058d57805f5260205f20601f840160051c810160208510156116ca5750805b601f840160051c820191505b81811015610499575f81556001016116d6565b815167ffffffffffffffff8111156117035761170361126a565b611717816117118454611573565b846116a5565b6020601f821160018114611749575f83156117325750848201515b5f19600385901b1c1916600184901b178455610499565b5f84815260208120601f198516915b828110156117785787850151825560209485019460019092019101611758565b508482101561179557868401515f19600387901b60f8161c191681555b50505050600190811b01905550565b6001600160a01b03841681526060602082018190525f906117c7908301856113e8565b82810360408401526117d981856113e8565b9695505050505050565b5f602082840312156117f3575f5ffd5b5051919050565b5f825161180b8184602087016113c6565b919091019291505056fe360894a13ba1a3210667c828492db98dca3e2076cc3735a920a3ca505d382bbca264697066735822122010ce56e2426e70ab731e9d8fc46d4451352ab7986e5cfd3f725c82abbb3222bc64736f6c634300081b0033",
		"linkReferences": {}
	},
	"methodIdentifiers": {
		"UPGRADE_INTERFACE_VERSION()": "ad3cb1cc",
		"addUsername(address,string)": "e5abdcef",
		"getUsername(address)": "ce43c032",
		"getUsernames(address[])": "f5ab196e",
		"initialize()": "8129fc1c",
		"isUsernameRegistered(string)": "52ac2091",
		"isUsernameValid(string)": "117720be",
		"owner()": "8da5cb5b",
		"proxiableUUID()": "52d1902d",
		"registerUsername(string)": "36a94134",
		"renounceOwnership()": "715018a6",
		"resignUsername()": "ebed6dab",
		"transferOwnership(address)": "f2fde38b",
		"upgradeToAndCall(address,bytes)": "4f1ef286",
		"version()": "54fd4d50"
	},
	"id": 37
}